{
  "contractName": "Pixels",
  "abi": [
    {
      "inputs": [],
      "stateMutability": "nonpayable",
      "type": "constructor"
    },
    {
      "anonymous": false,
      "inputs": [
        {
          "indexed": true,
          "internalType": "address",
          "name": "owner",
          "type": "address"
        },
        {
          "indexed": true,
          "internalType": "address",
          "name": "approved",
          "type": "address"
        },
        {
          "indexed": true,
          "internalType": "uint256",
          "name": "tokenId",
          "type": "uint256"
        }
      ],
      "name": "Approval",
      "type": "event"
    },
    {
      "anonymous": false,
      "inputs": [
        {
          "indexed": true,
          "internalType": "address",
          "name": "owner",
          "type": "address"
        },
        {
          "indexed": true,
          "internalType": "address",
          "name": "operator",
          "type": "address"
        },
        {
          "indexed": false,
          "internalType": "bool",
          "name": "approved",
          "type": "bool"
        }
      ],
      "name": "ApprovalForAll",
      "type": "event"
    },
    {
      "anonymous": false,
      "inputs": [
        {
          "indexed": true,
          "internalType": "address",
          "name": "previousOwner",
          "type": "address"
        },
        {
          "indexed": true,
          "internalType": "address",
          "name": "newOwner",
          "type": "address"
        }
      ],
      "name": "OwnershipTransferred",
      "type": "event"
    },
    {
      "anonymous": false,
      "inputs": [
        {
          "indexed": false,
          "internalType": "address",
          "name": "owner",
          "type": "address"
        },
        {
          "indexed": false,
          "internalType": "bytes3",
          "name": "newColour",
          "type": "bytes3"
        },
        {
          "indexed": false,
          "internalType": "uint256",
          "name": "pixelId",
          "type": "uint256"
        }
      ],
      "name": "PixelColourChanged",
      "type": "event"
    },
    {
      "anonymous": false,
      "inputs": [
        {
          "indexed": false,
          "internalType": "uint256",
          "name": "date",
          "type": "uint256"
        },
        {
          "indexed": true,
          "internalType": "address",
          "name": "to",
          "type": "address"
        },
        {
          "indexed": false,
          "internalType": "uint256",
          "name": "pixelId",
          "type": "uint256"
        }
      ],
      "name": "PixelMinted",
      "type": "event"
    },
    {
      "anonymous": false,
      "inputs": [
        {
          "indexed": true,
          "internalType": "address",
          "name": "from",
          "type": "address"
        },
        {
          "indexed": true,
          "internalType": "address",
          "name": "to",
          "type": "address"
        },
        {
          "indexed": true,
          "internalType": "uint256",
          "name": "tokenId",
          "type": "uint256"
        }
      ],
      "name": "Transfer",
      "type": "event"
    },
    {
      "inputs": [],
      "name": "_gridsize",
      "outputs": [
        {
          "internalType": "uint256",
          "name": "",
          "type": "uint256"
        }
      ],
      "stateMutability": "view",
      "type": "function",
      "constant": true
    },
    {
      "inputs": [
        {
          "internalType": "uint256",
          "name": "",
          "type": "uint256"
        }
      ],
      "name": "_pixelColours",
      "outputs": [
        {
          "internalType": "bytes3",
          "name": "",
          "type": "bytes3"
        }
      ],
      "stateMutability": "view",
      "type": "function",
      "constant": true
    },
    {
      "inputs": [
        {
          "internalType": "uint256",
          "name": "",
          "type": "uint256"
        }
      ],
      "name": "_pixelOwned",
      "outputs": [
        {
          "internalType": "bool",
          "name": "",
          "type": "bool"
        }
      ],
      "stateMutability": "view",
      "type": "function",
      "constant": true
    },
    {
      "inputs": [],
      "name": "_pixelPrice",
      "outputs": [
        {
          "internalType": "uint256",
          "name": "",
          "type": "uint256"
        }
      ],
      "stateMutability": "view",
      "type": "function",
      "constant": true
    },
    {
      "inputs": [],
      "name": "_totalPixels",
      "outputs": [
        {
          "internalType": "uint256",
          "name": "",
          "type": "uint256"
        }
      ],
      "stateMutability": "view",
      "type": "function",
      "constant": true
    },
    {
      "inputs": [
        {
          "internalType": "address",
          "name": "to",
          "type": "address"
        },
        {
          "internalType": "uint256",
          "name": "tokenId",
          "type": "uint256"
        }
      ],
      "name": "approve",
      "outputs": [],
      "stateMutability": "nonpayable",
      "type": "function"
    },
    {
      "inputs": [
        {
          "internalType": "address",
          "name": "owner",
          "type": "address"
        }
      ],
      "name": "balanceOf",
      "outputs": [
        {
          "internalType": "uint256",
          "name": "",
          "type": "uint256"
        }
      ],
      "stateMutability": "view",
      "type": "function",
      "constant": true
    },
    {
      "inputs": [
        {
          "internalType": "uint256",
          "name": "tokenId",
          "type": "uint256"
        }
      ],
      "name": "getApproved",
      "outputs": [
        {
          "internalType": "address",
          "name": "",
          "type": "address"
        }
      ],
      "stateMutability": "view",
      "type": "function",
      "constant": true
    },
    {
      "inputs": [
        {
          "internalType": "address",
          "name": "owner",
          "type": "address"
        },
        {
          "internalType": "address",
          "name": "operator",
          "type": "address"
        }
      ],
      "name": "isApprovedForAll",
      "outputs": [
        {
          "internalType": "bool",
          "name": "",
          "type": "bool"
        }
      ],
      "stateMutability": "view",
      "type": "function",
      "constant": true
    },
    {
      "inputs": [],
      "name": "name",
      "outputs": [
        {
          "internalType": "string",
          "name": "",
          "type": "string"
        }
      ],
      "stateMutability": "view",
      "type": "function",
      "constant": true
    },
    {
      "inputs": [],
      "name": "owner",
      "outputs": [
        {
          "internalType": "address",
          "name": "",
          "type": "address"
        }
      ],
      "stateMutability": "view",
      "type": "function",
      "constant": true
    },
    {
      "inputs": [
        {
          "internalType": "uint256",
          "name": "tokenId",
          "type": "uint256"
        }
      ],
      "name": "ownerOf",
      "outputs": [
        {
          "internalType": "address",
          "name": "",
          "type": "address"
        }
      ],
      "stateMutability": "view",
      "type": "function",
      "constant": true
    },
    {
      "inputs": [],
      "name": "renounceOwnership",
      "outputs": [],
      "stateMutability": "nonpayable",
      "type": "function"
    },
    {
      "inputs": [
        {
          "internalType": "address",
          "name": "from",
          "type": "address"
        },
        {
          "internalType": "address",
          "name": "to",
          "type": "address"
        },
        {
          "internalType": "uint256",
          "name": "tokenId",
          "type": "uint256"
        }
      ],
      "name": "safeTransferFrom",
      "outputs": [],
      "stateMutability": "nonpayable",
      "type": "function"
    },
    {
      "inputs": [
        {
          "internalType": "address",
          "name": "from",
          "type": "address"
        },
        {
          "internalType": "address",
          "name": "to",
          "type": "address"
        },
        {
          "internalType": "uint256",
          "name": "tokenId",
          "type": "uint256"
        },
        {
          "internalType": "bytes",
          "name": "_data",
          "type": "bytes"
        }
      ],
      "name": "safeTransferFrom",
      "outputs": [],
      "stateMutability": "nonpayable",
      "type": "function"
    },
    {
      "inputs": [
        {
          "internalType": "address",
          "name": "operator",
          "type": "address"
        },
        {
          "internalType": "bool",
          "name": "approved",
          "type": "bool"
        }
      ],
      "name": "setApprovalForAll",
      "outputs": [],
      "stateMutability": "nonpayable",
      "type": "function"
    },
    {
      "inputs": [
        {
          "internalType": "bytes4",
          "name": "interfaceId",
          "type": "bytes4"
        }
      ],
      "name": "supportsInterface",
      "outputs": [
        {
          "internalType": "bool",
          "name": "",
          "type": "bool"
        }
      ],
      "stateMutability": "view",
      "type": "function",
      "constant": true
    },
    {
      "inputs": [],
      "name": "symbol",
      "outputs": [
        {
          "internalType": "string",
          "name": "",
          "type": "string"
        }
      ],
      "stateMutability": "view",
      "type": "function",
      "constant": true
    },
    {
      "inputs": [
        {
          "internalType": "uint256",
          "name": "tokenId",
          "type": "uint256"
        }
      ],
      "name": "tokenURI",
      "outputs": [
        {
          "internalType": "string",
          "name": "",
          "type": "string"
        }
      ],
      "stateMutability": "view",
      "type": "function",
      "constant": true
    },
    {
      "inputs": [
        {
          "internalType": "address",
          "name": "from",
          "type": "address"
        },
        {
          "internalType": "address",
          "name": "to",
          "type": "address"
        },
        {
          "internalType": "uint256",
          "name": "tokenId",
          "type": "uint256"
        }
      ],
      "name": "transferFrom",
      "outputs": [],
      "stateMutability": "nonpayable",
      "type": "function"
    },
    {
      "inputs": [
        {
          "internalType": "address",
          "name": "newOwner",
          "type": "address"
        }
      ],
      "name": "transferOwnership",
      "outputs": [],
      "stateMutability": "nonpayable",
      "type": "function"
    },
    {
      "inputs": [
        {
          "internalType": "uint256",
          "name": "_newPrice",
          "type": "uint256"
        }
      ],
      "name": "setTokenPrice",
      "outputs": [],
      "stateMutability": "nonpayable",
      "type": "function"
    },
    {
      "inputs": [
        {
          "internalType": "uint256",
          "name": "_pixelId",
          "type": "uint256"
        }
      ],
      "name": "mint",
      "outputs": [],
      "stateMutability": "payable",
      "type": "function",
      "payable": true
    },
    {
      "inputs": [
        {
          "internalType": "uint256",
          "name": "_pixelId",
          "type": "uint256"
        },
        {
          "internalType": "bytes3",
          "name": "_newColour",
          "type": "bytes3"
        }
      ],
      "name": "mint",
      "outputs": [],
      "stateMutability": "payable",
      "type": "function",
      "payable": true
    },
    {
      "inputs": [
        {
          "internalType": "uint256[]",
          "name": "_pixelIds",
          "type": "uint256[]"
        },
        {
          "internalType": "bytes3[]",
          "name": "_newColours",
          "type": "bytes3[]"
        }
      ],
      "name": "mintMultiple",
      "outputs": [],
      "stateMutability": "payable",
      "type": "function",
      "payable": true
    },
    {
      "inputs": [],
      "name": "getBalance",
      "outputs": [
        {
          "internalType": "uint256",
          "name": "",
          "type": "uint256"
        }
      ],
      "stateMutability": "view",
      "type": "function",
      "constant": true
    },
    {
      "inputs": [
        {
          "internalType": "uint256",
          "name": "amount",
          "type": "uint256"
        }
      ],
      "name": "withdrawAmount",
      "outputs": [],
      "stateMutability": "nonpayable",
      "type": "function"
    },
    {
      "inputs": [
        {
          "internalType": "uint256",
          "name": "_pixelId",
          "type": "uint256"
        },
        {
          "internalType": "bytes3",
          "name": "_newColour",
          "type": "bytes3"
        }
      ],
      "name": "changePixelColor",
      "outputs": [],
      "stateMutability": "nonpayable",
      "type": "function"
    },
    {
      "inputs": [
        {
          "internalType": "uint256[]",
          "name": "_pixelIds",
          "type": "uint256[]"
        },
        {
          "internalType": "bytes3[]",
          "name": "_newColours",
          "type": "bytes3[]"
        }
      ],
      "name": "changePixelColorMultiple",
      "outputs": [],
      "stateMutability": "nonpayable",
      "type": "function"
    },
    {
      "inputs": [
        {
          "internalType": "uint256",
          "name": "_pixelId",
          "type": "uint256"
        }
      ],
      "name": "getPixelColour",
      "outputs": [
        {
          "internalType": "bytes3",
          "name": "",
          "type": "bytes3"
        }
      ],
      "stateMutability": "view",
      "type": "function",
      "constant": true
    },
    {
      "inputs": [
        {
          "internalType": "uint256",
          "name": "_pixelId",
          "type": "uint256"
        }
      ],
      "name": "isPixelOwned",
      "outputs": [
        {
          "internalType": "bool",
          "name": "",
          "type": "bool"
        }
      ],
      "stateMutability": "view",
      "type": "function",
      "constant": true
    }
  ],
  "bytecode": "0x60806040526103e86007556007546007546200001c9190620002b4565b60085565e35fa931a0006009553480156200003657600080fd5b506040518060400160405280600681526020017f506978656c7300000000000000000000000000000000000000000000000000008152506040518060400160405280600381526020017f50495800000000000000000000000000000000000000000000000000000000008152508160009080519060200190620000bb929190620001cb565b508060019080519060200190620000d4929190620001cb565b505050620000f7620000eb620000fd60201b60201c565b6200010560201b60201c565b6200037a565b600033905090565b6000600660009054906101000a900473ffffffffffffffffffffffffffffffffffffffff16905081600660006101000a81548173ffffffffffffffffffffffffffffffffffffffff021916908373ffffffffffffffffffffffffffffffffffffffff1602179055508173ffffffffffffffffffffffffffffffffffffffff168173ffffffffffffffffffffffffffffffffffffffff167f8be0079c531659141344cd1fd0a4f28419497f9722a3daafe3b4186f6b6457e060405160405180910390a35050565b828054620001d99062000344565b90600052602060002090601f016020900481019282620001fd576000855562000249565b82601f106200021857805160ff191683800117855562000249565b8280016001018555821562000249579182015b82811115620002485782518255916020019190600101906200022b565b5b5090506200025891906200025c565b5090565b5b80821115620002775760008160009055506001016200025d565b5090565b6000819050919050565b7f4e487b7100000000000000000000000000000000000000000000000000000000600052601160045260246000fd5b6000620002c1826200027b565b9150620002ce836200027b565b9250817fffffffffffffffffffffffffffffffffffffffffffffffffffffffffffffffff04831182151516156200030a576200030962000285565b5b828202905092915050565b7f4e487b7100000000000000000000000000000000000000000000000000000000600052602260045260246000fd5b600060028204905060018216806200035d57607f821691505b6020821081141562000374576200037362000315565b5b50919050565b613d27806200038a6000396000f3fe6080604052600436106101d85760003560e01c80638da5cb5b11610102578063d280160011610095578063f0dad05d11610064578063f0dad05d146106d6578063f2fde38b146106f2578063f5adb59a1461071b578063fff4ca9c14610746576101d8565b8063d280160014610617578063e1614e1514610633578063e985e9c514610670578063efbd975b146106ad576101d8565b8063a22cb465116100d1578063a22cb4651461055d578063afccaf6514610586578063b88d4fde146105b1578063c87b56dd146105da576101d8565b80638da5cb5b146104ae57806395d89b41146104d95780639631cb3414610504578063a0712d6814610541576101d8565b80631d886c011161017a578063642fd0f611610149578063642fd0f6146103f45780636a61e5fc1461043157806370a082311461045a578063715018a614610497576101d8565b80631d886c011461033c57806323b872dd1461036557806342842e0e1461038e5780636352211e146103b7576101d8565b8063081812fc116101b6578063081812fc1461026e578063095ea7b3146102ab57806312065fe0146102d45780631aec1f15146102ff576101d8565b806301ffc9a7146101dd5780630562b9f71461021a57806306fdde0314610243575b600080fd5b3480156101e957600080fd5b5061020460048036038101906101ff9190612539565b610771565b6040516102119190612581565b60405180910390f35b34801561022657600080fd5b50610241600480360381019061023c91906125d2565b610853565b005b34801561024f57600080fd5b50610258610963565b6040516102659190612698565b60405180910390f35b34801561027a57600080fd5b50610295600480360381019061029091906125d2565b6109f5565b6040516102a291906126fb565b60405180910390f35b3480156102b757600080fd5b506102d260048036038101906102cd9190612742565b610a7a565b005b3480156102e057600080fd5b506102e9610b92565b6040516102f69190612791565b60405180910390f35b34801561030b57600080fd5b50610326600480360381019061032191906125d2565b610b9a565b60405161033391906127e7565b60405180910390f35b34801561034857600080fd5b50610363600480360381019061035e9190612a39565b610bba565b005b34801561037157600080fd5b5061038c60048036038101906103879190612ab1565b610c60565b005b34801561039a57600080fd5b506103b560048036038101906103b09190612ab1565b610cc0565b005b3480156103c357600080fd5b506103de60048036038101906103d991906125d2565b610ce0565b6040516103eb91906126fb565b60405180910390f35b34801561040057600080fd5b5061041b600480360381019061041691906125d2565b610d92565b60405161042891906127e7565b60405180910390f35b34801561043d57600080fd5b50610458600480360381019061045391906125d2565b610e33565b005b34801561046657600080fd5b50610481600480360381019061047c9190612b04565b610eb9565b60405161048e9190612791565b60405180910390f35b3480156104a357600080fd5b506104ac610f71565b005b3480156104ba57600080fd5b506104c3610ff9565b6040516104d091906126fb565b60405180910390f35b3480156104e557600080fd5b506104ee611023565b6040516104fb9190612698565b60405180910390f35b34801561051057600080fd5b5061052b600480360381019061052691906125d2565b6110b5565b6040516105389190612581565b60405180910390f35b61055b600480360381019061055691906125d2565b611123565b005b34801561056957600080fd5b50610584600480360381019061057f9190612b5d565b611136565b005b34801561059257600080fd5b5061059b61114c565b6040516105a89190612791565b60405180910390f35b3480156105bd57600080fd5b506105d860048036038101906105d39190612c52565b611152565b005b3480156105e657600080fd5b5061060160048036038101906105fc91906125d2565b6111b4565b60405161060e9190612698565b60405180910390f35b610631600480360381019061062c9190612a39565b61125b565b005b34801561063f57600080fd5b5061065a600480360381019061065591906125d2565b611352565b6040516106679190612581565b60405180910390f35b34801561067c57600080fd5b5061069760048036038101906106929190612cd5565b611372565b6040516106a49190612581565b60405180910390f35b3480156106b957600080fd5b506106d460048036038101906106cf9190612d15565b611406565b005b6106f060048036038101906106eb9190612d15565b61152d565b005b3480156106fe57600080fd5b5061071960048036038101906107149190612b04565b61170a565b005b34801561072757600080fd5b50610730611802565b60405161073d9190612791565b60405180910390f35b34801561075257600080fd5b5061075b611808565b6040516107689190612791565b60405180910390f35b60007f80ac58cd000000000000000000000000000000000000000000000000000000007bffffffffffffffffffffffffffffffffffffffffffffffffffffffff1916827bffffffffffffffffffffffffffffffffffffffffffffffffffffffff1916148061083c57507f5b5e139f000000000000000000000000000000000000000000000000000000007bffffffffffffffffffffffffffffffffffffffffffffffffffffffff1916827bffffffffffffffffffffffffffffffffffffffffffffffffffffffff1916145b8061084c575061084b8261180e565b5b9050919050565b61085b611878565b73ffffffffffffffffffffffffffffffffffffffff16610879610ff9565b73ffffffffffffffffffffffffffffffffffffffff16146108cf576040517f08c379a00000000000000000000000000000000000000000000000000000000081526004016108c690612da1565b60405180910390fd5b6108d7610b92565b811115610919576040517f08c379a000000000000000000000000000000000000000000000000000000000815260040161091090612e0d565b60405180910390fd5b3373ffffffffffffffffffffffffffffffffffffffff166108fc829081150290604051600060405180830381858888f1935050505015801561095f573d6000803e3d6000fd5b5050565b60606000805461097290612e5c565b80601f016020809104026020016040519081016040528092919081815260200182805461099e90612e5c565b80156109eb5780601f106109c0576101008083540402835291602001916109eb565b820191906000526020600020905b8154815290600101906020018083116109ce57829003601f168201915b5050505050905090565b6000610a0082611880565b610a3f576040517f08c379a0000000000000000000000000000000000000000000000000000000008152600401610a3690612f00565b60405180910390fd5b6004600083815260200190815260200160002060009054906101000a900473ffffffffffffffffffffffffffffffffffffffff169050919050565b6000610a8582610ce0565b90508073ffffffffffffffffffffffffffffffffffffffff168373ffffffffffffffffffffffffffffffffffffffff161415610af6576040517f08c379a0000000000000000000000000000000000000000000000000000000008152600401610aed90612f92565b60405180910390fd5b8073ffffffffffffffffffffffffffffffffffffffff16610b15611878565b73ffffffffffffffffffffffffffffffffffffffff161480610b445750610b4381610b3e611878565b611372565b5b610b83576040517f08c379a0000000000000000000000000000000000000000000000000000000008152600401610b7a90613024565b60405180910390fd5b610b8d83836118ec565b505050565b600047905090565b600a6020528060005260406000206000915054906101000a900460e81b81565b8051825114610bfe576040517f08c379a0000000000000000000000000000000000000000000000000000000008152600401610bf590613090565b60405180910390fd5b60005b8251811015610c5b57610c48838281518110610c2057610c1f6130b0565b5b6020026020010151838381518110610c3b57610c3a6130b0565b5b6020026020010151611406565b8080610c539061310e565b915050610c01565b505050565b610c71610c6b611878565b826119a5565b610cb0576040517f08c379a0000000000000000000000000000000000000000000000000000000008152600401610ca7906131c9565b60405180910390fd5b610cbb838383611a83565b505050565b610cdb83838360405180602001604052806000815250611152565b505050565b6000806002600084815260200190815260200160002060009054906101000a900473ffffffffffffffffffffffffffffffffffffffff169050600073ffffffffffffffffffffffffffffffffffffffff168173ffffffffffffffffffffffffffffffffffffffff161415610d89576040517f08c379a0000000000000000000000000000000000000000000000000000000008152600401610d809061325b565b60405180910390fd5b80915050919050565b60006008548210610dd8576040517f08c379a0000000000000000000000000000000000000000000000000000000008152600401610dcf906132c7565b60405180910390fd5b600b600083815260200190815260200160002060009054906101000a900460ff1615610e2657600a600083815260200190815260200160002060009054906101000a900460e81b9050610e2e565b600160e81b90505b919050565b610e3b611878565b73ffffffffffffffffffffffffffffffffffffffff16610e59610ff9565b73ffffffffffffffffffffffffffffffffffffffff1614610eaf576040517f08c379a0000000000000000000000000000000000000000000000000000000008152600401610ea690612da1565b60405180910390fd5b8060098190555050565b60008073ffffffffffffffffffffffffffffffffffffffff168273ffffffffffffffffffffffffffffffffffffffff161415610f2a576040517f08c379a0000000000000000000000000000000000000000000000000000000008152600401610f2190613359565b60405180910390fd5b600360008373ffffffffffffffffffffffffffffffffffffffff1673ffffffffffffffffffffffffffffffffffffffff168152602001908152602001600020549050919050565b610f79611878565b73ffffffffffffffffffffffffffffffffffffffff16610f97610ff9565b73ffffffffffffffffffffffffffffffffffffffff1614610fed576040517f08c379a0000000000000000000000000000000000000000000000000000000008152600401610fe490612da1565b60405180910390fd5b610ff76000611cdf565b565b6000600660009054906101000a900473ffffffffffffffffffffffffffffffffffffffff16905090565b60606001805461103290612e5c565b80601f016020809104026020016040519081016040528092919081815260200182805461105e90612e5c565b80156110ab5780601f10611080576101008083540402835291602001916110ab565b820191906000526020600020905b81548152906001019060200180831161108e57829003601f168201915b5050505050905090565b600060085482106110fb576040517f08c379a00000000000000000000000000000000000000000000000000000000081526004016110f2906132c7565b60405180910390fd5b600b600083815260200190815260200160002060009054906101000a900460ff169050919050565b611133816211111160e81b61152d565b50565b611148611141611878565b8383611da5565b5050565b60095481565b61116361115d611878565b836119a5565b6111a2576040517f08c379a0000000000000000000000000000000000000000000000000000000008152600401611199906131c9565b60405180910390fd5b6111ae84848484611f12565b50505050565b60606111bf82611880565b6111fe576040517f08c379a00000000000000000000000000000000000000000000000000000000081526004016111f5906133eb565b60405180910390fd5b6000611208611f6e565b905060008151116112285760405180602001604052806000815250611253565b8061123284611f85565b604051602001611243929190613447565b6040516020818303038152906040525b915050919050565b600954825161126a919061346b565b3410156112ac576040517f08c379a00000000000000000000000000000000000000000000000000000000081526004016112a390613511565b60405180910390fd5b80518251146112f0576040517f08c379a00000000000000000000000000000000000000000000000000000000081526004016112e790613090565b60405180910390fd5b60005b825181101561134d5761133a838281518110611312576113116130b0565b5b602002602001015183838151811061132d5761132c6130b0565b5b602002602001015161152d565b80806113459061310e565b9150506112f3565b505050565b600b6020528060005260406000206000915054906101000a900460ff1681565b6000600560008473ffffffffffffffffffffffffffffffffffffffff1673ffffffffffffffffffffffffffffffffffffffff16815260200190815260200160002060008373ffffffffffffffffffffffffffffffffffffffff1673ffffffffffffffffffffffffffffffffffffffff16815260200190815260200160002060009054906101000a900460ff16905092915050565b600854821061144a576040517f08c379a0000000000000000000000000000000000000000000000000000000008152600401611441906132c7565b60405180910390fd5b3373ffffffffffffffffffffffffffffffffffffffff1661146a83610ce0565b73ffffffffffffffffffffffffffffffffffffffff16146114c0576040517f08c379a00000000000000000000000000000000000000000000000000000000081526004016114b79061357d565b60405180910390fd5b80600a600084815260200190815260200160002060006101000a81548162ffffff021916908360e81c02179055507f98a0e7ec1b61c69699ea733cf97ede142a1217dc2a8f2f64849d93689652ce1c3382846040516115219392919061359d565b60405180910390a15050565b600b600083815260200190815260200160002060009054906101000a900460ff161561158e576040517f08c379a000000000000000000000000000000000000000000000000000000000815260040161158590613620565b60405180910390fd5b60085482106115d2576040517f08c379a00000000000000000000000000000000000000000000000000000000081526004016115c99061368c565b60405180910390fd5b600954341015611617576040517f08c379a000000000000000000000000000000000000000000000000000000000815260040161160e90613511565b60405180910390fd5b6001600b600084815260200190815260200160002060006101000a81548160ff02191690831515021790555080600a600084815260200190815260200160002060006101000a81548162ffffff021916908360e81c021790555061167b33836120e6565b3373ffffffffffffffffffffffffffffffffffffffff167fa3c5a07f63c391102daa3f8b260023afa2b5a1976a137e50be84de2c5763ae7242846040516116c39291906136ac565b60405180910390a27f98a0e7ec1b61c69699ea733cf97ede142a1217dc2a8f2f64849d93689652ce1c3382846040516116fe9392919061359d565b60405180910390a15050565b611712611878565b73ffffffffffffffffffffffffffffffffffffffff16611730610ff9565b73ffffffffffffffffffffffffffffffffffffffff1614611786576040517f08c379a000000000000000000000000000000000000000000000000000000000815260040161177d90612da1565b60405180910390fd5b600073ffffffffffffffffffffffffffffffffffffffff168173ffffffffffffffffffffffffffffffffffffffff1614156117f6576040517f08c379a00000000000000000000000000000000000000000000000000000000081526004016117ed90613747565b60405180910390fd5b6117ff81611cdf565b50565b60075481565b60085481565b60007f01ffc9a7000000000000000000000000000000000000000000000000000000007bffffffffffffffffffffffffffffffffffffffffffffffffffffffff1916827bffffffffffffffffffffffffffffffffffffffffffffffffffffffff1916149050919050565b600033905090565b60008073ffffffffffffffffffffffffffffffffffffffff166002600084815260200190815260200160002060009054906101000a900473ffffffffffffffffffffffffffffffffffffffff1673ffffffffffffffffffffffffffffffffffffffff1614159050919050565b816004600083815260200190815260200160002060006101000a81548173ffffffffffffffffffffffffffffffffffffffff021916908373ffffffffffffffffffffffffffffffffffffffff160217905550808273ffffffffffffffffffffffffffffffffffffffff1661195f83610ce0565b73ffffffffffffffffffffffffffffffffffffffff167f8c5be1e5ebec7d5bd14f71427d1e84f3dd0314c0f7b2291e5b200ac8c7c3b92560405160405180910390a45050565b60006119b082611880565b6119ef576040517f08c379a00000000000000000000000000000000000000000000000000000000081526004016119e6906137d9565b60405180910390fd5b60006119fa83610ce0565b90508073ffffffffffffffffffffffffffffffffffffffff168473ffffffffffffffffffffffffffffffffffffffff161480611a6957508373ffffffffffffffffffffffffffffffffffffffff16611a51846109f5565b73ffffffffffffffffffffffffffffffffffffffff16145b80611a7a5750611a798185611372565b5b91505092915050565b8273ffffffffffffffffffffffffffffffffffffffff16611aa382610ce0565b73ffffffffffffffffffffffffffffffffffffffff1614611af9576040517f08c379a0000000000000000000000000000000000000000000000000000000008152600401611af09061386b565b60405180910390fd5b600073ffffffffffffffffffffffffffffffffffffffff168273ffffffffffffffffffffffffffffffffffffffff161415611b69576040517f08c379a0000000000000000000000000000000000000000000000000000000008152600401611b60906138fd565b60405180910390fd5b611b74838383612104565b611b7f6000826118ec565b6001600360008573ffffffffffffffffffffffffffffffffffffffff1673ffffffffffffffffffffffffffffffffffffffff1681526020019081526020016000206000828254611bcf919061391d565b925050819055506001600360008473ffffffffffffffffffffffffffffffffffffffff1673ffffffffffffffffffffffffffffffffffffffff1681526020019081526020016000206000828254611c269190613951565b92505081905550816002600083815260200190815260200160002060006101000a81548173ffffffffffffffffffffffffffffffffffffffff021916908373ffffffffffffffffffffffffffffffffffffffff160217905550808273ffffffffffffffffffffffffffffffffffffffff168473ffffffffffffffffffffffffffffffffffffffff167fddf252ad1be2c89b69c2b068fc378daa952ba7f163c4a11628f55a4df523b3ef60405160405180910390a4505050565b6000600660009054906101000a900473ffffffffffffffffffffffffffffffffffffffff16905081600660006101000a81548173ffffffffffffffffffffffffffffffffffffffff021916908373ffffffffffffffffffffffffffffffffffffffff1602179055508173ffffffffffffffffffffffffffffffffffffffff168173ffffffffffffffffffffffffffffffffffffffff167f8be0079c531659141344cd1fd0a4f28419497f9722a3daafe3b4186f6b6457e060405160405180910390a35050565b8173ffffffffffffffffffffffffffffffffffffffff168373ffffffffffffffffffffffffffffffffffffffff161415611e14576040517f08c379a0000000000000000000000000000000000000000000000000000000008152600401611e0b906139f3565b60405180910390fd5b80600560008573ffffffffffffffffffffffffffffffffffffffff1673ffffffffffffffffffffffffffffffffffffffff16815260200190815260200160002060008473ffffffffffffffffffffffffffffffffffffffff1673ffffffffffffffffffffffffffffffffffffffff16815260200190815260200160002060006101000a81548160ff0219169083151502179055508173ffffffffffffffffffffffffffffffffffffffff168373ffffffffffffffffffffffffffffffffffffffff167f17307eab39ab6107e8899845ad3d59bd9653f200f220920489ca2b5937696c3183604051611f059190612581565b60405180910390a3505050565b611f1d848484611a83565b611f2984848484612109565b611f68576040517f08c379a0000000000000000000000000000000000000000000000000000000008152600401611f5f90613a85565b60405180910390fd5b50505050565b606060405180602001604052806000815250905090565b60606000821415611fcd576040518060400160405280600181526020017f300000000000000000000000000000000000000000000000000000000000000081525090506120e1565b600082905060005b60008214611fff578080611fe89061310e565b915050600a82611ff89190613ad4565b9150611fd5565b60008167ffffffffffffffff81111561201b5761201a612807565b5b6040519080825280601f01601f19166020018201604052801561204d5781602001600182028036833780820191505090505b5090505b600085146120da57600182612066919061391d565b9150600a856120759190613b05565b60306120819190613951565b60f81b818381518110612097576120966130b0565b5b60200101907effffffffffffffffffffffffffffffffffffffffffffffffffffffffffffff1916908160001a905350600a856120d39190613ad4565b9450612051565b8093505050505b919050565b612100828260405180602001604052806000815250612291565b5050565b505050565b600061212a8473ffffffffffffffffffffffffffffffffffffffff166122ec565b15612284578373ffffffffffffffffffffffffffffffffffffffff1663150b7a02612153611878565b8786866040518563ffffffff1660e01b81526004016121759493929190613b8b565b6020604051808303816000875af19250505080156121b157506040513d601f19601f820116820180604052508101906121ae9190613bec565b60015b612234573d80600081146121e1576040519150601f19603f3d011682016040523d82523d6000602084013e6121e6565b606091505b5060008151141561222c576040517f08c379a000000000000000000000000000000000000000000000000000000000815260040161222390613a85565b60405180910390fd5b805181602001fd5b63150b7a0260e01b7bffffffffffffffffffffffffffffffffffffffffffffffffffffffff1916817bffffffffffffffffffffffffffffffffffffffffffffffffffffffff191614915050612289565b600190505b949350505050565b61229b83836122ff565b6122a86000848484612109565b6122e7576040517f08c379a00000000000000000000000000000000000000000000000000000000081526004016122de90613a85565b60405180910390fd5b505050565b600080823b905060008111915050919050565b600073ffffffffffffffffffffffffffffffffffffffff168273ffffffffffffffffffffffffffffffffffffffff16141561236f576040517f08c379a000000000000000000000000000000000000000000000000000000000815260040161236690613c65565b60405180910390fd5b61237881611880565b156123b8576040517f08c379a00000000000000000000000000000000000000000000000000000000081526004016123af90613cd1565b60405180910390fd5b6123c460008383612104565b6001600360008473ffffffffffffffffffffffffffffffffffffffff1673ffffffffffffffffffffffffffffffffffffffff16815260200190815260200160002060008282546124149190613951565b92505081905550816002600083815260200190815260200160002060006101000a81548173ffffffffffffffffffffffffffffffffffffffff021916908373ffffffffffffffffffffffffffffffffffffffff160217905550808273ffffffffffffffffffffffffffffffffffffffff16600073ffffffffffffffffffffffffffffffffffffffff167fddf252ad1be2c89b69c2b068fc378daa952ba7f163c4a11628f55a4df523b3ef60405160405180910390a45050565b6000604051905090565b600080fd5b600080fd5b60007fffffffff0000000000000000000000000000000000000000000000000000000082169050919050565b612516816124e1565b811461252157600080fd5b50565b6000813590506125338161250d565b92915050565b60006020828403121561254f5761254e6124d7565b5b600061255d84828501612524565b91505092915050565b60008115159050919050565b61257b81612566565b82525050565b60006020820190506125966000830184612572565b92915050565b6000819050919050565b6125af8161259c565b81146125ba57600080fd5b50565b6000813590506125cc816125a6565b92915050565b6000602082840312156125e8576125e76124d7565b5b60006125f6848285016125bd565b91505092915050565b600081519050919050565b600082825260208201905092915050565b60005b8381101561263957808201518184015260208101905061261e565b83811115612648576000848401525b50505050565b6000601f19601f8301169050919050565b600061266a826125ff565b612674818561260a565b935061268481856020860161261b565b61268d8161264e565b840191505092915050565b600060208201905081810360008301526126b2818461265f565b905092915050565b600073ffffffffffffffffffffffffffffffffffffffff82169050919050565b60006126e5826126ba565b9050919050565b6126f5816126da565b82525050565b600060208201905061271060008301846126ec565b92915050565b61271f816126da565b811461272a57600080fd5b50565b60008135905061273c81612716565b92915050565b60008060408385031215612759576127586124d7565b5b60006127678582860161272d565b9250506020612778858286016125bd565b9150509250929050565b61278b8161259c565b82525050565b60006020820190506127a66000830184612782565b92915050565b60007fffffff000000000000000000000000000000000000000000000000000000000082169050919050565b6127e1816127ac565b82525050565b60006020820190506127fc60008301846127d8565b92915050565b600080fd5b7f4e487b7100000000000000000000000000000000000000000000000000000000600052604160045260246000fd5b61283f8261264e565b810181811067ffffffffffffffff8211171561285e5761285d612807565b5b80604052505050565b60006128716124cd565b905061287d8282612836565b919050565b600067ffffffffffffffff82111561289d5761289c612807565b5b602082029050602081019050919050565b600080fd5b60006128c66128c184612882565b612867565b905080838252602082019050602084028301858111156128e9576128e86128ae565b5b835b8181101561291257806128fe88826125bd565b8452602084019350506020810190506128eb565b5050509392505050565b600082601f83011261293157612930612802565b5b81356129418482602086016128b3565b91505092915050565b600067ffffffffffffffff82111561296557612964612807565b5b602082029050602081019050919050565b61297f816127ac565b811461298a57600080fd5b50565b60008135905061299c81612976565b92915050565b60006129b56129b08461294a565b612867565b905080838252602082019050602084028301858111156129d8576129d76128ae565b5b835b81811015612a0157806129ed888261298d565b8452602084019350506020810190506129da565b5050509392505050565b600082601f830112612a2057612a1f612802565b5b8135612a308482602086016129a2565b91505092915050565b60008060408385031215612a5057612a4f6124d7565b5b600083013567ffffffffffffffff811115612a6e57612a6d6124dc565b5b612a7a8582860161291c565b925050602083013567ffffffffffffffff811115612a9b57612a9a6124dc565b5b612aa785828601612a0b565b9150509250929050565b600080600060608486031215612aca57612ac96124d7565b5b6000612ad88682870161272d565b9350506020612ae98682870161272d565b9250506040612afa868287016125bd565b9150509250925092565b600060208284031215612b1a57612b196124d7565b5b6000612b288482850161272d565b91505092915050565b612b3a81612566565b8114612b4557600080fd5b50565b600081359050612b5781612b31565b92915050565b60008060408385031215612b7457612b736124d7565b5b6000612b828582860161272d565b9250506020612b9385828601612b48565b9150509250929050565b600080fd5b600067ffffffffffffffff821115612bbd57612bbc612807565b5b612bc68261264e565b9050602081019050919050565b82818337600083830152505050565b6000612bf5612bf084612ba2565b612867565b905082815260208101848484011115612c1157612c10612b9d565b5b612c1c848285612bd3565b509392505050565b600082601f830112612c3957612c38612802565b5b8135612c49848260208601612be2565b91505092915050565b60008060008060808587031215612c6c57612c6b6124d7565b5b6000612c7a8782880161272d565b9450506020612c8b8782880161272d565b9350506040612c9c878288016125bd565b925050606085013567ffffffffffffffff811115612cbd57612cbc6124dc565b5b612cc987828801612c24565b91505092959194509250565b60008060408385031215612cec57612ceb6124d7565b5b6000612cfa8582860161272d565b9250506020612d0b8582860161272d565b9150509250929050565b60008060408385031215612d2c57612d2b6124d7565b5b6000612d3a858286016125bd565b9250506020612d4b8582860161298d565b9150509250929050565b7f4f776e61626c653a2063616c6c6572206973206e6f7420746865206f776e6572600082015250565b6000612d8b60208361260a565b9150612d9682612d55565b602082019050919050565b60006020820190508181036000830152612dba81612d7e565b9050919050565b7f496e73756666696369656e742066756e64730000000000000000000000000000600082015250565b6000612df760128361260a565b9150612e0282612dc1565b602082019050919050565b60006020820190508181036000830152612e2681612dea565b9050919050565b7f4e487b7100000000000000000000000000000000000000000000000000000000600052602260045260246000fd5b60006002820490506001821680612e7457607f821691505b60208210811415612e8857612e87612e2d565b5b50919050565b7f4552433732313a20617070726f76656420717565727920666f72206e6f6e657860008201527f697374656e7420746f6b656e0000000000000000000000000000000000000000602082015250565b6000612eea602c8361260a565b9150612ef582612e8e565b604082019050919050565b60006020820190508181036000830152612f1981612edd565b9050919050565b7f4552433732313a20617070726f76616c20746f2063757272656e74206f776e6560008201527f7200000000000000000000000000000000000000000000000000000000000000602082015250565b6000612f7c60218361260a565b9150612f8782612f20565b604082019050919050565b60006020820190508181036000830152612fab81612f6f565b9050919050565b7f4552433732313a20617070726f76652063616c6c6572206973206e6f74206f7760008201527f6e6572206e6f7220617070726f76656420666f7220616c6c0000000000000000602082015250565b600061300e60388361260a565b915061301982612fb2565b604082019050919050565b6000602082019050818103600083015261303d81613001565b9050919050565b7f417272617973206f6620696e636f6e73697374656e74206c656e677468000000600082015250565b600061307a601d8361260a565b915061308582613044565b602082019050919050565b600060208201905081810360008301526130a98161306d565b9050919050565b7f4e487b7100000000000000000000000000000000000000000000000000000000600052603260045260246000fd5b7f4e487b7100000000000000000000000000000000000000000000000000000000600052601160045260246000fd5b60006131198261259c565b91507fffffffffffffffffffffffffffffffffffffffffffffffffffffffffffffffff82141561314c5761314b6130df565b5b600182019050919050565b7f4552433732313a207472616e736665722063616c6c6572206973206e6f74206f60008201527f776e6572206e6f7220617070726f766564000000000000000000000000000000602082015250565b60006131b360318361260a565b91506131be82613157565b604082019050919050565b600060208201905081810360008301526131e2816131a6565b9050919050565b7f4552433732313a206f776e657220717565727920666f72206e6f6e657869737460008201527f656e7420746f6b656e0000000000000000000000000000000000000000000000602082015250565b600061324560298361260a565b9150613250826131e9565b604082019050919050565b6000602082019050818103600083015261327481613238565b9050919050565b7f506978656c206964206f7574206f662072616e67650000000000000000000000600082015250565b60006132b160158361260a565b91506132bc8261327b565b602082019050919050565b600060208201905081810360008301526132e0816132a4565b9050919050565b7f4552433732313a2062616c616e636520717565727920666f7220746865207a6560008201527f726f206164647265737300000000000000000000000000000000000000000000602082015250565b6000613343602a8361260a565b915061334e826132e7565b604082019050919050565b6000602082019050818103600083015261337281613336565b9050919050565b7f4552433732314d657461646174613a2055524920717565727920666f72206e6f60008201527f6e6578697374656e7420746f6b656e0000000000000000000000000000000000602082015250565b60006133d5602f8361260a565b91506133e082613379565b604082019050919050565b60006020820190508181036000830152613404816133c8565b9050919050565b600081905092915050565b6000613421826125ff565b61342b818561340b565b935061343b81856020860161261b565b80840191505092915050565b60006134538285613416565b915061345f8284613416565b91508190509392505050565b60006134768261259c565b91506134818361259c565b9250817fffffffffffffffffffffffffffffffffffffffffffffffffffffffffffffffff04831182151516156134ba576134b96130df565b5b828202905092915050565b7f4e6f2f20496e73756666696369656e7420666565732070726f76696465640000600082015250565b60006134fb601e8361260a565b9150613506826134c5565b602082019050919050565b6000602082019050818103600083015261352a816134ee565b9050919050565b7f53656e646572206973206e6f7420506978656c206f776e657200000000000000600082015250565b600061356760198361260a565b915061357282613531565b602082019050919050565b600060208201905081810360008301526135968161355a565b9050919050565b60006060820190506135b260008301866126ec565b6135bf60208301856127d8565b6135cc6040830184612782565b949350505050565b7f506978656c20697320616c7265616479206f776e656400000000000000000000600082015250565b600061360a60168361260a565b9150613615826135d4565b602082019050919050565b60006020820190508181036000830152613639816135fd565b9050919050565b7f506978656c206f7574206f662072616e67650000000000000000000000000000600082015250565b600061367660128361260a565b915061368182613640565b602082019050919050565b600060208201905081810360008301526136a581613669565b9050919050565b60006040820190506136c16000830185612782565b6136ce6020830184612782565b9392505050565b7f4f776e61626c653a206e6577206f776e657220697320746865207a65726f206160008201527f6464726573730000000000000000000000000000000000000000000000000000602082015250565b600061373160268361260a565b915061373c826136d5565b604082019050919050565b6000602082019050818103600083015261376081613724565b9050919050565b7f4552433732313a206f70657261746f7220717565727920666f72206e6f6e657860008201527f697374656e7420746f6b656e0000000000000000000000000000000000000000602082015250565b60006137c3602c8361260a565b91506137ce82613767565b604082019050919050565b600060208201905081810360008301526137f2816137b6565b9050919050565b7f4552433732313a207472616e73666572206f6620746f6b656e2074686174206960008201527f73206e6f74206f776e0000000000000000000000000000000000000000000000602082015250565b600061385560298361260a565b9150613860826137f9565b604082019050919050565b6000602082019050818103600083015261388481613848565b9050919050565b7f4552433732313a207472616e7366657220746f20746865207a65726f2061646460008201527f7265737300000000000000000000000000000000000000000000000000000000602082015250565b60006138e760248361260a565b91506138f28261388b565b604082019050919050565b60006020820190508181036000830152613916816138da565b9050919050565b60006139288261259c565b91506139338361259c565b925082821015613946576139456130df565b5b828203905092915050565b600061395c8261259c565b91506139678361259c565b9250827fffffffffffffffffffffffffffffffffffffffffffffffffffffffffffffffff0382111561399c5761399b6130df565b5b828201905092915050565b7f4552433732313a20617070726f766520746f2063616c6c657200000000000000600082015250565b60006139dd60198361260a565b91506139e8826139a7565b602082019050919050565b60006020820190508181036000830152613a0c816139d0565b9050919050565b7f4552433732313a207472616e7366657220746f206e6f6e20455243373231526560008201527f63656976657220696d706c656d656e7465720000000000000000000000000000602082015250565b6000613a6f60328361260a565b9150613a7a82613a13565b604082019050919050565b60006020820190508181036000830152613a9e81613a62565b9050919050565b7f4e487b7100000000000000000000000000000000000000000000000000000000600052601260045260246000fd5b6000613adf8261259c565b9150613aea8361259c565b925082613afa57613af9613aa5565b5b828204905092915050565b6000613b108261259c565b9150613b1b8361259c565b925082613b2b57613b2a613aa5565b5b828206905092915050565b600081519050919050565b600082825260208201905092915050565b6000613b5d82613b36565b613b678185613b41565b9350613b7781856020860161261b565b613b808161264e565b840191505092915050565b6000608082019050613ba060008301876126ec565b613bad60208301866126ec565b613bba6040830185612782565b8181036060830152613bcc8184613b52565b905095945050505050565b600081519050613be68161250d565b92915050565b600060208284031215613c0257613c016124d7565b5b6000613c1084828501613bd7565b91505092915050565b7f4552433732313a206d696e7420746f20746865207a65726f2061646472657373600082015250565b6000613c4f60208361260a565b9150613c5a82613c19565b602082019050919050565b60006020820190508181036000830152613c7e81613c42565b9050919050565b7f4552433732313a20746f6b656e20616c7265616479206d696e74656400000000600082015250565b6000613cbb601c8361260a565b9150613cc682613c85565b602082019050919050565b60006020820190508181036000830152613cea81613cae565b905091905056fea2646970667358221220a4cfe09ebf9b4fa9c6c1f63724661c9959fe2224ce7616c16b2f47771715094064736f6c634300080a0033",
  "immutableReferences": {},
  "source": "// SPDX-License-Identifier: MIT\npragma solidity ^0.8.0;\n\nimport \"@openzeppelin/contracts/token/ERC721/ERC721.sol\";\nimport \"@openzeppelin/contracts/access/Ownable.sol\";\n\ncontract Pixels is ERC721, Ownable {\n\n    uint256 public _gridsize = 1000; //will change to 1000 eventually.....l\n    uint256 public _totalPixels = _gridsize * _gridsize;\n    uint256 public _pixelPrice = 250000000000000; // approx 1usd\n\n    // bytes3[] public _pixelColours = new bytes3[](_gridsize);\n    mapping(uint256 => bytes3) public _pixelColours;\n    mapping(uint256 => bool) public _pixelOwned;\n\n    event PixelMinted (uint date, address indexed to, uint256 pixelId);\n    event PixelColourChanged ( address owner, bytes3 newColour, uint256 pixelId );\n\n    constructor() ERC721(\"Pixels\", \"PIX\") {}\n\n    function setTokenPrice(uint256 _newPrice) external onlyOwner {\n        _pixelPrice = _newPrice;\n    }\n\n    function mint(uint256 _pixelId, bytes3 _newColour) public payable {\n        require(!_pixelOwned[_pixelId], \"Pixel is already owned\");\n        require(_pixelId < _totalPixels, \"Pixel out of range\");\n        require(msg.value >= _pixelPrice, \"No/ Insufficient fees provided\");\n        _pixelOwned[_pixelId] = true;\n        _pixelColours[_pixelId] = _newColour;\n        _safeMint(msg.sender, _pixelId);\n        emit PixelMinted(block.timestamp, msg.sender, _pixelId);\n        emit PixelColourChanged(msg.sender, _newColour, _pixelId);\n    }\n\n    function mint(uint256 _pixelId) external payable {\n        mint(_pixelId, 0x111111);\n    }\n\n    function mintMultiple(uint256[] memory _pixelIds, bytes3[] memory _newColours) public payable {\n        require(msg.value >= _pixelIds.length * _pixelPrice, \"No/ Insufficient fees provided\");\n        require(_pixelIds.length == _newColours.length, \"Arrays of inconsistent length\");\n        for (uint256 i = 0; i < _pixelIds.length; i++) {\n            mint(_pixelIds[i], _newColours[i]);\n        }\n    }\n\n\n    function getBalance() public view returns(uint256){\n        return address(this).balance;\n    }\n\n     function withdrawAmount(uint256 amount) external onlyOwner {\n         require(amount <= getBalance(), \"Insufficient funds\");\n         payable(msg.sender).transfer(amount);\n     }\n\n    //function change pixel colour |||ERC721.ownerOf(tokenId)\n    function changePixelColor(uint256 _pixelId, bytes3 _newColour) public {\n        require(_pixelId < _totalPixels, \"Pixel id out of range\");\n        require(ownerOf(_pixelId) == msg.sender, \"Sender is not Pixel owner\");\n        _pixelColours[_pixelId] = _newColour;\n        emit PixelColourChanged(msg.sender, _newColour, _pixelId);\n    }\n\n    function changePixelColorMultiple(uint256[] memory _pixelIds, bytes3[] memory _newColours) external {\n        require(_pixelIds.length == _newColours.length, \"Arrays of inconsistent length\");\n        for (uint256 i = 0; i < _pixelIds.length; i++) {\n            changePixelColor(_pixelIds[i], _newColours[i]);\n        }\n    }\n\n    function getPixelColour(uint256 _pixelId) public view returns (bytes3) {\n        require(_pixelId < _totalPixels, \"Pixel id out of range\");\n        if(_pixelOwned[_pixelId]) {\n            return _pixelColours[_pixelId];\n        } else {\n            return 0x000001;\n        }\n    }\n\n    function isPixelOwned(uint256 _pixelId) public view returns (bool) {\n        require(_pixelId < _totalPixels, \"Pixel id out of range\");\n        return _pixelOwned[_pixelId];\n    }\n}\n",
  "sourcePath": "/Users/max/Desktop/POLYPAINT.IO/sol/contracts/Pixels.sol",
  "compiler": {
    "name": "solc",
    "version": "0.8.10+commit.fc410830.Emscripten.clang"
  },
  "schemaVersion": "3.4.4",
  "updatedAt": "2021-12-28T00:51:41.515Z",
  "networkType": "ethereum",
  "devdoc": {
    "kind": "dev",
    "methods": {
      "approve(address,uint256)": {
        "details": "See {IERC721-approve}."
      },
      "balanceOf(address)": {
        "details": "See {IERC721-balanceOf}."
      },
      "getApproved(uint256)": {
        "details": "See {IERC721-getApproved}."
      },
      "isApprovedForAll(address,address)": {
        "details": "See {IERC721-isApprovedForAll}."
      },
      "name()": {
        "details": "See {IERC721Metadata-name}."
      },
      "owner()": {
        "details": "Returns the address of the current owner."
      },
      "ownerOf(uint256)": {
        "details": "See {IERC721-ownerOf}."
      },
      "renounceOwnership()": {
        "details": "Leaves the contract without owner. It will not be possible to call `onlyOwner` functions anymore. Can only be called by the current owner. NOTE: Renouncing ownership will leave the contract without an owner, thereby removing any functionality that is only available to the owner."
      },
      "safeTransferFrom(address,address,uint256)": {
        "details": "See {IERC721-safeTransferFrom}."
      },
      "safeTransferFrom(address,address,uint256,bytes)": {
        "details": "See {IERC721-safeTransferFrom}."
      },
      "setApprovalForAll(address,bool)": {
        "details": "See {IERC721-setApprovalForAll}."
      },
      "supportsInterface(bytes4)": {
        "details": "See {IERC165-supportsInterface}."
      },
      "symbol()": {
        "details": "See {IERC721Metadata-symbol}."
      },
      "tokenURI(uint256)": {
        "details": "See {IERC721Metadata-tokenURI}."
      },
      "transferFrom(address,address,uint256)": {
        "details": "See {IERC721-transferFrom}."
      },
      "transferOwnership(address)": {
        "details": "Transfers ownership of the contract to a new account (`newOwner`). Can only be called by the current owner."
      }
    },
    "version": 1
  },
  "userdoc": {
    "kind": "user",
    "methods": {},
    "version": 1
  }
}