{
  "contractName": "Pixels",
  "abi": [
    {
      "inputs": [],
      "stateMutability": "nonpayable",
      "type": "constructor"
    },
    {
      "anonymous": false,
      "inputs": [
        {
          "indexed": true,
          "internalType": "address",
          "name": "owner",
          "type": "address"
        },
        {
          "indexed": true,
          "internalType": "address",
          "name": "approved",
          "type": "address"
        },
        {
          "indexed": true,
          "internalType": "uint256",
          "name": "tokenId",
          "type": "uint256"
        }
      ],
      "name": "Approval",
      "type": "event"
    },
    {
      "anonymous": false,
      "inputs": [
        {
          "indexed": true,
          "internalType": "address",
          "name": "owner",
          "type": "address"
        },
        {
          "indexed": true,
          "internalType": "address",
          "name": "operator",
          "type": "address"
        },
        {
          "indexed": false,
          "internalType": "bool",
          "name": "approved",
          "type": "bool"
        }
      ],
      "name": "ApprovalForAll",
      "type": "event"
    },
    {
      "anonymous": false,
      "inputs": [
        {
          "indexed": true,
          "internalType": "address",
          "name": "previousOwner",
          "type": "address"
        },
        {
          "indexed": true,
          "internalType": "address",
          "name": "newOwner",
          "type": "address"
        }
      ],
      "name": "OwnershipTransferred",
      "type": "event"
    },
    {
      "anonymous": false,
      "inputs": [
        {
          "indexed": false,
          "internalType": "address",
          "name": "owner",
          "type": "address"
        },
        {
          "indexed": false,
          "internalType": "bytes3",
          "name": "newColour",
          "type": "bytes3"
        },
        {
          "indexed": false,
          "internalType": "uint256",
          "name": "pixelId",
          "type": "uint256"
        },
        {
          "indexed": false,
          "internalType": "string",
          "name": "newURL",
          "type": "string"
        }
      ],
      "name": "PixelColourChanged",
      "type": "event"
    },
    {
      "anonymous": false,
      "inputs": [
        {
          "indexed": false,
          "internalType": "uint256",
          "name": "date",
          "type": "uint256"
        },
        {
          "indexed": true,
          "internalType": "address",
          "name": "to",
          "type": "address"
        },
        {
          "indexed": false,
          "internalType": "uint256",
          "name": "pixelId",
          "type": "uint256"
        }
      ],
      "name": "PixelMinted",
      "type": "event"
    },
    {
      "anonymous": false,
      "inputs": [
        {
          "indexed": true,
          "internalType": "address",
          "name": "from",
          "type": "address"
        },
        {
          "indexed": true,
          "internalType": "address",
          "name": "to",
          "type": "address"
        },
        {
          "indexed": true,
          "internalType": "uint256",
          "name": "tokenId",
          "type": "uint256"
        }
      ],
      "name": "Transfer",
      "type": "event"
    },
    {
      "inputs": [],
      "name": "_baseURIextended",
      "outputs": [
        {
          "internalType": "string",
          "name": "",
          "type": "string"
        }
      ],
      "stateMutability": "view",
      "type": "function",
      "constant": true
    },
    {
      "inputs": [],
      "name": "_gridsize",
      "outputs": [
        {
          "internalType": "uint256",
          "name": "",
          "type": "uint256"
        }
      ],
      "stateMutability": "view",
      "type": "function",
      "constant": true
    },
    {
      "inputs": [
        {
          "internalType": "uint256",
          "name": "",
          "type": "uint256"
        }
      ],
      "name": "_pixelColours",
      "outputs": [
        {
          "internalType": "bytes3",
          "name": "",
          "type": "bytes3"
        }
      ],
      "stateMutability": "view",
      "type": "function",
      "constant": true
    },
    {
      "inputs": [
        {
          "internalType": "uint256",
          "name": "",
          "type": "uint256"
        }
      ],
      "name": "_pixelOwned",
      "outputs": [
        {
          "internalType": "bool",
          "name": "",
          "type": "bool"
        }
      ],
      "stateMutability": "view",
      "type": "function",
      "constant": true
    },
    {
      "inputs": [],
      "name": "_pixelPrice",
      "outputs": [
        {
          "internalType": "uint256",
          "name": "",
          "type": "uint256"
        }
      ],
      "stateMutability": "view",
      "type": "function",
      "constant": true
    },
    {
      "inputs": [
        {
          "internalType": "uint256",
          "name": "",
          "type": "uint256"
        }
      ],
      "name": "_pixelURL",
      "outputs": [
        {
          "internalType": "string",
          "name": "",
          "type": "string"
        }
      ],
      "stateMutability": "view",
      "type": "function",
      "constant": true
    },
    {
      "inputs": [],
      "name": "_totalPixels",
      "outputs": [
        {
          "internalType": "uint256",
          "name": "",
          "type": "uint256"
        }
      ],
      "stateMutability": "view",
      "type": "function",
      "constant": true
    },
    {
      "inputs": [
        {
          "internalType": "address",
          "name": "to",
          "type": "address"
        },
        {
          "internalType": "uint256",
          "name": "tokenId",
          "type": "uint256"
        }
      ],
      "name": "approve",
      "outputs": [],
      "stateMutability": "nonpayable",
      "type": "function"
    },
    {
      "inputs": [
        {
          "internalType": "address",
          "name": "owner",
          "type": "address"
        }
      ],
      "name": "balanceOf",
      "outputs": [
        {
          "internalType": "uint256",
          "name": "",
          "type": "uint256"
        }
      ],
      "stateMutability": "view",
      "type": "function",
      "constant": true
    },
    {
      "inputs": [
        {
          "internalType": "uint256",
          "name": "tokenId",
          "type": "uint256"
        }
      ],
      "name": "getApproved",
      "outputs": [
        {
          "internalType": "address",
          "name": "",
          "type": "address"
        }
      ],
      "stateMutability": "view",
      "type": "function",
      "constant": true
    },
    {
      "inputs": [
        {
          "internalType": "address",
          "name": "owner",
          "type": "address"
        },
        {
          "internalType": "address",
          "name": "operator",
          "type": "address"
        }
      ],
      "name": "isApprovedForAll",
      "outputs": [
        {
          "internalType": "bool",
          "name": "",
          "type": "bool"
        }
      ],
      "stateMutability": "view",
      "type": "function",
      "constant": true
    },
    {
      "inputs": [],
      "name": "name",
      "outputs": [
        {
          "internalType": "string",
          "name": "",
          "type": "string"
        }
      ],
      "stateMutability": "view",
      "type": "function",
      "constant": true
    },
    {
      "inputs": [],
      "name": "owner",
      "outputs": [
        {
          "internalType": "address",
          "name": "",
          "type": "address"
        }
      ],
      "stateMutability": "view",
      "type": "function",
      "constant": true
    },
    {
      "inputs": [
        {
          "internalType": "uint256",
          "name": "tokenId",
          "type": "uint256"
        }
      ],
      "name": "ownerOf",
      "outputs": [
        {
          "internalType": "address",
          "name": "",
          "type": "address"
        }
      ],
      "stateMutability": "view",
      "type": "function",
      "constant": true
    },
    {
      "inputs": [],
      "name": "renounceOwnership",
      "outputs": [],
      "stateMutability": "nonpayable",
      "type": "function"
    },
    {
      "inputs": [
        {
          "internalType": "address",
          "name": "from",
          "type": "address"
        },
        {
          "internalType": "address",
          "name": "to",
          "type": "address"
        },
        {
          "internalType": "uint256",
          "name": "tokenId",
          "type": "uint256"
        }
      ],
      "name": "safeTransferFrom",
      "outputs": [],
      "stateMutability": "nonpayable",
      "type": "function"
    },
    {
      "inputs": [
        {
          "internalType": "address",
          "name": "from",
          "type": "address"
        },
        {
          "internalType": "address",
          "name": "to",
          "type": "address"
        },
        {
          "internalType": "uint256",
          "name": "tokenId",
          "type": "uint256"
        },
        {
          "internalType": "bytes",
          "name": "_data",
          "type": "bytes"
        }
      ],
      "name": "safeTransferFrom",
      "outputs": [],
      "stateMutability": "nonpayable",
      "type": "function"
    },
    {
      "inputs": [
        {
          "internalType": "address",
          "name": "operator",
          "type": "address"
        },
        {
          "internalType": "bool",
          "name": "approved",
          "type": "bool"
        }
      ],
      "name": "setApprovalForAll",
      "outputs": [],
      "stateMutability": "nonpayable",
      "type": "function"
    },
    {
      "inputs": [
        {
          "internalType": "bytes4",
          "name": "interfaceId",
          "type": "bytes4"
        }
      ],
      "name": "supportsInterface",
      "outputs": [
        {
          "internalType": "bool",
          "name": "",
          "type": "bool"
        }
      ],
      "stateMutability": "view",
      "type": "function",
      "constant": true
    },
    {
      "inputs": [],
      "name": "symbol",
      "outputs": [
        {
          "internalType": "string",
          "name": "",
          "type": "string"
        }
      ],
      "stateMutability": "view",
      "type": "function",
      "constant": true
    },
    {
      "inputs": [
        {
          "internalType": "uint256",
          "name": "tokenId",
          "type": "uint256"
        }
      ],
      "name": "tokenURI",
      "outputs": [
        {
          "internalType": "string",
          "name": "",
          "type": "string"
        }
      ],
      "stateMutability": "view",
      "type": "function",
      "constant": true
    },
    {
      "inputs": [
        {
          "internalType": "address",
          "name": "from",
          "type": "address"
        },
        {
          "internalType": "address",
          "name": "to",
          "type": "address"
        },
        {
          "internalType": "uint256",
          "name": "tokenId",
          "type": "uint256"
        }
      ],
      "name": "transferFrom",
      "outputs": [],
      "stateMutability": "nonpayable",
      "type": "function"
    },
    {
      "inputs": [
        {
          "internalType": "address",
          "name": "newOwner",
          "type": "address"
        }
      ],
      "name": "transferOwnership",
      "outputs": [],
      "stateMutability": "nonpayable",
      "type": "function"
    },
    {
      "inputs": [
        {
          "internalType": "uint256",
          "name": "_newPrice",
          "type": "uint256"
        }
      ],
      "name": "setTokenPrice",
      "outputs": [],
      "stateMutability": "nonpayable",
      "type": "function"
    },
    {
      "inputs": [
        {
          "internalType": "uint256",
          "name": "_pixelId",
          "type": "uint256"
        },
        {
          "internalType": "bytes3",
          "name": "_newColour",
          "type": "bytes3"
        },
        {
          "internalType": "string",
          "name": "_customURL",
          "type": "string"
        }
      ],
      "name": "mint",
      "outputs": [],
      "stateMutability": "payable",
      "type": "function",
      "payable": true
    },
    {
      "inputs": [
        {
          "internalType": "uint256",
          "name": "_pixelId",
          "type": "uint256"
        },
        {
          "internalType": "string",
          "name": "_customURL",
          "type": "string"
        }
      ],
      "name": "mint",
      "outputs": [],
      "stateMutability": "payable",
      "type": "function",
      "payable": true
    },
    {
      "inputs": [
        {
          "internalType": "uint256",
          "name": "_pixelId",
          "type": "uint256"
        }
      ],
      "name": "mint",
      "outputs": [],
      "stateMutability": "payable",
      "type": "function",
      "payable": true
    },
    {
      "inputs": [
        {
          "internalType": "uint256",
          "name": "_pixelId",
          "type": "uint256"
        },
        {
          "internalType": "bytes3",
          "name": "_newColour",
          "type": "bytes3"
        }
      ],
      "name": "mint",
      "outputs": [],
      "stateMutability": "payable",
      "type": "function",
      "payable": true
    },
    {
      "inputs": [
        {
          "internalType": "uint256[]",
          "name": "_pixelIds",
          "type": "uint256[]"
        },
        {
          "internalType": "bytes3[]",
          "name": "_newColours",
          "type": "bytes3[]"
        },
        {
          "internalType": "string",
          "name": "_customURL",
          "type": "string"
        }
      ],
      "name": "mintMultiple",
      "outputs": [],
      "stateMutability": "payable",
      "type": "function",
      "payable": true
    },
    {
      "inputs": [],
      "name": "getBalance",
      "outputs": [
        {
          "internalType": "uint256",
          "name": "",
          "type": "uint256"
        }
      ],
      "stateMutability": "view",
      "type": "function",
      "constant": true
    },
    {
      "inputs": [
        {
          "internalType": "uint256",
          "name": "amount",
          "type": "uint256"
        }
      ],
      "name": "withdrawAmount",
      "outputs": [],
      "stateMutability": "nonpayable",
      "type": "function"
    },
    {
      "inputs": [
        {
          "internalType": "uint256",
          "name": "_pixelId",
          "type": "uint256"
        },
        {
          "internalType": "bytes3",
          "name": "_newColour",
          "type": "bytes3"
        },
        {
          "internalType": "string",
          "name": "_newURL",
          "type": "string"
        }
      ],
      "name": "changePixelColour",
      "outputs": [],
      "stateMutability": "nonpayable",
      "type": "function"
    },
    {
      "inputs": [
        {
          "internalType": "uint256[]",
          "name": "_pixelIds",
          "type": "uint256[]"
        },
        {
          "internalType": "bytes3[]",
          "name": "_newColours",
          "type": "bytes3[]"
        },
        {
          "internalType": "string",
          "name": "_newURL",
          "type": "string"
        }
      ],
      "name": "changePixelColourMultiple",
      "outputs": [],
      "stateMutability": "nonpayable",
      "type": "function"
    },
    {
      "inputs": [
        {
          "internalType": "uint256",
          "name": "_pixelId",
          "type": "uint256"
        }
      ],
      "name": "getPixelColour",
      "outputs": [
        {
          "internalType": "bytes3",
          "name": "",
          "type": "bytes3"
        }
      ],
      "stateMutability": "view",
      "type": "function",
      "constant": true
    },
    {
      "inputs": [
        {
          "internalType": "uint256",
          "name": "_pixelId",
          "type": "uint256"
        }
      ],
      "name": "getPixelCustomURL",
      "outputs": [
        {
          "internalType": "string",
          "name": "",
          "type": "string"
        }
      ],
      "stateMutability": "view",
      "type": "function",
      "constant": true
    },
    {
      "inputs": [
        {
          "internalType": "uint256",
          "name": "_pixelId",
          "type": "uint256"
        }
      ],
      "name": "isPixelOwned",
      "outputs": [
        {
          "internalType": "bool",
          "name": "",
          "type": "bool"
        }
      ],
      "stateMutability": "view",
      "type": "function",
      "constant": true
    },
    {
      "inputs": [
        {
          "internalType": "string",
          "name": "baseURI_",
          "type": "string"
        }
      ],
      "name": "setBaseURI",
      "outputs": [],
      "stateMutability": "nonpayable",
      "type": "function"
    }
  ],
  "bytecode": "0x60806040526103e86007556007546007546200001c919062000304565b60085567058d15e1762800006009553480156200003857600080fd5b506040518060400160405280600681526020017f506978656c7300000000000000000000000000000000000000000000000000008152506040518060400160405280600381526020017f50495800000000000000000000000000000000000000000000000000000000008152508160009080519060200190620000bd9291906200021b565b508060019080519060200190620000d69291906200021b565b505050620000f9620000ed6200014d60201b60201c565b6200015560201b60201c565b6040518060400160405280601981526020017f68747470733a2f2f706f6c797061696e742e696f2f6e66742f00000000000000815250600a9080519060200190620001469291906200021b565b50620003ca565b600033905090565b6000600660009054906101000a900473ffffffffffffffffffffffffffffffffffffffff16905081600660006101000a81548173ffffffffffffffffffffffffffffffffffffffff021916908373ffffffffffffffffffffffffffffffffffffffff1602179055508173ffffffffffffffffffffffffffffffffffffffff168173ffffffffffffffffffffffffffffffffffffffff167f8be0079c531659141344cd1fd0a4f28419497f9722a3daafe3b4186f6b6457e060405160405180910390a35050565b828054620002299062000394565b90600052602060002090601f0160209004810192826200024d576000855562000299565b82601f106200026857805160ff191683800117855562000299565b8280016001018555821562000299579182015b82811115620002985782518255916020019190600101906200027b565b5b509050620002a89190620002ac565b5090565b5b80821115620002c7576000816000905550600101620002ad565b5090565b6000819050919050565b7f4e487b7100000000000000000000000000000000000000000000000000000000600052601160045260246000fd5b60006200031182620002cb565b91506200031e83620002cb565b9250817fffffffffffffffffffffffffffffffffffffffffffffffffffffffffffffffff04831182151516156200035a5762000359620002d5565b5b828202905092915050565b7f4e487b7100000000000000000000000000000000000000000000000000000000600052602260045260246000fd5b60006002820490506001821680620003ad57607f821691505b60208210811415620003c457620003c362000365565b5b50919050565b61467e80620003da6000396000f3fe60806040526004361061021a5760003560e01c806377097fc811610123578063b88d4fde116100ab578063f0dad05d1161006f578063f0dad05d14610802578063f2fde38b1461081e578063f5adb59a14610847578063ff8e399214610872578063fff4ca9c1461088e5761021a565b8063b88d4fde146106e5578063c87b56dd1461070e578063d4f38be01461074b578063e1614e1514610788578063e985e9c5146107c55761021a565b8063a0712d68116100f2578063a0712d681461060f578063a22cb4651461062b578063ad4462c214610654578063afccaf651461067d578063b26f0733146106a85761021a565b806377097fc8146105605780638da5cb5b1461057c57806395d89b41146105a75780639631cb34146105d25761021a565b806323b872dd116101a65780636352211e116101755780636352211e14610469578063642fd0f6146104a65780636a61e5fc146104e357806370a082311461050c578063715018a6146105495761021a565b806323b872dd146103c55780632ce10054146103ee57806342842e0e1461041757806355f804b3146104405761021a565b8063088e6b44116101ed578063088e6b44146102ed5780630928fc2214610309578063095ea7b31461033457806312065fe01461035d5780631aec1f15146103885761021a565b806301ffc9a71461021f5780630562b9f71461025c57806306fdde0314610285578063081812fc146102b0575b600080fd5b34801561022b57600080fd5b5061024660048036038101906102419190612b8b565b6108b9565b6040516102539190612bd3565b60405180910390f35b34801561026857600080fd5b50610283600480360381019061027e9190612c24565b61099b565b005b34801561029157600080fd5b5061029a610aab565b6040516102a79190612cea565b60405180910390f35b3480156102bc57600080fd5b506102d760048036038101906102d29190612c24565b610b3d565b6040516102e49190612d4d565b60405180910390f35b61030760048036038101906103029190612ef5565b610bc2565b005b34801561031557600080fd5b5061031e610dca565b60405161032b9190612cea565b60405180910390f35b34801561034057600080fd5b5061035b60048036038101906103569190612f90565b610e58565b005b34801561036957600080fd5b50610372610f70565b60405161037f9190612fdf565b60405180910390f35b34801561039457600080fd5b506103af60048036038101906103aa9190612c24565b610f78565b6040516103bc9190613009565b60405180910390f35b3480156103d157600080fd5b506103ec60048036038101906103e79190613024565b610f98565b005b3480156103fa57600080fd5b5061041560048036038101906104109190612ef5565b610ff8565b005b34801561042357600080fd5b5061043e60048036038101906104399190613024565b6111ae565b005b34801561044c57600080fd5b5061046760048036038101906104629190613077565b6111ce565b005b34801561047557600080fd5b50610490600480360381019061048b9190612c24565b611264565b60405161049d9190612d4d565b60405180910390f35b3480156104b257600080fd5b506104cd60048036038101906104c89190612c24565b611316565b6040516104da9190613009565b60405180910390f35b3480156104ef57600080fd5b5061050a60048036038101906105059190612c24565b6113b7565b005b34801561051857600080fd5b50610533600480360381019061052e91906130c0565b61143d565b6040516105409190612fdf565b60405180910390f35b34801561055557600080fd5b5061055e6114f5565b005b61057a600480360381019061057591906130ed565b61157d565b005b34801561058857600080fd5b50610591611592565b60405161059e9190612d4d565b60405180910390f35b3480156105b357600080fd5b506105bc6115bc565b6040516105c99190612cea565b60405180910390f35b3480156105de57600080fd5b506105f960048036038101906105f49190612c24565b61164e565b6040516106069190612bd3565b60405180910390f35b61062960048036038101906106249190612c24565b6116bc565b005b34801561063757600080fd5b50610652600480360381019061064d9190613175565b6116df565b005b34801561066057600080fd5b5061067b60048036038101906106769190613340565b6116f5565b005b34801561068957600080fd5b5061069261179d565b60405161069f9190612fdf565b60405180910390f35b3480156106b457600080fd5b506106cf60048036038101906106ca9190612c24565b6117a3565b6040516106dc9190612cea565b60405180910390f35b3480156106f157600080fd5b5061070c60048036038101906107079190613488565b6118ca565b005b34801561071a57600080fd5b5061073560048036038101906107309190612c24565b61192c565b6040516107429190612cea565b60405180910390f35b34801561075757600080fd5b50610772600480360381019061076d9190612c24565b6119d3565b60405161077f9190612cea565b60405180910390f35b34801561079457600080fd5b506107af60048036038101906107aa9190612c24565b611a73565b6040516107bc9190612bd3565b60405180910390f35b3480156107d157600080fd5b506107ec60048036038101906107e7919061350b565b611a93565b6040516107f99190612bd3565b60405180910390f35b61081c6004803603810190610817919061354b565b611b27565b005b34801561082a57600080fd5b50610845600480360381019061084091906130c0565b611b45565b005b34801561085357600080fd5b5061085c611c3d565b6040516108699190612fdf565b60405180910390f35b61088c60048036038101906108879190613340565b611c43565b005b34801561089a57600080fd5b506108a3611d3c565b6040516108b09190612fdf565b60405180910390f35b60007f80ac58cd000000000000000000000000000000000000000000000000000000007bffffffffffffffffffffffffffffffffffffffffffffffffffffffff1916827bffffffffffffffffffffffffffffffffffffffffffffffffffffffff1916148061098457507f5b5e139f000000000000000000000000000000000000000000000000000000007bffffffffffffffffffffffffffffffffffffffffffffffffffffffff1916827bffffffffffffffffffffffffffffffffffffffffffffffffffffffff1916145b80610994575061099382611d42565b5b9050919050565b6109a3611dac565b73ffffffffffffffffffffffffffffffffffffffff166109c1611592565b73ffffffffffffffffffffffffffffffffffffffff1614610a17576040517f08c379a0000000000000000000000000000000000000000000000000000000008152600401610a0e906135d7565b60405180910390fd5b610a1f610f70565b811115610a61576040517f08c379a0000000000000000000000000000000000000000000000000000000008152600401610a5890613643565b60405180910390fd5b3373ffffffffffffffffffffffffffffffffffffffff166108fc829081150290604051600060405180830381858888f19350505050158015610aa7573d6000803e3d6000fd5b5050565b606060008054610aba90613692565b80601f0160208091040260200160405190810160405280929190818152602001828054610ae690613692565b8015610b335780601f10610b0857610100808354040283529160200191610b33565b820191906000526020600020905b815481529060010190602001808311610b1657829003601f168201915b5050505050905090565b6000610b4882611db4565b610b87576040517f08c379a0000000000000000000000000000000000000000000000000000000008152600401610b7e90613736565b60405180910390fd5b6004600083815260200190815260200160002060009054906101000a900473ffffffffffffffffffffffffffffffffffffffff169050919050565b600c600084815260200190815260200160002060009054906101000a900460ff1615610c23576040517f08c379a0000000000000000000000000000000000000000000000000000000008152600401610c1a906137a2565b60405180910390fd5b6008548310610c67576040517f08c379a0000000000000000000000000000000000000000000000000000000008152600401610c5e9061380e565b60405180910390fd5b600954341015610cac576040517f08c379a0000000000000000000000000000000000000000000000000000000008152600401610ca39061387a565b60405180910390fd5b6001600c600085815260200190815260200160002060006101000a81548160ff02191690831515021790555081600b600085815260200190815260200160002060006101000a81548162ffffff021916908360e81c021790555080600d60008581526020019081526020016000209080519060200190610d2d929190612a7c565b50610d383384611e20565b3373ffffffffffffffffffffffffffffffffffffffff167fa3c5a07f63c391102daa3f8b260023afa2b5a1976a137e50be84de2c5763ae724285604051610d8092919061389a565b60405180910390a27f037df818fdf7f7d0672a541c90911c32ecbd47d190f6391a306c7e648d8e305c33838584604051610dbd94939291906138c3565b60405180910390a1505050565b600a8054610dd790613692565b80601f0160208091040260200160405190810160405280929190818152602001828054610e0390613692565b8015610e505780601f10610e2557610100808354040283529160200191610e50565b820191906000526020600020905b815481529060010190602001808311610e3357829003601f168201915b505050505081565b6000610e6382611264565b90508073ffffffffffffffffffffffffffffffffffffffff168373ffffffffffffffffffffffffffffffffffffffff161415610ed4576040517f08c379a0000000000000000000000000000000000000000000000000000000008152600401610ecb90613981565b60405180910390fd5b8073ffffffffffffffffffffffffffffffffffffffff16610ef3611dac565b73ffffffffffffffffffffffffffffffffffffffff161480610f225750610f2181610f1c611dac565b611a93565b5b610f61576040517f08c379a0000000000000000000000000000000000000000000000000000000008152600401610f5890613a13565b60405180910390fd5b610f6b8383611e3e565b505050565b600047905090565b600b6020528060005260406000206000915054906101000a900460e81b81565b610fa9610fa3611dac565b82611ef7565b610fe8576040517f08c379a0000000000000000000000000000000000000000000000000000000008152600401610fdf90613aa5565b60405180910390fd5b610ff3838383611fd5565b505050565b600854831061103c576040517f08c379a000000000000000000000000000000000000000000000000000000000815260040161103390613b11565b60405180910390fd5b3373ffffffffffffffffffffffffffffffffffffffff1661105c84611264565b73ffffffffffffffffffffffffffffffffffffffff16146110b2576040517f08c379a00000000000000000000000000000000000000000000000000000000081526004016110a990613b7d565b60405180910390fd5b6040516020016110c190613bf4565b60405160208183030381529060405280519060200120600d60008581526020019081526020016000206040516020016110fa9190613c9d565b604051602081830303815290604052805190602001201461113e5780600d6000858152602001908152602001600020908051906020019061113c929190612a7c565b505b81600b600085815260200190815260200160002060006101000a81548162ffffff021916908360e81c02179055507f037df818fdf7f7d0672a541c90911c32ecbd47d190f6391a306c7e648d8e305c338385846040516111a194939291906138c3565b60405180910390a1505050565b6111c9838383604051806020016040528060008152506118ca565b505050565b6111d6611dac565b73ffffffffffffffffffffffffffffffffffffffff166111f4611592565b73ffffffffffffffffffffffffffffffffffffffff161461124a576040517f08c379a0000000000000000000000000000000000000000000000000000000008152600401611241906135d7565b60405180910390fd5b80600a9080519060200190611260929190612a7c565b5050565b6000806002600084815260200190815260200160002060009054906101000a900473ffffffffffffffffffffffffffffffffffffffff169050600073ffffffffffffffffffffffffffffffffffffffff168173ffffffffffffffffffffffffffffffffffffffff16141561130d576040517f08c379a000000000000000000000000000000000000000000000000000000000815260040161130490613d26565b60405180910390fd5b80915050919050565b6000600854821061135c576040517f08c379a000000000000000000000000000000000000000000000000000000000815260040161135390613b11565b60405180910390fd5b600c600083815260200190815260200160002060009054906101000a900460ff16156113aa57600b600083815260200190815260200160002060009054906101000a900460e81b90506113b2565b600160e81b90505b919050565b6113bf611dac565b73ffffffffffffffffffffffffffffffffffffffff166113dd611592565b73ffffffffffffffffffffffffffffffffffffffff1614611433576040517f08c379a000000000000000000000000000000000000000000000000000000000815260040161142a906135d7565b60405180910390fd5b8060098190555050565b60008073ffffffffffffffffffffffffffffffffffffffff168273ffffffffffffffffffffffffffffffffffffffff1614156114ae576040517f08c379a00000000000000000000000000000000000000000000000000000000081526004016114a590613db8565b60405180910390fd5b600360008373ffffffffffffffffffffffffffffffffffffffff1673ffffffffffffffffffffffffffffffffffffffff168152602001908152602001600020549050919050565b6114fd611dac565b73ffffffffffffffffffffffffffffffffffffffff1661151b611592565b73ffffffffffffffffffffffffffffffffffffffff1614611571576040517f08c379a0000000000000000000000000000000000000000000000000000000008152600401611568906135d7565b60405180910390fd5b61157b6000612231565b565b61158e826211111160e81b83610bc2565b5050565b6000600660009054906101000a900473ffffffffffffffffffffffffffffffffffffffff16905090565b6060600180546115cb90613692565b80601f01602080910402602001604051908101604052809291908181526020018280546115f790613692565b80156116445780601f1061161957610100808354040283529160200191611644565b820191906000526020600020905b81548152906001019060200180831161162757829003601f168201915b5050505050905090565b60006008548210611694576040517f08c379a000000000000000000000000000000000000000000000000000000000815260040161168b90613b11565b60405180910390fd5b600c600083815260200190815260200160002060009054906101000a900460ff169050919050565b6116dc816211111160e81b60405180602001604052806000815250610bc2565b50565b6116f16116ea611dac565b83836122f7565b5050565b8151835114611739576040517f08c379a000000000000000000000000000000000000000000000000000000000815260040161173090613e24565b60405180910390fd5b60005b83518110156117975761178484828151811061175b5761175a613e44565b5b602002602001015184838151811061177657611775613e44565b5b602002602001015184610ff8565b808061178f90613ea2565b91505061173c565b50505050565b60095481565b606060085482106117e9576040517f08c379a00000000000000000000000000000000000000000000000000000000081526004016117e090613b11565b60405180910390fd5b600c600083815260200190815260200160002060009054906101000a900460ff16156118b257600d6000838152602001908152602001600020805461182d90613692565b80601f016020809104026020016040519081016040528092919081815260200182805461185990613692565b80156118a65780601f1061187b576101008083540402835291602001916118a6565b820191906000526020600020905b81548152906001019060200180831161188957829003601f168201915b505050505090506118c5565b6040518060200160405280600081525090505b919050565b6118db6118d5611dac565b83611ef7565b61191a576040517f08c379a000000000000000000000000000000000000000000000000000000000815260040161191190613aa5565b60405180910390fd5b61192684848484612464565b50505050565b606061193782611db4565b611976576040517f08c379a000000000000000000000000000000000000000000000000000000000815260040161196d90613f5d565b60405180910390fd5b60006119806124c0565b905060008151116119a057604051806020016040528060008152506119cb565b806119aa84612552565b6040516020016119bb929190613fae565b6040516020818303038152906040525b915050919050565b600d60205280600052604060002060009150905080546119f290613692565b80601f0160208091040260200160405190810160405280929190818152602001828054611a1e90613692565b8015611a6b5780601f10611a4057610100808354040283529160200191611a6b565b820191906000526020600020905b815481529060010190602001808311611a4e57829003601f168201915b505050505081565b600c6020528060005260406000206000915054906101000a900460ff1681565b6000600560008473ffffffffffffffffffffffffffffffffffffffff1673ffffffffffffffffffffffffffffffffffffffff16815260200190815260200160002060008373ffffffffffffffffffffffffffffffffffffffff1673ffffffffffffffffffffffffffffffffffffffff16815260200190815260200160002060009054906101000a900460ff16905092915050565b611b41828260405180602001604052806000815250610bc2565b5050565b611b4d611dac565b73ffffffffffffffffffffffffffffffffffffffff16611b6b611592565b73ffffffffffffffffffffffffffffffffffffffff1614611bc1576040517f08c379a0000000000000000000000000000000000000000000000000000000008152600401611bb8906135d7565b60405180910390fd5b600073ffffffffffffffffffffffffffffffffffffffff168173ffffffffffffffffffffffffffffffffffffffff161415611c31576040517f08c379a0000000000000000000000000000000000000000000000000000000008152600401611c2890614044565b60405180910390fd5b611c3a81612231565b50565b60075481565b6009548351611c529190614064565b341015611c94576040517f08c379a0000000000000000000000000000000000000000000000000000000008152600401611c8b9061387a565b60405180910390fd5b8151835114611cd8576040517f08c379a0000000000000000000000000000000000000000000000000000000008152600401611ccf90613e24565b60405180910390fd5b60005b8351811015611d3657611d23848281518110611cfa57611cf9613e44565b5b6020026020010151848381518110611d1557611d14613e44565b5b602002602001015184610bc2565b8080611d2e90613ea2565b915050611cdb565b50505050565b60085481565b60007f01ffc9a7000000000000000000000000000000000000000000000000000000007bffffffffffffffffffffffffffffffffffffffffffffffffffffffff1916827bffffffffffffffffffffffffffffffffffffffffffffffffffffffff1916149050919050565b600033905090565b60008073ffffffffffffffffffffffffffffffffffffffff166002600084815260200190815260200160002060009054906101000a900473ffffffffffffffffffffffffffffffffffffffff1673ffffffffffffffffffffffffffffffffffffffff1614159050919050565b611e3a8282604051806020016040528060008152506126b3565b5050565b816004600083815260200190815260200160002060006101000a81548173ffffffffffffffffffffffffffffffffffffffff021916908373ffffffffffffffffffffffffffffffffffffffff160217905550808273ffffffffffffffffffffffffffffffffffffffff16611eb183611264565b73ffffffffffffffffffffffffffffffffffffffff167f8c5be1e5ebec7d5bd14f71427d1e84f3dd0314c0f7b2291e5b200ac8c7c3b92560405160405180910390a45050565b6000611f0282611db4565b611f41576040517f08c379a0000000000000000000000000000000000000000000000000000000008152600401611f3890614130565b60405180910390fd5b6000611f4c83611264565b90508073ffffffffffffffffffffffffffffffffffffffff168473ffffffffffffffffffffffffffffffffffffffff161480611fbb57508373ffffffffffffffffffffffffffffffffffffffff16611fa384610b3d565b73ffffffffffffffffffffffffffffffffffffffff16145b80611fcc5750611fcb8185611a93565b5b91505092915050565b8273ffffffffffffffffffffffffffffffffffffffff16611ff582611264565b73ffffffffffffffffffffffffffffffffffffffff161461204b576040517f08c379a0000000000000000000000000000000000000000000000000000000008152600401612042906141c2565b60405180910390fd5b600073ffffffffffffffffffffffffffffffffffffffff168273ffffffffffffffffffffffffffffffffffffffff1614156120bb576040517f08c379a00000000000000000000000000000000000000000000000000000000081526004016120b290614254565b60405180910390fd5b6120c683838361270e565b6120d1600082611e3e565b6001600360008573ffffffffffffffffffffffffffffffffffffffff1673ffffffffffffffffffffffffffffffffffffffff16815260200190815260200160002060008282546121219190614274565b925050819055506001600360008473ffffffffffffffffffffffffffffffffffffffff1673ffffffffffffffffffffffffffffffffffffffff168152602001908152602001600020600082825461217891906142a8565b92505081905550816002600083815260200190815260200160002060006101000a81548173ffffffffffffffffffffffffffffffffffffffff021916908373ffffffffffffffffffffffffffffffffffffffff160217905550808273ffffffffffffffffffffffffffffffffffffffff168473ffffffffffffffffffffffffffffffffffffffff167fddf252ad1be2c89b69c2b068fc378daa952ba7f163c4a11628f55a4df523b3ef60405160405180910390a4505050565b6000600660009054906101000a900473ffffffffffffffffffffffffffffffffffffffff16905081600660006101000a81548173ffffffffffffffffffffffffffffffffffffffff021916908373ffffffffffffffffffffffffffffffffffffffff1602179055508173ffffffffffffffffffffffffffffffffffffffff168173ffffffffffffffffffffffffffffffffffffffff167f8be0079c531659141344cd1fd0a4f28419497f9722a3daafe3b4186f6b6457e060405160405180910390a35050565b8173ffffffffffffffffffffffffffffffffffffffff168373ffffffffffffffffffffffffffffffffffffffff161415612366576040517f08c379a000000000000000000000000000000000000000000000000000000000815260040161235d9061434a565b60405180910390fd5b80600560008573ffffffffffffffffffffffffffffffffffffffff1673ffffffffffffffffffffffffffffffffffffffff16815260200190815260200160002060008473ffffffffffffffffffffffffffffffffffffffff1673ffffffffffffffffffffffffffffffffffffffff16815260200190815260200160002060006101000a81548160ff0219169083151502179055508173ffffffffffffffffffffffffffffffffffffffff168373ffffffffffffffffffffffffffffffffffffffff167f17307eab39ab6107e8899845ad3d59bd9653f200f220920489ca2b5937696c31836040516124579190612bd3565b60405180910390a3505050565b61246f848484611fd5565b61247b84848484612713565b6124ba576040517f08c379a00000000000000000000000000000000000000000000000000000000081526004016124b1906143dc565b60405180910390fd5b50505050565b6060600a80546124cf90613692565b80601f01602080910402602001604051908101604052809291908181526020018280546124fb90613692565b80156125485780601f1061251d57610100808354040283529160200191612548565b820191906000526020600020905b81548152906001019060200180831161252b57829003601f168201915b5050505050905090565b6060600082141561259a576040518060400160405280600181526020017f300000000000000000000000000000000000000000000000000000000000000081525090506126ae565b600082905060005b600082146125cc5780806125b590613ea2565b915050600a826125c5919061442b565b91506125a2565b60008167ffffffffffffffff8111156125e8576125e7612dca565b5b6040519080825280601f01601f19166020018201604052801561261a5781602001600182028036833780820191505090505b5090505b600085146126a7576001826126339190614274565b9150600a85612642919061445c565b603061264e91906142a8565b60f81b81838151811061266457612663613e44565b5b60200101907effffffffffffffffffffffffffffffffffffffffffffffffffffffffffffff1916908160001a905350600a856126a0919061442b565b945061261e565b8093505050505b919050565b6126bd838361289b565b6126ca6000848484612713565b612709576040517f08c379a0000000000000000000000000000000000000000000000000000000008152600401612700906143dc565b60405180910390fd5b505050565b505050565b60006127348473ffffffffffffffffffffffffffffffffffffffff16612a69565b1561288e578373ffffffffffffffffffffffffffffffffffffffff1663150b7a0261275d611dac565b8786866040518563ffffffff1660e01b815260040161277f94939291906144e2565b6020604051808303816000875af19250505080156127bb57506040513d601f19601f820116820180604052508101906127b89190614543565b60015b61283e573d80600081146127eb576040519150601f19603f3d011682016040523d82523d6000602084013e6127f0565b606091505b50600081511415612836576040517f08c379a000000000000000000000000000000000000000000000000000000000815260040161282d906143dc565b60405180910390fd5b805181602001fd5b63150b7a0260e01b7bffffffffffffffffffffffffffffffffffffffffffffffffffffffff1916817bffffffffffffffffffffffffffffffffffffffffffffffffffffffff191614915050612893565b600190505b949350505050565b600073ffffffffffffffffffffffffffffffffffffffff168273ffffffffffffffffffffffffffffffffffffffff16141561290b576040517f08c379a0000000000000000000000000000000000000000000000000000000008152600401612902906145bc565b60405180910390fd5b61291481611db4565b15612954576040517f08c379a000000000000000000000000000000000000000000000000000000000815260040161294b90614628565b60405180910390fd5b6129606000838361270e565b6001600360008473ffffffffffffffffffffffffffffffffffffffff1673ffffffffffffffffffffffffffffffffffffffff16815260200190815260200160002060008282546129b091906142a8565b92505081905550816002600083815260200190815260200160002060006101000a81548173ffffffffffffffffffffffffffffffffffffffff021916908373ffffffffffffffffffffffffffffffffffffffff160217905550808273ffffffffffffffffffffffffffffffffffffffff16600073ffffffffffffffffffffffffffffffffffffffff167fddf252ad1be2c89b69c2b068fc378daa952ba7f163c4a11628f55a4df523b3ef60405160405180910390a45050565b600080823b905060008111915050919050565b828054612a8890613692565b90600052602060002090601f016020900481019282612aaa5760008555612af1565b82601f10612ac357805160ff1916838001178555612af1565b82800160010185558215612af1579182015b82811115612af0578251825591602001919060010190612ad5565b5b509050612afe9190612b02565b5090565b5b80821115612b1b576000816000905550600101612b03565b5090565b6000604051905090565b600080fd5b600080fd5b60007fffffffff0000000000000000000000000000000000000000000000000000000082169050919050565b612b6881612b33565b8114612b7357600080fd5b50565b600081359050612b8581612b5f565b92915050565b600060208284031215612ba157612ba0612b29565b5b6000612baf84828501612b76565b91505092915050565b60008115159050919050565b612bcd81612bb8565b82525050565b6000602082019050612be86000830184612bc4565b92915050565b6000819050919050565b612c0181612bee565b8114612c0c57600080fd5b50565b600081359050612c1e81612bf8565b92915050565b600060208284031215612c3a57612c39612b29565b5b6000612c4884828501612c0f565b91505092915050565b600081519050919050565b600082825260208201905092915050565b60005b83811015612c8b578082015181840152602081019050612c70565b83811115612c9a576000848401525b50505050565b6000601f19601f8301169050919050565b6000612cbc82612c51565b612cc68185612c5c565b9350612cd6818560208601612c6d565b612cdf81612ca0565b840191505092915050565b60006020820190508181036000830152612d048184612cb1565b905092915050565b600073ffffffffffffffffffffffffffffffffffffffff82169050919050565b6000612d3782612d0c565b9050919050565b612d4781612d2c565b82525050565b6000602082019050612d626000830184612d3e565b92915050565b60007fffffff000000000000000000000000000000000000000000000000000000000082169050919050565b612d9d81612d68565b8114612da857600080fd5b50565b600081359050612dba81612d94565b92915050565b600080fd5b600080fd5b7f4e487b7100000000000000000000000000000000000000000000000000000000600052604160045260246000fd5b612e0282612ca0565b810181811067ffffffffffffffff82111715612e2157612e20612dca565b5b80604052505050565b6000612e34612b1f565b9050612e408282612df9565b919050565b600067ffffffffffffffff821115612e6057612e5f612dca565b5b612e6982612ca0565b9050602081019050919050565b82818337600083830152505050565b6000612e98612e9384612e45565b612e2a565b905082815260208101848484011115612eb457612eb3612dc5565b5b612ebf848285612e76565b509392505050565b600082601f830112612edc57612edb612dc0565b5b8135612eec848260208601612e85565b91505092915050565b600080600060608486031215612f0e57612f0d612b29565b5b6000612f1c86828701612c0f565b9350506020612f2d86828701612dab565b925050604084013567ffffffffffffffff811115612f4e57612f4d612b2e565b5b612f5a86828701612ec7565b9150509250925092565b612f6d81612d2c565b8114612f7857600080fd5b50565b600081359050612f8a81612f64565b92915050565b60008060408385031215612fa757612fa6612b29565b5b6000612fb585828601612f7b565b9250506020612fc685828601612c0f565b9150509250929050565b612fd981612bee565b82525050565b6000602082019050612ff46000830184612fd0565b92915050565b61300381612d68565b82525050565b600060208201905061301e6000830184612ffa565b92915050565b60008060006060848603121561303d5761303c612b29565b5b600061304b86828701612f7b565b935050602061305c86828701612f7b565b925050604061306d86828701612c0f565b9150509250925092565b60006020828403121561308d5761308c612b29565b5b600082013567ffffffffffffffff8111156130ab576130aa612b2e565b5b6130b784828501612ec7565b91505092915050565b6000602082840312156130d6576130d5612b29565b5b60006130e484828501612f7b565b91505092915050565b6000806040838503121561310457613103612b29565b5b600061311285828601612c0f565b925050602083013567ffffffffffffffff81111561313357613132612b2e565b5b61313f85828601612ec7565b9150509250929050565b61315281612bb8565b811461315d57600080fd5b50565b60008135905061316f81613149565b92915050565b6000806040838503121561318c5761318b612b29565b5b600061319a85828601612f7b565b92505060206131ab85828601613160565b9150509250929050565b600067ffffffffffffffff8211156131d0576131cf612dca565b5b602082029050602081019050919050565b600080fd5b60006131f96131f4846131b5565b612e2a565b9050808382526020820190506020840283018581111561321c5761321b6131e1565b5b835b8181101561324557806132318882612c0f565b84526020840193505060208101905061321e565b5050509392505050565b600082601f83011261326457613263612dc0565b5b81356132748482602086016131e6565b91505092915050565b600067ffffffffffffffff82111561329857613297612dca565b5b602082029050602081019050919050565b60006132bc6132b78461327d565b612e2a565b905080838252602082019050602084028301858111156132df576132de6131e1565b5b835b8181101561330857806132f48882612dab565b8452602084019350506020810190506132e1565b5050509392505050565b600082601f83011261332757613326612dc0565b5b81356133378482602086016132a9565b91505092915050565b60008060006060848603121561335957613358612b29565b5b600084013567ffffffffffffffff81111561337757613376612b2e565b5b6133838682870161324f565b935050602084013567ffffffffffffffff8111156133a4576133a3612b2e565b5b6133b086828701613312565b925050604084013567ffffffffffffffff8111156133d1576133d0612b2e565b5b6133dd86828701612ec7565b9150509250925092565b600067ffffffffffffffff82111561340257613401612dca565b5b61340b82612ca0565b9050602081019050919050565b600061342b613426846133e7565b612e2a565b90508281526020810184848401111561344757613446612dc5565b5b613452848285612e76565b509392505050565b600082601f83011261346f5761346e612dc0565b5b813561347f848260208601613418565b91505092915050565b600080600080608085870312156134a2576134a1612b29565b5b60006134b087828801612f7b565b94505060206134c187828801612f7b565b93505060406134d287828801612c0f565b925050606085013567ffffffffffffffff8111156134f3576134f2612b2e565b5b6134ff8782880161345a565b91505092959194509250565b6000806040838503121561352257613521612b29565b5b600061353085828601612f7b565b925050602061354185828601612f7b565b9150509250929050565b6000806040838503121561356257613561612b29565b5b600061357085828601612c0f565b925050602061358185828601612dab565b9150509250929050565b7f4f776e61626c653a2063616c6c6572206973206e6f7420746865206f776e6572600082015250565b60006135c1602083612c5c565b91506135cc8261358b565b602082019050919050565b600060208201905081810360008301526135f0816135b4565b9050919050565b7f496e73756666696369656e742066756e64730000000000000000000000000000600082015250565b600061362d601283612c5c565b9150613638826135f7565b602082019050919050565b6000602082019050818103600083015261365c81613620565b9050919050565b7f4e487b7100000000000000000000000000000000000000000000000000000000600052602260045260246000fd5b600060028204905060018216806136aa57607f821691505b602082108114156136be576136bd613663565b5b50919050565b7f4552433732313a20617070726f76656420717565727920666f72206e6f6e657860008201527f697374656e7420746f6b656e0000000000000000000000000000000000000000602082015250565b6000613720602c83612c5c565b915061372b826136c4565b604082019050919050565b6000602082019050818103600083015261374f81613713565b9050919050565b7f506978656c20697320616c7265616479206f776e656400000000000000000000600082015250565b600061378c601683612c5c565b915061379782613756565b602082019050919050565b600060208201905081810360008301526137bb8161377f565b9050919050565b7f506978656c206f7574206f662072616e67650000000000000000000000000000600082015250565b60006137f8601283612c5c565b9150613803826137c2565b602082019050919050565b60006020820190508181036000830152613827816137eb565b9050919050565b7f4e6f2f20496e73756666696369656e7420666565732070726f76696465640000600082015250565b6000613864601e83612c5c565b915061386f8261382e565b602082019050919050565b6000602082019050818103600083015261389381613857565b9050919050565b60006040820190506138af6000830185612fd0565b6138bc6020830184612fd0565b9392505050565b60006080820190506138d86000830187612d3e565b6138e56020830186612ffa565b6138f26040830185612fd0565b81810360608301526139048184612cb1565b905095945050505050565b7f4552433732313a20617070726f76616c20746f2063757272656e74206f776e6560008201527f7200000000000000000000000000000000000000000000000000000000000000602082015250565b600061396b602183612c5c565b91506139768261390f565b604082019050919050565b6000602082019050818103600083015261399a8161395e565b9050919050565b7f4552433732313a20617070726f76652063616c6c6572206973206e6f74206f7760008201527f6e6572206e6f7220617070726f76656420666f7220616c6c0000000000000000602082015250565b60006139fd603883612c5c565b9150613a08826139a1565b604082019050919050565b60006020820190508181036000830152613a2c816139f0565b9050919050565b7f4552433732313a207472616e736665722063616c6c6572206973206e6f74206f60008201527f776e6572206e6f7220617070726f766564000000000000000000000000000000602082015250565b6000613a8f603183612c5c565b9150613a9a82613a33565b604082019050919050565b60006020820190508181036000830152613abe81613a82565b9050919050565b7f506978656c206964206f7574206f662072616e67650000000000000000000000600082015250565b6000613afb601583612c5c565b9150613b0682613ac5565b602082019050919050565b60006020820190508181036000830152613b2a81613aee565b9050919050565b7f53656e646572206973206e6f7420506978656c206f776e657200000000000000600082015250565b6000613b67601983612c5c565b9150613b7282613b31565b602082019050919050565b60006020820190508181036000830152613b9681613b5a565b9050919050565b600081905092915050565b7f2f00000000000000000000000000000000000000000000000000000000000000600082015250565b6000613bde600183613b9d565b9150613be982613ba8565b600182019050919050565b6000613bff82613bd1565b9150819050919050565b60008190508160005260206000209050919050565b60008154613c2b81613692565b613c358186613b9d565b94506001821660008114613c505760018114613c6157613c94565b60ff19831686528186019350613c94565b613c6a85613c09565b60005b83811015613c8c57815481890152600182019150602081019050613c6d565b838801955050505b50505092915050565b6000613ca98284613c1e565b915081905092915050565b7f4552433732313a206f776e657220717565727920666f72206e6f6e657869737460008201527f656e7420746f6b656e0000000000000000000000000000000000000000000000602082015250565b6000613d10602983612c5c565b9150613d1b82613cb4565b604082019050919050565b60006020820190508181036000830152613d3f81613d03565b9050919050565b7f4552433732313a2062616c616e636520717565727920666f7220746865207a6560008201527f726f206164647265737300000000000000000000000000000000000000000000602082015250565b6000613da2602a83612c5c565b9150613dad82613d46565b604082019050919050565b60006020820190508181036000830152613dd181613d95565b9050919050565b7f417272617973206f6620696e636f6e73697374656e74206c656e677468000000600082015250565b6000613e0e601d83612c5c565b9150613e1982613dd8565b602082019050919050565b60006020820190508181036000830152613e3d81613e01565b9050919050565b7f4e487b7100000000000000000000000000000000000000000000000000000000600052603260045260246000fd5b7f4e487b7100000000000000000000000000000000000000000000000000000000600052601160045260246000fd5b6000613ead82612bee565b91507fffffffffffffffffffffffffffffffffffffffffffffffffffffffffffffffff821415613ee057613edf613e73565b5b600182019050919050565b7f4552433732314d657461646174613a2055524920717565727920666f72206e6f60008201527f6e6578697374656e7420746f6b656e0000000000000000000000000000000000602082015250565b6000613f47602f83612c5c565b9150613f5282613eeb565b604082019050919050565b60006020820190508181036000830152613f7681613f3a565b9050919050565b6000613f8882612c51565b613f928185613b9d565b9350613fa2818560208601612c6d565b80840191505092915050565b6000613fba8285613f7d565b9150613fc68284613f7d565b91508190509392505050565b7f4f776e61626c653a206e6577206f776e657220697320746865207a65726f206160008201527f6464726573730000000000000000000000000000000000000000000000000000602082015250565b600061402e602683612c5c565b915061403982613fd2565b604082019050919050565b6000602082019050818103600083015261405d81614021565b9050919050565b600061406f82612bee565b915061407a83612bee565b9250817fffffffffffffffffffffffffffffffffffffffffffffffffffffffffffffffff04831182151516156140b3576140b2613e73565b5b828202905092915050565b7f4552433732313a206f70657261746f7220717565727920666f72206e6f6e657860008201527f697374656e7420746f6b656e0000000000000000000000000000000000000000602082015250565b600061411a602c83612c5c565b9150614125826140be565b604082019050919050565b600060208201905081810360008301526141498161410d565b9050919050565b7f4552433732313a207472616e73666572206f6620746f6b656e2074686174206960008201527f73206e6f74206f776e0000000000000000000000000000000000000000000000602082015250565b60006141ac602983612c5c565b91506141b782614150565b604082019050919050565b600060208201905081810360008301526141db8161419f565b9050919050565b7f4552433732313a207472616e7366657220746f20746865207a65726f2061646460008201527f7265737300000000000000000000000000000000000000000000000000000000602082015250565b600061423e602483612c5c565b9150614249826141e2565b604082019050919050565b6000602082019050818103600083015261426d81614231565b9050919050565b600061427f82612bee565b915061428a83612bee565b92508282101561429d5761429c613e73565b5b828203905092915050565b60006142b382612bee565b91506142be83612bee565b9250827fffffffffffffffffffffffffffffffffffffffffffffffffffffffffffffffff038211156142f3576142f2613e73565b5b828201905092915050565b7f4552433732313a20617070726f766520746f2063616c6c657200000000000000600082015250565b6000614334601983612c5c565b915061433f826142fe565b602082019050919050565b6000602082019050818103600083015261436381614327565b9050919050565b7f4552433732313a207472616e7366657220746f206e6f6e20455243373231526560008201527f63656976657220696d706c656d656e7465720000000000000000000000000000602082015250565b60006143c6603283612c5c565b91506143d18261436a565b604082019050919050565b600060208201905081810360008301526143f5816143b9565b9050919050565b7f4e487b7100000000000000000000000000000000000000000000000000000000600052601260045260246000fd5b600061443682612bee565b915061444183612bee565b925082614451576144506143fc565b5b828204905092915050565b600061446782612bee565b915061447283612bee565b925082614482576144816143fc565b5b828206905092915050565b600081519050919050565b600082825260208201905092915050565b60006144b48261448d565b6144be8185614498565b93506144ce818560208601612c6d565b6144d781612ca0565b840191505092915050565b60006080820190506144f76000830187612d3e565b6145046020830186612d3e565b6145116040830185612fd0565b818103606083015261452381846144a9565b905095945050505050565b60008151905061453d81612b5f565b92915050565b60006020828403121561455957614558612b29565b5b60006145678482850161452e565b91505092915050565b7f4552433732313a206d696e7420746f20746865207a65726f2061646472657373600082015250565b60006145a6602083612c5c565b91506145b182614570565b602082019050919050565b600060208201905081810360008301526145d581614599565b9050919050565b7f4552433732313a20746f6b656e20616c7265616479206d696e74656400000000600082015250565b6000614612601c83612c5c565b915061461d826145dc565b602082019050919050565b6000602082019050818103600083015261464181614605565b905091905056fea26469706673582212207d269833557a301018fd8d8fdde72705b0774c2f048e10a84b740af8d595083c64736f6c634300080a0033",
  "immutableReferences": {},
  "source": "// SPDX-License-Identifier: MIT\npragma solidity ^0.8.0;\n\nimport \"@openzeppelin/contracts/token/ERC721/ERC721.sol\";\nimport \"@openzeppelin/contracts/access/Ownable.sol\";\n\ncontract Pixels is ERC721, Ownable {\n\n    uint256 public _gridsize = 1000; //will change to 1000 eventually.....l\n    uint256 public _totalPixels = _gridsize * _gridsize;\n    uint256 public _pixelPrice = 400000000000000000; // approx 1usd\n    string public _baseURIextended;\n\n    // bytes3[] public _pixelColours = new bytes3[](_gridsize);\n    mapping(uint256 => bytes3) public _pixelColours;\n    mapping(uint256 => bool) public _pixelOwned;\n    mapping(uint256 => string) public _pixelURL;\n\n    event PixelMinted (uint date, address indexed to, uint256 pixelId);\n    event PixelColourChanged ( address owner, bytes3 newColour, uint256 pixelId , string newURL);\n\n    constructor() ERC721(\"Pixels\", \"PIX\") {\n        _baseURIextended = \"https://polypaint.io/nft/\";\n    }\n\n    function setTokenPrice(uint256 _newPrice) external onlyOwner {\n        _pixelPrice = _newPrice;\n    }\n\n    function mint(uint256 _pixelId, bytes3 _newColour, string memory _customURL) public payable {\n        require(!_pixelOwned[_pixelId], \"Pixel is already owned\");\n        require(_pixelId < _totalPixels, \"Pixel out of range\");\n        require(msg.value >= _pixelPrice, \"No/ Insufficient fees provided\");\n        _pixelOwned[_pixelId] = true;\n        _pixelColours[_pixelId] = _newColour;\n        _pixelURL[_pixelId]  = _customURL;\n        _safeMint(msg.sender, _pixelId);\n        emit PixelMinted(block.timestamp, msg.sender, _pixelId);\n        emit PixelColourChanged(msg.sender, _newColour, _pixelId, _customURL);\n    }\n\n    function mint(uint256 _pixelId, bytes3 _newColour) external payable {\n        mint(_pixelId, _newColour, \"\");\n    }\n\n    function mint(uint256 _pixelId, string memory _customURL) external payable {\n        mint(_pixelId, 0x111111, _customURL);\n    }\n\n    function mint(uint256 _pixelId) external payable {\n        mint(_pixelId, 0x111111, \"\");\n    }\n\n    function mintMultiple(uint256[] memory _pixelIds, bytes3[] memory _newColours, string memory _customURL) public payable {\n        require(msg.value >= _pixelIds.length * _pixelPrice, \"No/ Insufficient fees provided\");\n        require(_pixelIds.length == _newColours.length, \"Arrays of inconsistent length\");\n        for (uint256 i = 0; i < _pixelIds.length; i++) {\n            mint(_pixelIds[i], _newColours[i], _customURL);\n        }\n    }\n\n    function getBalance() public view returns(uint256){\n        return address(this).balance;\n    }\n\n     function withdrawAmount(uint256 amount) external onlyOwner {\n         require(amount <= getBalance(), \"Insufficient funds\");\n         payable(msg.sender).transfer(amount);\n     }\n\n    //function change pixel colour |||ERC721.ownerOf(tokenId)\n    function changePixelColour(uint256 _pixelId, bytes3 _newColour, string memory _newURL) public {\n        require(_pixelId < _totalPixels, \"Pixel id out of range\");\n        require(ownerOf(_pixelId) == msg.sender, \"Sender is not Pixel owner\");\n        if (keccak256(abi.encodePacked(_pixelURL[_pixelId])) != keccak256(abi.encodePacked('/'))) {\n            _pixelURL[_pixelId] = _newURL;\n        }\n        _pixelColours[_pixelId] = _newColour;\n        emit PixelColourChanged(msg.sender, _newColour, _pixelId, _newURL);\n    }\n\n    function changePixelColourMultiple(uint256[] memory _pixelIds, bytes3[] memory _newColours, string memory _newURL) external {\n        require(_pixelIds.length == _newColours.length, \"Arrays of inconsistent length\");\n        for (uint256 i = 0; i < _pixelIds.length; i++) {\n            changePixelColour(_pixelIds[i], _newColours[i], _newURL);\n        }\n    }\n\n    function getPixelColour(uint256 _pixelId) public view returns (bytes3) {\n        require(_pixelId < _totalPixels, \"Pixel id out of range\");\n        if(_pixelOwned[_pixelId]) {\n            return _pixelColours[_pixelId];\n        } else {\n            return 0x000001;\n        }\n    }\n\n    function getPixelCustomURL(uint256 _pixelId) public view returns (string memory) {\n        require(_pixelId < _totalPixels, \"Pixel id out of range\");\n        if(_pixelOwned[_pixelId]) {\n            return _pixelURL[_pixelId];\n        } else {\n            return \"\";\n        }\n    }\n\n    function isPixelOwned(uint256 _pixelId) public view returns (bool) {\n        require(_pixelId < _totalPixels, \"Pixel id out of range\");\n        return _pixelOwned[_pixelId];\n    }\n\n    function setBaseURI(string memory baseURI_) external onlyOwner() {\n        _baseURIextended = baseURI_;\n    }\n\n    function _baseURI() internal view virtual override returns (string memory) {\n        return _baseURIextended;\n    }\n\n}\n",
  "sourcePath": "/Users/max/Desktop/POLYPAINT.IO/sol/contracts/Pixels.sol",
  "compiler": {
    "name": "solc",
    "version": "0.8.10+commit.fc410830.Emscripten.clang"
  },
  "schemaVersion": "3.4.4",
  "updatedAt": "2022-01-04T23:14:53.245Z",
  "networkType": "ethereum",
  "devdoc": {
    "kind": "dev",
    "methods": {
      "approve(address,uint256)": {
        "details": "See {IERC721-approve}."
      },
      "balanceOf(address)": {
        "details": "See {IERC721-balanceOf}."
      },
      "getApproved(uint256)": {
        "details": "See {IERC721-getApproved}."
      },
      "isApprovedForAll(address,address)": {
        "details": "See {IERC721-isApprovedForAll}."
      },
      "name()": {
        "details": "See {IERC721Metadata-name}."
      },
      "owner()": {
        "details": "Returns the address of the current owner."
      },
      "ownerOf(uint256)": {
        "details": "See {IERC721-ownerOf}."
      },
      "renounceOwnership()": {
        "details": "Leaves the contract without owner. It will not be possible to call `onlyOwner` functions anymore. Can only be called by the current owner. NOTE: Renouncing ownership will leave the contract without an owner, thereby removing any functionality that is only available to the owner."
      },
      "safeTransferFrom(address,address,uint256)": {
        "details": "See {IERC721-safeTransferFrom}."
      },
      "safeTransferFrom(address,address,uint256,bytes)": {
        "details": "See {IERC721-safeTransferFrom}."
      },
      "setApprovalForAll(address,bool)": {
        "details": "See {IERC721-setApprovalForAll}."
      },
      "supportsInterface(bytes4)": {
        "details": "See {IERC165-supportsInterface}."
      },
      "symbol()": {
        "details": "See {IERC721Metadata-symbol}."
      },
      "tokenURI(uint256)": {
        "details": "See {IERC721Metadata-tokenURI}."
      },
      "transferFrom(address,address,uint256)": {
        "details": "See {IERC721-transferFrom}."
      },
      "transferOwnership(address)": {
        "details": "Transfers ownership of the contract to a new account (`newOwner`). Can only be called by the current owner."
      }
    },
    "version": 1
  },
  "userdoc": {
    "kind": "user",
    "methods": {},
    "version": 1
  }
}