{
  "contractName": "Pixels",
  "abi": [
    {
      "inputs": [],
      "stateMutability": "nonpayable",
      "type": "constructor"
    },
    {
      "anonymous": false,
      "inputs": [
        {
          "indexed": true,
          "internalType": "address",
          "name": "owner",
          "type": "address"
        },
        {
          "indexed": true,
          "internalType": "address",
          "name": "approved",
          "type": "address"
        },
        {
          "indexed": true,
          "internalType": "uint256",
          "name": "tokenId",
          "type": "uint256"
        }
      ],
      "name": "Approval",
      "type": "event"
    },
    {
      "anonymous": false,
      "inputs": [
        {
          "indexed": true,
          "internalType": "address",
          "name": "owner",
          "type": "address"
        },
        {
          "indexed": true,
          "internalType": "address",
          "name": "operator",
          "type": "address"
        },
        {
          "indexed": false,
          "internalType": "bool",
          "name": "approved",
          "type": "bool"
        }
      ],
      "name": "ApprovalForAll",
      "type": "event"
    },
    {
      "anonymous": false,
      "inputs": [
        {
          "indexed": true,
          "internalType": "address",
          "name": "previousOwner",
          "type": "address"
        },
        {
          "indexed": true,
          "internalType": "address",
          "name": "newOwner",
          "type": "address"
        }
      ],
      "name": "OwnershipTransferred",
      "type": "event"
    },
    {
      "anonymous": false,
      "inputs": [
        {
          "indexed": true,
          "internalType": "address",
          "name": "from",
          "type": "address"
        },
        {
          "indexed": true,
          "internalType": "address",
          "name": "to",
          "type": "address"
        },
        {
          "indexed": true,
          "internalType": "uint256",
          "name": "tokenId",
          "type": "uint256"
        }
      ],
      "name": "Transfer",
      "type": "event"
    },
    {
      "inputs": [],
      "name": "_gridsize",
      "outputs": [
        {
          "internalType": "uint256",
          "name": "",
          "type": "uint256"
        }
      ],
      "stateMutability": "view",
      "type": "function",
      "constant": true
    },
    {
      "inputs": [],
      "name": "_pixelPrice",
      "outputs": [
        {
          "internalType": "uint256",
          "name": "",
          "type": "uint256"
        }
      ],
      "stateMutability": "view",
      "type": "function",
      "constant": true
    },
    {
      "inputs": [],
      "name": "_totalPixels",
      "outputs": [
        {
          "internalType": "uint256",
          "name": "",
          "type": "uint256"
        }
      ],
      "stateMutability": "view",
      "type": "function",
      "constant": true
    },
    {
      "inputs": [
        {
          "internalType": "address",
          "name": "to",
          "type": "address"
        },
        {
          "internalType": "uint256",
          "name": "tokenId",
          "type": "uint256"
        }
      ],
      "name": "approve",
      "outputs": [],
      "stateMutability": "nonpayable",
      "type": "function"
    },
    {
      "inputs": [
        {
          "internalType": "address",
          "name": "owner",
          "type": "address"
        }
      ],
      "name": "balanceOf",
      "outputs": [
        {
          "internalType": "uint256",
          "name": "",
          "type": "uint256"
        }
      ],
      "stateMutability": "view",
      "type": "function",
      "constant": true
    },
    {
      "inputs": [
        {
          "internalType": "uint256",
          "name": "tokenId",
          "type": "uint256"
        }
      ],
      "name": "getApproved",
      "outputs": [
        {
          "internalType": "address",
          "name": "",
          "type": "address"
        }
      ],
      "stateMutability": "view",
      "type": "function",
      "constant": true
    },
    {
      "inputs": [
        {
          "internalType": "address",
          "name": "owner",
          "type": "address"
        },
        {
          "internalType": "address",
          "name": "operator",
          "type": "address"
        }
      ],
      "name": "isApprovedForAll",
      "outputs": [
        {
          "internalType": "bool",
          "name": "",
          "type": "bool"
        }
      ],
      "stateMutability": "view",
      "type": "function",
      "constant": true
    },
    {
      "inputs": [],
      "name": "name",
      "outputs": [
        {
          "internalType": "string",
          "name": "",
          "type": "string"
        }
      ],
      "stateMutability": "view",
      "type": "function",
      "constant": true
    },
    {
      "inputs": [],
      "name": "owner",
      "outputs": [
        {
          "internalType": "address",
          "name": "",
          "type": "address"
        }
      ],
      "stateMutability": "view",
      "type": "function",
      "constant": true
    },
    {
      "inputs": [
        {
          "internalType": "uint256",
          "name": "tokenId",
          "type": "uint256"
        }
      ],
      "name": "ownerOf",
      "outputs": [
        {
          "internalType": "address",
          "name": "",
          "type": "address"
        }
      ],
      "stateMutability": "view",
      "type": "function",
      "constant": true
    },
    {
      "inputs": [],
      "name": "renounceOwnership",
      "outputs": [],
      "stateMutability": "nonpayable",
      "type": "function"
    },
    {
      "inputs": [
        {
          "internalType": "address",
          "name": "from",
          "type": "address"
        },
        {
          "internalType": "address",
          "name": "to",
          "type": "address"
        },
        {
          "internalType": "uint256",
          "name": "tokenId",
          "type": "uint256"
        }
      ],
      "name": "safeTransferFrom",
      "outputs": [],
      "stateMutability": "nonpayable",
      "type": "function"
    },
    {
      "inputs": [
        {
          "internalType": "address",
          "name": "from",
          "type": "address"
        },
        {
          "internalType": "address",
          "name": "to",
          "type": "address"
        },
        {
          "internalType": "uint256",
          "name": "tokenId",
          "type": "uint256"
        },
        {
          "internalType": "bytes",
          "name": "_data",
          "type": "bytes"
        }
      ],
      "name": "safeTransferFrom",
      "outputs": [],
      "stateMutability": "nonpayable",
      "type": "function"
    },
    {
      "inputs": [
        {
          "internalType": "address",
          "name": "operator",
          "type": "address"
        },
        {
          "internalType": "bool",
          "name": "approved",
          "type": "bool"
        }
      ],
      "name": "setApprovalForAll",
      "outputs": [],
      "stateMutability": "nonpayable",
      "type": "function"
    },
    {
      "inputs": [
        {
          "internalType": "bytes4",
          "name": "interfaceId",
          "type": "bytes4"
        }
      ],
      "name": "supportsInterface",
      "outputs": [
        {
          "internalType": "bool",
          "name": "",
          "type": "bool"
        }
      ],
      "stateMutability": "view",
      "type": "function",
      "constant": true
    },
    {
      "inputs": [],
      "name": "symbol",
      "outputs": [
        {
          "internalType": "string",
          "name": "",
          "type": "string"
        }
      ],
      "stateMutability": "view",
      "type": "function",
      "constant": true
    },
    {
      "inputs": [
        {
          "internalType": "uint256",
          "name": "tokenId",
          "type": "uint256"
        }
      ],
      "name": "tokenURI",
      "outputs": [
        {
          "internalType": "string",
          "name": "",
          "type": "string"
        }
      ],
      "stateMutability": "view",
      "type": "function",
      "constant": true
    },
    {
      "inputs": [
        {
          "internalType": "address",
          "name": "from",
          "type": "address"
        },
        {
          "internalType": "address",
          "name": "to",
          "type": "address"
        },
        {
          "internalType": "uint256",
          "name": "tokenId",
          "type": "uint256"
        }
      ],
      "name": "transferFrom",
      "outputs": [],
      "stateMutability": "nonpayable",
      "type": "function"
    },
    {
      "inputs": [
        {
          "internalType": "address",
          "name": "newOwner",
          "type": "address"
        }
      ],
      "name": "transferOwnership",
      "outputs": [],
      "stateMutability": "nonpayable",
      "type": "function"
    },
    {
      "inputs": [
        {
          "internalType": "uint256",
          "name": "_pixelId",
          "type": "uint256"
        }
      ],
      "name": "mint",
      "outputs": [],
      "stateMutability": "payable",
      "type": "function",
      "payable": true
    },
    {
      "inputs": [],
      "name": "getBalance",
      "outputs": [
        {
          "internalType": "uint256",
          "name": "",
          "type": "uint256"
        }
      ],
      "stateMutability": "view",
      "type": "function",
      "constant": true
    },
    {
      "inputs": [
        {
          "internalType": "uint256",
          "name": "amount",
          "type": "uint256"
        }
      ],
      "name": "withdrawAmount",
      "outputs": [],
      "stateMutability": "nonpayable",
      "type": "function"
    },
    {
      "inputs": [
        {
          "internalType": "uint256",
          "name": "_pixelId",
          "type": "uint256"
        },
        {
          "internalType": "string",
          "name": "_colorHex",
          "type": "string"
        }
      ],
      "name": "changePixelColor",
      "outputs": [],
      "stateMutability": "nonpayable",
      "type": "function"
    },
    {
      "inputs": [
        {
          "internalType": "uint256",
          "name": "_pixelId",
          "type": "uint256"
        }
      ],
      "name": "getPixelColour",
      "outputs": [
        {
          "internalType": "string",
          "name": "",
          "type": "string"
        }
      ],
      "stateMutability": "view",
      "type": "function",
      "constant": true
    },
    {
      "inputs": [
        {
          "internalType": "uint256",
          "name": "_pixelId",
          "type": "uint256"
        }
      ],
      "name": "getDebugPixelColour",
      "outputs": [
        {
          "internalType": "string",
          "name": "",
          "type": "string"
        }
      ],
      "stateMutability": "view",
      "type": "function",
      "constant": true
    }
  ],
  "bytecode": "0x60806040526103e86008556008546008546200001c9190620002b4565b60095565e35fa931a000600a553480156200003657600080fd5b506040518060400160405280600681526020017f506978656c7300000000000000000000000000000000000000000000000000008152506040518060400160405280600381526020017f50495800000000000000000000000000000000000000000000000000000000008152508160009080519060200190620000bb929190620001cb565b508060019080519060200190620000d4929190620001cb565b505050620000f7620000eb620000fd60201b60201c565b6200010560201b60201c565b6200037a565b600033905090565b6000600660009054906101000a900473ffffffffffffffffffffffffffffffffffffffff16905081600660006101000a81548173ffffffffffffffffffffffffffffffffffffffff021916908373ffffffffffffffffffffffffffffffffffffffff1602179055508173ffffffffffffffffffffffffffffffffffffffff168173ffffffffffffffffffffffffffffffffffffffff167f8be0079c531659141344cd1fd0a4f28419497f9722a3daafe3b4186f6b6457e060405160405180910390a35050565b828054620001d99062000344565b90600052602060002090601f016020900481019282620001fd576000855562000249565b82601f106200021857805160ff191683800117855562000249565b8280016001018555821562000249579182015b82811115620002485782518255916020019190600101906200022b565b5b5090506200025891906200025c565b5090565b5b80821115620002775760008160009055506001016200025d565b5090565b6000819050919050565b7f4e487b7100000000000000000000000000000000000000000000000000000000600052601160045260246000fd5b6000620002c1826200027b565b9150620002ce836200027b565b9250817fffffffffffffffffffffffffffffffffffffffffffffffffffffffffffffffff04831182151516156200030a576200030962000285565b5b828202905092915050565b7f4e487b7100000000000000000000000000000000000000000000000000000000600052602260045260246000fd5b600060028204905060018216806200035d57607f821691505b6020821081141562000374576200037362000315565b5b50919050565b6138de806200038a6000396000f3fe6080604052600436106101665760003560e01c8063715018a6116100d1578063afccaf651161008a578063e985e9c511610064578063e985e9c51461053f578063f2fde38b1461057c578063f5adb59a146105a5578063fff4ca9c146105d057610166565b8063afccaf65146104ae578063b88d4fde146104d9578063c87b56dd1461050257610166565b8063715018a6146103d35780638da5cb5b146103ea57806395d89b4114610415578063a0712d6814610440578063a22cb4651461045c578063a6a1fb4d1461048557610166565b806323b872dd1161012357806323b872dd1461028d57806342842e0e146102b657806349825581146102df5780636352211e1461031c578063642fd0f61461035957806370a082311461039657610166565b806301ffc9a71461016b5780630562b9f7146101a857806306fdde03146101d1578063081812fc146101fc578063095ea7b31461023957806312065fe014610262575b600080fd5b34801561017757600080fd5b50610192600480360381019061018d91906122e0565b6105fb565b60405161019f9190612328565b60405180910390f35b3480156101b457600080fd5b506101cf60048036038101906101ca9190612379565b6106dd565b005b3480156101dd57600080fd5b506101e66107ed565b6040516101f3919061243f565b60405180910390f35b34801561020857600080fd5b50610223600480360381019061021e9190612379565b61087f565b60405161023091906124a2565b60405180910390f35b34801561024557600080fd5b50610260600480360381019061025b91906124e9565b610904565b005b34801561026e57600080fd5b50610277610a1c565b6040516102849190612538565b60405180910390f35b34801561029957600080fd5b506102b460048036038101906102af9190612553565b610a24565b005b3480156102c257600080fd5b506102dd60048036038101906102d89190612553565b610a84565b005b3480156102eb57600080fd5b5061030660048036038101906103019190612379565b610aa4565b604051610313919061243f565b60405180910390f35b34801561032857600080fd5b50610343600480360381019061033e9190612379565b610b49565b60405161035091906124a2565b60405180910390f35b34801561036557600080fd5b50610380600480360381019061037b9190612379565b610bfb565b60405161038d919061243f565b60405180910390f35b3480156103a257600080fd5b506103bd60048036038101906103b891906125a6565b610d48565b6040516103ca9190612538565b60405180910390f35b3480156103df57600080fd5b506103e8610e00565b005b3480156103f657600080fd5b506103ff610e88565b60405161040c91906124a2565b60405180910390f35b34801561042157600080fd5b5061042a610eb2565b604051610437919061243f565b60405180910390f35b61045a60048036038101906104559190612379565b610f44565b005b34801561046857600080fd5b50610483600480360381019061047e91906125ff565b6110ca565b005b34801561049157600080fd5b506104ac60048036038101906104a79190612774565b6110e0565b005b3480156104ba57600080fd5b506104c361126b565b6040516104d09190612538565b60405180910390f35b3480156104e557600080fd5b5061050060048036038101906104fb9190612871565b611271565b005b34801561050e57600080fd5b5061052960048036038101906105249190612379565b6112d3565b604051610536919061243f565b60405180910390f35b34801561054b57600080fd5b50610566600480360381019061056191906128f4565b61137a565b6040516105739190612328565b60405180910390f35b34801561058857600080fd5b506105a3600480360381019061059e91906125a6565b61140e565b005b3480156105b157600080fd5b506105ba611506565b6040516105c79190612538565b60405180910390f35b3480156105dc57600080fd5b506105e561150c565b6040516105f29190612538565b60405180910390f35b60007f80ac58cd000000000000000000000000000000000000000000000000000000007bffffffffffffffffffffffffffffffffffffffffffffffffffffffff1916827bffffffffffffffffffffffffffffffffffffffffffffffffffffffff191614806106c657507f5b5e139f000000000000000000000000000000000000000000000000000000007bffffffffffffffffffffffffffffffffffffffffffffffffffffffff1916827bffffffffffffffffffffffffffffffffffffffffffffffffffffffff1916145b806106d657506106d582611512565b5b9050919050565b6106e561157c565b73ffffffffffffffffffffffffffffffffffffffff16610703610e88565b73ffffffffffffffffffffffffffffffffffffffff1614610759576040517f08c379a000000000000000000000000000000000000000000000000000000000815260040161075090612980565b60405180910390fd5b610761610a1c565b8111156107a3576040517f08c379a000000000000000000000000000000000000000000000000000000000815260040161079a906129ec565b60405180910390fd5b3373ffffffffffffffffffffffffffffffffffffffff166108fc829081150290604051600060405180830381858888f193505050501580156107e9573d6000803e3d6000fd5b5050565b6060600080546107fc90612a3b565b80601f016020809104026020016040519081016040528092919081815260200182805461082890612a3b565b80156108755780601f1061084a57610100808354040283529160200191610875565b820191906000526020600020905b81548152906001019060200180831161085857829003601f168201915b5050505050905090565b600061088a82611584565b6108c9576040517f08c379a00000000000000000000000000000000000000000000000000000000081526004016108c090612adf565b60405180910390fd5b6004600083815260200190815260200160002060009054906101000a900473ffffffffffffffffffffffffffffffffffffffff169050919050565b600061090f82610b49565b90508073ffffffffffffffffffffffffffffffffffffffff168373ffffffffffffffffffffffffffffffffffffffff161415610980576040517f08c379a000000000000000000000000000000000000000000000000000000000815260040161097790612b71565b60405180910390fd5b8073ffffffffffffffffffffffffffffffffffffffff1661099f61157c565b73ffffffffffffffffffffffffffffffffffffffff1614806109ce57506109cd816109c861157c565b61137a565b5b610a0d576040517f08c379a0000000000000000000000000000000000000000000000000000000008152600401610a0490612c03565b60405180910390fd5b610a1783836115f0565b505050565b600047905090565b610a35610a2f61157c565b826116a9565b610a74576040517f08c379a0000000000000000000000000000000000000000000000000000000008152600401610a6b90612c95565b60405180910390fd5b610a7f838383611787565b505050565b610a9f83838360405180602001604052806000815250611271565b505050565b6060600b60008381526020019081526020016000208054610ac490612a3b565b80601f0160208091040260200160405190810160405280929190818152602001828054610af090612a3b565b8015610b3d5780601f10610b1257610100808354040283529160200191610b3d565b820191906000526020600020905b815481529060010190602001808311610b2057829003601f168201915b50505050509050919050565b6000806002600084815260200190815260200160002060009054906101000a900473ffffffffffffffffffffffffffffffffffffffff169050600073ffffffffffffffffffffffffffffffffffffffff168173ffffffffffffffffffffffffffffffffffffffff161415610bf2576040517f08c379a0000000000000000000000000000000000000000000000000000000008152600401610be990612d27565b60405180910390fd5b80915050919050565b60606009548210610c41576040517f08c379a0000000000000000000000000000000000000000000000000000000008152600401610c3890612d93565b60405180910390fd5b600c600083815260200190815260200160002060009054906101000a900460ff1615610d0a57600b60008381526020019081526020016000208054610c8590612a3b565b80601f0160208091040260200160405190810160405280929190818152602001828054610cb190612a3b565b8015610cfe5780601f10610cd357610100808354040283529160200191610cfe565b820191906000526020600020905b815481529060010190602001808311610ce157829003601f168201915b50505050509050610d43565b6040518060400160405280600681526020017f333333333333000000000000000000000000000000000000000000000000000081525090505b919050565b60008073ffffffffffffffffffffffffffffffffffffffff168273ffffffffffffffffffffffffffffffffffffffff161415610db9576040517f08c379a0000000000000000000000000000000000000000000000000000000008152600401610db090612e25565b60405180910390fd5b600360008373ffffffffffffffffffffffffffffffffffffffff1673ffffffffffffffffffffffffffffffffffffffff168152602001908152602001600020549050919050565b610e0861157c565b73ffffffffffffffffffffffffffffffffffffffff16610e26610e88565b73ffffffffffffffffffffffffffffffffffffffff1614610e7c576040517f08c379a0000000000000000000000000000000000000000000000000000000008152600401610e7390612980565b60405180910390fd5b610e8660006119e3565b565b6000600660009054906101000a900473ffffffffffffffffffffffffffffffffffffffff16905090565b606060018054610ec190612a3b565b80601f0160208091040260200160405190810160405280929190818152602001828054610eed90612a3b565b8015610f3a5780601f10610f0f57610100808354040283529160200191610f3a565b820191906000526020600020905b815481529060010190602001808311610f1d57829003601f168201915b5050505050905090565b600c600082815260200190815260200160002060009054906101000a900460ff1615610fa5576040517f08c379a0000000000000000000000000000000000000000000000000000000008152600401610f9c90612e91565b60405180910390fd5b6009548110610fe9576040517f08c379a0000000000000000000000000000000000000000000000000000000008152600401610fe090612efd565b60405180910390fd5b600a5434101561102e576040517f08c379a000000000000000000000000000000000000000000000000000000000815260040161102590612f69565b60405180910390fd5b60008190506001600c600084815260200190815260200160002060006101000a81548160ff0219169083151502179055506040518060400160405280600681526020017f3737373737370000000000000000000000000000000000000000000000000000815250600b600084815260200190815260200160002090805190602001906110bb9291906121d1565b506110c63382611aa9565b5050565b6110dc6110d561157c565b8383611ac7565b5050565b6009548210611124576040517f08c379a000000000000000000000000000000000000000000000000000000000815260040161111b90612d93565b60405180910390fd5b600c600083815260200190815260200160002060009054906101000a900460ff16611184576040517f08c379a000000000000000000000000000000000000000000000000000000000815260040161117b90612fd5565b60405180910390fd5b3373ffffffffffffffffffffffffffffffffffffffff166111a483610b49565b73ffffffffffffffffffffffffffffffffffffffff16146111fa576040517f08c379a00000000000000000000000000000000000000000000000000000000081526004016111f190613041565b60405180910390fd5b60068151111561123f576040517f08c379a0000000000000000000000000000000000000000000000000000000008152600401611236906130d3565b60405180910390fd5b80600b600084815260200190815260200160002090805190602001906112669291906121d1565b505050565b600a5481565b61128261127c61157c565b836116a9565b6112c1576040517f08c379a00000000000000000000000000000000000000000000000000000000081526004016112b890612c95565b60405180910390fd5b6112cd84848484611c34565b50505050565b60606112de82611584565b61131d576040517f08c379a000000000000000000000000000000000000000000000000000000000815260040161131490613165565b60405180910390fd5b6000611327611c90565b905060008151116113475760405180602001604052806000815250611372565b8061135184611ca7565b6040516020016113629291906131c1565b6040516020818303038152906040525b915050919050565b6000600560008473ffffffffffffffffffffffffffffffffffffffff1673ffffffffffffffffffffffffffffffffffffffff16815260200190815260200160002060008373ffffffffffffffffffffffffffffffffffffffff1673ffffffffffffffffffffffffffffffffffffffff16815260200190815260200160002060009054906101000a900460ff16905092915050565b61141661157c565b73ffffffffffffffffffffffffffffffffffffffff16611434610e88565b73ffffffffffffffffffffffffffffffffffffffff161461148a576040517f08c379a000000000000000000000000000000000000000000000000000000000815260040161148190612980565b60405180910390fd5b600073ffffffffffffffffffffffffffffffffffffffff168173ffffffffffffffffffffffffffffffffffffffff1614156114fa576040517f08c379a00000000000000000000000000000000000000000000000000000000081526004016114f190613257565b60405180910390fd5b611503816119e3565b50565b60085481565b60095481565b60007f01ffc9a7000000000000000000000000000000000000000000000000000000007bffffffffffffffffffffffffffffffffffffffffffffffffffffffff1916827bffffffffffffffffffffffffffffffffffffffffffffffffffffffff1916149050919050565b600033905090565b60008073ffffffffffffffffffffffffffffffffffffffff166002600084815260200190815260200160002060009054906101000a900473ffffffffffffffffffffffffffffffffffffffff1673ffffffffffffffffffffffffffffffffffffffff1614159050919050565b816004600083815260200190815260200160002060006101000a81548173ffffffffffffffffffffffffffffffffffffffff021916908373ffffffffffffffffffffffffffffffffffffffff160217905550808273ffffffffffffffffffffffffffffffffffffffff1661166383610b49565b73ffffffffffffffffffffffffffffffffffffffff167f8c5be1e5ebec7d5bd14f71427d1e84f3dd0314c0f7b2291e5b200ac8c7c3b92560405160405180910390a45050565b60006116b482611584565b6116f3576040517f08c379a00000000000000000000000000000000000000000000000000000000081526004016116ea906132e9565b60405180910390fd5b60006116fe83610b49565b90508073ffffffffffffffffffffffffffffffffffffffff168473ffffffffffffffffffffffffffffffffffffffff16148061176d57508373ffffffffffffffffffffffffffffffffffffffff166117558461087f565b73ffffffffffffffffffffffffffffffffffffffff16145b8061177e575061177d818561137a565b5b91505092915050565b8273ffffffffffffffffffffffffffffffffffffffff166117a782610b49565b73ffffffffffffffffffffffffffffffffffffffff16146117fd576040517f08c379a00000000000000000000000000000000000000000000000000000000081526004016117f49061337b565b60405180910390fd5b600073ffffffffffffffffffffffffffffffffffffffff168273ffffffffffffffffffffffffffffffffffffffff16141561186d576040517f08c379a00000000000000000000000000000000000000000000000000000000081526004016118649061340d565b60405180910390fd5b611878838383611e08565b6118836000826115f0565b6001600360008573ffffffffffffffffffffffffffffffffffffffff1673ffffffffffffffffffffffffffffffffffffffff16815260200190815260200160002060008282546118d3919061345c565b925050819055506001600360008473ffffffffffffffffffffffffffffffffffffffff1673ffffffffffffffffffffffffffffffffffffffff168152602001908152602001600020600082825461192a9190613490565b92505081905550816002600083815260200190815260200160002060006101000a81548173ffffffffffffffffffffffffffffffffffffffff021916908373ffffffffffffffffffffffffffffffffffffffff160217905550808273ffffffffffffffffffffffffffffffffffffffff168473ffffffffffffffffffffffffffffffffffffffff167fddf252ad1be2c89b69c2b068fc378daa952ba7f163c4a11628f55a4df523b3ef60405160405180910390a4505050565b6000600660009054906101000a900473ffffffffffffffffffffffffffffffffffffffff16905081600660006101000a81548173ffffffffffffffffffffffffffffffffffffffff021916908373ffffffffffffffffffffffffffffffffffffffff1602179055508173ffffffffffffffffffffffffffffffffffffffff168173ffffffffffffffffffffffffffffffffffffffff167f8be0079c531659141344cd1fd0a4f28419497f9722a3daafe3b4186f6b6457e060405160405180910390a35050565b611ac3828260405180602001604052806000815250611e0d565b5050565b8173ffffffffffffffffffffffffffffffffffffffff168373ffffffffffffffffffffffffffffffffffffffff161415611b36576040517f08c379a0000000000000000000000000000000000000000000000000000000008152600401611b2d90613532565b60405180910390fd5b80600560008573ffffffffffffffffffffffffffffffffffffffff1673ffffffffffffffffffffffffffffffffffffffff16815260200190815260200160002060008473ffffffffffffffffffffffffffffffffffffffff1673ffffffffffffffffffffffffffffffffffffffff16815260200190815260200160002060006101000a81548160ff0219169083151502179055508173ffffffffffffffffffffffffffffffffffffffff168373ffffffffffffffffffffffffffffffffffffffff167f17307eab39ab6107e8899845ad3d59bd9653f200f220920489ca2b5937696c3183604051611c279190612328565b60405180910390a3505050565b611c3f848484611787565b611c4b84848484611e68565b611c8a576040517f08c379a0000000000000000000000000000000000000000000000000000000008152600401611c81906135c4565b60405180910390fd5b50505050565b606060405180602001604052806000815250905090565b60606000821415611cef576040518060400160405280600181526020017f30000000000000000000000000000000000000000000000000000000000000008152509050611e03565b600082905060005b60008214611d21578080611d0a906135e4565b915050600a82611d1a919061365c565b9150611cf7565b60008167ffffffffffffffff811115611d3d57611d3c612649565b5b6040519080825280601f01601f191660200182016040528015611d6f5781602001600182028036833780820191505090505b5090505b60008514611dfc57600182611d88919061345c565b9150600a85611d97919061368d565b6030611da39190613490565b60f81b818381518110611db957611db86136be565b5b60200101907effffffffffffffffffffffffffffffffffffffffffffffffffffffffffffff1916908160001a905350600a85611df5919061365c565b9450611d73565b8093505050505b919050565b505050565b611e178383611ff0565b611e246000848484611e68565b611e63576040517f08c379a0000000000000000000000000000000000000000000000000000000008152600401611e5a906135c4565b60405180910390fd5b505050565b6000611e898473ffffffffffffffffffffffffffffffffffffffff166121be565b15611fe3578373ffffffffffffffffffffffffffffffffffffffff1663150b7a02611eb261157c565b8786866040518563ffffffff1660e01b8152600401611ed49493929190613742565b6020604051808303816000875af1925050508015611f1057506040513d601f19601f82011682018060405250810190611f0d91906137a3565b60015b611f93573d8060008114611f40576040519150601f19603f3d011682016040523d82523d6000602084013e611f45565b606091505b50600081511415611f8b576040517f08c379a0000000000000000000000000000000000000000000000000000000008152600401611f82906135c4565b60405180910390fd5b805181602001fd5b63150b7a0260e01b7bffffffffffffffffffffffffffffffffffffffffffffffffffffffff1916817bffffffffffffffffffffffffffffffffffffffffffffffffffffffff191614915050611fe8565b600190505b949350505050565b600073ffffffffffffffffffffffffffffffffffffffff168273ffffffffffffffffffffffffffffffffffffffff161415612060576040517f08c379a00000000000000000000000000000000000000000000000000000000081526004016120579061381c565b60405180910390fd5b61206981611584565b156120a9576040517f08c379a00000000000000000000000000000000000000000000000000000000081526004016120a090613888565b60405180910390fd5b6120b560008383611e08565b6001600360008473ffffffffffffffffffffffffffffffffffffffff1673ffffffffffffffffffffffffffffffffffffffff16815260200190815260200160002060008282546121059190613490565b92505081905550816002600083815260200190815260200160002060006101000a81548173ffffffffffffffffffffffffffffffffffffffff021916908373ffffffffffffffffffffffffffffffffffffffff160217905550808273ffffffffffffffffffffffffffffffffffffffff16600073ffffffffffffffffffffffffffffffffffffffff167fddf252ad1be2c89b69c2b068fc378daa952ba7f163c4a11628f55a4df523b3ef60405160405180910390a45050565b600080823b905060008111915050919050565b8280546121dd90612a3b565b90600052602060002090601f0160209004810192826121ff5760008555612246565b82601f1061221857805160ff1916838001178555612246565b82800160010185558215612246579182015b8281111561224557825182559160200191906001019061222a565b5b5090506122539190612257565b5090565b5b80821115612270576000816000905550600101612258565b5090565b6000604051905090565b600080fd5b600080fd5b60007fffffffff0000000000000000000000000000000000000000000000000000000082169050919050565b6122bd81612288565b81146122c857600080fd5b50565b6000813590506122da816122b4565b92915050565b6000602082840312156122f6576122f561227e565b5b6000612304848285016122cb565b91505092915050565b60008115159050919050565b6123228161230d565b82525050565b600060208201905061233d6000830184612319565b92915050565b6000819050919050565b61235681612343565b811461236157600080fd5b50565b6000813590506123738161234d565b92915050565b60006020828403121561238f5761238e61227e565b5b600061239d84828501612364565b91505092915050565b600081519050919050565b600082825260208201905092915050565b60005b838110156123e05780820151818401526020810190506123c5565b838111156123ef576000848401525b50505050565b6000601f19601f8301169050919050565b6000612411826123a6565b61241b81856123b1565b935061242b8185602086016123c2565b612434816123f5565b840191505092915050565b600060208201905081810360008301526124598184612406565b905092915050565b600073ffffffffffffffffffffffffffffffffffffffff82169050919050565b600061248c82612461565b9050919050565b61249c81612481565b82525050565b60006020820190506124b76000830184612493565b92915050565b6124c681612481565b81146124d157600080fd5b50565b6000813590506124e3816124bd565b92915050565b60008060408385031215612500576124ff61227e565b5b600061250e858286016124d4565b925050602061251f85828601612364565b9150509250929050565b61253281612343565b82525050565b600060208201905061254d6000830184612529565b92915050565b60008060006060848603121561256c5761256b61227e565b5b600061257a868287016124d4565b935050602061258b868287016124d4565b925050604061259c86828701612364565b9150509250925092565b6000602082840312156125bc576125bb61227e565b5b60006125ca848285016124d4565b91505092915050565b6125dc8161230d565b81146125e757600080fd5b50565b6000813590506125f9816125d3565b92915050565b600080604083850312156126165761261561227e565b5b6000612624858286016124d4565b9250506020612635858286016125ea565b9150509250929050565b600080fd5b600080fd5b7f4e487b7100000000000000000000000000000000000000000000000000000000600052604160045260246000fd5b612681826123f5565b810181811067ffffffffffffffff821117156126a05761269f612649565b5b80604052505050565b60006126b3612274565b90506126bf8282612678565b919050565b600067ffffffffffffffff8211156126df576126de612649565b5b6126e8826123f5565b9050602081019050919050565b82818337600083830152505050565b6000612717612712846126c4565b6126a9565b90508281526020810184848401111561273357612732612644565b5b61273e8482856126f5565b509392505050565b600082601f83011261275b5761275a61263f565b5b813561276b848260208601612704565b91505092915050565b6000806040838503121561278b5761278a61227e565b5b600061279985828601612364565b925050602083013567ffffffffffffffff8111156127ba576127b9612283565b5b6127c685828601612746565b9150509250929050565b600067ffffffffffffffff8211156127eb576127ea612649565b5b6127f4826123f5565b9050602081019050919050565b600061281461280f846127d0565b6126a9565b9050828152602081018484840111156128305761282f612644565b5b61283b8482856126f5565b509392505050565b600082601f8301126128585761285761263f565b5b8135612868848260208601612801565b91505092915050565b6000806000806080858703121561288b5761288a61227e565b5b6000612899878288016124d4565b94505060206128aa878288016124d4565b93505060406128bb87828801612364565b925050606085013567ffffffffffffffff8111156128dc576128db612283565b5b6128e887828801612843565b91505092959194509250565b6000806040838503121561290b5761290a61227e565b5b6000612919858286016124d4565b925050602061292a858286016124d4565b9150509250929050565b7f4f776e61626c653a2063616c6c6572206973206e6f7420746865206f776e6572600082015250565b600061296a6020836123b1565b915061297582612934565b602082019050919050565b600060208201905081810360008301526129998161295d565b9050919050565b7f496e73756666696369656e742066756e64730000000000000000000000000000600082015250565b60006129d66012836123b1565b91506129e1826129a0565b602082019050919050565b60006020820190508181036000830152612a05816129c9565b9050919050565b7f4e487b7100000000000000000000000000000000000000000000000000000000600052602260045260246000fd5b60006002820490506001821680612a5357607f821691505b60208210811415612a6757612a66612a0c565b5b50919050565b7f4552433732313a20617070726f76656420717565727920666f72206e6f6e657860008201527f697374656e7420746f6b656e0000000000000000000000000000000000000000602082015250565b6000612ac9602c836123b1565b9150612ad482612a6d565b604082019050919050565b60006020820190508181036000830152612af881612abc565b9050919050565b7f4552433732313a20617070726f76616c20746f2063757272656e74206f776e6560008201527f7200000000000000000000000000000000000000000000000000000000000000602082015250565b6000612b5b6021836123b1565b9150612b6682612aff565b604082019050919050565b60006020820190508181036000830152612b8a81612b4e565b9050919050565b7f4552433732313a20617070726f76652063616c6c6572206973206e6f74206f7760008201527f6e6572206e6f7220617070726f76656420666f7220616c6c0000000000000000602082015250565b6000612bed6038836123b1565b9150612bf882612b91565b604082019050919050565b60006020820190508181036000830152612c1c81612be0565b9050919050565b7f4552433732313a207472616e736665722063616c6c6572206973206e6f74206f60008201527f776e6572206e6f7220617070726f766564000000000000000000000000000000602082015250565b6000612c7f6031836123b1565b9150612c8a82612c23565b604082019050919050565b60006020820190508181036000830152612cae81612c72565b9050919050565b7f4552433732313a206f776e657220717565727920666f72206e6f6e657869737460008201527f656e7420746f6b656e0000000000000000000000000000000000000000000000602082015250565b6000612d116029836123b1565b9150612d1c82612cb5565b604082019050919050565b60006020820190508181036000830152612d4081612d04565b9050919050565b7f506978656c206964206f7574206f662072616e67650000000000000000000000600082015250565b6000612d7d6015836123b1565b9150612d8882612d47565b602082019050919050565b60006020820190508181036000830152612dac81612d70565b9050919050565b7f4552433732313a2062616c616e636520717565727920666f7220746865207a6560008201527f726f206164647265737300000000000000000000000000000000000000000000602082015250565b6000612e0f602a836123b1565b9150612e1a82612db3565b604082019050919050565b60006020820190508181036000830152612e3e81612e02565b9050919050565b7f506978656c20697320616c7265616479206f776e656400000000000000000000600082015250565b6000612e7b6016836123b1565b9150612e8682612e45565b602082019050919050565b60006020820190508181036000830152612eaa81612e6e565b9050919050565b7f506978656c206f7574206f662072616e67650000000000000000000000000000600082015250565b6000612ee76012836123b1565b9150612ef282612eb1565b602082019050919050565b60006020820190508181036000830152612f1681612eda565b9050919050565b7f4e6f2f20496e73756666696369656e7420666565732070726f76696465640000600082015250565b6000612f53601e836123b1565b9150612f5e82612f1d565b602082019050919050565b60006020820190508181036000830152612f8281612f46565b9050919050565b7f506978656c206973206e6f74206f776e65640000000000000000000000000000600082015250565b6000612fbf6012836123b1565b9150612fca82612f89565b602082019050919050565b60006020820190508181036000830152612fee81612fb2565b9050919050565b7f53656e646572206973206e6f7420506978656c206f776e657200000000000000600082015250565b600061302b6019836123b1565b915061303682612ff5565b602082019050919050565b6000602082019050818103600083015261305a8161301e565b9050919050565b7f496e76616c696420636f6c6f722c206e6565647320746f20626520696e20484560008201527f5820666f726d61742028776974686f7574207468652023290000000000000000602082015250565b60006130bd6038836123b1565b91506130c882613061565b604082019050919050565b600060208201905081810360008301526130ec816130b0565b9050919050565b7f4552433732314d657461646174613a2055524920717565727920666f72206e6f60008201527f6e6578697374656e7420746f6b656e0000000000000000000000000000000000602082015250565b600061314f602f836123b1565b915061315a826130f3565b604082019050919050565b6000602082019050818103600083015261317e81613142565b9050919050565b600081905092915050565b600061319b826123a6565b6131a58185613185565b93506131b58185602086016123c2565b80840191505092915050565b60006131cd8285613190565b91506131d98284613190565b91508190509392505050565b7f4f776e61626c653a206e6577206f776e657220697320746865207a65726f206160008201527f6464726573730000000000000000000000000000000000000000000000000000602082015250565b60006132416026836123b1565b915061324c826131e5565b604082019050919050565b6000602082019050818103600083015261327081613234565b9050919050565b7f4552433732313a206f70657261746f7220717565727920666f72206e6f6e657860008201527f697374656e7420746f6b656e0000000000000000000000000000000000000000602082015250565b60006132d3602c836123b1565b91506132de82613277565b604082019050919050565b60006020820190508181036000830152613302816132c6565b9050919050565b7f4552433732313a207472616e73666572206f6620746f6b656e2074686174206960008201527f73206e6f74206f776e0000000000000000000000000000000000000000000000602082015250565b60006133656029836123b1565b915061337082613309565b604082019050919050565b6000602082019050818103600083015261339481613358565b9050919050565b7f4552433732313a207472616e7366657220746f20746865207a65726f2061646460008201527f7265737300000000000000000000000000000000000000000000000000000000602082015250565b60006133f76024836123b1565b91506134028261339b565b604082019050919050565b60006020820190508181036000830152613426816133ea565b9050919050565b7f4e487b7100000000000000000000000000000000000000000000000000000000600052601160045260246000fd5b600061346782612343565b915061347283612343565b9250828210156134855761348461342d565b5b828203905092915050565b600061349b82612343565b91506134a683612343565b9250827fffffffffffffffffffffffffffffffffffffffffffffffffffffffffffffffff038211156134db576134da61342d565b5b828201905092915050565b7f4552433732313a20617070726f766520746f2063616c6c657200000000000000600082015250565b600061351c6019836123b1565b9150613527826134e6565b602082019050919050565b6000602082019050818103600083015261354b8161350f565b9050919050565b7f4552433732313a207472616e7366657220746f206e6f6e20455243373231526560008201527f63656976657220696d706c656d656e7465720000000000000000000000000000602082015250565b60006135ae6032836123b1565b91506135b982613552565b604082019050919050565b600060208201905081810360008301526135dd816135a1565b9050919050565b60006135ef82612343565b91507fffffffffffffffffffffffffffffffffffffffffffffffffffffffffffffffff8214156136225761362161342d565b5b600182019050919050565b7f4e487b7100000000000000000000000000000000000000000000000000000000600052601260045260246000fd5b600061366782612343565b915061367283612343565b9250826136825761368161362d565b5b828204905092915050565b600061369882612343565b91506136a383612343565b9250826136b3576136b261362d565b5b828206905092915050565b7f4e487b7100000000000000000000000000000000000000000000000000000000600052603260045260246000fd5b600081519050919050565b600082825260208201905092915050565b6000613714826136ed565b61371e81856136f8565b935061372e8185602086016123c2565b613737816123f5565b840191505092915050565b60006080820190506137576000830187612493565b6137646020830186612493565b6137716040830185612529565b81810360608301526137838184613709565b905095945050505050565b60008151905061379d816122b4565b92915050565b6000602082840312156137b9576137b861227e565b5b60006137c78482850161378e565b91505092915050565b7f4552433732313a206d696e7420746f20746865207a65726f2061646472657373600082015250565b60006138066020836123b1565b9150613811826137d0565b602082019050919050565b60006020820190508181036000830152613835816137f9565b9050919050565b7f4552433732313a20746f6b656e20616c7265616479206d696e74656400000000600082015250565b6000613872601c836123b1565b915061387d8261383c565b602082019050919050565b600060208201905081810360008301526138a181613865565b905091905056fea2646970667358221220f0a6fe3cf0038c3edcab4db20e127ec9b7ad4998636d3b23f7b23f136e70fcb864736f6c634300080a0033",
  "immutableReferences": {},
  "source": "// SPDX-License-Identifier: MIT\npragma solidity ^0.8.0;\n\nimport \"@openzeppelin/contracts/token/ERC721/ERC721.sol\";\nimport \"@openzeppelin/contracts/access/Ownable.sol\";\nimport \"@openzeppelin/contracts/utils/Counters.sol\";\n\ncontract Pixels is ERC721, Ownable {\n    using Counters for Counters.Counter;\n\n    Counters.Counter private _tokenIds;\n\n    uint256 public _gridsize = 1000;\n    uint256 public _totalPixels = _gridsize * _gridsize;\n    uint256 public _pixelPrice = 250000000000000; // approx 1usd\n\n    mapping(uint256 => string) _pixelColours;\n    // string[] _pixelColours = new string[](_totalPixels);\n    mapping(uint256 => bool) _pixelOwned;\n\n    constructor() ERC721(\"Pixels\", \"PIX\") {}\n\n    function mint(uint256 _pixelId) external payable {\n        require(!_pixelOwned[_pixelId], \"Pixel is already owned\");\n        require(_pixelId < _totalPixels, \"Pixel out of range\");\n        require(msg.value >= _pixelPrice, 'No/ Insufficient fees provided');\n        // require that some money be sent\n        uint _id = _pixelId;\n        _pixelOwned[_pixelId] = true;\n        _pixelColours[_pixelId] = \"777777\";\n        _safeMint(msg.sender, _id);\n    }\n\n    function getBalance() public view returns(uint256){\n        return address(this).balance;\n    }\n\n     function withdrawAmount(uint256 amount) external onlyOwner {\n         require(amount <= getBalance(), \"Insufficient funds\");\n         payable(msg.sender).transfer(amount);\n     }\n\n    //function change pixel colour |||ERC721.ownerOf(tokenId)\n    function changePixelColor(uint256 _pixelId, string memory _colorHex) external {\n        require(_pixelId < _totalPixels, \"Pixel id out of range\");\n        require(_pixelOwned[_pixelId], \"Pixel is not owned\");\n        require(ownerOf(_pixelId) == msg.sender, \"Sender is not Pixel owner\"); //TODO:is this correct?\n        require(bytes(_colorHex).length <= 6, \"Invalid color, needs to be in HEX format (without the #)\");\n        _pixelColours[_pixelId] = _colorHex;\n        //Optional emit Event here...\n    }\n\n    function getPixelColour(uint256 _pixelId) public view returns (string memory) {\n        require(_pixelId < _totalPixels, \"Pixel id out of range\");\n        if(_pixelOwned[_pixelId]) {\n            return _pixelColours[_pixelId];\n        } else {\n            return \"333333\";\n        }\n    }\n\n    function getDebugPixelColour(uint256 _pixelId) public view returns (string memory) {\n            return _pixelColours[_pixelId];\n    }\n\n    // function getAllPixelColours() public view returns (string[] memory) {\n    //     return _pixelColours;\n    // }\n\n}\n",
  "sourcePath": "/Users/max/Desktop/POLYPAINT.IO/sol/contracts/Pixels.sol",
  "compiler": {
    "name": "solc",
    "version": "0.8.10+commit.fc410830.Emscripten.clang"
  },
  "schemaVersion": "3.4.4",
  "updatedAt": "2021-12-24T01:15:31.859Z",
  "networkType": "ethereum",
  "devdoc": {
    "kind": "dev",
    "methods": {
      "approve(address,uint256)": {
        "details": "See {IERC721-approve}."
      },
      "balanceOf(address)": {
        "details": "See {IERC721-balanceOf}."
      },
      "getApproved(uint256)": {
        "details": "See {IERC721-getApproved}."
      },
      "isApprovedForAll(address,address)": {
        "details": "See {IERC721-isApprovedForAll}."
      },
      "name()": {
        "details": "See {IERC721Metadata-name}."
      },
      "owner()": {
        "details": "Returns the address of the current owner."
      },
      "ownerOf(uint256)": {
        "details": "See {IERC721-ownerOf}."
      },
      "renounceOwnership()": {
        "details": "Leaves the contract without owner. It will not be possible to call `onlyOwner` functions anymore. Can only be called by the current owner. NOTE: Renouncing ownership will leave the contract without an owner, thereby removing any functionality that is only available to the owner."
      },
      "safeTransferFrom(address,address,uint256)": {
        "details": "See {IERC721-safeTransferFrom}."
      },
      "safeTransferFrom(address,address,uint256,bytes)": {
        "details": "See {IERC721-safeTransferFrom}."
      },
      "setApprovalForAll(address,bool)": {
        "details": "See {IERC721-setApprovalForAll}."
      },
      "supportsInterface(bytes4)": {
        "details": "See {IERC165-supportsInterface}."
      },
      "symbol()": {
        "details": "See {IERC721Metadata-symbol}."
      },
      "tokenURI(uint256)": {
        "details": "See {IERC721Metadata-tokenURI}."
      },
      "transferFrom(address,address,uint256)": {
        "details": "See {IERC721-transferFrom}."
      },
      "transferOwnership(address)": {
        "details": "Transfers ownership of the contract to a new account (`newOwner`). Can only be called by the current owner."
      }
    },
    "version": 1
  },
  "userdoc": {
    "kind": "user",
    "methods": {},
    "version": 1
  }
}