{
  "contractName": "Pixels",
  "abi": [
    {
      "inputs": [],
      "stateMutability": "nonpayable",
      "type": "constructor"
    },
    {
      "anonymous": false,
      "inputs": [
        {
          "indexed": true,
          "internalType": "address",
          "name": "owner",
          "type": "address"
        },
        {
          "indexed": true,
          "internalType": "address",
          "name": "approved",
          "type": "address"
        },
        {
          "indexed": true,
          "internalType": "uint256",
          "name": "tokenId",
          "type": "uint256"
        }
      ],
      "name": "Approval",
      "type": "event"
    },
    {
      "anonymous": false,
      "inputs": [
        {
          "indexed": true,
          "internalType": "address",
          "name": "owner",
          "type": "address"
        },
        {
          "indexed": true,
          "internalType": "address",
          "name": "operator",
          "type": "address"
        },
        {
          "indexed": false,
          "internalType": "bool",
          "name": "approved",
          "type": "bool"
        }
      ],
      "name": "ApprovalForAll",
      "type": "event"
    },
    {
      "anonymous": false,
      "inputs": [
        {
          "indexed": true,
          "internalType": "address",
          "name": "previousOwner",
          "type": "address"
        },
        {
          "indexed": true,
          "internalType": "address",
          "name": "newOwner",
          "type": "address"
        }
      ],
      "name": "OwnershipTransferred",
      "type": "event"
    },
    {
      "anonymous": false,
      "inputs": [
        {
          "indexed": true,
          "internalType": "address",
          "name": "from",
          "type": "address"
        },
        {
          "indexed": true,
          "internalType": "address",
          "name": "to",
          "type": "address"
        },
        {
          "indexed": true,
          "internalType": "uint256",
          "name": "tokenId",
          "type": "uint256"
        }
      ],
      "name": "Transfer",
      "type": "event"
    },
    {
      "inputs": [],
      "name": "_gridsize",
      "outputs": [
        {
          "internalType": "uint256",
          "name": "",
          "type": "uint256"
        }
      ],
      "stateMutability": "view",
      "type": "function"
    },
    {
      "inputs": [],
      "name": "_pixelPrice",
      "outputs": [
        {
          "internalType": "uint256",
          "name": "",
          "type": "uint256"
        }
      ],
      "stateMutability": "view",
      "type": "function"
    },
    {
      "inputs": [],
      "name": "_totalPixels",
      "outputs": [
        {
          "internalType": "uint256",
          "name": "",
          "type": "uint256"
        }
      ],
      "stateMutability": "view",
      "type": "function"
    },
    {
      "inputs": [
        {
          "internalType": "address",
          "name": "to",
          "type": "address"
        },
        {
          "internalType": "uint256",
          "name": "tokenId",
          "type": "uint256"
        }
      ],
      "name": "approve",
      "outputs": [],
      "stateMutability": "nonpayable",
      "type": "function"
    },
    {
      "inputs": [
        {
          "internalType": "address",
          "name": "owner",
          "type": "address"
        }
      ],
      "name": "balanceOf",
      "outputs": [
        {
          "internalType": "uint256",
          "name": "",
          "type": "uint256"
        }
      ],
      "stateMutability": "view",
      "type": "function"
    },
    {
      "inputs": [
        {
          "internalType": "uint256",
          "name": "tokenId",
          "type": "uint256"
        }
      ],
      "name": "getApproved",
      "outputs": [
        {
          "internalType": "address",
          "name": "",
          "type": "address"
        }
      ],
      "stateMutability": "view",
      "type": "function"
    },
    {
      "inputs": [
        {
          "internalType": "address",
          "name": "owner",
          "type": "address"
        },
        {
          "internalType": "address",
          "name": "operator",
          "type": "address"
        }
      ],
      "name": "isApprovedForAll",
      "outputs": [
        {
          "internalType": "bool",
          "name": "",
          "type": "bool"
        }
      ],
      "stateMutability": "view",
      "type": "function"
    },
    {
      "inputs": [],
      "name": "name",
      "outputs": [
        {
          "internalType": "string",
          "name": "",
          "type": "string"
        }
      ],
      "stateMutability": "view",
      "type": "function"
    },
    {
      "inputs": [],
      "name": "owner",
      "outputs": [
        {
          "internalType": "address",
          "name": "",
          "type": "address"
        }
      ],
      "stateMutability": "view",
      "type": "function"
    },
    {
      "inputs": [
        {
          "internalType": "uint256",
          "name": "tokenId",
          "type": "uint256"
        }
      ],
      "name": "ownerOf",
      "outputs": [
        {
          "internalType": "address",
          "name": "",
          "type": "address"
        }
      ],
      "stateMutability": "view",
      "type": "function"
    },
    {
      "inputs": [],
      "name": "renounceOwnership",
      "outputs": [],
      "stateMutability": "nonpayable",
      "type": "function"
    },
    {
      "inputs": [
        {
          "internalType": "address",
          "name": "from",
          "type": "address"
        },
        {
          "internalType": "address",
          "name": "to",
          "type": "address"
        },
        {
          "internalType": "uint256",
          "name": "tokenId",
          "type": "uint256"
        }
      ],
      "name": "safeTransferFrom",
      "outputs": [],
      "stateMutability": "nonpayable",
      "type": "function"
    },
    {
      "inputs": [
        {
          "internalType": "address",
          "name": "from",
          "type": "address"
        },
        {
          "internalType": "address",
          "name": "to",
          "type": "address"
        },
        {
          "internalType": "uint256",
          "name": "tokenId",
          "type": "uint256"
        },
        {
          "internalType": "bytes",
          "name": "_data",
          "type": "bytes"
        }
      ],
      "name": "safeTransferFrom",
      "outputs": [],
      "stateMutability": "nonpayable",
      "type": "function"
    },
    {
      "inputs": [
        {
          "internalType": "address",
          "name": "operator",
          "type": "address"
        },
        {
          "internalType": "bool",
          "name": "approved",
          "type": "bool"
        }
      ],
      "name": "setApprovalForAll",
      "outputs": [],
      "stateMutability": "nonpayable",
      "type": "function"
    },
    {
      "inputs": [
        {
          "internalType": "bytes4",
          "name": "interfaceId",
          "type": "bytes4"
        }
      ],
      "name": "supportsInterface",
      "outputs": [
        {
          "internalType": "bool",
          "name": "",
          "type": "bool"
        }
      ],
      "stateMutability": "view",
      "type": "function"
    },
    {
      "inputs": [],
      "name": "symbol",
      "outputs": [
        {
          "internalType": "string",
          "name": "",
          "type": "string"
        }
      ],
      "stateMutability": "view",
      "type": "function"
    },
    {
      "inputs": [
        {
          "internalType": "uint256",
          "name": "tokenId",
          "type": "uint256"
        }
      ],
      "name": "tokenURI",
      "outputs": [
        {
          "internalType": "string",
          "name": "",
          "type": "string"
        }
      ],
      "stateMutability": "view",
      "type": "function"
    },
    {
      "inputs": [
        {
          "internalType": "address",
          "name": "from",
          "type": "address"
        },
        {
          "internalType": "address",
          "name": "to",
          "type": "address"
        },
        {
          "internalType": "uint256",
          "name": "tokenId",
          "type": "uint256"
        }
      ],
      "name": "transferFrom",
      "outputs": [],
      "stateMutability": "nonpayable",
      "type": "function"
    },
    {
      "inputs": [
        {
          "internalType": "address",
          "name": "newOwner",
          "type": "address"
        }
      ],
      "name": "transferOwnership",
      "outputs": [],
      "stateMutability": "nonpayable",
      "type": "function"
    },
    {
      "inputs": [
        {
          "internalType": "uint256",
          "name": "_pixelId",
          "type": "uint256"
        }
      ],
      "name": "mint",
      "outputs": [],
      "stateMutability": "payable",
      "type": "function"
    },
    {
      "inputs": [],
      "name": "getBalance",
      "outputs": [
        {
          "internalType": "uint256",
          "name": "",
          "type": "uint256"
        }
      ],
      "stateMutability": "view",
      "type": "function"
    },
    {
      "inputs": [
        {
          "internalType": "uint256",
          "name": "amount",
          "type": "uint256"
        }
      ],
      "name": "withdrawAmount",
      "outputs": [],
      "stateMutability": "nonpayable",
      "type": "function"
    },
    {
      "inputs": [
        {
          "internalType": "uint256",
          "name": "_pixelId",
          "type": "uint256"
        },
        {
          "internalType": "string",
          "name": "_colorHex",
          "type": "string"
        }
      ],
      "name": "changePixelColor",
      "outputs": [],
      "stateMutability": "nonpayable",
      "type": "function"
    },
    {
      "inputs": [
        {
          "internalType": "uint256",
          "name": "_pixelId",
          "type": "uint256"
        }
      ],
      "name": "getPixelColour",
      "outputs": [
        {
          "internalType": "string",
          "name": "",
          "type": "string"
        }
      ],
      "stateMutability": "view",
      "type": "function"
    },
    {
      "inputs": [],
      "name": "getAllPixelColours",
      "outputs": [
        {
          "internalType": "string[]",
          "name": "",
          "type": "string[]"
        }
      ],
      "stateMutability": "view",
      "type": "function"
    }
  ],
  "bytecode": "0x60806040526103e86008556008546008546200001c9190620003f6565b60095565e35fa931a000600a5560095467ffffffffffffffff81111562000048576200004762000457565b5b6040519080825280602002602001820160405280156200007d57816020015b6060815260200190600190039081620000675790505b50600b90805190602001906200009592919062000238565b50348015620000a357600080fd5b506040518060400160405280600681526020017f506978656c7300000000000000000000000000000000000000000000000000008152506040518060400160405280600381526020017f50495800000000000000000000000000000000000000000000000000000000008152508160009080519060200190620001289291906200029f565b508060019080519060200190620001419291906200029f565b50505062000164620001586200016a60201b60201c565b6200017260201b60201c565b620004eb565b600033905090565b6000600660009054906101000a900473ffffffffffffffffffffffffffffffffffffffff16905081600660006101000a81548173ffffffffffffffffffffffffffffffffffffffff021916908373ffffffffffffffffffffffffffffffffffffffff1602179055508173ffffffffffffffffffffffffffffffffffffffff168173ffffffffffffffffffffffffffffffffffffffff167f8be0079c531659141344cd1fd0a4f28419497f9722a3daafe3b4186f6b6457e060405160405180910390a35050565b8280548282559060005260206000209081019282156200028c579160200282015b828111156200028b5782518290805190602001906200027a9291906200029f565b509160200191906001019062000259565b5b5090506200029b919062000330565b5090565b828054620002ad90620004b5565b90600052602060002090601f016020900481019282620002d157600085556200031d565b82601f10620002ec57805160ff19168380011785556200031d565b828001600101855582156200031d579182015b828111156200031c578251825591602001919060010190620002ff565b5b5090506200032c919062000358565b5090565b5b808211156200035457600081816200034a919062000377565b5060010162000331565b5090565b5b808211156200037357600081600090555060010162000359565b5090565b5080546200038590620004b5565b6000825580601f10620003995750620003ba565b601f016020900490600052602060002090810190620003b9919062000358565b5b50565b6000819050919050565b7f4e487b7100000000000000000000000000000000000000000000000000000000600052601160045260246000fd5b60006200040382620003bd565b91506200041083620003bd565b9250817fffffffffffffffffffffffffffffffffffffffffffffffffffffffffffffffff04831182151516156200044c576200044b620003c7565b5b828202905092915050565b7f4e487b7100000000000000000000000000000000000000000000000000000000600052604160045260246000fd5b7f4e487b7100000000000000000000000000000000000000000000000000000000600052602260045260246000fd5b60006002820490506001821680620004ce57607f821691505b60208210811415620004e557620004e462000486565b5b50919050565b613a4f80620004fb6000396000f3fe6080604052600436106101665760003560e01c806388c11691116100d1578063afccaf651161008a578063e985e9c511610064578063e985e9c51461052d578063f2fde38b1461056a578063f5adb59a14610593578063fff4ca9c146105be57610166565b8063afccaf651461049c578063b88d4fde146104c7578063c87b56dd146104f057610166565b806388c11691146103ad5780638da5cb5b146103d857806395d89b4114610403578063a0712d681461042e578063a22cb4651461044a578063a6a1fb4d1461047357610166565b806323b872dd1161012357806323b872dd1461028d57806342842e0e146102b65780636352211e146102df578063642fd0f61461031c57806370a0823114610359578063715018a61461039657610166565b806301ffc9a71461016b5780630562b9f7146101a857806306fdde03146101d1578063081812fc146101fc578063095ea7b31461023957806312065fe014610262575b600080fd5b34801561017757600080fd5b50610192600480360381019061018d9190612323565b6105e9565b60405161019f919061236b565b60405180910390f35b3480156101b457600080fd5b506101cf60048036038101906101ca91906123bc565b6106cb565b005b3480156101dd57600080fd5b506101e66107db565b6040516101f39190612482565b60405180910390f35b34801561020857600080fd5b50610223600480360381019061021e91906123bc565b61086d565b60405161023091906124e5565b60405180910390f35b34801561024557600080fd5b50610260600480360381019061025b919061252c565b6108f2565b005b34801561026e57600080fd5b50610277610a0a565b604051610284919061257b565b60405180910390f35b34801561029957600080fd5b506102b460048036038101906102af9190612596565b610a12565b005b3480156102c257600080fd5b506102dd60048036038101906102d89190612596565b610a72565b005b3480156102eb57600080fd5b50610306600480360381019061030191906123bc565b610a92565b60405161031391906124e5565b60405180910390f35b34801561032857600080fd5b50610343600480360381019061033e91906123bc565b610b44565b6040516103509190612482565b60405180910390f35b34801561036557600080fd5b50610380600480360381019061037b91906125e9565b610c9c565b60405161038d919061257b565b60405180910390f35b3480156103a257600080fd5b506103ab610d54565b005b3480156103b957600080fd5b506103c2610ddc565b6040516103cf9190612722565b60405180910390f35b3480156103e457600080fd5b506103ed610eb5565b6040516103fa91906124e5565b60405180910390f35b34801561040f57600080fd5b50610418610edf565b6040516104259190612482565b60405180910390f35b610448600480360381019061044391906123bc565b610f71565b005b34801561045657600080fd5b50610471600480360381019061046c9190612770565b611102565b005b34801561047f57600080fd5b5061049a600480360381019061049591906128e5565b611118565b005b3480156104a857600080fd5b506104b16112ae565b6040516104be919061257b565b60405180910390f35b3480156104d357600080fd5b506104ee60048036038101906104e991906129e2565b6112b4565b005b3480156104fc57600080fd5b50610517600480360381019061051291906123bc565b611316565b6040516105249190612482565b60405180910390f35b34801561053957600080fd5b50610554600480360381019061054f9190612a65565b6113bd565b604051610561919061236b565b60405180910390f35b34801561057657600080fd5b50610591600480360381019061058c91906125e9565b611451565b005b34801561059f57600080fd5b506105a8611549565b6040516105b5919061257b565b60405180910390f35b3480156105ca57600080fd5b506105d361154f565b6040516105e0919061257b565b60405180910390f35b60007f80ac58cd000000000000000000000000000000000000000000000000000000007bffffffffffffffffffffffffffffffffffffffffffffffffffffffff1916827bffffffffffffffffffffffffffffffffffffffffffffffffffffffff191614806106b457507f5b5e139f000000000000000000000000000000000000000000000000000000007bffffffffffffffffffffffffffffffffffffffffffffffffffffffff1916827bffffffffffffffffffffffffffffffffffffffffffffffffffffffff1916145b806106c457506106c382611555565b5b9050919050565b6106d36115bf565b73ffffffffffffffffffffffffffffffffffffffff166106f1610eb5565b73ffffffffffffffffffffffffffffffffffffffff1614610747576040517f08c379a000000000000000000000000000000000000000000000000000000000815260040161073e90612af1565b60405180910390fd5b61074f610a0a565b811115610791576040517f08c379a000000000000000000000000000000000000000000000000000000000815260040161078890612b5d565b60405180910390fd5b3373ffffffffffffffffffffffffffffffffffffffff166108fc829081150290604051600060405180830381858888f193505050501580156107d7573d6000803e3d6000fd5b5050565b6060600080546107ea90612bac565b80601f016020809104026020016040519081016040528092919081815260200182805461081690612bac565b80156108635780601f1061083857610100808354040283529160200191610863565b820191906000526020600020905b81548152906001019060200180831161084657829003601f168201915b5050505050905090565b6000610878826115c7565b6108b7576040517f08c379a00000000000000000000000000000000000000000000000000000000081526004016108ae90612c50565b60405180910390fd5b6004600083815260200190815260200160002060009054906101000a900473ffffffffffffffffffffffffffffffffffffffff169050919050565b60006108fd82610a92565b90508073ffffffffffffffffffffffffffffffffffffffff168373ffffffffffffffffffffffffffffffffffffffff16141561096e576040517f08c379a000000000000000000000000000000000000000000000000000000000815260040161096590612ce2565b60405180910390fd5b8073ffffffffffffffffffffffffffffffffffffffff1661098d6115bf565b73ffffffffffffffffffffffffffffffffffffffff1614806109bc57506109bb816109b66115bf565b6113bd565b5b6109fb576040517f08c379a00000000000000000000000000000000000000000000000000000000081526004016109f290612d74565b60405180910390fd5b610a058383611633565b505050565b600047905090565b610a23610a1d6115bf565b826116ec565b610a62576040517f08c379a0000000000000000000000000000000000000000000000000000000008152600401610a5990612e06565b60405180910390fd5b610a6d8383836117ca565b505050565b610a8d838383604051806020016040528060008152506112b4565b505050565b6000806002600084815260200190815260200160002060009054906101000a900473ffffffffffffffffffffffffffffffffffffffff169050600073ffffffffffffffffffffffffffffffffffffffff168173ffffffffffffffffffffffffffffffffffffffff161415610b3b576040517f08c379a0000000000000000000000000000000000000000000000000000000008152600401610b3290612e98565b60405180910390fd5b80915050919050565b60606009548210610b8a576040517f08c379a0000000000000000000000000000000000000000000000000000000008152600401610b8190612f04565b60405180910390fd5b600c600083815260200190815260200160002060009054906101000a900460ff1615610c5e57600b8281548110610bc457610bc3612f24565b5b906000526020600020018054610bd990612bac565b80601f0160208091040260200160405190810160405280929190818152602001828054610c0590612bac565b8015610c525780601f10610c2757610100808354040283529160200191610c52565b820191906000526020600020905b815481529060010190602001808311610c3557829003601f168201915b50505050509050610c97565b6040518060400160405280600681526020017f333333333333000000000000000000000000000000000000000000000000000081525090505b919050565b60008073ffffffffffffffffffffffffffffffffffffffff168273ffffffffffffffffffffffffffffffffffffffff161415610d0d576040517f08c379a0000000000000000000000000000000000000000000000000000000008152600401610d0490612fc5565b60405180910390fd5b600360008373ffffffffffffffffffffffffffffffffffffffff1673ffffffffffffffffffffffffffffffffffffffff168152602001908152602001600020549050919050565b610d5c6115bf565b73ffffffffffffffffffffffffffffffffffffffff16610d7a610eb5565b73ffffffffffffffffffffffffffffffffffffffff1614610dd0576040517f08c379a0000000000000000000000000000000000000000000000000000000008152600401610dc790612af1565b60405180910390fd5b610dda6000611a26565b565b6060600b805480602002602001604051908101604052809291908181526020016000905b82821015610eac578382906000526020600020018054610e1f90612bac565b80601f0160208091040260200160405190810160405280929190818152602001828054610e4b90612bac565b8015610e985780601f10610e6d57610100808354040283529160200191610e98565b820191906000526020600020905b815481529060010190602001808311610e7b57829003601f168201915b505050505081526020019060010190610e00565b50505050905090565b6000600660009054906101000a900473ffffffffffffffffffffffffffffffffffffffff16905090565b606060018054610eee90612bac565b80601f0160208091040260200160405190810160405280929190818152602001828054610f1a90612bac565b8015610f675780601f10610f3c57610100808354040283529160200191610f67565b820191906000526020600020905b815481529060010190602001808311610f4a57829003601f168201915b5050505050905090565b600c600082815260200190815260200160002060009054906101000a900460ff1615610fd2576040517f08c379a0000000000000000000000000000000000000000000000000000000008152600401610fc990613031565b60405180910390fd5b6009548110611016576040517f08c379a000000000000000000000000000000000000000000000000000000000815260040161100d9061309d565b60405180910390fd5b600a5434101561105b576040517f08c379a000000000000000000000000000000000000000000000000000000000815260040161105290613109565b60405180910390fd5b60008190506001600c600084815260200190815260200160002060006101000a81548160ff0219169083151502179055506040518060400160405280600781526020017f2337373737373700000000000000000000000000000000000000000000000000815250600b83815481106110d6576110d5612f24565b5b9060005260206000200190805190602001906110f3929190612214565b506110fe3382611aec565b5050565b61111461110d6115bf565b8383611b0a565b5050565b600954821061115c576040517f08c379a000000000000000000000000000000000000000000000000000000000815260040161115390612f04565b60405180910390fd5b600c600083815260200190815260200160002060009054906101000a900460ff166111bc576040517f08c379a00000000000000000000000000000000000000000000000000000000081526004016111b390613175565b60405180910390fd5b3373ffffffffffffffffffffffffffffffffffffffff166111dc83610a92565b73ffffffffffffffffffffffffffffffffffffffff1614611232576040517f08c379a0000000000000000000000000000000000000000000000000000000008152600401611229906131e1565b60405180910390fd5b600681511115611277576040517f08c379a000000000000000000000000000000000000000000000000000000000815260040161126e90613273565b60405180910390fd5b80600b838154811061128c5761128b612f24565b5b9060005260206000200190805190602001906112a9929190612214565b505050565b600a5481565b6112c56112bf6115bf565b836116ec565b611304576040517f08c379a00000000000000000000000000000000000000000000000000000000081526004016112fb90612e06565b60405180910390fd5b61131084848484611c77565b50505050565b6060611321826115c7565b611360576040517f08c379a000000000000000000000000000000000000000000000000000000000815260040161135790613305565b60405180910390fd5b600061136a611cd3565b9050600081511161138a57604051806020016040528060008152506113b5565b8061139484611cea565b6040516020016113a5929190613361565b6040516020818303038152906040525b915050919050565b6000600560008473ffffffffffffffffffffffffffffffffffffffff1673ffffffffffffffffffffffffffffffffffffffff16815260200190815260200160002060008373ffffffffffffffffffffffffffffffffffffffff1673ffffffffffffffffffffffffffffffffffffffff16815260200190815260200160002060009054906101000a900460ff16905092915050565b6114596115bf565b73ffffffffffffffffffffffffffffffffffffffff16611477610eb5565b73ffffffffffffffffffffffffffffffffffffffff16146114cd576040517f08c379a00000000000000000000000000000000000000000000000000000000081526004016114c490612af1565b60405180910390fd5b600073ffffffffffffffffffffffffffffffffffffffff168173ffffffffffffffffffffffffffffffffffffffff16141561153d576040517f08c379a0000000000000000000000000000000000000000000000000000000008152600401611534906133f7565b60405180910390fd5b61154681611a26565b50565b60085481565b60095481565b60007f01ffc9a7000000000000000000000000000000000000000000000000000000007bffffffffffffffffffffffffffffffffffffffffffffffffffffffff1916827bffffffffffffffffffffffffffffffffffffffffffffffffffffffff1916149050919050565b600033905090565b60008073ffffffffffffffffffffffffffffffffffffffff166002600084815260200190815260200160002060009054906101000a900473ffffffffffffffffffffffffffffffffffffffff1673ffffffffffffffffffffffffffffffffffffffff1614159050919050565b816004600083815260200190815260200160002060006101000a81548173ffffffffffffffffffffffffffffffffffffffff021916908373ffffffffffffffffffffffffffffffffffffffff160217905550808273ffffffffffffffffffffffffffffffffffffffff166116a683610a92565b73ffffffffffffffffffffffffffffffffffffffff167f8c5be1e5ebec7d5bd14f71427d1e84f3dd0314c0f7b2291e5b200ac8c7c3b92560405160405180910390a45050565b60006116f7826115c7565b611736576040517f08c379a000000000000000000000000000000000000000000000000000000000815260040161172d90613489565b60405180910390fd5b600061174183610a92565b90508073ffffffffffffffffffffffffffffffffffffffff168473ffffffffffffffffffffffffffffffffffffffff1614806117b057508373ffffffffffffffffffffffffffffffffffffffff166117988461086d565b73ffffffffffffffffffffffffffffffffffffffff16145b806117c157506117c081856113bd565b5b91505092915050565b8273ffffffffffffffffffffffffffffffffffffffff166117ea82610a92565b73ffffffffffffffffffffffffffffffffffffffff1614611840576040517f08c379a00000000000000000000000000000000000000000000000000000000081526004016118379061351b565b60405180910390fd5b600073ffffffffffffffffffffffffffffffffffffffff168273ffffffffffffffffffffffffffffffffffffffff1614156118b0576040517f08c379a00000000000000000000000000000000000000000000000000000000081526004016118a7906135ad565b60405180910390fd5b6118bb838383611e4b565b6118c6600082611633565b6001600360008573ffffffffffffffffffffffffffffffffffffffff1673ffffffffffffffffffffffffffffffffffffffff168152602001908152602001600020600082825461191691906135fc565b925050819055506001600360008473ffffffffffffffffffffffffffffffffffffffff1673ffffffffffffffffffffffffffffffffffffffff168152602001908152602001600020600082825461196d9190613630565b92505081905550816002600083815260200190815260200160002060006101000a81548173ffffffffffffffffffffffffffffffffffffffff021916908373ffffffffffffffffffffffffffffffffffffffff160217905550808273ffffffffffffffffffffffffffffffffffffffff168473ffffffffffffffffffffffffffffffffffffffff167fddf252ad1be2c89b69c2b068fc378daa952ba7f163c4a11628f55a4df523b3ef60405160405180910390a4505050565b6000600660009054906101000a900473ffffffffffffffffffffffffffffffffffffffff16905081600660006101000a81548173ffffffffffffffffffffffffffffffffffffffff021916908373ffffffffffffffffffffffffffffffffffffffff1602179055508173ffffffffffffffffffffffffffffffffffffffff168173ffffffffffffffffffffffffffffffffffffffff167f8be0079c531659141344cd1fd0a4f28419497f9722a3daafe3b4186f6b6457e060405160405180910390a35050565b611b06828260405180602001604052806000815250611e50565b5050565b8173ffffffffffffffffffffffffffffffffffffffff168373ffffffffffffffffffffffffffffffffffffffff161415611b79576040517f08c379a0000000000000000000000000000000000000000000000000000000008152600401611b70906136d2565b60405180910390fd5b80600560008573ffffffffffffffffffffffffffffffffffffffff1673ffffffffffffffffffffffffffffffffffffffff16815260200190815260200160002060008473ffffffffffffffffffffffffffffffffffffffff1673ffffffffffffffffffffffffffffffffffffffff16815260200190815260200160002060006101000a81548160ff0219169083151502179055508173ffffffffffffffffffffffffffffffffffffffff168373ffffffffffffffffffffffffffffffffffffffff167f17307eab39ab6107e8899845ad3d59bd9653f200f220920489ca2b5937696c3183604051611c6a919061236b565b60405180910390a3505050565b611c828484846117ca565b611c8e84848484611eab565b611ccd576040517f08c379a0000000000000000000000000000000000000000000000000000000008152600401611cc490613764565b60405180910390fd5b50505050565b606060405180602001604052806000815250905090565b60606000821415611d32576040518060400160405280600181526020017f30000000000000000000000000000000000000000000000000000000000000008152509050611e46565b600082905060005b60008214611d64578080611d4d90613784565b915050600a82611d5d91906137fc565b9150611d3a565b60008167ffffffffffffffff811115611d8057611d7f6127ba565b5b6040519080825280601f01601f191660200182016040528015611db25781602001600182028036833780820191505090505b5090505b60008514611e3f57600182611dcb91906135fc565b9150600a85611dda919061382d565b6030611de69190613630565b60f81b818381518110611dfc57611dfb612f24565b5b60200101907effffffffffffffffffffffffffffffffffffffffffffffffffffffffffffff1916908160001a905350600a85611e3891906137fc565b9450611db6565b8093505050505b919050565b505050565b611e5a8383612033565b611e676000848484611eab565b611ea6576040517f08c379a0000000000000000000000000000000000000000000000000000000008152600401611e9d90613764565b60405180910390fd5b505050565b6000611ecc8473ffffffffffffffffffffffffffffffffffffffff16612201565b15612026578373ffffffffffffffffffffffffffffffffffffffff1663150b7a02611ef56115bf565b8786866040518563ffffffff1660e01b8152600401611f1794939291906138b3565b6020604051808303816000875af1925050508015611f5357506040513d601f19601f82011682018060405250810190611f509190613914565b60015b611fd6573d8060008114611f83576040519150601f19603f3d011682016040523d82523d6000602084013e611f88565b606091505b50600081511415611fce576040517f08c379a0000000000000000000000000000000000000000000000000000000008152600401611fc590613764565b60405180910390fd5b805181602001fd5b63150b7a0260e01b7bffffffffffffffffffffffffffffffffffffffffffffffffffffffff1916817bffffffffffffffffffffffffffffffffffffffffffffffffffffffff19161491505061202b565b600190505b949350505050565b600073ffffffffffffffffffffffffffffffffffffffff168273ffffffffffffffffffffffffffffffffffffffff1614156120a3576040517f08c379a000000000000000000000000000000000000000000000000000000000815260040161209a9061398d565b60405180910390fd5b6120ac816115c7565b156120ec576040517f08c379a00000000000000000000000000000000000000000000000000000000081526004016120e3906139f9565b60405180910390fd5b6120f860008383611e4b565b6001600360008473ffffffffffffffffffffffffffffffffffffffff1673ffffffffffffffffffffffffffffffffffffffff16815260200190815260200160002060008282546121489190613630565b92505081905550816002600083815260200190815260200160002060006101000a81548173ffffffffffffffffffffffffffffffffffffffff021916908373ffffffffffffffffffffffffffffffffffffffff160217905550808273ffffffffffffffffffffffffffffffffffffffff16600073ffffffffffffffffffffffffffffffffffffffff167fddf252ad1be2c89b69c2b068fc378daa952ba7f163c4a11628f55a4df523b3ef60405160405180910390a45050565b600080823b905060008111915050919050565b82805461222090612bac565b90600052602060002090601f0160209004810192826122425760008555612289565b82601f1061225b57805160ff1916838001178555612289565b82800160010185558215612289579182015b8281111561228857825182559160200191906001019061226d565b5b509050612296919061229a565b5090565b5b808211156122b357600081600090555060010161229b565b5090565b6000604051905090565b600080fd5b600080fd5b60007fffffffff0000000000000000000000000000000000000000000000000000000082169050919050565b612300816122cb565b811461230b57600080fd5b50565b60008135905061231d816122f7565b92915050565b600060208284031215612339576123386122c1565b5b60006123478482850161230e565b91505092915050565b60008115159050919050565b61236581612350565b82525050565b6000602082019050612380600083018461235c565b92915050565b6000819050919050565b61239981612386565b81146123a457600080fd5b50565b6000813590506123b681612390565b92915050565b6000602082840312156123d2576123d16122c1565b5b60006123e0848285016123a7565b91505092915050565b600081519050919050565b600082825260208201905092915050565b60005b83811015612423578082015181840152602081019050612408565b83811115612432576000848401525b50505050565b6000601f19601f8301169050919050565b6000612454826123e9565b61245e81856123f4565b935061246e818560208601612405565b61247781612438565b840191505092915050565b6000602082019050818103600083015261249c8184612449565b905092915050565b600073ffffffffffffffffffffffffffffffffffffffff82169050919050565b60006124cf826124a4565b9050919050565b6124df816124c4565b82525050565b60006020820190506124fa60008301846124d6565b92915050565b612509816124c4565b811461251457600080fd5b50565b60008135905061252681612500565b92915050565b60008060408385031215612543576125426122c1565b5b600061255185828601612517565b9250506020612562858286016123a7565b9150509250929050565b61257581612386565b82525050565b6000602082019050612590600083018461256c565b92915050565b6000806000606084860312156125af576125ae6122c1565b5b60006125bd86828701612517565b93505060206125ce86828701612517565b92505060406125df868287016123a7565b9150509250925092565b6000602082840312156125ff576125fe6122c1565b5b600061260d84828501612517565b91505092915050565b600081519050919050565b600082825260208201905092915050565b6000819050602082019050919050565b600082825260208201905092915050565b600061265e826123e9565b6126688185612642565b9350612678818560208601612405565b61268181612438565b840191505092915050565b60006126988383612653565b905092915050565b6000602082019050919050565b60006126b882612616565b6126c28185612621565b9350836020820285016126d485612632565b8060005b8581101561271057848403895281516126f1858261268c565b94506126fc836126a0565b925060208a019950506001810190506126d8565b50829750879550505050505092915050565b6000602082019050818103600083015261273c81846126ad565b905092915050565b61274d81612350565b811461275857600080fd5b50565b60008135905061276a81612744565b92915050565b60008060408385031215612787576127866122c1565b5b600061279585828601612517565b92505060206127a68582860161275b565b9150509250929050565b600080fd5b600080fd5b7f4e487b7100000000000000000000000000000000000000000000000000000000600052604160045260246000fd5b6127f282612438565b810181811067ffffffffffffffff82111715612811576128106127ba565b5b80604052505050565b60006128246122b7565b905061283082826127e9565b919050565b600067ffffffffffffffff8211156128505761284f6127ba565b5b61285982612438565b9050602081019050919050565b82818337600083830152505050565b600061288861288384612835565b61281a565b9050828152602081018484840111156128a4576128a36127b5565b5b6128af848285612866565b509392505050565b600082601f8301126128cc576128cb6127b0565b5b81356128dc848260208601612875565b91505092915050565b600080604083850312156128fc576128fb6122c1565b5b600061290a858286016123a7565b925050602083013567ffffffffffffffff81111561292b5761292a6122c6565b5b612937858286016128b7565b9150509250929050565b600067ffffffffffffffff82111561295c5761295b6127ba565b5b61296582612438565b9050602081019050919050565b600061298561298084612941565b61281a565b9050828152602081018484840111156129a1576129a06127b5565b5b6129ac848285612866565b509392505050565b600082601f8301126129c9576129c86127b0565b5b81356129d9848260208601612972565b91505092915050565b600080600080608085870312156129fc576129fb6122c1565b5b6000612a0a87828801612517565b9450506020612a1b87828801612517565b9350506040612a2c878288016123a7565b925050606085013567ffffffffffffffff811115612a4d57612a4c6122c6565b5b612a59878288016129b4565b91505092959194509250565b60008060408385031215612a7c57612a7b6122c1565b5b6000612a8a85828601612517565b9250506020612a9b85828601612517565b9150509250929050565b7f4f776e61626c653a2063616c6c6572206973206e6f7420746865206f776e6572600082015250565b6000612adb6020836123f4565b9150612ae682612aa5565b602082019050919050565b60006020820190508181036000830152612b0a81612ace565b9050919050565b7f496e73756666696369656e742066756e64730000000000000000000000000000600082015250565b6000612b476012836123f4565b9150612b5282612b11565b602082019050919050565b60006020820190508181036000830152612b7681612b3a565b9050919050565b7f4e487b7100000000000000000000000000000000000000000000000000000000600052602260045260246000fd5b60006002820490506001821680612bc457607f821691505b60208210811415612bd857612bd7612b7d565b5b50919050565b7f4552433732313a20617070726f76656420717565727920666f72206e6f6e657860008201527f697374656e7420746f6b656e0000000000000000000000000000000000000000602082015250565b6000612c3a602c836123f4565b9150612c4582612bde565b604082019050919050565b60006020820190508181036000830152612c6981612c2d565b9050919050565b7f4552433732313a20617070726f76616c20746f2063757272656e74206f776e6560008201527f7200000000000000000000000000000000000000000000000000000000000000602082015250565b6000612ccc6021836123f4565b9150612cd782612c70565b604082019050919050565b60006020820190508181036000830152612cfb81612cbf565b9050919050565b7f4552433732313a20617070726f76652063616c6c6572206973206e6f74206f7760008201527f6e6572206e6f7220617070726f76656420666f7220616c6c0000000000000000602082015250565b6000612d5e6038836123f4565b9150612d6982612d02565b604082019050919050565b60006020820190508181036000830152612d8d81612d51565b9050919050565b7f4552433732313a207472616e736665722063616c6c6572206973206e6f74206f60008201527f776e6572206e6f7220617070726f766564000000000000000000000000000000602082015250565b6000612df06031836123f4565b9150612dfb82612d94565b604082019050919050565b60006020820190508181036000830152612e1f81612de3565b9050919050565b7f4552433732313a206f776e657220717565727920666f72206e6f6e657869737460008201527f656e7420746f6b656e0000000000000000000000000000000000000000000000602082015250565b6000612e826029836123f4565b9150612e8d82612e26565b604082019050919050565b60006020820190508181036000830152612eb181612e75565b9050919050565b7f506978656c206964206f7574206f662072616e67650000000000000000000000600082015250565b6000612eee6015836123f4565b9150612ef982612eb8565b602082019050919050565b60006020820190508181036000830152612f1d81612ee1565b9050919050565b7f4e487b7100000000000000000000000000000000000000000000000000000000600052603260045260246000fd5b7f4552433732313a2062616c616e636520717565727920666f7220746865207a6560008201527f726f206164647265737300000000000000000000000000000000000000000000602082015250565b6000612faf602a836123f4565b9150612fba82612f53565b604082019050919050565b60006020820190508181036000830152612fde81612fa2565b9050919050565b7f506978656c20697320616c7265616479206f776e656400000000000000000000600082015250565b600061301b6016836123f4565b915061302682612fe5565b602082019050919050565b6000602082019050818103600083015261304a8161300e565b9050919050565b7f506978656c206f7574206f662072616e67650000000000000000000000000000600082015250565b60006130876012836123f4565b915061309282613051565b602082019050919050565b600060208201905081810360008301526130b68161307a565b9050919050565b7f4e6f2f20496e73756666696369656e7420666565732070726f76696465640000600082015250565b60006130f3601e836123f4565b91506130fe826130bd565b602082019050919050565b60006020820190508181036000830152613122816130e6565b9050919050565b7f506978656c206973206e6f74206f776e65640000000000000000000000000000600082015250565b600061315f6012836123f4565b915061316a82613129565b602082019050919050565b6000602082019050818103600083015261318e81613152565b9050919050565b7f53656e646572206973206e6f7420506978656c206f776e657200000000000000600082015250565b60006131cb6019836123f4565b91506131d682613195565b602082019050919050565b600060208201905081810360008301526131fa816131be565b9050919050565b7f496e76656c696420636f6c6f722c206e6565647320746f20626520696e20484560008201527f5820666f726d61742028776974686f7574207468652023290000000000000000602082015250565b600061325d6038836123f4565b915061326882613201565b604082019050919050565b6000602082019050818103600083015261328c81613250565b9050919050565b7f4552433732314d657461646174613a2055524920717565727920666f72206e6f60008201527f6e6578697374656e7420746f6b656e0000000000000000000000000000000000602082015250565b60006132ef602f836123f4565b91506132fa82613293565b604082019050919050565b6000602082019050818103600083015261331e816132e2565b9050919050565b600081905092915050565b600061333b826123e9565b6133458185613325565b9350613355818560208601612405565b80840191505092915050565b600061336d8285613330565b91506133798284613330565b91508190509392505050565b7f4f776e61626c653a206e6577206f776e657220697320746865207a65726f206160008201527f6464726573730000000000000000000000000000000000000000000000000000602082015250565b60006133e16026836123f4565b91506133ec82613385565b604082019050919050565b60006020820190508181036000830152613410816133d4565b9050919050565b7f4552433732313a206f70657261746f7220717565727920666f72206e6f6e657860008201527f697374656e7420746f6b656e0000000000000000000000000000000000000000602082015250565b6000613473602c836123f4565b915061347e82613417565b604082019050919050565b600060208201905081810360008301526134a281613466565b9050919050565b7f4552433732313a207472616e73666572206f6620746f6b656e2074686174206960008201527f73206e6f74206f776e0000000000000000000000000000000000000000000000602082015250565b60006135056029836123f4565b9150613510826134a9565b604082019050919050565b60006020820190508181036000830152613534816134f8565b9050919050565b7f4552433732313a207472616e7366657220746f20746865207a65726f2061646460008201527f7265737300000000000000000000000000000000000000000000000000000000602082015250565b60006135976024836123f4565b91506135a28261353b565b604082019050919050565b600060208201905081810360008301526135c68161358a565b9050919050565b7f4e487b7100000000000000000000000000000000000000000000000000000000600052601160045260246000fd5b600061360782612386565b915061361283612386565b925082821015613625576136246135cd565b5b828203905092915050565b600061363b82612386565b915061364683612386565b9250827fffffffffffffffffffffffffffffffffffffffffffffffffffffffffffffffff0382111561367b5761367a6135cd565b5b828201905092915050565b7f4552433732313a20617070726f766520746f2063616c6c657200000000000000600082015250565b60006136bc6019836123f4565b91506136c782613686565b602082019050919050565b600060208201905081810360008301526136eb816136af565b9050919050565b7f4552433732313a207472616e7366657220746f206e6f6e20455243373231526560008201527f63656976657220696d706c656d656e7465720000000000000000000000000000602082015250565b600061374e6032836123f4565b9150613759826136f2565b604082019050919050565b6000602082019050818103600083015261377d81613741565b9050919050565b600061378f82612386565b91507fffffffffffffffffffffffffffffffffffffffffffffffffffffffffffffffff8214156137c2576137c16135cd565b5b600182019050919050565b7f4e487b7100000000000000000000000000000000000000000000000000000000600052601260045260246000fd5b600061380782612386565b915061381283612386565b925082613822576138216137cd565b5b828204905092915050565b600061383882612386565b915061384383612386565b925082613853576138526137cd565b5b828206905092915050565b600081519050919050565b600082825260208201905092915050565b60006138858261385e565b61388f8185613869565b935061389f818560208601612405565b6138a881612438565b840191505092915050565b60006080820190506138c860008301876124d6565b6138d560208301866124d6565b6138e2604083018561256c565b81810360608301526138f4818461387a565b905095945050505050565b60008151905061390e816122f7565b92915050565b60006020828403121561392a576139296122c1565b5b6000613938848285016138ff565b91505092915050565b7f4552433732313a206d696e7420746f20746865207a65726f2061646472657373600082015250565b60006139776020836123f4565b915061398282613941565b602082019050919050565b600060208201905081810360008301526139a68161396a565b9050919050565b7f4552433732313a20746f6b656e20616c7265616479206d696e74656400000000600082015250565b60006139e3601c836123f4565b91506139ee826139ad565b602082019050919050565b60006020820190508181036000830152613a12816139d6565b905091905056fea2646970667358221220f8617676222704a6e65cd52afe22178c58316ba987e9ddbdd7e61a1e0fa7633d64736f6c634300080a0033",
  "immutableReferences": {},
  "source": "// SPDX-License-Identifier: MIT\npragma solidity ^0.8.0;\n\nimport \"@openzeppelin/contracts/token/ERC721/ERC721.sol\";\nimport \"@openzeppelin/contracts/access/Ownable.sol\";\nimport \"@openzeppelin/contracts/utils/Counters.sol\";\n\ncontract Pixels is ERC721, Ownable {\n    using Counters for Counters.Counter;\n\n    Counters.Counter private _tokenIds;\n\n    uint256 public _gridsize = 1000;\n    uint256 public _totalPixels = _gridsize * _gridsize;\n    uint256 public _pixelPrice = 250000000000000; // approx 1usd\n\n    // string[_totalPixels] public _pixelColours;\n    // mapping(uint256 => string) _pixelColours;\n    string[] _pixelColours = new string[](_totalPixels);\n    mapping(uint256 => bool) _pixelOwned;\n\n    constructor() ERC721(\"Pixels\", \"PIX\") {}\n\n    function mint(uint256 _pixelId) external payable {\n        require(!_pixelOwned[_pixelId], \"Pixel is already owned\");\n        require(_pixelId < _totalPixels, \"Pixel out of range\");\n        require(msg.value >= _pixelPrice, 'No/ Insufficient fees provided');\n        // require that some money be sent\n        uint _id = _pixelId;\n        _pixelOwned[_pixelId] = true;\n        _pixelColours[_pixelId] = \"#777777\";\n        _safeMint(msg.sender, _id);\n    }\n\n    function getBalance() public view returns(uint256){\n        return address(this).balance;\n    }\n\n     function withdrawAmount(uint256 amount) external onlyOwner {\n         require(amount <= getBalance(), \"Insufficient funds\");\n         payable(msg.sender).transfer(amount);\n     }\n\n    //function change pixel colour |||ERC721.ownerOf(tokenId)\n    function changePixelColor(uint256 _pixelId, string memory _colorHex) external {\n        require(_pixelId < _totalPixels, \"Pixel id out of range\");\n        require(_pixelOwned[_pixelId], \"Pixel is not owned\");\n        require(ERC721.ownerOf(_pixelId) == msg.sender, \"Sender is not Pixel owner\");\n        require(bytes(_colorHex).length <= 6, \"Invelid color, needs to be in HEX format (without the #)\");\n        _pixelColours[_pixelId] = _colorHex;\n        //Optional emit Event here...\n    }\n\n    function getPixelColour(uint256 _pixelId) public view returns (string memory) {\n        require(_pixelId < _totalPixels, \"Pixel id out of range\");\n        if(_pixelOwned[_pixelId]) {\n            return _pixelColours[_pixelId];\n        } else {\n            return \"333333\";\n        }\n    }\n\n    function getAllPixelColours() public view returns (string[] memory) {\n        return _pixelColours;\n    }\n\n}\n",
  "sourcePath": "/Users/max/Desktop/POLYPAINT.IO/sol/contracts/Pixels.sol",
  "compiler": {
    "name": "solc",
    "version": "0.8.10+commit.fc410830.Emscripten.clang"
  },
  "schemaVersion": "3.4.4",
  "updatedAt": "2021-12-24T00:01:52.612Z",
  "devdoc": {
    "kind": "dev",
    "methods": {
      "approve(address,uint256)": {
        "details": "See {IERC721-approve}."
      },
      "balanceOf(address)": {
        "details": "See {IERC721-balanceOf}."
      },
      "getApproved(uint256)": {
        "details": "See {IERC721-getApproved}."
      },
      "isApprovedForAll(address,address)": {
        "details": "See {IERC721-isApprovedForAll}."
      },
      "name()": {
        "details": "See {IERC721Metadata-name}."
      },
      "owner()": {
        "details": "Returns the address of the current owner."
      },
      "ownerOf(uint256)": {
        "details": "See {IERC721-ownerOf}."
      },
      "renounceOwnership()": {
        "details": "Leaves the contract without owner. It will not be possible to call `onlyOwner` functions anymore. Can only be called by the current owner. NOTE: Renouncing ownership will leave the contract without an owner, thereby removing any functionality that is only available to the owner."
      },
      "safeTransferFrom(address,address,uint256)": {
        "details": "See {IERC721-safeTransferFrom}."
      },
      "safeTransferFrom(address,address,uint256,bytes)": {
        "details": "See {IERC721-safeTransferFrom}."
      },
      "setApprovalForAll(address,bool)": {
        "details": "See {IERC721-setApprovalForAll}."
      },
      "supportsInterface(bytes4)": {
        "details": "See {IERC165-supportsInterface}."
      },
      "symbol()": {
        "details": "See {IERC721Metadata-symbol}."
      },
      "tokenURI(uint256)": {
        "details": "See {IERC721Metadata-tokenURI}."
      },
      "transferFrom(address,address,uint256)": {
        "details": "See {IERC721-transferFrom}."
      },
      "transferOwnership(address)": {
        "details": "Transfers ownership of the contract to a new account (`newOwner`). Can only be called by the current owner."
      }
    },
    "version": 1
  },
  "userdoc": {
    "kind": "user",
    "methods": {},
    "version": 1
  }
}