{
  "contractName": "Pixels",
  "abi": [
    {
      "inputs": [],
      "stateMutability": "nonpayable",
      "type": "constructor"
    },
    {
      "anonymous": false,
      "inputs": [
        {
          "indexed": true,
          "internalType": "address",
          "name": "owner",
          "type": "address"
        },
        {
          "indexed": true,
          "internalType": "address",
          "name": "approved",
          "type": "address"
        },
        {
          "indexed": true,
          "internalType": "uint256",
          "name": "tokenId",
          "type": "uint256"
        }
      ],
      "name": "Approval",
      "type": "event"
    },
    {
      "anonymous": false,
      "inputs": [
        {
          "indexed": true,
          "internalType": "address",
          "name": "owner",
          "type": "address"
        },
        {
          "indexed": true,
          "internalType": "address",
          "name": "operator",
          "type": "address"
        },
        {
          "indexed": false,
          "internalType": "bool",
          "name": "approved",
          "type": "bool"
        }
      ],
      "name": "ApprovalForAll",
      "type": "event"
    },
    {
      "anonymous": false,
      "inputs": [
        {
          "indexed": true,
          "internalType": "address",
          "name": "previousOwner",
          "type": "address"
        },
        {
          "indexed": true,
          "internalType": "address",
          "name": "newOwner",
          "type": "address"
        }
      ],
      "name": "OwnershipTransferred",
      "type": "event"
    },
    {
      "anonymous": false,
      "inputs": [
        {
          "indexed": true,
          "internalType": "address",
          "name": "from",
          "type": "address"
        },
        {
          "indexed": true,
          "internalType": "address",
          "name": "to",
          "type": "address"
        },
        {
          "indexed": true,
          "internalType": "uint256",
          "name": "tokenId",
          "type": "uint256"
        }
      ],
      "name": "Transfer",
      "type": "event"
    },
    {
      "inputs": [],
      "name": "_gridsize",
      "outputs": [
        {
          "internalType": "uint256",
          "name": "",
          "type": "uint256"
        }
      ],
      "stateMutability": "view",
      "type": "function",
      "constant": true
    },
    {
      "inputs": [
        {
          "internalType": "uint256",
          "name": "",
          "type": "uint256"
        }
      ],
      "name": "_pixelColours",
      "outputs": [
        {
          "internalType": "string",
          "name": "",
          "type": "string"
        }
      ],
      "stateMutability": "view",
      "type": "function",
      "constant": true
    },
    {
      "inputs": [
        {
          "internalType": "uint256",
          "name": "",
          "type": "uint256"
        }
      ],
      "name": "_pixelOwned",
      "outputs": [
        {
          "internalType": "bool",
          "name": "",
          "type": "bool"
        }
      ],
      "stateMutability": "view",
      "type": "function",
      "constant": true
    },
    {
      "inputs": [],
      "name": "_pixelPrice",
      "outputs": [
        {
          "internalType": "uint256",
          "name": "",
          "type": "uint256"
        }
      ],
      "stateMutability": "view",
      "type": "function",
      "constant": true
    },
    {
      "inputs": [],
      "name": "_totalPixels",
      "outputs": [
        {
          "internalType": "uint256",
          "name": "",
          "type": "uint256"
        }
      ],
      "stateMutability": "view",
      "type": "function",
      "constant": true
    },
    {
      "inputs": [
        {
          "internalType": "address",
          "name": "to",
          "type": "address"
        },
        {
          "internalType": "uint256",
          "name": "tokenId",
          "type": "uint256"
        }
      ],
      "name": "approve",
      "outputs": [],
      "stateMutability": "nonpayable",
      "type": "function"
    },
    {
      "inputs": [
        {
          "internalType": "address",
          "name": "owner",
          "type": "address"
        }
      ],
      "name": "balanceOf",
      "outputs": [
        {
          "internalType": "uint256",
          "name": "",
          "type": "uint256"
        }
      ],
      "stateMutability": "view",
      "type": "function",
      "constant": true
    },
    {
      "inputs": [
        {
          "internalType": "uint256",
          "name": "tokenId",
          "type": "uint256"
        }
      ],
      "name": "getApproved",
      "outputs": [
        {
          "internalType": "address",
          "name": "",
          "type": "address"
        }
      ],
      "stateMutability": "view",
      "type": "function",
      "constant": true
    },
    {
      "inputs": [
        {
          "internalType": "address",
          "name": "owner",
          "type": "address"
        },
        {
          "internalType": "address",
          "name": "operator",
          "type": "address"
        }
      ],
      "name": "isApprovedForAll",
      "outputs": [
        {
          "internalType": "bool",
          "name": "",
          "type": "bool"
        }
      ],
      "stateMutability": "view",
      "type": "function",
      "constant": true
    },
    {
      "inputs": [],
      "name": "name",
      "outputs": [
        {
          "internalType": "string",
          "name": "",
          "type": "string"
        }
      ],
      "stateMutability": "view",
      "type": "function",
      "constant": true
    },
    {
      "inputs": [],
      "name": "owner",
      "outputs": [
        {
          "internalType": "address",
          "name": "",
          "type": "address"
        }
      ],
      "stateMutability": "view",
      "type": "function",
      "constant": true
    },
    {
      "inputs": [
        {
          "internalType": "uint256",
          "name": "tokenId",
          "type": "uint256"
        }
      ],
      "name": "ownerOf",
      "outputs": [
        {
          "internalType": "address",
          "name": "",
          "type": "address"
        }
      ],
      "stateMutability": "view",
      "type": "function",
      "constant": true
    },
    {
      "inputs": [],
      "name": "renounceOwnership",
      "outputs": [],
      "stateMutability": "nonpayable",
      "type": "function"
    },
    {
      "inputs": [
        {
          "internalType": "address",
          "name": "from",
          "type": "address"
        },
        {
          "internalType": "address",
          "name": "to",
          "type": "address"
        },
        {
          "internalType": "uint256",
          "name": "tokenId",
          "type": "uint256"
        }
      ],
      "name": "safeTransferFrom",
      "outputs": [],
      "stateMutability": "nonpayable",
      "type": "function"
    },
    {
      "inputs": [
        {
          "internalType": "address",
          "name": "from",
          "type": "address"
        },
        {
          "internalType": "address",
          "name": "to",
          "type": "address"
        },
        {
          "internalType": "uint256",
          "name": "tokenId",
          "type": "uint256"
        },
        {
          "internalType": "bytes",
          "name": "_data",
          "type": "bytes"
        }
      ],
      "name": "safeTransferFrom",
      "outputs": [],
      "stateMutability": "nonpayable",
      "type": "function"
    },
    {
      "inputs": [
        {
          "internalType": "address",
          "name": "operator",
          "type": "address"
        },
        {
          "internalType": "bool",
          "name": "approved",
          "type": "bool"
        }
      ],
      "name": "setApprovalForAll",
      "outputs": [],
      "stateMutability": "nonpayable",
      "type": "function"
    },
    {
      "inputs": [
        {
          "internalType": "bytes4",
          "name": "interfaceId",
          "type": "bytes4"
        }
      ],
      "name": "supportsInterface",
      "outputs": [
        {
          "internalType": "bool",
          "name": "",
          "type": "bool"
        }
      ],
      "stateMutability": "view",
      "type": "function",
      "constant": true
    },
    {
      "inputs": [],
      "name": "symbol",
      "outputs": [
        {
          "internalType": "string",
          "name": "",
          "type": "string"
        }
      ],
      "stateMutability": "view",
      "type": "function",
      "constant": true
    },
    {
      "inputs": [
        {
          "internalType": "uint256",
          "name": "tokenId",
          "type": "uint256"
        }
      ],
      "name": "tokenURI",
      "outputs": [
        {
          "internalType": "string",
          "name": "",
          "type": "string"
        }
      ],
      "stateMutability": "view",
      "type": "function",
      "constant": true
    },
    {
      "inputs": [
        {
          "internalType": "address",
          "name": "from",
          "type": "address"
        },
        {
          "internalType": "address",
          "name": "to",
          "type": "address"
        },
        {
          "internalType": "uint256",
          "name": "tokenId",
          "type": "uint256"
        }
      ],
      "name": "transferFrom",
      "outputs": [],
      "stateMutability": "nonpayable",
      "type": "function"
    },
    {
      "inputs": [
        {
          "internalType": "address",
          "name": "newOwner",
          "type": "address"
        }
      ],
      "name": "transferOwnership",
      "outputs": [],
      "stateMutability": "nonpayable",
      "type": "function"
    },
    {
      "inputs": [
        {
          "internalType": "uint256",
          "name": "_pixelId",
          "type": "uint256"
        }
      ],
      "name": "mint",
      "outputs": [],
      "stateMutability": "payable",
      "type": "function",
      "payable": true
    },
    {
      "inputs": [],
      "name": "getBalance",
      "outputs": [
        {
          "internalType": "uint256",
          "name": "",
          "type": "uint256"
        }
      ],
      "stateMutability": "view",
      "type": "function",
      "constant": true
    },
    {
      "inputs": [
        {
          "internalType": "uint256",
          "name": "amount",
          "type": "uint256"
        }
      ],
      "name": "withdrawAmount",
      "outputs": [],
      "stateMutability": "nonpayable",
      "type": "function"
    },
    {
      "inputs": [
        {
          "internalType": "uint256",
          "name": "_pixelId",
          "type": "uint256"
        },
        {
          "internalType": "string",
          "name": "_colorHex",
          "type": "string"
        }
      ],
      "name": "changePixelColor",
      "outputs": [],
      "stateMutability": "nonpayable",
      "type": "function"
    },
    {
      "inputs": [
        {
          "internalType": "uint256",
          "name": "_pixelId",
          "type": "uint256"
        }
      ],
      "name": "getPixelColour",
      "outputs": [
        {
          "internalType": "string",
          "name": "",
          "type": "string"
        }
      ],
      "stateMutability": "view",
      "type": "function",
      "constant": true
    },
    {
      "inputs": [
        {
          "internalType": "uint256",
          "name": "_pixelId",
          "type": "uint256"
        }
      ],
      "name": "getDebugPixelColour",
      "outputs": [
        {
          "internalType": "string",
          "name": "",
          "type": "string"
        }
      ],
      "stateMutability": "view",
      "type": "function",
      "constant": true
    },
    {
      "inputs": [],
      "name": "getAll_f",
      "outputs": [
        {
          "internalType": "string[]",
          "name": "",
          "type": "string[]"
        }
      ],
      "stateMutability": "view",
      "type": "function",
      "constant": true
    }
  ],
  "bytecode": "0x60806040526103e86007556007546007546200001c9190620002b4565b60085565e35fa931a0006009553480156200003657600080fd5b506040518060400160405280600681526020017f506978656c7300000000000000000000000000000000000000000000000000008152506040518060400160405280600381526020017f50495800000000000000000000000000000000000000000000000000000000008152508160009080519060200190620000bb929190620001cb565b508060019080519060200190620000d4929190620001cb565b505050620000f7620000eb620000fd60201b60201c565b6200010560201b60201c565b6200037a565b600033905090565b6000600660009054906101000a900473ffffffffffffffffffffffffffffffffffffffff16905081600660006101000a81548173ffffffffffffffffffffffffffffffffffffffff021916908373ffffffffffffffffffffffffffffffffffffffff1602179055508173ffffffffffffffffffffffffffffffffffffffff168173ffffffffffffffffffffffffffffffffffffffff167f8be0079c531659141344cd1fd0a4f28419497f9722a3daafe3b4186f6b6457e060405160405180910390a35050565b828054620001d99062000344565b90600052602060002090601f016020900481019282620001fd576000855562000249565b82601f106200021857805160ff191683800117855562000249565b8280016001018555821562000249579182015b82811115620002485782518255916020019190600101906200022b565b5b5090506200025891906200025c565b5090565b5b80821115620002775760008160009055506001016200025d565b5090565b6000819050919050565b7f4e487b7100000000000000000000000000000000000000000000000000000000600052601160045260246000fd5b6000620002c1826200027b565b9150620002ce836200027b565b9250817fffffffffffffffffffffffffffffffffffffffffffffffffffffffffffffffff04831182151516156200030a576200030962000285565b5b828202905092915050565b7f4e487b7100000000000000000000000000000000000000000000000000000000600052602260045260246000fd5b600060028204905060018216806200035d57607f821691505b6020821081141562000374576200037362000315565b5b50919050565b613c2e806200038a6000396000f3fe6080604052600436106101b75760003560e01c80638da5cb5b116100ec578063b88d4fde1161008a578063e985e9c511610064578063e985e9c514610635578063f2fde38b14610672578063f5adb59a1461069b578063fff4ca9c146106c6576101b7565b8063b88d4fde14610592578063c87b56dd146105bb578063e1614e15146105f8576101b7565b8063a22cb465116100c6578063a22cb465146104ea578063a6a1fb4d14610513578063afccaf651461053c578063b6a5499914610567576101b7565b80638da5cb5b1461047857806395d89b41146104a3578063a0712d68146104ce576101b7565b806323b872dd116101595780636352211e116101335780636352211e146103aa578063642fd0f6146103e757806370a0823114610424578063715018a614610461576101b7565b806323b872dd1461031b57806342842e0e14610344578063498255811461036d576101b7565b8063081812fc11610195578063081812fc1461024d578063095ea7b31461028a57806312065fe0146102b35780631aec1f15146102de576101b7565b806301ffc9a7146101bc5780630562b9f7146101f957806306fdde0314610222575b600080fd5b3480156101c857600080fd5b506101e360048036038101906101de919061256e565b6106f1565b6040516101f091906125b6565b60405180910390f35b34801561020557600080fd5b50610220600480360381019061021b9190612607565b6107d3565b005b34801561022e57600080fd5b506102376108e3565b60405161024491906126cd565b60405180910390f35b34801561025957600080fd5b50610274600480360381019061026f9190612607565b610975565b6040516102819190612730565b60405180910390f35b34801561029657600080fd5b506102b160048036038101906102ac9190612777565b6109fa565b005b3480156102bf57600080fd5b506102c8610b12565b6040516102d591906127c6565b60405180910390f35b3480156102ea57600080fd5b5061030560048036038101906103009190612607565b610b1a565b60405161031291906126cd565b60405180910390f35b34801561032757600080fd5b50610342600480360381019061033d91906127e1565b610bba565b005b34801561035057600080fd5b5061036b600480360381019061036691906127e1565b610c1a565b005b34801561037957600080fd5b50610394600480360381019061038f9190612607565b610c3a565b6040516103a191906126cd565b60405180910390f35b3480156103b657600080fd5b506103d160048036038101906103cc9190612607565b610cdf565b6040516103de9190612730565b60405180910390f35b3480156103f357600080fd5b5061040e60048036038101906104099190612607565b610d91565b60405161041b91906126cd565b60405180910390f35b34801561043057600080fd5b5061044b60048036038101906104469190612834565b610ede565b60405161045891906127c6565b60405180910390f35b34801561046d57600080fd5b50610476610f96565b005b34801561048457600080fd5b5061048d61101e565b60405161049a9190612730565b60405180910390f35b3480156104af57600080fd5b506104b8611048565b6040516104c591906126cd565b60405180910390f35b6104e860048036038101906104e39190612607565b6110da565b005b3480156104f657600080fd5b50610511600480360381019061050c919061288d565b611260565b005b34801561051f57600080fd5b5061053a60048036038101906105359190612a02565b611276565b005b34801561054857600080fd5b506105516113a1565b60405161055e91906127c6565b60405180910390f35b34801561057357600080fd5b5061057c6113a7565b6040516105899190612b6a565b60405180910390f35b34801561059e57600080fd5b506105b960048036038101906105b49190612c2d565b6114df565b005b3480156105c757600080fd5b506105e260048036038101906105dd9190612607565b611541565b6040516105ef91906126cd565b60405180910390f35b34801561060457600080fd5b5061061f600480360381019061061a9190612607565b6115e8565b60405161062c91906125b6565b60405180910390f35b34801561064157600080fd5b5061065c60048036038101906106579190612cb0565b611608565b60405161066991906125b6565b60405180910390f35b34801561067e57600080fd5b5061069960048036038101906106949190612834565b61169c565b005b3480156106a757600080fd5b506106b0611794565b6040516106bd91906127c6565b60405180910390f35b3480156106d257600080fd5b506106db61179a565b6040516106e891906127c6565b60405180910390f35b60007f80ac58cd000000000000000000000000000000000000000000000000000000007bffffffffffffffffffffffffffffffffffffffffffffffffffffffff1916827bffffffffffffffffffffffffffffffffffffffffffffffffffffffff191614806107bc57507f5b5e139f000000000000000000000000000000000000000000000000000000007bffffffffffffffffffffffffffffffffffffffffffffffffffffffff1916827bffffffffffffffffffffffffffffffffffffffffffffffffffffffff1916145b806107cc57506107cb826117a0565b5b9050919050565b6107db61180a565b73ffffffffffffffffffffffffffffffffffffffff166107f961101e565b73ffffffffffffffffffffffffffffffffffffffff161461084f576040517f08c379a000000000000000000000000000000000000000000000000000000000815260040161084690612d3c565b60405180910390fd5b610857610b12565b811115610899576040517f08c379a000000000000000000000000000000000000000000000000000000000815260040161089090612da8565b60405180910390fd5b3373ffffffffffffffffffffffffffffffffffffffff166108fc829081150290604051600060405180830381858888f193505050501580156108df573d6000803e3d6000fd5b5050565b6060600080546108f290612df7565b80601f016020809104026020016040519081016040528092919081815260200182805461091e90612df7565b801561096b5780601f106109405761010080835404028352916020019161096b565b820191906000526020600020905b81548152906001019060200180831161094e57829003601f168201915b5050505050905090565b600061098082611812565b6109bf576040517f08c379a00000000000000000000000000000000000000000000000000000000081526004016109b690612e9b565b60405180910390fd5b6004600083815260200190815260200160002060009054906101000a900473ffffffffffffffffffffffffffffffffffffffff169050919050565b6000610a0582610cdf565b90508073ffffffffffffffffffffffffffffffffffffffff168373ffffffffffffffffffffffffffffffffffffffff161415610a76576040517f08c379a0000000000000000000000000000000000000000000000000000000008152600401610a6d90612f2d565b60405180910390fd5b8073ffffffffffffffffffffffffffffffffffffffff16610a9561180a565b73ffffffffffffffffffffffffffffffffffffffff161480610ac45750610ac381610abe61180a565b611608565b5b610b03576040517f08c379a0000000000000000000000000000000000000000000000000000000008152600401610afa90612fbf565b60405180910390fd5b610b0d838361187e565b505050565b600047905090565b600a6020528060005260406000206000915090508054610b3990612df7565b80601f0160208091040260200160405190810160405280929190818152602001828054610b6590612df7565b8015610bb25780601f10610b8757610100808354040283529160200191610bb2565b820191906000526020600020905b815481529060010190602001808311610b9557829003601f168201915b505050505081565b610bcb610bc561180a565b82611937565b610c0a576040517f08c379a0000000000000000000000000000000000000000000000000000000008152600401610c0190613051565b60405180910390fd5b610c15838383611a15565b505050565b610c35838383604051806020016040528060008152506114df565b505050565b6060600a60008381526020019081526020016000208054610c5a90612df7565b80601f0160208091040260200160405190810160405280929190818152602001828054610c8690612df7565b8015610cd35780601f10610ca857610100808354040283529160200191610cd3565b820191906000526020600020905b815481529060010190602001808311610cb657829003601f168201915b50505050509050919050565b6000806002600084815260200190815260200160002060009054906101000a900473ffffffffffffffffffffffffffffffffffffffff169050600073ffffffffffffffffffffffffffffffffffffffff168173ffffffffffffffffffffffffffffffffffffffff161415610d88576040517f08c379a0000000000000000000000000000000000000000000000000000000008152600401610d7f906130e3565b60405180910390fd5b80915050919050565b60606008548210610dd7576040517f08c379a0000000000000000000000000000000000000000000000000000000008152600401610dce9061314f565b60405180910390fd5b600b600083815260200190815260200160002060009054906101000a900460ff1615610ea057600a60008381526020019081526020016000208054610e1b90612df7565b80601f0160208091040260200160405190810160405280929190818152602001828054610e4790612df7565b8015610e945780601f10610e6957610100808354040283529160200191610e94565b820191906000526020600020905b815481529060010190602001808311610e7757829003601f168201915b50505050509050610ed9565b6040518060400160405280600681526020017f333333333333000000000000000000000000000000000000000000000000000081525090505b919050565b60008073ffffffffffffffffffffffffffffffffffffffff168273ffffffffffffffffffffffffffffffffffffffff161415610f4f576040517f08c379a0000000000000000000000000000000000000000000000000000000008152600401610f46906131e1565b60405180910390fd5b600360008373ffffffffffffffffffffffffffffffffffffffff1673ffffffffffffffffffffffffffffffffffffffff168152602001908152602001600020549050919050565b610f9e61180a565b73ffffffffffffffffffffffffffffffffffffffff16610fbc61101e565b73ffffffffffffffffffffffffffffffffffffffff1614611012576040517f08c379a000000000000000000000000000000000000000000000000000000000815260040161100990612d3c565b60405180910390fd5b61101c6000611c71565b565b6000600660009054906101000a900473ffffffffffffffffffffffffffffffffffffffff16905090565b60606001805461105790612df7565b80601f016020809104026020016040519081016040528092919081815260200182805461108390612df7565b80156110d05780601f106110a5576101008083540402835291602001916110d0565b820191906000526020600020905b8154815290600101906020018083116110b357829003601f168201915b5050505050905090565b600b600082815260200190815260200160002060009054906101000a900460ff161561113b576040517f08c379a00000000000000000000000000000000000000000000000000000000081526004016111329061324d565b60405180910390fd5b600854811061117f576040517f08c379a0000000000000000000000000000000000000000000000000000000008152600401611176906132b9565b60405180910390fd5b6009543410156111c4576040517f08c379a00000000000000000000000000000000000000000000000000000000081526004016111bb90613325565b60405180910390fd5b60008190506001600b600084815260200190815260200160002060006101000a81548160ff0219169083151502179055506040518060400160405280600681526020017f3737373737370000000000000000000000000000000000000000000000000000815250600a6000848152602001908152602001600020908051906020019061125192919061245f565b5061125c3382611d37565b5050565b61127261126b61180a565b8383611d55565b5050565b60085482106112ba576040517f08c379a00000000000000000000000000000000000000000000000000000000081526004016112b19061314f565b60405180910390fd5b3373ffffffffffffffffffffffffffffffffffffffff166112da83610cdf565b73ffffffffffffffffffffffffffffffffffffffff1614611330576040517f08c379a000000000000000000000000000000000000000000000000000000000815260040161132790613391565b60405180910390fd5b600681511115611375576040517f08c379a000000000000000000000000000000000000000000000000000000000815260040161136c90613423565b60405180910390fd5b80600a6000848152602001908152602001600020908051906020019061139c92919061245f565b505050565b60095481565b6060600060085467ffffffffffffffff8111156113c7576113c66128d7565b5b6040519080825280602002602001820160405280156113fa57816020015b60608152602001906001900390816113e55790505b50905060005b6008548110156114d757600a6000828152602001908152602001600020805461142890612df7565b80601f016020809104026020016040519081016040528092919081815260200182805461145490612df7565b80156114a15780601f10611476576101008083540402835291602001916114a1565b820191906000526020600020905b81548152906001019060200180831161148457829003601f168201915b50505050508282815181106114b9576114b8613443565b5b602002602001018190525080806114cf906134a1565b915050611400565b508091505090565b6114f06114ea61180a565b83611937565b61152f576040517f08c379a000000000000000000000000000000000000000000000000000000000815260040161152690613051565b60405180910390fd5b61153b84848484611ec2565b50505050565b606061154c82611812565b61158b576040517f08c379a00000000000000000000000000000000000000000000000000000000081526004016115829061355c565b60405180910390fd5b6000611595611f1e565b905060008151116115b557604051806020016040528060008152506115e0565b806115bf84611f35565b6040516020016115d09291906135b8565b6040516020818303038152906040525b915050919050565b600b6020528060005260406000206000915054906101000a900460ff1681565b6000600560008473ffffffffffffffffffffffffffffffffffffffff1673ffffffffffffffffffffffffffffffffffffffff16815260200190815260200160002060008373ffffffffffffffffffffffffffffffffffffffff1673ffffffffffffffffffffffffffffffffffffffff16815260200190815260200160002060009054906101000a900460ff16905092915050565b6116a461180a565b73ffffffffffffffffffffffffffffffffffffffff166116c261101e565b73ffffffffffffffffffffffffffffffffffffffff1614611718576040517f08c379a000000000000000000000000000000000000000000000000000000000815260040161170f90612d3c565b60405180910390fd5b600073ffffffffffffffffffffffffffffffffffffffff168173ffffffffffffffffffffffffffffffffffffffff161415611788576040517f08c379a000000000000000000000000000000000000000000000000000000000815260040161177f9061364e565b60405180910390fd5b61179181611c71565b50565b60075481565b60085481565b60007f01ffc9a7000000000000000000000000000000000000000000000000000000007bffffffffffffffffffffffffffffffffffffffffffffffffffffffff1916827bffffffffffffffffffffffffffffffffffffffffffffffffffffffff1916149050919050565b600033905090565b60008073ffffffffffffffffffffffffffffffffffffffff166002600084815260200190815260200160002060009054906101000a900473ffffffffffffffffffffffffffffffffffffffff1673ffffffffffffffffffffffffffffffffffffffff1614159050919050565b816004600083815260200190815260200160002060006101000a81548173ffffffffffffffffffffffffffffffffffffffff021916908373ffffffffffffffffffffffffffffffffffffffff160217905550808273ffffffffffffffffffffffffffffffffffffffff166118f183610cdf565b73ffffffffffffffffffffffffffffffffffffffff167f8c5be1e5ebec7d5bd14f71427d1e84f3dd0314c0f7b2291e5b200ac8c7c3b92560405160405180910390a45050565b600061194282611812565b611981576040517f08c379a0000000000000000000000000000000000000000000000000000000008152600401611978906136e0565b60405180910390fd5b600061198c83610cdf565b90508073ffffffffffffffffffffffffffffffffffffffff168473ffffffffffffffffffffffffffffffffffffffff1614806119fb57508373ffffffffffffffffffffffffffffffffffffffff166119e384610975565b73ffffffffffffffffffffffffffffffffffffffff16145b80611a0c5750611a0b8185611608565b5b91505092915050565b8273ffffffffffffffffffffffffffffffffffffffff16611a3582610cdf565b73ffffffffffffffffffffffffffffffffffffffff1614611a8b576040517f08c379a0000000000000000000000000000000000000000000000000000000008152600401611a8290613772565b60405180910390fd5b600073ffffffffffffffffffffffffffffffffffffffff168273ffffffffffffffffffffffffffffffffffffffff161415611afb576040517f08c379a0000000000000000000000000000000000000000000000000000000008152600401611af290613804565b60405180910390fd5b611b06838383612096565b611b1160008261187e565b6001600360008573ffffffffffffffffffffffffffffffffffffffff1673ffffffffffffffffffffffffffffffffffffffff1681526020019081526020016000206000828254611b619190613824565b925050819055506001600360008473ffffffffffffffffffffffffffffffffffffffff1673ffffffffffffffffffffffffffffffffffffffff1681526020019081526020016000206000828254611bb89190613858565b92505081905550816002600083815260200190815260200160002060006101000a81548173ffffffffffffffffffffffffffffffffffffffff021916908373ffffffffffffffffffffffffffffffffffffffff160217905550808273ffffffffffffffffffffffffffffffffffffffff168473ffffffffffffffffffffffffffffffffffffffff167fddf252ad1be2c89b69c2b068fc378daa952ba7f163c4a11628f55a4df523b3ef60405160405180910390a4505050565b6000600660009054906101000a900473ffffffffffffffffffffffffffffffffffffffff16905081600660006101000a81548173ffffffffffffffffffffffffffffffffffffffff021916908373ffffffffffffffffffffffffffffffffffffffff1602179055508173ffffffffffffffffffffffffffffffffffffffff168173ffffffffffffffffffffffffffffffffffffffff167f8be0079c531659141344cd1fd0a4f28419497f9722a3daafe3b4186f6b6457e060405160405180910390a35050565b611d5182826040518060200160405280600081525061209b565b5050565b8173ffffffffffffffffffffffffffffffffffffffff168373ffffffffffffffffffffffffffffffffffffffff161415611dc4576040517f08c379a0000000000000000000000000000000000000000000000000000000008152600401611dbb906138fa565b60405180910390fd5b80600560008573ffffffffffffffffffffffffffffffffffffffff1673ffffffffffffffffffffffffffffffffffffffff16815260200190815260200160002060008473ffffffffffffffffffffffffffffffffffffffff1673ffffffffffffffffffffffffffffffffffffffff16815260200190815260200160002060006101000a81548160ff0219169083151502179055508173ffffffffffffffffffffffffffffffffffffffff168373ffffffffffffffffffffffffffffffffffffffff167f17307eab39ab6107e8899845ad3d59bd9653f200f220920489ca2b5937696c3183604051611eb591906125b6565b60405180910390a3505050565b611ecd848484611a15565b611ed9848484846120f6565b611f18576040517f08c379a0000000000000000000000000000000000000000000000000000000008152600401611f0f9061398c565b60405180910390fd5b50505050565b606060405180602001604052806000815250905090565b60606000821415611f7d576040518060400160405280600181526020017f30000000000000000000000000000000000000000000000000000000000000008152509050612091565b600082905060005b60008214611faf578080611f98906134a1565b915050600a82611fa891906139db565b9150611f85565b60008167ffffffffffffffff811115611fcb57611fca6128d7565b5b6040519080825280601f01601f191660200182016040528015611ffd5781602001600182028036833780820191505090505b5090505b6000851461208a576001826120169190613824565b9150600a856120259190613a0c565b60306120319190613858565b60f81b81838151811061204757612046613443565b5b60200101907effffffffffffffffffffffffffffffffffffffffffffffffffffffffffffff1916908160001a905350600a8561208391906139db565b9450612001565b8093505050505b919050565b505050565b6120a5838361227e565b6120b260008484846120f6565b6120f1576040517f08c379a00000000000000000000000000000000000000000000000000000000081526004016120e89061398c565b60405180910390fd5b505050565b60006121178473ffffffffffffffffffffffffffffffffffffffff1661244c565b15612271578373ffffffffffffffffffffffffffffffffffffffff1663150b7a0261214061180a565b8786866040518563ffffffff1660e01b81526004016121629493929190613a92565b6020604051808303816000875af192505050801561219e57506040513d601f19601f8201168201806040525081019061219b9190613af3565b60015b612221573d80600081146121ce576040519150601f19603f3d011682016040523d82523d6000602084013e6121d3565b606091505b50600081511415612219576040517f08c379a00000000000000000000000000000000000000000000000000000000081526004016122109061398c565b60405180910390fd5b805181602001fd5b63150b7a0260e01b7bffffffffffffffffffffffffffffffffffffffffffffffffffffffff1916817bffffffffffffffffffffffffffffffffffffffffffffffffffffffff191614915050612276565b600190505b949350505050565b600073ffffffffffffffffffffffffffffffffffffffff168273ffffffffffffffffffffffffffffffffffffffff1614156122ee576040517f08c379a00000000000000000000000000000000000000000000000000000000081526004016122e590613b6c565b60405180910390fd5b6122f781611812565b15612337576040517f08c379a000000000000000000000000000000000000000000000000000000000815260040161232e90613bd8565b60405180910390fd5b61234360008383612096565b6001600360008473ffffffffffffffffffffffffffffffffffffffff1673ffffffffffffffffffffffffffffffffffffffff16815260200190815260200160002060008282546123939190613858565b92505081905550816002600083815260200190815260200160002060006101000a81548173ffffffffffffffffffffffffffffffffffffffff021916908373ffffffffffffffffffffffffffffffffffffffff160217905550808273ffffffffffffffffffffffffffffffffffffffff16600073ffffffffffffffffffffffffffffffffffffffff167fddf252ad1be2c89b69c2b068fc378daa952ba7f163c4a11628f55a4df523b3ef60405160405180910390a45050565b600080823b905060008111915050919050565b82805461246b90612df7565b90600052602060002090601f01602090048101928261248d57600085556124d4565b82601f106124a657805160ff19168380011785556124d4565b828001600101855582156124d4579182015b828111156124d35782518255916020019190600101906124b8565b5b5090506124e191906124e5565b5090565b5b808211156124fe5760008160009055506001016124e6565b5090565b6000604051905090565b600080fd5b600080fd5b60007fffffffff0000000000000000000000000000000000000000000000000000000082169050919050565b61254b81612516565b811461255657600080fd5b50565b60008135905061256881612542565b92915050565b6000602082840312156125845761258361250c565b5b600061259284828501612559565b91505092915050565b60008115159050919050565b6125b08161259b565b82525050565b60006020820190506125cb60008301846125a7565b92915050565b6000819050919050565b6125e4816125d1565b81146125ef57600080fd5b50565b600081359050612601816125db565b92915050565b60006020828403121561261d5761261c61250c565b5b600061262b848285016125f2565b91505092915050565b600081519050919050565b600082825260208201905092915050565b60005b8381101561266e578082015181840152602081019050612653565b8381111561267d576000848401525b50505050565b6000601f19601f8301169050919050565b600061269f82612634565b6126a9818561263f565b93506126b9818560208601612650565b6126c281612683565b840191505092915050565b600060208201905081810360008301526126e78184612694565b905092915050565b600073ffffffffffffffffffffffffffffffffffffffff82169050919050565b600061271a826126ef565b9050919050565b61272a8161270f565b82525050565b60006020820190506127456000830184612721565b92915050565b6127548161270f565b811461275f57600080fd5b50565b6000813590506127718161274b565b92915050565b6000806040838503121561278e5761278d61250c565b5b600061279c85828601612762565b92505060206127ad858286016125f2565b9150509250929050565b6127c0816125d1565b82525050565b60006020820190506127db60008301846127b7565b92915050565b6000806000606084860312156127fa576127f961250c565b5b600061280886828701612762565b935050602061281986828701612762565b925050604061282a868287016125f2565b9150509250925092565b60006020828403121561284a5761284961250c565b5b600061285884828501612762565b91505092915050565b61286a8161259b565b811461287557600080fd5b50565b60008135905061288781612861565b92915050565b600080604083850312156128a4576128a361250c565b5b60006128b285828601612762565b92505060206128c385828601612878565b9150509250929050565b600080fd5b600080fd5b7f4e487b7100000000000000000000000000000000000000000000000000000000600052604160045260246000fd5b61290f82612683565b810181811067ffffffffffffffff8211171561292e5761292d6128d7565b5b80604052505050565b6000612941612502565b905061294d8282612906565b919050565b600067ffffffffffffffff82111561296d5761296c6128d7565b5b61297682612683565b9050602081019050919050565b82818337600083830152505050565b60006129a56129a084612952565b612937565b9050828152602081018484840111156129c1576129c06128d2565b5b6129cc848285612983565b509392505050565b600082601f8301126129e9576129e86128cd565b5b81356129f9848260208601612992565b91505092915050565b60008060408385031215612a1957612a1861250c565b5b6000612a27858286016125f2565b925050602083013567ffffffffffffffff811115612a4857612a47612511565b5b612a54858286016129d4565b9150509250929050565b600081519050919050565b600082825260208201905092915050565b6000819050602082019050919050565b600082825260208201905092915050565b6000612aa682612634565b612ab08185612a8a565b9350612ac0818560208601612650565b612ac981612683565b840191505092915050565b6000612ae08383612a9b565b905092915050565b6000602082019050919050565b6000612b0082612a5e565b612b0a8185612a69565b935083602082028501612b1c85612a7a565b8060005b85811015612b585784840389528151612b398582612ad4565b9450612b4483612ae8565b925060208a01995050600181019050612b20565b50829750879550505050505092915050565b60006020820190508181036000830152612b848184612af5565b905092915050565b600067ffffffffffffffff821115612ba757612ba66128d7565b5b612bb082612683565b9050602081019050919050565b6000612bd0612bcb84612b8c565b612937565b905082815260208101848484011115612bec57612beb6128d2565b5b612bf7848285612983565b509392505050565b600082601f830112612c1457612c136128cd565b5b8135612c24848260208601612bbd565b91505092915050565b60008060008060808587031215612c4757612c4661250c565b5b6000612c5587828801612762565b9450506020612c6687828801612762565b9350506040612c77878288016125f2565b925050606085013567ffffffffffffffff811115612c9857612c97612511565b5b612ca487828801612bff565b91505092959194509250565b60008060408385031215612cc757612cc661250c565b5b6000612cd585828601612762565b9250506020612ce685828601612762565b9150509250929050565b7f4f776e61626c653a2063616c6c6572206973206e6f7420746865206f776e6572600082015250565b6000612d2660208361263f565b9150612d3182612cf0565b602082019050919050565b60006020820190508181036000830152612d5581612d19565b9050919050565b7f496e73756666696369656e742066756e64730000000000000000000000000000600082015250565b6000612d9260128361263f565b9150612d9d82612d5c565b602082019050919050565b60006020820190508181036000830152612dc181612d85565b9050919050565b7f4e487b7100000000000000000000000000000000000000000000000000000000600052602260045260246000fd5b60006002820490506001821680612e0f57607f821691505b60208210811415612e2357612e22612dc8565b5b50919050565b7f4552433732313a20617070726f76656420717565727920666f72206e6f6e657860008201527f697374656e7420746f6b656e0000000000000000000000000000000000000000602082015250565b6000612e85602c8361263f565b9150612e9082612e29565b604082019050919050565b60006020820190508181036000830152612eb481612e78565b9050919050565b7f4552433732313a20617070726f76616c20746f2063757272656e74206f776e6560008201527f7200000000000000000000000000000000000000000000000000000000000000602082015250565b6000612f1760218361263f565b9150612f2282612ebb565b604082019050919050565b60006020820190508181036000830152612f4681612f0a565b9050919050565b7f4552433732313a20617070726f76652063616c6c6572206973206e6f74206f7760008201527f6e6572206e6f7220617070726f76656420666f7220616c6c0000000000000000602082015250565b6000612fa960388361263f565b9150612fb482612f4d565b604082019050919050565b60006020820190508181036000830152612fd881612f9c565b9050919050565b7f4552433732313a207472616e736665722063616c6c6572206973206e6f74206f60008201527f776e6572206e6f7220617070726f766564000000000000000000000000000000602082015250565b600061303b60318361263f565b915061304682612fdf565b604082019050919050565b6000602082019050818103600083015261306a8161302e565b9050919050565b7f4552433732313a206f776e657220717565727920666f72206e6f6e657869737460008201527f656e7420746f6b656e0000000000000000000000000000000000000000000000602082015250565b60006130cd60298361263f565b91506130d882613071565b604082019050919050565b600060208201905081810360008301526130fc816130c0565b9050919050565b7f506978656c206964206f7574206f662072616e67650000000000000000000000600082015250565b600061313960158361263f565b915061314482613103565b602082019050919050565b600060208201905081810360008301526131688161312c565b9050919050565b7f4552433732313a2062616c616e636520717565727920666f7220746865207a6560008201527f726f206164647265737300000000000000000000000000000000000000000000602082015250565b60006131cb602a8361263f565b91506131d68261316f565b604082019050919050565b600060208201905081810360008301526131fa816131be565b9050919050565b7f506978656c20697320616c7265616479206f776e656400000000000000000000600082015250565b600061323760168361263f565b915061324282613201565b602082019050919050565b600060208201905081810360008301526132668161322a565b9050919050565b7f506978656c206f7574206f662072616e67650000000000000000000000000000600082015250565b60006132a360128361263f565b91506132ae8261326d565b602082019050919050565b600060208201905081810360008301526132d281613296565b9050919050565b7f4e6f2f20496e73756666696369656e7420666565732070726f76696465640000600082015250565b600061330f601e8361263f565b915061331a826132d9565b602082019050919050565b6000602082019050818103600083015261333e81613302565b9050919050565b7f53656e646572206973206e6f7420506978656c206f776e657200000000000000600082015250565b600061337b60198361263f565b915061338682613345565b602082019050919050565b600060208201905081810360008301526133aa8161336e565b9050919050565b7f496e76616c696420636f6c6f722c206e6565647320746f20626520696e20484560008201527f5820666f726d61742028776974686f7574207468652023290000000000000000602082015250565b600061340d60388361263f565b9150613418826133b1565b604082019050919050565b6000602082019050818103600083015261343c81613400565b9050919050565b7f4e487b7100000000000000000000000000000000000000000000000000000000600052603260045260246000fd5b7f4e487b7100000000000000000000000000000000000000000000000000000000600052601160045260246000fd5b60006134ac826125d1565b91507fffffffffffffffffffffffffffffffffffffffffffffffffffffffffffffffff8214156134df576134de613472565b5b600182019050919050565b7f4552433732314d657461646174613a2055524920717565727920666f72206e6f60008201527f6e6578697374656e7420746f6b656e0000000000000000000000000000000000602082015250565b6000613546602f8361263f565b9150613551826134ea565b604082019050919050565b6000602082019050818103600083015261357581613539565b9050919050565b600081905092915050565b600061359282612634565b61359c818561357c565b93506135ac818560208601612650565b80840191505092915050565b60006135c48285613587565b91506135d08284613587565b91508190509392505050565b7f4f776e61626c653a206e6577206f776e657220697320746865207a65726f206160008201527f6464726573730000000000000000000000000000000000000000000000000000602082015250565b600061363860268361263f565b9150613643826135dc565b604082019050919050565b600060208201905081810360008301526136678161362b565b9050919050565b7f4552433732313a206f70657261746f7220717565727920666f72206e6f6e657860008201527f697374656e7420746f6b656e0000000000000000000000000000000000000000602082015250565b60006136ca602c8361263f565b91506136d58261366e565b604082019050919050565b600060208201905081810360008301526136f9816136bd565b9050919050565b7f4552433732313a207472616e73666572206f6620746f6b656e2074686174206960008201527f73206e6f74206f776e0000000000000000000000000000000000000000000000602082015250565b600061375c60298361263f565b915061376782613700565b604082019050919050565b6000602082019050818103600083015261378b8161374f565b9050919050565b7f4552433732313a207472616e7366657220746f20746865207a65726f2061646460008201527f7265737300000000000000000000000000000000000000000000000000000000602082015250565b60006137ee60248361263f565b91506137f982613792565b604082019050919050565b6000602082019050818103600083015261381d816137e1565b9050919050565b600061382f826125d1565b915061383a836125d1565b92508282101561384d5761384c613472565b5b828203905092915050565b6000613863826125d1565b915061386e836125d1565b9250827fffffffffffffffffffffffffffffffffffffffffffffffffffffffffffffffff038211156138a3576138a2613472565b5b828201905092915050565b7f4552433732313a20617070726f766520746f2063616c6c657200000000000000600082015250565b60006138e460198361263f565b91506138ef826138ae565b602082019050919050565b60006020820190508181036000830152613913816138d7565b9050919050565b7f4552433732313a207472616e7366657220746f206e6f6e20455243373231526560008201527f63656976657220696d706c656d656e7465720000000000000000000000000000602082015250565b600061397660328361263f565b91506139818261391a565b604082019050919050565b600060208201905081810360008301526139a581613969565b9050919050565b7f4e487b7100000000000000000000000000000000000000000000000000000000600052601260045260246000fd5b60006139e6826125d1565b91506139f1836125d1565b925082613a0157613a006139ac565b5b828204905092915050565b6000613a17826125d1565b9150613a22836125d1565b925082613a3257613a316139ac565b5b828206905092915050565b600081519050919050565b600082825260208201905092915050565b6000613a6482613a3d565b613a6e8185613a48565b9350613a7e818560208601612650565b613a8781612683565b840191505092915050565b6000608082019050613aa76000830187612721565b613ab46020830186612721565b613ac160408301856127b7565b8181036060830152613ad38184613a59565b905095945050505050565b600081519050613aed81612542565b92915050565b600060208284031215613b0957613b0861250c565b5b6000613b1784828501613ade565b91505092915050565b7f4552433732313a206d696e7420746f20746865207a65726f2061646472657373600082015250565b6000613b5660208361263f565b9150613b6182613b20565b602082019050919050565b60006020820190508181036000830152613b8581613b49565b9050919050565b7f4552433732313a20746f6b656e20616c7265616479206d696e74656400000000600082015250565b6000613bc2601c8361263f565b9150613bcd82613b8c565b602082019050919050565b60006020820190508181036000830152613bf181613bb5565b905091905056fea26469706673582212204c960f353dbe764a558a56b30f700d6436a902b6b1721aadb3a18e9ed2191b8464736f6c634300080a0033",
  "immutableReferences": {},
  "source": "// SPDX-License-Identifier: MIT\npragma solidity ^0.8.0;\n\nimport \"@openzeppelin/contracts/token/ERC721/ERC721.sol\";\nimport \"@openzeppelin/contracts/access/Ownable.sol\";\n\ncontract Pixels is ERC721, Ownable {\n\n    uint256 public _gridsize = 1000;\n    uint256 public _totalPixels = _gridsize * _gridsize;\n    uint256 public _pixelPrice = 250000000000000; // approx 1usd\n\n    mapping(uint256 => string) public _pixelColours;\n    // string[] _pixelColours = new string[](_totalPixels);\n    mapping(uint256 => bool) public _pixelOwned;\n\n    constructor() ERC721(\"Pixels\", \"PIX\") {}\n\n    function mint(uint256 _pixelId) external payable {\n        require(!_pixelOwned[_pixelId], \"Pixel is already owned\");\n        require(_pixelId < _totalPixels, \"Pixel out of range\");\n        require(msg.value >= _pixelPrice, 'No/ Insufficient fees provided');\n        // require that some money be sent\n        uint _id = _pixelId;\n        _pixelOwned[_pixelId] = true;\n        _pixelColours[_pixelId] = \"777777\";\n        _safeMint(msg.sender, _id);\n    }\n\n    function getBalance() public view returns(uint256){\n        return address(this).balance;\n    }\n\n     function withdrawAmount(uint256 amount) external onlyOwner {\n         require(amount <= getBalance(), \"Insufficient funds\");\n         payable(msg.sender).transfer(amount);\n     }\n\n    //function change pixel colour |||ERC721.ownerOf(tokenId)\n    function changePixelColor(uint256 _pixelId, string memory _colorHex) external {\n        require(_pixelId < _totalPixels, \"Pixel id out of range\");\n        require(ownerOf(_pixelId) == msg.sender, \"Sender is not Pixel owner\"); //TODO:is this correct?\n        require(bytes(_colorHex).length <= 6, \"Invalid color, needs to be in HEX format (without the #)\");\n        _pixelColours[_pixelId] = _colorHex;\n        //Optional emit Event here...\n    }\n\n    function getPixelColour(uint256 _pixelId) public view returns (string memory) {\n        require(_pixelId < _totalPixels, \"Pixel id out of range\");\n        if(_pixelOwned[_pixelId]) {\n            return _pixelColours[_pixelId];\n        } else {\n            return \"333333\";\n        }\n    }\n\n    function getDebugPixelColour(uint256 _pixelId) public view returns (string memory) {\n            return _pixelColours[_pixelId];\n    }\n\n    function getAll_f() public view returns (string[] memory){\n        string[] memory ret = new string[](_totalPixels);\n        for (uint i = 0; i < _totalPixels; i++) {\n            ret[i] = _pixelColours[i];\n        }\n        return ret;\n    }\n\n    // function getAllPixelColours() public view returns (string[] memory) {\n    //     return _pixelColours;\n    // }\n\n}\n",
  "sourcePath": "/Users/max/Desktop/POLYPAINT.IO/sol/contracts/Pixels.sol",
  "compiler": {
    "name": "solc",
    "version": "0.8.10+commit.fc410830.Emscripten.clang"
  },
  "schemaVersion": "3.4.4",
  "updatedAt": "2021-12-24T01:43:18.281Z",
  "networkType": "ethereum",
  "devdoc": {
    "kind": "dev",
    "methods": {
      "approve(address,uint256)": {
        "details": "See {IERC721-approve}."
      },
      "balanceOf(address)": {
        "details": "See {IERC721-balanceOf}."
      },
      "getApproved(uint256)": {
        "details": "See {IERC721-getApproved}."
      },
      "isApprovedForAll(address,address)": {
        "details": "See {IERC721-isApprovedForAll}."
      },
      "name()": {
        "details": "See {IERC721Metadata-name}."
      },
      "owner()": {
        "details": "Returns the address of the current owner."
      },
      "ownerOf(uint256)": {
        "details": "See {IERC721-ownerOf}."
      },
      "renounceOwnership()": {
        "details": "Leaves the contract without owner. It will not be possible to call `onlyOwner` functions anymore. Can only be called by the current owner. NOTE: Renouncing ownership will leave the contract without an owner, thereby removing any functionality that is only available to the owner."
      },
      "safeTransferFrom(address,address,uint256)": {
        "details": "See {IERC721-safeTransferFrom}."
      },
      "safeTransferFrom(address,address,uint256,bytes)": {
        "details": "See {IERC721-safeTransferFrom}."
      },
      "setApprovalForAll(address,bool)": {
        "details": "See {IERC721-setApprovalForAll}."
      },
      "supportsInterface(bytes4)": {
        "details": "See {IERC165-supportsInterface}."
      },
      "symbol()": {
        "details": "See {IERC721Metadata-symbol}."
      },
      "tokenURI(uint256)": {
        "details": "See {IERC721Metadata-tokenURI}."
      },
      "transferFrom(address,address,uint256)": {
        "details": "See {IERC721-transferFrom}."
      },
      "transferOwnership(address)": {
        "details": "Transfers ownership of the contract to a new account (`newOwner`). Can only be called by the current owner."
      }
    },
    "version": 1
  },
  "userdoc": {
    "kind": "user",
    "methods": {},
    "version": 1
  }
}