{
  "contractName": "Pixels",
  "abi": [
    {
      "inputs": [],
      "stateMutability": "nonpayable",
      "type": "constructor"
    },
    {
      "anonymous": false,
      "inputs": [
        {
          "indexed": true,
          "internalType": "address",
          "name": "owner",
          "type": "address"
        },
        {
          "indexed": true,
          "internalType": "address",
          "name": "approved",
          "type": "address"
        },
        {
          "indexed": true,
          "internalType": "uint256",
          "name": "tokenId",
          "type": "uint256"
        }
      ],
      "name": "Approval",
      "type": "event"
    },
    {
      "anonymous": false,
      "inputs": [
        {
          "indexed": true,
          "internalType": "address",
          "name": "owner",
          "type": "address"
        },
        {
          "indexed": true,
          "internalType": "address",
          "name": "operator",
          "type": "address"
        },
        {
          "indexed": false,
          "internalType": "bool",
          "name": "approved",
          "type": "bool"
        }
      ],
      "name": "ApprovalForAll",
      "type": "event"
    },
    {
      "anonymous": false,
      "inputs": [
        {
          "indexed": true,
          "internalType": "address",
          "name": "previousOwner",
          "type": "address"
        },
        {
          "indexed": true,
          "internalType": "address",
          "name": "newOwner",
          "type": "address"
        }
      ],
      "name": "OwnershipTransferred",
      "type": "event"
    },
    {
      "anonymous": false,
      "inputs": [
        {
          "indexed": false,
          "internalType": "address",
          "name": "owner",
          "type": "address"
        },
        {
          "indexed": false,
          "internalType": "bytes3",
          "name": "newColour",
          "type": "bytes3"
        },
        {
          "indexed": false,
          "internalType": "uint256",
          "name": "pixelId",
          "type": "uint256"
        }
      ],
      "name": "PixelColourChanged",
      "type": "event"
    },
    {
      "anonymous": false,
      "inputs": [
        {
          "indexed": false,
          "internalType": "uint256",
          "name": "date",
          "type": "uint256"
        },
        {
          "indexed": false,
          "internalType": "address",
          "name": "to",
          "type": "address"
        },
        {
          "indexed": false,
          "internalType": "uint256",
          "name": "pixelId",
          "type": "uint256"
        }
      ],
      "name": "PixelMinted",
      "type": "event"
    },
    {
      "anonymous": false,
      "inputs": [
        {
          "indexed": true,
          "internalType": "address",
          "name": "from",
          "type": "address"
        },
        {
          "indexed": true,
          "internalType": "address",
          "name": "to",
          "type": "address"
        },
        {
          "indexed": true,
          "internalType": "uint256",
          "name": "tokenId",
          "type": "uint256"
        }
      ],
      "name": "Transfer",
      "type": "event"
    },
    {
      "inputs": [],
      "name": "_gridsize",
      "outputs": [
        {
          "internalType": "uint256",
          "name": "",
          "type": "uint256"
        }
      ],
      "stateMutability": "view",
      "type": "function",
      "constant": true
    },
    {
      "inputs": [
        {
          "internalType": "uint256",
          "name": "",
          "type": "uint256"
        }
      ],
      "name": "_pixelColours",
      "outputs": [
        {
          "internalType": "bytes3",
          "name": "",
          "type": "bytes3"
        }
      ],
      "stateMutability": "view",
      "type": "function",
      "constant": true
    },
    {
      "inputs": [
        {
          "internalType": "uint256",
          "name": "",
          "type": "uint256"
        }
      ],
      "name": "_pixelOwned",
      "outputs": [
        {
          "internalType": "bool",
          "name": "",
          "type": "bool"
        }
      ],
      "stateMutability": "view",
      "type": "function",
      "constant": true
    },
    {
      "inputs": [],
      "name": "_pixelPrice",
      "outputs": [
        {
          "internalType": "uint256",
          "name": "",
          "type": "uint256"
        }
      ],
      "stateMutability": "view",
      "type": "function",
      "constant": true
    },
    {
      "inputs": [],
      "name": "_totalPixels",
      "outputs": [
        {
          "internalType": "uint256",
          "name": "",
          "type": "uint256"
        }
      ],
      "stateMutability": "view",
      "type": "function",
      "constant": true
    },
    {
      "inputs": [
        {
          "internalType": "address",
          "name": "to",
          "type": "address"
        },
        {
          "internalType": "uint256",
          "name": "tokenId",
          "type": "uint256"
        }
      ],
      "name": "approve",
      "outputs": [],
      "stateMutability": "nonpayable",
      "type": "function"
    },
    {
      "inputs": [
        {
          "internalType": "address",
          "name": "owner",
          "type": "address"
        }
      ],
      "name": "balanceOf",
      "outputs": [
        {
          "internalType": "uint256",
          "name": "",
          "type": "uint256"
        }
      ],
      "stateMutability": "view",
      "type": "function",
      "constant": true
    },
    {
      "inputs": [
        {
          "internalType": "uint256",
          "name": "tokenId",
          "type": "uint256"
        }
      ],
      "name": "getApproved",
      "outputs": [
        {
          "internalType": "address",
          "name": "",
          "type": "address"
        }
      ],
      "stateMutability": "view",
      "type": "function",
      "constant": true
    },
    {
      "inputs": [
        {
          "internalType": "address",
          "name": "owner",
          "type": "address"
        },
        {
          "internalType": "address",
          "name": "operator",
          "type": "address"
        }
      ],
      "name": "isApprovedForAll",
      "outputs": [
        {
          "internalType": "bool",
          "name": "",
          "type": "bool"
        }
      ],
      "stateMutability": "view",
      "type": "function",
      "constant": true
    },
    {
      "inputs": [],
      "name": "name",
      "outputs": [
        {
          "internalType": "string",
          "name": "",
          "type": "string"
        }
      ],
      "stateMutability": "view",
      "type": "function",
      "constant": true
    },
    {
      "inputs": [],
      "name": "owner",
      "outputs": [
        {
          "internalType": "address",
          "name": "",
          "type": "address"
        }
      ],
      "stateMutability": "view",
      "type": "function",
      "constant": true
    },
    {
      "inputs": [
        {
          "internalType": "uint256",
          "name": "tokenId",
          "type": "uint256"
        }
      ],
      "name": "ownerOf",
      "outputs": [
        {
          "internalType": "address",
          "name": "",
          "type": "address"
        }
      ],
      "stateMutability": "view",
      "type": "function",
      "constant": true
    },
    {
      "inputs": [],
      "name": "renounceOwnership",
      "outputs": [],
      "stateMutability": "nonpayable",
      "type": "function"
    },
    {
      "inputs": [
        {
          "internalType": "address",
          "name": "from",
          "type": "address"
        },
        {
          "internalType": "address",
          "name": "to",
          "type": "address"
        },
        {
          "internalType": "uint256",
          "name": "tokenId",
          "type": "uint256"
        }
      ],
      "name": "safeTransferFrom",
      "outputs": [],
      "stateMutability": "nonpayable",
      "type": "function"
    },
    {
      "inputs": [
        {
          "internalType": "address",
          "name": "from",
          "type": "address"
        },
        {
          "internalType": "address",
          "name": "to",
          "type": "address"
        },
        {
          "internalType": "uint256",
          "name": "tokenId",
          "type": "uint256"
        },
        {
          "internalType": "bytes",
          "name": "_data",
          "type": "bytes"
        }
      ],
      "name": "safeTransferFrom",
      "outputs": [],
      "stateMutability": "nonpayable",
      "type": "function"
    },
    {
      "inputs": [
        {
          "internalType": "address",
          "name": "operator",
          "type": "address"
        },
        {
          "internalType": "bool",
          "name": "approved",
          "type": "bool"
        }
      ],
      "name": "setApprovalForAll",
      "outputs": [],
      "stateMutability": "nonpayable",
      "type": "function"
    },
    {
      "inputs": [
        {
          "internalType": "bytes4",
          "name": "interfaceId",
          "type": "bytes4"
        }
      ],
      "name": "supportsInterface",
      "outputs": [
        {
          "internalType": "bool",
          "name": "",
          "type": "bool"
        }
      ],
      "stateMutability": "view",
      "type": "function",
      "constant": true
    },
    {
      "inputs": [],
      "name": "symbol",
      "outputs": [
        {
          "internalType": "string",
          "name": "",
          "type": "string"
        }
      ],
      "stateMutability": "view",
      "type": "function",
      "constant": true
    },
    {
      "inputs": [
        {
          "internalType": "uint256",
          "name": "tokenId",
          "type": "uint256"
        }
      ],
      "name": "tokenURI",
      "outputs": [
        {
          "internalType": "string",
          "name": "",
          "type": "string"
        }
      ],
      "stateMutability": "view",
      "type": "function",
      "constant": true
    },
    {
      "inputs": [
        {
          "internalType": "address",
          "name": "from",
          "type": "address"
        },
        {
          "internalType": "address",
          "name": "to",
          "type": "address"
        },
        {
          "internalType": "uint256",
          "name": "tokenId",
          "type": "uint256"
        }
      ],
      "name": "transferFrom",
      "outputs": [],
      "stateMutability": "nonpayable",
      "type": "function"
    },
    {
      "inputs": [
        {
          "internalType": "address",
          "name": "newOwner",
          "type": "address"
        }
      ],
      "name": "transferOwnership",
      "outputs": [],
      "stateMutability": "nonpayable",
      "type": "function"
    },
    {
      "inputs": [
        {
          "internalType": "uint256",
          "name": "_pixelId",
          "type": "uint256"
        }
      ],
      "name": "mint",
      "outputs": [],
      "stateMutability": "payable",
      "type": "function",
      "payable": true
    },
    {
      "inputs": [
        {
          "internalType": "uint256",
          "name": "_pixelId",
          "type": "uint256"
        },
        {
          "internalType": "bytes3",
          "name": "_newColour",
          "type": "bytes3"
        }
      ],
      "name": "mint",
      "outputs": [],
      "stateMutability": "payable",
      "type": "function",
      "payable": true
    },
    {
      "inputs": [],
      "name": "getBalance",
      "outputs": [
        {
          "internalType": "uint256",
          "name": "",
          "type": "uint256"
        }
      ],
      "stateMutability": "view",
      "type": "function",
      "constant": true
    },
    {
      "inputs": [
        {
          "internalType": "uint256",
          "name": "amount",
          "type": "uint256"
        }
      ],
      "name": "withdrawAmount",
      "outputs": [],
      "stateMutability": "nonpayable",
      "type": "function"
    },
    {
      "inputs": [
        {
          "internalType": "uint256",
          "name": "_pixelId",
          "type": "uint256"
        },
        {
          "internalType": "bytes3",
          "name": "_colorHex",
          "type": "bytes3"
        }
      ],
      "name": "changePixelColor",
      "outputs": [],
      "stateMutability": "nonpayable",
      "type": "function"
    },
    {
      "inputs": [
        {
          "internalType": "uint256",
          "name": "_pixelId",
          "type": "uint256"
        }
      ],
      "name": "getPixelColour",
      "outputs": [
        {
          "internalType": "bytes3",
          "name": "",
          "type": "bytes3"
        }
      ],
      "stateMutability": "view",
      "type": "function",
      "constant": true
    },
    {
      "inputs": [
        {
          "internalType": "uint256",
          "name": "_pixelId",
          "type": "uint256"
        }
      ],
      "name": "isPixelOwned",
      "outputs": [
        {
          "internalType": "bool",
          "name": "",
          "type": "bool"
        }
      ],
      "stateMutability": "view",
      "type": "function",
      "constant": true
    }
  ],
  "bytecode": "0x60806040526103e86007556007546007546200001c9190620002b4565b60085565e35fa931a0006009553480156200003657600080fd5b506040518060400160405280600681526020017f506978656c7300000000000000000000000000000000000000000000000000008152506040518060400160405280600381526020017f50495800000000000000000000000000000000000000000000000000000000008152508160009080519060200190620000bb929190620001cb565b508060019080519060200190620000d4929190620001cb565b505050620000f7620000eb620000fd60201b60201c565b6200010560201b60201c565b6200037a565b600033905090565b6000600660009054906101000a900473ffffffffffffffffffffffffffffffffffffffff16905081600660006101000a81548173ffffffffffffffffffffffffffffffffffffffff021916908373ffffffffffffffffffffffffffffffffffffffff1602179055508173ffffffffffffffffffffffffffffffffffffffff168173ffffffffffffffffffffffffffffffffffffffff167f8be0079c531659141344cd1fd0a4f28419497f9722a3daafe3b4186f6b6457e060405160405180910390a35050565b828054620001d99062000344565b90600052602060002090601f016020900481019282620001fd576000855562000249565b82601f106200021857805160ff191683800117855562000249565b8280016001018555821562000249579182015b82811115620002485782518255916020019190600101906200022b565b5b5090506200025891906200025c565b5090565b5b80821115620002775760008160009055506001016200025d565b5090565b6000819050919050565b7f4e487b7100000000000000000000000000000000000000000000000000000000600052601160045260246000fd5b6000620002c1826200027b565b9150620002ce836200027b565b9250817fffffffffffffffffffffffffffffffffffffffffffffffffffffffffffffffff04831182151516156200030a576200030962000285565b5b828202905092915050565b7f4e487b7100000000000000000000000000000000000000000000000000000000600052602260045260246000fd5b600060028204905060018216806200035d57607f821691505b6020821081141562000374576200037362000315565b5b50919050565b6137a5806200038a6000396000f3fe6080604052600436106101b75760003560e01c806395d89b41116100ec578063e1614e151161008a578063f0dad05d11610064578063f0dad05d14610647578063f2fde38b14610663578063f5adb59a1461068c578063fff4ca9c146106b7576101b7565b8063e1614e15146105a4578063e985e9c5146105e1578063efbd975b1461061e576101b7565b8063a22cb465116100c6578063a22cb465146104ea578063afccaf6514610513578063b88d4fde1461053e578063c87b56dd14610567576101b7565b806395d89b41146104665780639631cb3414610491578063a0712d68146104ce576101b7565b806323b872dd11610159578063642fd0f611610133578063642fd0f6146103aa57806370a08231146103e7578063715018a6146104245780638da5cb5b1461043b576101b7565b806323b872dd1461031b57806342842e0e146103445780636352211e1461036d576101b7565b8063081812fc11610195578063081812fc1461024d578063095ea7b31461028a57806312065fe0146102b35780631aec1f15146102de576101b7565b806301ffc9a7146101bc5780630562b9f7146101f957806306fdde0314610222575b600080fd5b3480156101c857600080fd5b506101e360048036038101906101de9190612272565b6106e2565b6040516101f091906122ba565b60405180910390f35b34801561020557600080fd5b50610220600480360381019061021b919061230b565b6107c4565b005b34801561022e57600080fd5b506102376108d4565b60405161024491906123d1565b60405180910390f35b34801561025957600080fd5b50610274600480360381019061026f919061230b565b610966565b6040516102819190612434565b60405180910390f35b34801561029657600080fd5b506102b160048036038101906102ac919061247b565b6109eb565b005b3480156102bf57600080fd5b506102c8610b03565b6040516102d591906124ca565b60405180910390f35b3480156102ea57600080fd5b506103056004803603810190610300919061230b565b610b0b565b6040516103129190612520565b60405180910390f35b34801561032757600080fd5b50610342600480360381019061033d919061253b565b610b2b565b005b34801561035057600080fd5b5061036b6004803603810190610366919061253b565b610b8b565b005b34801561037957600080fd5b50610394600480360381019061038f919061230b565b610bab565b6040516103a19190612434565b60405180910390f35b3480156103b657600080fd5b506103d160048036038101906103cc919061230b565b610c5d565b6040516103de9190612520565b60405180910390f35b3480156103f357600080fd5b5061040e6004803603810190610409919061258e565b610cfe565b60405161041b91906124ca565b60405180910390f35b34801561043057600080fd5b50610439610db6565b005b34801561044757600080fd5b50610450610e3e565b60405161045d9190612434565b60405180910390f35b34801561047257600080fd5b5061047b610e68565b60405161048891906123d1565b60405180910390f35b34801561049d57600080fd5b506104b860048036038101906104b3919061230b565b610efa565b6040516104c591906122ba565b60405180910390f35b6104e860048036038101906104e3919061230b565b610f68565b005b3480156104f657600080fd5b50610511600480360381019061050c91906125e7565b610f7b565b005b34801561051f57600080fd5b50610528610f91565b60405161053591906124ca565b60405180910390f35b34801561054a57600080fd5b506105656004803603810190610560919061275c565b610f97565b005b34801561057357600080fd5b5061058e6004803603810190610589919061230b565b610ff9565b60405161059b91906123d1565b60405180910390f35b3480156105b057600080fd5b506105cb60048036038101906105c6919061230b565b6110a0565b6040516105d891906122ba565b60405180910390f35b3480156105ed57600080fd5b50610608600480360381019061060391906127df565b6110c0565b60405161061591906122ba565b60405180910390f35b34801561062a57600080fd5b506106456004803603810190610640919061284b565b611154565b005b610661600480360381019061065c919061284b565b61127b565b005b34801561066f57600080fd5b5061068a6004803603810190610685919061258e565b611443565b005b34801561069857600080fd5b506106a161153b565b6040516106ae91906124ca565b60405180910390f35b3480156106c357600080fd5b506106cc611541565b6040516106d991906124ca565b60405180910390f35b60007f80ac58cd000000000000000000000000000000000000000000000000000000007bffffffffffffffffffffffffffffffffffffffffffffffffffffffff1916827bffffffffffffffffffffffffffffffffffffffffffffffffffffffff191614806107ad57507f5b5e139f000000000000000000000000000000000000000000000000000000007bffffffffffffffffffffffffffffffffffffffffffffffffffffffff1916827bffffffffffffffffffffffffffffffffffffffffffffffffffffffff1916145b806107bd57506107bc82611547565b5b9050919050565b6107cc6115b1565b73ffffffffffffffffffffffffffffffffffffffff166107ea610e3e565b73ffffffffffffffffffffffffffffffffffffffff1614610840576040517f08c379a0000000000000000000000000000000000000000000000000000000008152600401610837906128d7565b60405180910390fd5b610848610b03565b81111561088a576040517f08c379a000000000000000000000000000000000000000000000000000000000815260040161088190612943565b60405180910390fd5b3373ffffffffffffffffffffffffffffffffffffffff166108fc829081150290604051600060405180830381858888f193505050501580156108d0573d6000803e3d6000fd5b5050565b6060600080546108e390612992565b80601f016020809104026020016040519081016040528092919081815260200182805461090f90612992565b801561095c5780601f106109315761010080835404028352916020019161095c565b820191906000526020600020905b81548152906001019060200180831161093f57829003601f168201915b5050505050905090565b6000610971826115b9565b6109b0576040517f08c379a00000000000000000000000000000000000000000000000000000000081526004016109a790612a36565b60405180910390fd5b6004600083815260200190815260200160002060009054906101000a900473ffffffffffffffffffffffffffffffffffffffff169050919050565b60006109f682610bab565b90508073ffffffffffffffffffffffffffffffffffffffff168373ffffffffffffffffffffffffffffffffffffffff161415610a67576040517f08c379a0000000000000000000000000000000000000000000000000000000008152600401610a5e90612ac8565b60405180910390fd5b8073ffffffffffffffffffffffffffffffffffffffff16610a866115b1565b73ffffffffffffffffffffffffffffffffffffffff161480610ab55750610ab481610aaf6115b1565b6110c0565b5b610af4576040517f08c379a0000000000000000000000000000000000000000000000000000000008152600401610aeb90612b5a565b60405180910390fd5b610afe8383611625565b505050565b600047905090565b600a6020528060005260406000206000915054906101000a900460e81b81565b610b3c610b366115b1565b826116de565b610b7b576040517f08c379a0000000000000000000000000000000000000000000000000000000008152600401610b7290612bec565b60405180910390fd5b610b868383836117bc565b505050565b610ba683838360405180602001604052806000815250610f97565b505050565b6000806002600084815260200190815260200160002060009054906101000a900473ffffffffffffffffffffffffffffffffffffffff169050600073ffffffffffffffffffffffffffffffffffffffff168173ffffffffffffffffffffffffffffffffffffffff161415610c54576040517f08c379a0000000000000000000000000000000000000000000000000000000008152600401610c4b90612c7e565b60405180910390fd5b80915050919050565b60006008548210610ca3576040517f08c379a0000000000000000000000000000000000000000000000000000000008152600401610c9a90612cea565b60405180910390fd5b600b600083815260200190815260200160002060009054906101000a900460ff1615610cf157600a600083815260200190815260200160002060009054906101000a900460e81b9050610cf9565b600160e81b90505b919050565b60008073ffffffffffffffffffffffffffffffffffffffff168273ffffffffffffffffffffffffffffffffffffffff161415610d6f576040517f08c379a0000000000000000000000000000000000000000000000000000000008152600401610d6690612d7c565b60405180910390fd5b600360008373ffffffffffffffffffffffffffffffffffffffff1673ffffffffffffffffffffffffffffffffffffffff168152602001908152602001600020549050919050565b610dbe6115b1565b73ffffffffffffffffffffffffffffffffffffffff16610ddc610e3e565b73ffffffffffffffffffffffffffffffffffffffff1614610e32576040517f08c379a0000000000000000000000000000000000000000000000000000000008152600401610e29906128d7565b60405180910390fd5b610e3c6000611a18565b565b6000600660009054906101000a900473ffffffffffffffffffffffffffffffffffffffff16905090565b606060018054610e7790612992565b80601f0160208091040260200160405190810160405280929190818152602001828054610ea390612992565b8015610ef05780601f10610ec557610100808354040283529160200191610ef0565b820191906000526020600020905b815481529060010190602001808311610ed357829003601f168201915b5050505050905090565b60006008548210610f40576040517f08c379a0000000000000000000000000000000000000000000000000000000008152600401610f3790612cea565b60405180910390fd5b600b600083815260200190815260200160002060009054906101000a900460ff169050919050565b610f78816211111160e81b61127b565b50565b610f8d610f866115b1565b8383611ade565b5050565b60095481565b610fa8610fa26115b1565b836116de565b610fe7576040517f08c379a0000000000000000000000000000000000000000000000000000000008152600401610fde90612bec565b60405180910390fd5b610ff384848484611c4b565b50505050565b6060611004826115b9565b611043576040517f08c379a000000000000000000000000000000000000000000000000000000000815260040161103a90612e0e565b60405180910390fd5b600061104d611ca7565b9050600081511161106d5760405180602001604052806000815250611098565b8061107784611cbe565b604051602001611088929190612e6a565b6040516020818303038152906040525b915050919050565b600b6020528060005260406000206000915054906101000a900460ff1681565b6000600560008473ffffffffffffffffffffffffffffffffffffffff1673ffffffffffffffffffffffffffffffffffffffff16815260200190815260200160002060008373ffffffffffffffffffffffffffffffffffffffff1673ffffffffffffffffffffffffffffffffffffffff16815260200190815260200160002060009054906101000a900460ff16905092915050565b6008548210611198576040517f08c379a000000000000000000000000000000000000000000000000000000000815260040161118f90612cea565b60405180910390fd5b3373ffffffffffffffffffffffffffffffffffffffff166111b883610bab565b73ffffffffffffffffffffffffffffffffffffffff161461120e576040517f08c379a000000000000000000000000000000000000000000000000000000000815260040161120590612eda565b60405180910390fd5b80600a600084815260200190815260200160002060006101000a81548162ffffff021916908360e81c02179055507f98a0e7ec1b61c69699ea733cf97ede142a1217dc2a8f2f64849d93689652ce1c33828460405161126f93929190612efa565b60405180910390a15050565b600b600083815260200190815260200160002060009054906101000a900460ff16156112dc576040517f08c379a00000000000000000000000000000000000000000000000000000000081526004016112d390612f7d565b60405180910390fd5b6008548210611320576040517f08c379a000000000000000000000000000000000000000000000000000000000815260040161131790612fe9565b60405180910390fd5b600954341015611365576040517f08c379a000000000000000000000000000000000000000000000000000000000815260040161135c90613055565b60405180910390fd5b6001600b600084815260200190815260200160002060006101000a81548160ff02191690831515021790555080600a600084815260200190815260200160002060006101000a81548162ffffff021916908360e81c02179055506113c93383611e1f565b7fa3c5a07f63c391102daa3f8b260023afa2b5a1976a137e50be84de2c5763ae724233846040516113fc93929190613075565b60405180910390a17f98a0e7ec1b61c69699ea733cf97ede142a1217dc2a8f2f64849d93689652ce1c33828460405161143793929190612efa565b60405180910390a15050565b61144b6115b1565b73ffffffffffffffffffffffffffffffffffffffff16611469610e3e565b73ffffffffffffffffffffffffffffffffffffffff16146114bf576040517f08c379a00000000000000000000000000000000000000000000000000000000081526004016114b6906128d7565b60405180910390fd5b600073ffffffffffffffffffffffffffffffffffffffff168173ffffffffffffffffffffffffffffffffffffffff16141561152f576040517f08c379a00000000000000000000000000000000000000000000000000000000081526004016115269061311e565b60405180910390fd5b61153881611a18565b50565b60075481565b60085481565b60007f01ffc9a7000000000000000000000000000000000000000000000000000000007bffffffffffffffffffffffffffffffffffffffffffffffffffffffff1916827bffffffffffffffffffffffffffffffffffffffffffffffffffffffff1916149050919050565b600033905090565b60008073ffffffffffffffffffffffffffffffffffffffff166002600084815260200190815260200160002060009054906101000a900473ffffffffffffffffffffffffffffffffffffffff1673ffffffffffffffffffffffffffffffffffffffff1614159050919050565b816004600083815260200190815260200160002060006101000a81548173ffffffffffffffffffffffffffffffffffffffff021916908373ffffffffffffffffffffffffffffffffffffffff160217905550808273ffffffffffffffffffffffffffffffffffffffff1661169883610bab565b73ffffffffffffffffffffffffffffffffffffffff167f8c5be1e5ebec7d5bd14f71427d1e84f3dd0314c0f7b2291e5b200ac8c7c3b92560405160405180910390a45050565b60006116e9826115b9565b611728576040517f08c379a000000000000000000000000000000000000000000000000000000000815260040161171f906131b0565b60405180910390fd5b600061173383610bab565b90508073ffffffffffffffffffffffffffffffffffffffff168473ffffffffffffffffffffffffffffffffffffffff1614806117a257508373ffffffffffffffffffffffffffffffffffffffff1661178a84610966565b73ffffffffffffffffffffffffffffffffffffffff16145b806117b357506117b281856110c0565b5b91505092915050565b8273ffffffffffffffffffffffffffffffffffffffff166117dc82610bab565b73ffffffffffffffffffffffffffffffffffffffff1614611832576040517f08c379a000000000000000000000000000000000000000000000000000000000815260040161182990613242565b60405180910390fd5b600073ffffffffffffffffffffffffffffffffffffffff168273ffffffffffffffffffffffffffffffffffffffff1614156118a2576040517f08c379a0000000000000000000000000000000000000000000000000000000008152600401611899906132d4565b60405180910390fd5b6118ad838383611e3d565b6118b8600082611625565b6001600360008573ffffffffffffffffffffffffffffffffffffffff1673ffffffffffffffffffffffffffffffffffffffff16815260200190815260200160002060008282546119089190613323565b925050819055506001600360008473ffffffffffffffffffffffffffffffffffffffff1673ffffffffffffffffffffffffffffffffffffffff168152602001908152602001600020600082825461195f9190613357565b92505081905550816002600083815260200190815260200160002060006101000a81548173ffffffffffffffffffffffffffffffffffffffff021916908373ffffffffffffffffffffffffffffffffffffffff160217905550808273ffffffffffffffffffffffffffffffffffffffff168473ffffffffffffffffffffffffffffffffffffffff167fddf252ad1be2c89b69c2b068fc378daa952ba7f163c4a11628f55a4df523b3ef60405160405180910390a4505050565b6000600660009054906101000a900473ffffffffffffffffffffffffffffffffffffffff16905081600660006101000a81548173ffffffffffffffffffffffffffffffffffffffff021916908373ffffffffffffffffffffffffffffffffffffffff1602179055508173ffffffffffffffffffffffffffffffffffffffff168173ffffffffffffffffffffffffffffffffffffffff167f8be0079c531659141344cd1fd0a4f28419497f9722a3daafe3b4186f6b6457e060405160405180910390a35050565b8173ffffffffffffffffffffffffffffffffffffffff168373ffffffffffffffffffffffffffffffffffffffff161415611b4d576040517f08c379a0000000000000000000000000000000000000000000000000000000008152600401611b44906133f9565b60405180910390fd5b80600560008573ffffffffffffffffffffffffffffffffffffffff1673ffffffffffffffffffffffffffffffffffffffff16815260200190815260200160002060008473ffffffffffffffffffffffffffffffffffffffff1673ffffffffffffffffffffffffffffffffffffffff16815260200190815260200160002060006101000a81548160ff0219169083151502179055508173ffffffffffffffffffffffffffffffffffffffff168373ffffffffffffffffffffffffffffffffffffffff167f17307eab39ab6107e8899845ad3d59bd9653f200f220920489ca2b5937696c3183604051611c3e91906122ba565b60405180910390a3505050565b611c568484846117bc565b611c6284848484611e42565b611ca1576040517f08c379a0000000000000000000000000000000000000000000000000000000008152600401611c989061348b565b60405180910390fd5b50505050565b606060405180602001604052806000815250905090565b60606000821415611d06576040518060400160405280600181526020017f30000000000000000000000000000000000000000000000000000000000000008152509050611e1a565b600082905060005b60008214611d38578080611d21906134ab565b915050600a82611d319190613523565b9150611d0e565b60008167ffffffffffffffff811115611d5457611d53612631565b5b6040519080825280601f01601f191660200182016040528015611d865781602001600182028036833780820191505090505b5090505b60008514611e1357600182611d9f9190613323565b9150600a85611dae9190613554565b6030611dba9190613357565b60f81b818381518110611dd057611dcf613585565b5b60200101907effffffffffffffffffffffffffffffffffffffffffffffffffffffffffffff1916908160001a905350600a85611e0c9190613523565b9450611d8a565b8093505050505b919050565b611e39828260405180602001604052806000815250611fca565b5050565b505050565b6000611e638473ffffffffffffffffffffffffffffffffffffffff16612025565b15611fbd578373ffffffffffffffffffffffffffffffffffffffff1663150b7a02611e8c6115b1565b8786866040518563ffffffff1660e01b8152600401611eae9493929190613609565b6020604051808303816000875af1925050508015611eea57506040513d601f19601f82011682018060405250810190611ee7919061366a565b60015b611f6d573d8060008114611f1a576040519150601f19603f3d011682016040523d82523d6000602084013e611f1f565b606091505b50600081511415611f65576040517f08c379a0000000000000000000000000000000000000000000000000000000008152600401611f5c9061348b565b60405180910390fd5b805181602001fd5b63150b7a0260e01b7bffffffffffffffffffffffffffffffffffffffffffffffffffffffff1916817bffffffffffffffffffffffffffffffffffffffffffffffffffffffff191614915050611fc2565b600190505b949350505050565b611fd48383612038565b611fe16000848484611e42565b612020576040517f08c379a00000000000000000000000000000000000000000000000000000000081526004016120179061348b565b60405180910390fd5b505050565b600080823b905060008111915050919050565b600073ffffffffffffffffffffffffffffffffffffffff168273ffffffffffffffffffffffffffffffffffffffff1614156120a8576040517f08c379a000000000000000000000000000000000000000000000000000000000815260040161209f906136e3565b60405180910390fd5b6120b1816115b9565b156120f1576040517f08c379a00000000000000000000000000000000000000000000000000000000081526004016120e89061374f565b60405180910390fd5b6120fd60008383611e3d565b6001600360008473ffffffffffffffffffffffffffffffffffffffff1673ffffffffffffffffffffffffffffffffffffffff168152602001908152602001600020600082825461214d9190613357565b92505081905550816002600083815260200190815260200160002060006101000a81548173ffffffffffffffffffffffffffffffffffffffff021916908373ffffffffffffffffffffffffffffffffffffffff160217905550808273ffffffffffffffffffffffffffffffffffffffff16600073ffffffffffffffffffffffffffffffffffffffff167fddf252ad1be2c89b69c2b068fc378daa952ba7f163c4a11628f55a4df523b3ef60405160405180910390a45050565b6000604051905090565b600080fd5b600080fd5b60007fffffffff0000000000000000000000000000000000000000000000000000000082169050919050565b61224f8161221a565b811461225a57600080fd5b50565b60008135905061226c81612246565b92915050565b60006020828403121561228857612287612210565b5b60006122968482850161225d565b91505092915050565b60008115159050919050565b6122b48161229f565b82525050565b60006020820190506122cf60008301846122ab565b92915050565b6000819050919050565b6122e8816122d5565b81146122f357600080fd5b50565b600081359050612305816122df565b92915050565b60006020828403121561232157612320612210565b5b600061232f848285016122f6565b91505092915050565b600081519050919050565b600082825260208201905092915050565b60005b83811015612372578082015181840152602081019050612357565b83811115612381576000848401525b50505050565b6000601f19601f8301169050919050565b60006123a382612338565b6123ad8185612343565b93506123bd818560208601612354565b6123c681612387565b840191505092915050565b600060208201905081810360008301526123eb8184612398565b905092915050565b600073ffffffffffffffffffffffffffffffffffffffff82169050919050565b600061241e826123f3565b9050919050565b61242e81612413565b82525050565b60006020820190506124496000830184612425565b92915050565b61245881612413565b811461246357600080fd5b50565b6000813590506124758161244f565b92915050565b6000806040838503121561249257612491612210565b5b60006124a085828601612466565b92505060206124b1858286016122f6565b9150509250929050565b6124c4816122d5565b82525050565b60006020820190506124df60008301846124bb565b92915050565b60007fffffff000000000000000000000000000000000000000000000000000000000082169050919050565b61251a816124e5565b82525050565b60006020820190506125356000830184612511565b92915050565b60008060006060848603121561255457612553612210565b5b600061256286828701612466565b935050602061257386828701612466565b9250506040612584868287016122f6565b9150509250925092565b6000602082840312156125a4576125a3612210565b5b60006125b284828501612466565b91505092915050565b6125c48161229f565b81146125cf57600080fd5b50565b6000813590506125e1816125bb565b92915050565b600080604083850312156125fe576125fd612210565b5b600061260c85828601612466565b925050602061261d858286016125d2565b9150509250929050565b600080fd5b600080fd5b7f4e487b7100000000000000000000000000000000000000000000000000000000600052604160045260246000fd5b61266982612387565b810181811067ffffffffffffffff8211171561268857612687612631565b5b80604052505050565b600061269b612206565b90506126a78282612660565b919050565b600067ffffffffffffffff8211156126c7576126c6612631565b5b6126d082612387565b9050602081019050919050565b82818337600083830152505050565b60006126ff6126fa846126ac565b612691565b90508281526020810184848401111561271b5761271a61262c565b5b6127268482856126dd565b509392505050565b600082601f83011261274357612742612627565b5b81356127538482602086016126ec565b91505092915050565b6000806000806080858703121561277657612775612210565b5b600061278487828801612466565b945050602061279587828801612466565b93505060406127a6878288016122f6565b925050606085013567ffffffffffffffff8111156127c7576127c6612215565b5b6127d38782880161272e565b91505092959194509250565b600080604083850312156127f6576127f5612210565b5b600061280485828601612466565b925050602061281585828601612466565b9150509250929050565b612828816124e5565b811461283357600080fd5b50565b6000813590506128458161281f565b92915050565b6000806040838503121561286257612861612210565b5b6000612870858286016122f6565b925050602061288185828601612836565b9150509250929050565b7f4f776e61626c653a2063616c6c6572206973206e6f7420746865206f776e6572600082015250565b60006128c1602083612343565b91506128cc8261288b565b602082019050919050565b600060208201905081810360008301526128f0816128b4565b9050919050565b7f496e73756666696369656e742066756e64730000000000000000000000000000600082015250565b600061292d601283612343565b9150612938826128f7565b602082019050919050565b6000602082019050818103600083015261295c81612920565b9050919050565b7f4e487b7100000000000000000000000000000000000000000000000000000000600052602260045260246000fd5b600060028204905060018216806129aa57607f821691505b602082108114156129be576129bd612963565b5b50919050565b7f4552433732313a20617070726f76656420717565727920666f72206e6f6e657860008201527f697374656e7420746f6b656e0000000000000000000000000000000000000000602082015250565b6000612a20602c83612343565b9150612a2b826129c4565b604082019050919050565b60006020820190508181036000830152612a4f81612a13565b9050919050565b7f4552433732313a20617070726f76616c20746f2063757272656e74206f776e6560008201527f7200000000000000000000000000000000000000000000000000000000000000602082015250565b6000612ab2602183612343565b9150612abd82612a56565b604082019050919050565b60006020820190508181036000830152612ae181612aa5565b9050919050565b7f4552433732313a20617070726f76652063616c6c6572206973206e6f74206f7760008201527f6e6572206e6f7220617070726f76656420666f7220616c6c0000000000000000602082015250565b6000612b44603883612343565b9150612b4f82612ae8565b604082019050919050565b60006020820190508181036000830152612b7381612b37565b9050919050565b7f4552433732313a207472616e736665722063616c6c6572206973206e6f74206f60008201527f776e6572206e6f7220617070726f766564000000000000000000000000000000602082015250565b6000612bd6603183612343565b9150612be182612b7a565b604082019050919050565b60006020820190508181036000830152612c0581612bc9565b9050919050565b7f4552433732313a206f776e657220717565727920666f72206e6f6e657869737460008201527f656e7420746f6b656e0000000000000000000000000000000000000000000000602082015250565b6000612c68602983612343565b9150612c7382612c0c565b604082019050919050565b60006020820190508181036000830152612c9781612c5b565b9050919050565b7f506978656c206964206f7574206f662072616e67650000000000000000000000600082015250565b6000612cd4601583612343565b9150612cdf82612c9e565b602082019050919050565b60006020820190508181036000830152612d0381612cc7565b9050919050565b7f4552433732313a2062616c616e636520717565727920666f7220746865207a6560008201527f726f206164647265737300000000000000000000000000000000000000000000602082015250565b6000612d66602a83612343565b9150612d7182612d0a565b604082019050919050565b60006020820190508181036000830152612d9581612d59565b9050919050565b7f4552433732314d657461646174613a2055524920717565727920666f72206e6f60008201527f6e6578697374656e7420746f6b656e0000000000000000000000000000000000602082015250565b6000612df8602f83612343565b9150612e0382612d9c565b604082019050919050565b60006020820190508181036000830152612e2781612deb565b9050919050565b600081905092915050565b6000612e4482612338565b612e4e8185612e2e565b9350612e5e818560208601612354565b80840191505092915050565b6000612e768285612e39565b9150612e828284612e39565b91508190509392505050565b7f53656e646572206973206e6f7420506978656c206f776e657200000000000000600082015250565b6000612ec4601983612343565b9150612ecf82612e8e565b602082019050919050565b60006020820190508181036000830152612ef381612eb7565b9050919050565b6000606082019050612f0f6000830186612425565b612f1c6020830185612511565b612f2960408301846124bb565b949350505050565b7f506978656c20697320616c7265616479206f776e656400000000000000000000600082015250565b6000612f67601683612343565b9150612f7282612f31565b602082019050919050565b60006020820190508181036000830152612f9681612f5a565b9050919050565b7f506978656c206f7574206f662072616e67650000000000000000000000000000600082015250565b6000612fd3601283612343565b9150612fde82612f9d565b602082019050919050565b6000602082019050818103600083015261300281612fc6565b9050919050565b7f4e6f2f20496e73756666696369656e7420666565732070726f76696465640000600082015250565b600061303f601e83612343565b915061304a82613009565b602082019050919050565b6000602082019050818103600083015261306e81613032565b9050919050565b600060608201905061308a60008301866124bb565b6130976020830185612425565b6130a460408301846124bb565b949350505050565b7f4f776e61626c653a206e6577206f776e657220697320746865207a65726f206160008201527f6464726573730000000000000000000000000000000000000000000000000000602082015250565b6000613108602683612343565b9150613113826130ac565b604082019050919050565b60006020820190508181036000830152613137816130fb565b9050919050565b7f4552433732313a206f70657261746f7220717565727920666f72206e6f6e657860008201527f697374656e7420746f6b656e0000000000000000000000000000000000000000602082015250565b600061319a602c83612343565b91506131a58261313e565b604082019050919050565b600060208201905081810360008301526131c98161318d565b9050919050565b7f4552433732313a207472616e73666572206f6620746f6b656e2074686174206960008201527f73206e6f74206f776e0000000000000000000000000000000000000000000000602082015250565b600061322c602983612343565b9150613237826131d0565b604082019050919050565b6000602082019050818103600083015261325b8161321f565b9050919050565b7f4552433732313a207472616e7366657220746f20746865207a65726f2061646460008201527f7265737300000000000000000000000000000000000000000000000000000000602082015250565b60006132be602483612343565b91506132c982613262565b604082019050919050565b600060208201905081810360008301526132ed816132b1565b9050919050565b7f4e487b7100000000000000000000000000000000000000000000000000000000600052601160045260246000fd5b600061332e826122d5565b9150613339836122d5565b92508282101561334c5761334b6132f4565b5b828203905092915050565b6000613362826122d5565b915061336d836122d5565b9250827fffffffffffffffffffffffffffffffffffffffffffffffffffffffffffffffff038211156133a2576133a16132f4565b5b828201905092915050565b7f4552433732313a20617070726f766520746f2063616c6c657200000000000000600082015250565b60006133e3601983612343565b91506133ee826133ad565b602082019050919050565b60006020820190508181036000830152613412816133d6565b9050919050565b7f4552433732313a207472616e7366657220746f206e6f6e20455243373231526560008201527f63656976657220696d706c656d656e7465720000000000000000000000000000602082015250565b6000613475603283612343565b915061348082613419565b604082019050919050565b600060208201905081810360008301526134a481613468565b9050919050565b60006134b6826122d5565b91507fffffffffffffffffffffffffffffffffffffffffffffffffffffffffffffffff8214156134e9576134e86132f4565b5b600182019050919050565b7f4e487b7100000000000000000000000000000000000000000000000000000000600052601260045260246000fd5b600061352e826122d5565b9150613539836122d5565b925082613549576135486134f4565b5b828204905092915050565b600061355f826122d5565b915061356a836122d5565b92508261357a576135796134f4565b5b828206905092915050565b7f4e487b7100000000000000000000000000000000000000000000000000000000600052603260045260246000fd5b600081519050919050565b600082825260208201905092915050565b60006135db826135b4565b6135e581856135bf565b93506135f5818560208601612354565b6135fe81612387565b840191505092915050565b600060808201905061361e6000830187612425565b61362b6020830186612425565b61363860408301856124bb565b818103606083015261364a81846135d0565b905095945050505050565b60008151905061366481612246565b92915050565b6000602082840312156136805761367f612210565b5b600061368e84828501613655565b91505092915050565b7f4552433732313a206d696e7420746f20746865207a65726f2061646472657373600082015250565b60006136cd602083612343565b91506136d882613697565b602082019050919050565b600060208201905081810360008301526136fc816136c0565b9050919050565b7f4552433732313a20746f6b656e20616c7265616479206d696e74656400000000600082015250565b6000613739601c83612343565b915061374482613703565b602082019050919050565b600060208201905081810360008301526137688161372c565b905091905056fea2646970667358221220993a402c8852d0ec81bd7fd3c4a3a7b8d8fc68b717aeac10f9d4584255ff69d164736f6c634300080a0033",
  "immutableReferences": {},
  "source": "// SPDX-License-Identifier: MIT\npragma solidity ^0.8.0;\n\nimport \"@openzeppelin/contracts/token/ERC721/ERC721.sol\";\nimport \"@openzeppelin/contracts/access/Ownable.sol\";\n\ncontract Pixels is ERC721, Ownable {\n\n    uint256 public _gridsize = 1000; //will change to 1000 eventually.....l\n    uint256 public _totalPixels = _gridsize * _gridsize;\n    uint256 public _pixelPrice = 250000000000000; // approx 1usd\n\n    // bytes3[] public _pixelColours = new bytes3[](_gridsize);\n    mapping(uint256 => bytes3) public _pixelColours;\n    mapping(uint256 => bool) public _pixelOwned;\n\n    event PixelMinted (uint date, address to, uint256 pixelId);\n    event PixelColourChanged ( address owner, bytes3 newColour, uint256 pixelId );\n\n    constructor() ERC721(\"Pixels\", \"PIX\") {}\n\n    function mint(uint256 _pixelId, bytes3 _newColour) public payable {\n        require(!_pixelOwned[_pixelId], \"Pixel is already owned\");\n        require(_pixelId < _totalPixels, \"Pixel out of range\");\n        require(msg.value >= _pixelPrice, 'No/ Insufficient fees provided');\n        _pixelOwned[_pixelId] = true;\n        _pixelColours[_pixelId] = _newColour;\n        _safeMint(msg.sender, _pixelId);\n        emit PixelMinted(block.timestamp, msg.sender, _pixelId);\n        emit PixelColourChanged(msg.sender, _newColour, _pixelId);\n    }\n\n    function mint(uint256 _pixelId) external payable {\n        mint(_pixelId, 0x111111);\n    }\n\n    function getBalance() public view returns(uint256){\n        return address(this).balance;\n    }\n\n     function withdrawAmount(uint256 amount) external onlyOwner {\n         require(amount <= getBalance(), \"Insufficient funds\");\n         payable(msg.sender).transfer(amount);\n     }\n\n    //function change pixel colour |||ERC721.ownerOf(tokenId)\n    function changePixelColor(uint256 _pixelId, bytes3 _colorHex) external {\n        require(_pixelId < _totalPixels, \"Pixel id out of range\");\n        require(ownerOf(_pixelId) == msg.sender, \"Sender is not Pixel owner\");\n        _pixelColours[_pixelId] = _colorHex;\n        emit PixelColourChanged(msg.sender, _colorHex, _pixelId);\n    }\n\n    function getPixelColour(uint256 _pixelId) public view returns (bytes3) {\n        require(_pixelId < _totalPixels, \"Pixel id out of range\");\n        if(_pixelOwned[_pixelId]) {\n            return _pixelColours[_pixelId];\n        } else {\n            return 0x000001;\n        }\n    }\n\n    function isPixelOwned(uint256 _pixelId) public view returns (bool) {\n        require(_pixelId < _totalPixels, \"Pixel id out of range\");\n        return _pixelOwned[_pixelId];\n    }\n}\n",
  "sourcePath": "/Users/max/Desktop/POLYPAINT.IO/sol/contracts/Pixels.sol",
  "compiler": {
    "name": "solc",
    "version": "0.8.10+commit.fc410830.Emscripten.clang"
  },
  "schemaVersion": "3.4.4",
  "updatedAt": "2021-12-24T22:52:18.717Z",
  "networkType": "ethereum",
  "devdoc": {
    "kind": "dev",
    "methods": {
      "approve(address,uint256)": {
        "details": "See {IERC721-approve}."
      },
      "balanceOf(address)": {
        "details": "See {IERC721-balanceOf}."
      },
      "getApproved(uint256)": {
        "details": "See {IERC721-getApproved}."
      },
      "isApprovedForAll(address,address)": {
        "details": "See {IERC721-isApprovedForAll}."
      },
      "name()": {
        "details": "See {IERC721Metadata-name}."
      },
      "owner()": {
        "details": "Returns the address of the current owner."
      },
      "ownerOf(uint256)": {
        "details": "See {IERC721-ownerOf}."
      },
      "renounceOwnership()": {
        "details": "Leaves the contract without owner. It will not be possible to call `onlyOwner` functions anymore. Can only be called by the current owner. NOTE: Renouncing ownership will leave the contract without an owner, thereby removing any functionality that is only available to the owner."
      },
      "safeTransferFrom(address,address,uint256)": {
        "details": "See {IERC721-safeTransferFrom}."
      },
      "safeTransferFrom(address,address,uint256,bytes)": {
        "details": "See {IERC721-safeTransferFrom}."
      },
      "setApprovalForAll(address,bool)": {
        "details": "See {IERC721-setApprovalForAll}."
      },
      "supportsInterface(bytes4)": {
        "details": "See {IERC165-supportsInterface}."
      },
      "symbol()": {
        "details": "See {IERC721Metadata-symbol}."
      },
      "tokenURI(uint256)": {
        "details": "See {IERC721Metadata-tokenURI}."
      },
      "transferFrom(address,address,uint256)": {
        "details": "See {IERC721-transferFrom}."
      },
      "transferOwnership(address)": {
        "details": "Transfers ownership of the contract to a new account (`newOwner`). Can only be called by the current owner."
      }
    },
    "version": 1
  },
  "userdoc": {
    "kind": "user",
    "methods": {},
    "version": 1
  }
}