{
  "contractName": "Pixels",
  "abi": [
    {
      "inputs": [],
      "stateMutability": "nonpayable",
      "type": "constructor"
    },
    {
      "anonymous": false,
      "inputs": [
        {
          "indexed": true,
          "internalType": "address",
          "name": "owner",
          "type": "address"
        },
        {
          "indexed": true,
          "internalType": "address",
          "name": "approved",
          "type": "address"
        },
        {
          "indexed": true,
          "internalType": "uint256",
          "name": "tokenId",
          "type": "uint256"
        }
      ],
      "name": "Approval",
      "type": "event"
    },
    {
      "anonymous": false,
      "inputs": [
        {
          "indexed": true,
          "internalType": "address",
          "name": "owner",
          "type": "address"
        },
        {
          "indexed": true,
          "internalType": "address",
          "name": "operator",
          "type": "address"
        },
        {
          "indexed": false,
          "internalType": "bool",
          "name": "approved",
          "type": "bool"
        }
      ],
      "name": "ApprovalForAll",
      "type": "event"
    },
    {
      "anonymous": false,
      "inputs": [
        {
          "indexed": true,
          "internalType": "address",
          "name": "previousOwner",
          "type": "address"
        },
        {
          "indexed": true,
          "internalType": "address",
          "name": "newOwner",
          "type": "address"
        }
      ],
      "name": "OwnershipTransferred",
      "type": "event"
    },
    {
      "anonymous": false,
      "inputs": [
        {
          "indexed": false,
          "internalType": "address",
          "name": "owner",
          "type": "address"
        },
        {
          "indexed": false,
          "internalType": "bytes3",
          "name": "newColour",
          "type": "bytes3"
        },
        {
          "indexed": false,
          "internalType": "uint256",
          "name": "pixelId",
          "type": "uint256"
        }
      ],
      "name": "PixelColourChanged",
      "type": "event"
    },
    {
      "anonymous": false,
      "inputs": [
        {
          "indexed": false,
          "internalType": "uint256",
          "name": "date",
          "type": "uint256"
        },
        {
          "indexed": false,
          "internalType": "address",
          "name": "to",
          "type": "address"
        },
        {
          "indexed": false,
          "internalType": "uint256",
          "name": "pixelId",
          "type": "uint256"
        }
      ],
      "name": "PixelMinted",
      "type": "event"
    },
    {
      "anonymous": false,
      "inputs": [
        {
          "indexed": true,
          "internalType": "address",
          "name": "from",
          "type": "address"
        },
        {
          "indexed": true,
          "internalType": "address",
          "name": "to",
          "type": "address"
        },
        {
          "indexed": true,
          "internalType": "uint256",
          "name": "tokenId",
          "type": "uint256"
        }
      ],
      "name": "Transfer",
      "type": "event"
    },
    {
      "inputs": [],
      "name": "_gridsize",
      "outputs": [
        {
          "internalType": "uint256",
          "name": "",
          "type": "uint256"
        }
      ],
      "stateMutability": "view",
      "type": "function",
      "constant": true
    },
    {
      "inputs": [
        {
          "internalType": "uint256",
          "name": "",
          "type": "uint256"
        }
      ],
      "name": "_pixelColours",
      "outputs": [
        {
          "internalType": "bytes3",
          "name": "",
          "type": "bytes3"
        }
      ],
      "stateMutability": "view",
      "type": "function",
      "constant": true
    },
    {
      "inputs": [
        {
          "internalType": "uint256",
          "name": "",
          "type": "uint256"
        }
      ],
      "name": "_pixelOwned",
      "outputs": [
        {
          "internalType": "bool",
          "name": "",
          "type": "bool"
        }
      ],
      "stateMutability": "view",
      "type": "function",
      "constant": true
    },
    {
      "inputs": [],
      "name": "_pixelPrice",
      "outputs": [
        {
          "internalType": "uint256",
          "name": "",
          "type": "uint256"
        }
      ],
      "stateMutability": "view",
      "type": "function",
      "constant": true
    },
    {
      "inputs": [],
      "name": "_totalPixels",
      "outputs": [
        {
          "internalType": "uint256",
          "name": "",
          "type": "uint256"
        }
      ],
      "stateMutability": "view",
      "type": "function",
      "constant": true
    },
    {
      "inputs": [
        {
          "internalType": "address",
          "name": "to",
          "type": "address"
        },
        {
          "internalType": "uint256",
          "name": "tokenId",
          "type": "uint256"
        }
      ],
      "name": "approve",
      "outputs": [],
      "stateMutability": "nonpayable",
      "type": "function"
    },
    {
      "inputs": [
        {
          "internalType": "address",
          "name": "owner",
          "type": "address"
        }
      ],
      "name": "balanceOf",
      "outputs": [
        {
          "internalType": "uint256",
          "name": "",
          "type": "uint256"
        }
      ],
      "stateMutability": "view",
      "type": "function",
      "constant": true
    },
    {
      "inputs": [
        {
          "internalType": "uint256",
          "name": "tokenId",
          "type": "uint256"
        }
      ],
      "name": "getApproved",
      "outputs": [
        {
          "internalType": "address",
          "name": "",
          "type": "address"
        }
      ],
      "stateMutability": "view",
      "type": "function",
      "constant": true
    },
    {
      "inputs": [
        {
          "internalType": "address",
          "name": "owner",
          "type": "address"
        },
        {
          "internalType": "address",
          "name": "operator",
          "type": "address"
        }
      ],
      "name": "isApprovedForAll",
      "outputs": [
        {
          "internalType": "bool",
          "name": "",
          "type": "bool"
        }
      ],
      "stateMutability": "view",
      "type": "function",
      "constant": true
    },
    {
      "inputs": [],
      "name": "name",
      "outputs": [
        {
          "internalType": "string",
          "name": "",
          "type": "string"
        }
      ],
      "stateMutability": "view",
      "type": "function",
      "constant": true
    },
    {
      "inputs": [],
      "name": "owner",
      "outputs": [
        {
          "internalType": "address",
          "name": "",
          "type": "address"
        }
      ],
      "stateMutability": "view",
      "type": "function",
      "constant": true
    },
    {
      "inputs": [
        {
          "internalType": "uint256",
          "name": "tokenId",
          "type": "uint256"
        }
      ],
      "name": "ownerOf",
      "outputs": [
        {
          "internalType": "address",
          "name": "",
          "type": "address"
        }
      ],
      "stateMutability": "view",
      "type": "function",
      "constant": true
    },
    {
      "inputs": [],
      "name": "renounceOwnership",
      "outputs": [],
      "stateMutability": "nonpayable",
      "type": "function"
    },
    {
      "inputs": [
        {
          "internalType": "address",
          "name": "from",
          "type": "address"
        },
        {
          "internalType": "address",
          "name": "to",
          "type": "address"
        },
        {
          "internalType": "uint256",
          "name": "tokenId",
          "type": "uint256"
        }
      ],
      "name": "safeTransferFrom",
      "outputs": [],
      "stateMutability": "nonpayable",
      "type": "function"
    },
    {
      "inputs": [
        {
          "internalType": "address",
          "name": "from",
          "type": "address"
        },
        {
          "internalType": "address",
          "name": "to",
          "type": "address"
        },
        {
          "internalType": "uint256",
          "name": "tokenId",
          "type": "uint256"
        },
        {
          "internalType": "bytes",
          "name": "_data",
          "type": "bytes"
        }
      ],
      "name": "safeTransferFrom",
      "outputs": [],
      "stateMutability": "nonpayable",
      "type": "function"
    },
    {
      "inputs": [
        {
          "internalType": "address",
          "name": "operator",
          "type": "address"
        },
        {
          "internalType": "bool",
          "name": "approved",
          "type": "bool"
        }
      ],
      "name": "setApprovalForAll",
      "outputs": [],
      "stateMutability": "nonpayable",
      "type": "function"
    },
    {
      "inputs": [
        {
          "internalType": "bytes4",
          "name": "interfaceId",
          "type": "bytes4"
        }
      ],
      "name": "supportsInterface",
      "outputs": [
        {
          "internalType": "bool",
          "name": "",
          "type": "bool"
        }
      ],
      "stateMutability": "view",
      "type": "function",
      "constant": true
    },
    {
      "inputs": [],
      "name": "symbol",
      "outputs": [
        {
          "internalType": "string",
          "name": "",
          "type": "string"
        }
      ],
      "stateMutability": "view",
      "type": "function",
      "constant": true
    },
    {
      "inputs": [
        {
          "internalType": "uint256",
          "name": "tokenId",
          "type": "uint256"
        }
      ],
      "name": "tokenURI",
      "outputs": [
        {
          "internalType": "string",
          "name": "",
          "type": "string"
        }
      ],
      "stateMutability": "view",
      "type": "function",
      "constant": true
    },
    {
      "inputs": [
        {
          "internalType": "address",
          "name": "from",
          "type": "address"
        },
        {
          "internalType": "address",
          "name": "to",
          "type": "address"
        },
        {
          "internalType": "uint256",
          "name": "tokenId",
          "type": "uint256"
        }
      ],
      "name": "transferFrom",
      "outputs": [],
      "stateMutability": "nonpayable",
      "type": "function"
    },
    {
      "inputs": [
        {
          "internalType": "address",
          "name": "newOwner",
          "type": "address"
        }
      ],
      "name": "transferOwnership",
      "outputs": [],
      "stateMutability": "nonpayable",
      "type": "function"
    },
    {
      "inputs": [
        {
          "internalType": "uint256",
          "name": "_pixelId",
          "type": "uint256"
        }
      ],
      "name": "mint",
      "outputs": [],
      "stateMutability": "payable",
      "type": "function",
      "payable": true
    },
    {
      "inputs": [],
      "name": "getBalance",
      "outputs": [
        {
          "internalType": "uint256",
          "name": "",
          "type": "uint256"
        }
      ],
      "stateMutability": "view",
      "type": "function",
      "constant": true
    },
    {
      "inputs": [
        {
          "internalType": "uint256",
          "name": "amount",
          "type": "uint256"
        }
      ],
      "name": "withdrawAmount",
      "outputs": [],
      "stateMutability": "nonpayable",
      "type": "function"
    },
    {
      "inputs": [
        {
          "internalType": "uint256",
          "name": "_pixelId",
          "type": "uint256"
        },
        {
          "internalType": "bytes3",
          "name": "_colorHex",
          "type": "bytes3"
        }
      ],
      "name": "changePixelColor",
      "outputs": [],
      "stateMutability": "nonpayable",
      "type": "function"
    },
    {
      "inputs": [
        {
          "internalType": "uint256",
          "name": "_pixelId",
          "type": "uint256"
        }
      ],
      "name": "getPixelColour",
      "outputs": [
        {
          "internalType": "bytes3",
          "name": "",
          "type": "bytes3"
        }
      ],
      "stateMutability": "view",
      "type": "function",
      "constant": true
    },
    {
      "inputs": [
        {
          "internalType": "uint256",
          "name": "_pixelId",
          "type": "uint256"
        }
      ],
      "name": "isPixelOwned",
      "outputs": [
        {
          "internalType": "bool",
          "name": "",
          "type": "bool"
        }
      ],
      "stateMutability": "view",
      "type": "function",
      "constant": true
    }
  ],
  "bytecode": "0x60806040526103e86007556007546007546200001c9190620002b4565b60085565e35fa931a0006009553480156200003657600080fd5b506040518060400160405280600681526020017f506978656c7300000000000000000000000000000000000000000000000000008152506040518060400160405280600381526020017f50495800000000000000000000000000000000000000000000000000000000008152508160009080519060200190620000bb929190620001cb565b508060019080519060200190620000d4929190620001cb565b505050620000f7620000eb620000fd60201b60201c565b6200010560201b60201c565b6200037a565b600033905090565b6000600660009054906101000a900473ffffffffffffffffffffffffffffffffffffffff16905081600660006101000a81548173ffffffffffffffffffffffffffffffffffffffff021916908373ffffffffffffffffffffffffffffffffffffffff1602179055508173ffffffffffffffffffffffffffffffffffffffff168173ffffffffffffffffffffffffffffffffffffffff167f8be0079c531659141344cd1fd0a4f28419497f9722a3daafe3b4186f6b6457e060405160405180910390a35050565b828054620001d99062000344565b90600052602060002090601f016020900481019282620001fd576000855562000249565b82601f106200021857805160ff191683800117855562000249565b8280016001018555821562000249579182015b82811115620002485782518255916020019190600101906200022b565b5b5090506200025891906200025c565b5090565b5b80821115620002775760008160009055506001016200025d565b5090565b6000819050919050565b7f4e487b7100000000000000000000000000000000000000000000000000000000600052601160045260246000fd5b6000620002c1826200027b565b9150620002ce836200027b565b9250817fffffffffffffffffffffffffffffffffffffffffffffffffffffffffffffffff04831182151516156200030a576200030962000285565b5b828202905092915050565b7f4e487b7100000000000000000000000000000000000000000000000000000000600052602260045260246000fd5b600060028204905060018216806200035d57607f821691505b6020821081141562000374576200037362000315565b5b50919050565b61372b806200038a6000396000f3fe60806040526004361061019c5760003560e01c80638da5cb5b116100ec578063c87b56dd1161008a578063efbd975b11610064578063efbd975b14610603578063f2fde38b1461062c578063f5adb59a14610655578063fff4ca9c146106805761019c565b8063c87b56dd1461054c578063e1614e1514610589578063e985e9c5146105c65761019c565b8063a0712d68116100c6578063a0712d68146104b3578063a22cb465146104cf578063afccaf65146104f8578063b88d4fde146105235761019c565b80638da5cb5b1461042057806395d89b411461044b5780639631cb34146104765761019c565b80631aec1f15116101595780636352211e116101335780636352211e14610352578063642fd0f61461038f57806370a08231146103cc578063715018a6146104095761019c565b80631aec1f15146102c357806323b872dd1461030057806342842e0e146103295761019c565b806301ffc9a7146101a15780630562b9f7146101de57806306fdde0314610207578063081812fc14610232578063095ea7b31461026f57806312065fe014610298575b600080fd5b3480156101ad57600080fd5b506101c860048036038101906101c391906121f8565b6106ab565b6040516101d59190612240565b60405180910390f35b3480156101ea57600080fd5b5061020560048036038101906102009190612291565b61078d565b005b34801561021357600080fd5b5061021c61089d565b6040516102299190612357565b60405180910390f35b34801561023e57600080fd5b5061025960048036038101906102549190612291565b61092f565b60405161026691906123ba565b60405180910390f35b34801561027b57600080fd5b5061029660048036038101906102919190612401565b6109b4565b005b3480156102a457600080fd5b506102ad610acc565b6040516102ba9190612450565b60405180910390f35b3480156102cf57600080fd5b506102ea60048036038101906102e59190612291565b610ad4565b6040516102f791906124a6565b60405180910390f35b34801561030c57600080fd5b50610327600480360381019061032291906124c1565b610af4565b005b34801561033557600080fd5b50610350600480360381019061034b91906124c1565b610b54565b005b34801561035e57600080fd5b5061037960048036038101906103749190612291565b610b74565b60405161038691906123ba565b60405180910390f35b34801561039b57600080fd5b506103b660048036038101906103b19190612291565b610c26565b6040516103c391906124a6565b60405180910390f35b3480156103d857600080fd5b506103f360048036038101906103ee9190612514565b610cc7565b6040516104009190612450565b60405180910390f35b34801561041557600080fd5b5061041e610d7f565b005b34801561042c57600080fd5b50610435610e07565b60405161044291906123ba565b60405180910390f35b34801561045757600080fd5b50610460610e31565b60405161046d9190612357565b60405180910390f35b34801561048257600080fd5b5061049d60048036038101906104989190612291565b610ec3565b6040516104aa9190612240565b60405180910390f35b6104cd60048036038101906104c89190612291565b610f31565b005b3480156104db57600080fd5b506104f660048036038101906104f1919061256d565b6110c9565b005b34801561050457600080fd5b5061050d6110df565b60405161051a9190612450565b60405180910390f35b34801561052f57600080fd5b5061054a600480360381019061054591906126e2565b6110e5565b005b34801561055857600080fd5b50610573600480360381019061056e9190612291565b611147565b6040516105809190612357565b60405180910390f35b34801561059557600080fd5b506105b060048036038101906105ab9190612291565b6111ee565b6040516105bd9190612240565b60405180910390f35b3480156105d257600080fd5b506105ed60048036038101906105e89190612765565b61120e565b6040516105fa9190612240565b60405180910390f35b34801561060f57600080fd5b5061062a600480360381019061062591906127d1565b6112a2565b005b34801561063857600080fd5b50610653600480360381019061064e9190612514565b6113c9565b005b34801561066157600080fd5b5061066a6114c1565b6040516106779190612450565b60405180910390f35b34801561068c57600080fd5b506106956114c7565b6040516106a29190612450565b60405180910390f35b60007f80ac58cd000000000000000000000000000000000000000000000000000000007bffffffffffffffffffffffffffffffffffffffffffffffffffffffff1916827bffffffffffffffffffffffffffffffffffffffffffffffffffffffff1916148061077657507f5b5e139f000000000000000000000000000000000000000000000000000000007bffffffffffffffffffffffffffffffffffffffffffffffffffffffff1916827bffffffffffffffffffffffffffffffffffffffffffffffffffffffff1916145b806107865750610785826114cd565b5b9050919050565b610795611537565b73ffffffffffffffffffffffffffffffffffffffff166107b3610e07565b73ffffffffffffffffffffffffffffffffffffffff1614610809576040517f08c379a00000000000000000000000000000000000000000000000000000000081526004016108009061285d565b60405180910390fd5b610811610acc565b811115610853576040517f08c379a000000000000000000000000000000000000000000000000000000000815260040161084a906128c9565b60405180910390fd5b3373ffffffffffffffffffffffffffffffffffffffff166108fc829081150290604051600060405180830381858888f19350505050158015610899573d6000803e3d6000fd5b5050565b6060600080546108ac90612918565b80601f01602080910402602001604051908101604052809291908181526020018280546108d890612918565b80156109255780601f106108fa57610100808354040283529160200191610925565b820191906000526020600020905b81548152906001019060200180831161090857829003601f168201915b5050505050905090565b600061093a8261153f565b610979576040517f08c379a0000000000000000000000000000000000000000000000000000000008152600401610970906129bc565b60405180910390fd5b6004600083815260200190815260200160002060009054906101000a900473ffffffffffffffffffffffffffffffffffffffff169050919050565b60006109bf82610b74565b90508073ffffffffffffffffffffffffffffffffffffffff168373ffffffffffffffffffffffffffffffffffffffff161415610a30576040517f08c379a0000000000000000000000000000000000000000000000000000000008152600401610a2790612a4e565b60405180910390fd5b8073ffffffffffffffffffffffffffffffffffffffff16610a4f611537565b73ffffffffffffffffffffffffffffffffffffffff161480610a7e5750610a7d81610a78611537565b61120e565b5b610abd576040517f08c379a0000000000000000000000000000000000000000000000000000000008152600401610ab490612ae0565b60405180910390fd5b610ac783836115ab565b505050565b600047905090565b600a6020528060005260406000206000915054906101000a900460e81b81565b610b05610aff611537565b82611664565b610b44576040517f08c379a0000000000000000000000000000000000000000000000000000000008152600401610b3b90612b72565b60405180910390fd5b610b4f838383611742565b505050565b610b6f838383604051806020016040528060008152506110e5565b505050565b6000806002600084815260200190815260200160002060009054906101000a900473ffffffffffffffffffffffffffffffffffffffff169050600073ffffffffffffffffffffffffffffffffffffffff168173ffffffffffffffffffffffffffffffffffffffff161415610c1d576040517f08c379a0000000000000000000000000000000000000000000000000000000008152600401610c1490612c04565b60405180910390fd5b80915050919050565b60006008548210610c6c576040517f08c379a0000000000000000000000000000000000000000000000000000000008152600401610c6390612c70565b60405180910390fd5b600b600083815260200190815260200160002060009054906101000a900460ff1615610cba57600a600083815260200190815260200160002060009054906101000a900460e81b9050610cc2565b600160e81b90505b919050565b60008073ffffffffffffffffffffffffffffffffffffffff168273ffffffffffffffffffffffffffffffffffffffff161415610d38576040517f08c379a0000000000000000000000000000000000000000000000000000000008152600401610d2f90612d02565b60405180910390fd5b600360008373ffffffffffffffffffffffffffffffffffffffff1673ffffffffffffffffffffffffffffffffffffffff168152602001908152602001600020549050919050565b610d87611537565b73ffffffffffffffffffffffffffffffffffffffff16610da5610e07565b73ffffffffffffffffffffffffffffffffffffffff1614610dfb576040517f08c379a0000000000000000000000000000000000000000000000000000000008152600401610df29061285d565b60405180910390fd5b610e05600061199e565b565b6000600660009054906101000a900473ffffffffffffffffffffffffffffffffffffffff16905090565b606060018054610e4090612918565b80601f0160208091040260200160405190810160405280929190818152602001828054610e6c90612918565b8015610eb95780601f10610e8e57610100808354040283529160200191610eb9565b820191906000526020600020905b815481529060010190602001808311610e9c57829003601f168201915b5050505050905090565b60006008548210610f09576040517f08c379a0000000000000000000000000000000000000000000000000000000008152600401610f0090612c70565b60405180910390fd5b600b600083815260200190815260200160002060009054906101000a900460ff169050919050565b600b600082815260200190815260200160002060009054906101000a900460ff1615610f92576040517f08c379a0000000000000000000000000000000000000000000000000000000008152600401610f8990612d6e565b60405180910390fd5b6008548110610fd6576040517f08c379a0000000000000000000000000000000000000000000000000000000008152600401610fcd90612dda565b60405180910390fd5b60095434101561101b576040517f08c379a000000000000000000000000000000000000000000000000000000000815260040161101290612e46565b60405180910390fd5b60008190506001600b600084815260200190815260200160002060006101000a81548160ff0219169083151502179055506277777760e81b600a600084815260200190815260200160002060006101000a81548162ffffff021916908360e81c021790555061108a3382611a64565b7fa3c5a07f63c391102daa3f8b260023afa2b5a1976a137e50be84de2c5763ae724233846040516110bd93929190612e66565b60405180910390a15050565b6110db6110d4611537565b8383611a82565b5050565b60095481565b6110f66110f0611537565b83611664565b611135576040517f08c379a000000000000000000000000000000000000000000000000000000000815260040161112c90612b72565b60405180910390fd5b61114184848484611bef565b50505050565b60606111528261153f565b611191576040517f08c379a000000000000000000000000000000000000000000000000000000000815260040161118890612f0f565b60405180910390fd5b600061119b611c4b565b905060008151116111bb57604051806020016040528060008152506111e6565b806111c584611c62565b6040516020016111d6929190612f6b565b6040516020818303038152906040525b915050919050565b600b6020528060005260406000206000915054906101000a900460ff1681565b6000600560008473ffffffffffffffffffffffffffffffffffffffff1673ffffffffffffffffffffffffffffffffffffffff16815260200190815260200160002060008373ffffffffffffffffffffffffffffffffffffffff1673ffffffffffffffffffffffffffffffffffffffff16815260200190815260200160002060009054906101000a900460ff16905092915050565b60085482106112e6576040517f08c379a00000000000000000000000000000000000000000000000000000000081526004016112dd90612c70565b60405180910390fd5b3373ffffffffffffffffffffffffffffffffffffffff1661130683610b74565b73ffffffffffffffffffffffffffffffffffffffff161461135c576040517f08c379a000000000000000000000000000000000000000000000000000000000815260040161135390612fdb565b60405180910390fd5b80600a600084815260200190815260200160002060006101000a81548162ffffff021916908360e81c02179055507f98a0e7ec1b61c69699ea733cf97ede142a1217dc2a8f2f64849d93689652ce1c3382846040516113bd93929190612ffb565b60405180910390a15050565b6113d1611537565b73ffffffffffffffffffffffffffffffffffffffff166113ef610e07565b73ffffffffffffffffffffffffffffffffffffffff1614611445576040517f08c379a000000000000000000000000000000000000000000000000000000000815260040161143c9061285d565b60405180910390fd5b600073ffffffffffffffffffffffffffffffffffffffff168173ffffffffffffffffffffffffffffffffffffffff1614156114b5576040517f08c379a00000000000000000000000000000000000000000000000000000000081526004016114ac906130a4565b60405180910390fd5b6114be8161199e565b50565b60075481565b60085481565b60007f01ffc9a7000000000000000000000000000000000000000000000000000000007bffffffffffffffffffffffffffffffffffffffffffffffffffffffff1916827bffffffffffffffffffffffffffffffffffffffffffffffffffffffff1916149050919050565b600033905090565b60008073ffffffffffffffffffffffffffffffffffffffff166002600084815260200190815260200160002060009054906101000a900473ffffffffffffffffffffffffffffffffffffffff1673ffffffffffffffffffffffffffffffffffffffff1614159050919050565b816004600083815260200190815260200160002060006101000a81548173ffffffffffffffffffffffffffffffffffffffff021916908373ffffffffffffffffffffffffffffffffffffffff160217905550808273ffffffffffffffffffffffffffffffffffffffff1661161e83610b74565b73ffffffffffffffffffffffffffffffffffffffff167f8c5be1e5ebec7d5bd14f71427d1e84f3dd0314c0f7b2291e5b200ac8c7c3b92560405160405180910390a45050565b600061166f8261153f565b6116ae576040517f08c379a00000000000000000000000000000000000000000000000000000000081526004016116a590613136565b60405180910390fd5b60006116b983610b74565b90508073ffffffffffffffffffffffffffffffffffffffff168473ffffffffffffffffffffffffffffffffffffffff16148061172857508373ffffffffffffffffffffffffffffffffffffffff166117108461092f565b73ffffffffffffffffffffffffffffffffffffffff16145b806117395750611738818561120e565b5b91505092915050565b8273ffffffffffffffffffffffffffffffffffffffff1661176282610b74565b73ffffffffffffffffffffffffffffffffffffffff16146117b8576040517f08c379a00000000000000000000000000000000000000000000000000000000081526004016117af906131c8565b60405180910390fd5b600073ffffffffffffffffffffffffffffffffffffffff168273ffffffffffffffffffffffffffffffffffffffff161415611828576040517f08c379a000000000000000000000000000000000000000000000000000000000815260040161181f9061325a565b60405180910390fd5b611833838383611dc3565b61183e6000826115ab565b6001600360008573ffffffffffffffffffffffffffffffffffffffff1673ffffffffffffffffffffffffffffffffffffffff168152602001908152602001600020600082825461188e91906132a9565b925050819055506001600360008473ffffffffffffffffffffffffffffffffffffffff1673ffffffffffffffffffffffffffffffffffffffff16815260200190815260200160002060008282546118e591906132dd565b92505081905550816002600083815260200190815260200160002060006101000a81548173ffffffffffffffffffffffffffffffffffffffff021916908373ffffffffffffffffffffffffffffffffffffffff160217905550808273ffffffffffffffffffffffffffffffffffffffff168473ffffffffffffffffffffffffffffffffffffffff167fddf252ad1be2c89b69c2b068fc378daa952ba7f163c4a11628f55a4df523b3ef60405160405180910390a4505050565b6000600660009054906101000a900473ffffffffffffffffffffffffffffffffffffffff16905081600660006101000a81548173ffffffffffffffffffffffffffffffffffffffff021916908373ffffffffffffffffffffffffffffffffffffffff1602179055508173ffffffffffffffffffffffffffffffffffffffff168173ffffffffffffffffffffffffffffffffffffffff167f8be0079c531659141344cd1fd0a4f28419497f9722a3daafe3b4186f6b6457e060405160405180910390a35050565b611a7e828260405180602001604052806000815250611dc8565b5050565b8173ffffffffffffffffffffffffffffffffffffffff168373ffffffffffffffffffffffffffffffffffffffff161415611af1576040517f08c379a0000000000000000000000000000000000000000000000000000000008152600401611ae89061337f565b60405180910390fd5b80600560008573ffffffffffffffffffffffffffffffffffffffff1673ffffffffffffffffffffffffffffffffffffffff16815260200190815260200160002060008473ffffffffffffffffffffffffffffffffffffffff1673ffffffffffffffffffffffffffffffffffffffff16815260200190815260200160002060006101000a81548160ff0219169083151502179055508173ffffffffffffffffffffffffffffffffffffffff168373ffffffffffffffffffffffffffffffffffffffff167f17307eab39ab6107e8899845ad3d59bd9653f200f220920489ca2b5937696c3183604051611be29190612240565b60405180910390a3505050565b611bfa848484611742565b611c0684848484611e23565b611c45576040517f08c379a0000000000000000000000000000000000000000000000000000000008152600401611c3c90613411565b60405180910390fd5b50505050565b606060405180602001604052806000815250905090565b60606000821415611caa576040518060400160405280600181526020017f30000000000000000000000000000000000000000000000000000000000000008152509050611dbe565b600082905060005b60008214611cdc578080611cc590613431565b915050600a82611cd591906134a9565b9150611cb2565b60008167ffffffffffffffff811115611cf857611cf76125b7565b5b6040519080825280601f01601f191660200182016040528015611d2a5781602001600182028036833780820191505090505b5090505b60008514611db757600182611d4391906132a9565b9150600a85611d5291906134da565b6030611d5e91906132dd565b60f81b818381518110611d7457611d7361350b565b5b60200101907effffffffffffffffffffffffffffffffffffffffffffffffffffffffffffff1916908160001a905350600a85611db091906134a9565b9450611d2e565b8093505050505b919050565b505050565b611dd28383611fab565b611ddf6000848484611e23565b611e1e576040517f08c379a0000000000000000000000000000000000000000000000000000000008152600401611e1590613411565b60405180910390fd5b505050565b6000611e448473ffffffffffffffffffffffffffffffffffffffff16612179565b15611f9e578373ffffffffffffffffffffffffffffffffffffffff1663150b7a02611e6d611537565b8786866040518563ffffffff1660e01b8152600401611e8f949392919061358f565b6020604051808303816000875af1925050508015611ecb57506040513d601f19601f82011682018060405250810190611ec891906135f0565b60015b611f4e573d8060008114611efb576040519150601f19603f3d011682016040523d82523d6000602084013e611f00565b606091505b50600081511415611f46576040517f08c379a0000000000000000000000000000000000000000000000000000000008152600401611f3d90613411565b60405180910390fd5b805181602001fd5b63150b7a0260e01b7bffffffffffffffffffffffffffffffffffffffffffffffffffffffff1916817bffffffffffffffffffffffffffffffffffffffffffffffffffffffff191614915050611fa3565b600190505b949350505050565b600073ffffffffffffffffffffffffffffffffffffffff168273ffffffffffffffffffffffffffffffffffffffff16141561201b576040517f08c379a000000000000000000000000000000000000000000000000000000000815260040161201290613669565b60405180910390fd5b6120248161153f565b15612064576040517f08c379a000000000000000000000000000000000000000000000000000000000815260040161205b906136d5565b60405180910390fd5b61207060008383611dc3565b6001600360008473ffffffffffffffffffffffffffffffffffffffff1673ffffffffffffffffffffffffffffffffffffffff16815260200190815260200160002060008282546120c091906132dd565b92505081905550816002600083815260200190815260200160002060006101000a81548173ffffffffffffffffffffffffffffffffffffffff021916908373ffffffffffffffffffffffffffffffffffffffff160217905550808273ffffffffffffffffffffffffffffffffffffffff16600073ffffffffffffffffffffffffffffffffffffffff167fddf252ad1be2c89b69c2b068fc378daa952ba7f163c4a11628f55a4df523b3ef60405160405180910390a45050565b600080823b905060008111915050919050565b6000604051905090565b600080fd5b600080fd5b60007fffffffff0000000000000000000000000000000000000000000000000000000082169050919050565b6121d5816121a0565b81146121e057600080fd5b50565b6000813590506121f2816121cc565b92915050565b60006020828403121561220e5761220d612196565b5b600061221c848285016121e3565b91505092915050565b60008115159050919050565b61223a81612225565b82525050565b60006020820190506122556000830184612231565b92915050565b6000819050919050565b61226e8161225b565b811461227957600080fd5b50565b60008135905061228b81612265565b92915050565b6000602082840312156122a7576122a6612196565b5b60006122b58482850161227c565b91505092915050565b600081519050919050565b600082825260208201905092915050565b60005b838110156122f85780820151818401526020810190506122dd565b83811115612307576000848401525b50505050565b6000601f19601f8301169050919050565b6000612329826122be565b61233381856122c9565b93506123438185602086016122da565b61234c8161230d565b840191505092915050565b60006020820190508181036000830152612371818461231e565b905092915050565b600073ffffffffffffffffffffffffffffffffffffffff82169050919050565b60006123a482612379565b9050919050565b6123b481612399565b82525050565b60006020820190506123cf60008301846123ab565b92915050565b6123de81612399565b81146123e957600080fd5b50565b6000813590506123fb816123d5565b92915050565b6000806040838503121561241857612417612196565b5b6000612426858286016123ec565b92505060206124378582860161227c565b9150509250929050565b61244a8161225b565b82525050565b60006020820190506124656000830184612441565b92915050565b60007fffffff000000000000000000000000000000000000000000000000000000000082169050919050565b6124a08161246b565b82525050565b60006020820190506124bb6000830184612497565b92915050565b6000806000606084860312156124da576124d9612196565b5b60006124e8868287016123ec565b93505060206124f9868287016123ec565b925050604061250a8682870161227c565b9150509250925092565b60006020828403121561252a57612529612196565b5b6000612538848285016123ec565b91505092915050565b61254a81612225565b811461255557600080fd5b50565b60008135905061256781612541565b92915050565b6000806040838503121561258457612583612196565b5b6000612592858286016123ec565b92505060206125a385828601612558565b9150509250929050565b600080fd5b600080fd5b7f4e487b7100000000000000000000000000000000000000000000000000000000600052604160045260246000fd5b6125ef8261230d565b810181811067ffffffffffffffff8211171561260e5761260d6125b7565b5b80604052505050565b600061262161218c565b905061262d82826125e6565b919050565b600067ffffffffffffffff82111561264d5761264c6125b7565b5b6126568261230d565b9050602081019050919050565b82818337600083830152505050565b600061268561268084612632565b612617565b9050828152602081018484840111156126a1576126a06125b2565b5b6126ac848285612663565b509392505050565b600082601f8301126126c9576126c86125ad565b5b81356126d9848260208601612672565b91505092915050565b600080600080608085870312156126fc576126fb612196565b5b600061270a878288016123ec565b945050602061271b878288016123ec565b935050604061272c8782880161227c565b925050606085013567ffffffffffffffff81111561274d5761274c61219b565b5b612759878288016126b4565b91505092959194509250565b6000806040838503121561277c5761277b612196565b5b600061278a858286016123ec565b925050602061279b858286016123ec565b9150509250929050565b6127ae8161246b565b81146127b957600080fd5b50565b6000813590506127cb816127a5565b92915050565b600080604083850312156127e8576127e7612196565b5b60006127f68582860161227c565b9250506020612807858286016127bc565b9150509250929050565b7f4f776e61626c653a2063616c6c6572206973206e6f7420746865206f776e6572600082015250565b60006128476020836122c9565b915061285282612811565b602082019050919050565b600060208201905081810360008301526128768161283a565b9050919050565b7f496e73756666696369656e742066756e64730000000000000000000000000000600082015250565b60006128b36012836122c9565b91506128be8261287d565b602082019050919050565b600060208201905081810360008301526128e2816128a6565b9050919050565b7f4e487b7100000000000000000000000000000000000000000000000000000000600052602260045260246000fd5b6000600282049050600182168061293057607f821691505b60208210811415612944576129436128e9565b5b50919050565b7f4552433732313a20617070726f76656420717565727920666f72206e6f6e657860008201527f697374656e7420746f6b656e0000000000000000000000000000000000000000602082015250565b60006129a6602c836122c9565b91506129b18261294a565b604082019050919050565b600060208201905081810360008301526129d581612999565b9050919050565b7f4552433732313a20617070726f76616c20746f2063757272656e74206f776e6560008201527f7200000000000000000000000000000000000000000000000000000000000000602082015250565b6000612a386021836122c9565b9150612a43826129dc565b604082019050919050565b60006020820190508181036000830152612a6781612a2b565b9050919050565b7f4552433732313a20617070726f76652063616c6c6572206973206e6f74206f7760008201527f6e6572206e6f7220617070726f76656420666f7220616c6c0000000000000000602082015250565b6000612aca6038836122c9565b9150612ad582612a6e565b604082019050919050565b60006020820190508181036000830152612af981612abd565b9050919050565b7f4552433732313a207472616e736665722063616c6c6572206973206e6f74206f60008201527f776e6572206e6f7220617070726f766564000000000000000000000000000000602082015250565b6000612b5c6031836122c9565b9150612b6782612b00565b604082019050919050565b60006020820190508181036000830152612b8b81612b4f565b9050919050565b7f4552433732313a206f776e657220717565727920666f72206e6f6e657869737460008201527f656e7420746f6b656e0000000000000000000000000000000000000000000000602082015250565b6000612bee6029836122c9565b9150612bf982612b92565b604082019050919050565b60006020820190508181036000830152612c1d81612be1565b9050919050565b7f506978656c206964206f7574206f662072616e67650000000000000000000000600082015250565b6000612c5a6015836122c9565b9150612c6582612c24565b602082019050919050565b60006020820190508181036000830152612c8981612c4d565b9050919050565b7f4552433732313a2062616c616e636520717565727920666f7220746865207a6560008201527f726f206164647265737300000000000000000000000000000000000000000000602082015250565b6000612cec602a836122c9565b9150612cf782612c90565b604082019050919050565b60006020820190508181036000830152612d1b81612cdf565b9050919050565b7f506978656c20697320616c7265616479206f776e656400000000000000000000600082015250565b6000612d586016836122c9565b9150612d6382612d22565b602082019050919050565b60006020820190508181036000830152612d8781612d4b565b9050919050565b7f506978656c206f7574206f662072616e67650000000000000000000000000000600082015250565b6000612dc46012836122c9565b9150612dcf82612d8e565b602082019050919050565b60006020820190508181036000830152612df381612db7565b9050919050565b7f4e6f2f20496e73756666696369656e7420666565732070726f76696465640000600082015250565b6000612e30601e836122c9565b9150612e3b82612dfa565b602082019050919050565b60006020820190508181036000830152612e5f81612e23565b9050919050565b6000606082019050612e7b6000830186612441565b612e8860208301856123ab565b612e956040830184612441565b949350505050565b7f4552433732314d657461646174613a2055524920717565727920666f72206e6f60008201527f6e6578697374656e7420746f6b656e0000000000000000000000000000000000602082015250565b6000612ef9602f836122c9565b9150612f0482612e9d565b604082019050919050565b60006020820190508181036000830152612f2881612eec565b9050919050565b600081905092915050565b6000612f45826122be565b612f4f8185612f2f565b9350612f5f8185602086016122da565b80840191505092915050565b6000612f778285612f3a565b9150612f838284612f3a565b91508190509392505050565b7f53656e646572206973206e6f7420506978656c206f776e657200000000000000600082015250565b6000612fc56019836122c9565b9150612fd082612f8f565b602082019050919050565b60006020820190508181036000830152612ff481612fb8565b9050919050565b600060608201905061301060008301866123ab565b61301d6020830185612497565b61302a6040830184612441565b949350505050565b7f4f776e61626c653a206e6577206f776e657220697320746865207a65726f206160008201527f6464726573730000000000000000000000000000000000000000000000000000602082015250565b600061308e6026836122c9565b915061309982613032565b604082019050919050565b600060208201905081810360008301526130bd81613081565b9050919050565b7f4552433732313a206f70657261746f7220717565727920666f72206e6f6e657860008201527f697374656e7420746f6b656e0000000000000000000000000000000000000000602082015250565b6000613120602c836122c9565b915061312b826130c4565b604082019050919050565b6000602082019050818103600083015261314f81613113565b9050919050565b7f4552433732313a207472616e73666572206f6620746f6b656e2074686174206960008201527f73206e6f74206f776e0000000000000000000000000000000000000000000000602082015250565b60006131b26029836122c9565b91506131bd82613156565b604082019050919050565b600060208201905081810360008301526131e1816131a5565b9050919050565b7f4552433732313a207472616e7366657220746f20746865207a65726f2061646460008201527f7265737300000000000000000000000000000000000000000000000000000000602082015250565b60006132446024836122c9565b915061324f826131e8565b604082019050919050565b6000602082019050818103600083015261327381613237565b9050919050565b7f4e487b7100000000000000000000000000000000000000000000000000000000600052601160045260246000fd5b60006132b48261225b565b91506132bf8361225b565b9250828210156132d2576132d161327a565b5b828203905092915050565b60006132e88261225b565b91506132f38361225b565b9250827fffffffffffffffffffffffffffffffffffffffffffffffffffffffffffffffff038211156133285761332761327a565b5b828201905092915050565b7f4552433732313a20617070726f766520746f2063616c6c657200000000000000600082015250565b60006133696019836122c9565b915061337482613333565b602082019050919050565b600060208201905081810360008301526133988161335c565b9050919050565b7f4552433732313a207472616e7366657220746f206e6f6e20455243373231526560008201527f63656976657220696d706c656d656e7465720000000000000000000000000000602082015250565b60006133fb6032836122c9565b91506134068261339f565b604082019050919050565b6000602082019050818103600083015261342a816133ee565b9050919050565b600061343c8261225b565b91507fffffffffffffffffffffffffffffffffffffffffffffffffffffffffffffffff82141561346f5761346e61327a565b5b600182019050919050565b7f4e487b7100000000000000000000000000000000000000000000000000000000600052601260045260246000fd5b60006134b48261225b565b91506134bf8361225b565b9250826134cf576134ce61347a565b5b828204905092915050565b60006134e58261225b565b91506134f08361225b565b925082613500576134ff61347a565b5b828206905092915050565b7f4e487b7100000000000000000000000000000000000000000000000000000000600052603260045260246000fd5b600081519050919050565b600082825260208201905092915050565b60006135618261353a565b61356b8185613545565b935061357b8185602086016122da565b6135848161230d565b840191505092915050565b60006080820190506135a460008301876123ab565b6135b160208301866123ab565b6135be6040830185612441565b81810360608301526135d08184613556565b905095945050505050565b6000815190506135ea816121cc565b92915050565b60006020828403121561360657613605612196565b5b6000613614848285016135db565b91505092915050565b7f4552433732313a206d696e7420746f20746865207a65726f2061646472657373600082015250565b60006136536020836122c9565b915061365e8261361d565b602082019050919050565b6000602082019050818103600083015261368281613646565b9050919050565b7f4552433732313a20746f6b656e20616c7265616479206d696e74656400000000600082015250565b60006136bf601c836122c9565b91506136ca82613689565b602082019050919050565b600060208201905081810360008301526136ee816136b2565b905091905056fea2646970667358221220daae7cc71945dffa95cb4caaef852d51d28de3354ade44db861106dfaa29944d64736f6c634300080a0033",
  "immutableReferences": {},
  "source": "// SPDX-License-Identifier: MIT\npragma solidity ^0.8.0;\n\nimport \"@openzeppelin/contracts/token/ERC721/ERC721.sol\";\nimport \"@openzeppelin/contracts/access/Ownable.sol\";\n\ncontract Pixels is ERC721, Ownable {\n\n    uint256 public _gridsize = 1000;\n    uint256 public _totalPixels = _gridsize * _gridsize;\n    uint256 public _pixelPrice = 250000000000000; // approx 1usd\n\n    mapping(uint256 => bytes3) public _pixelColours;  // No need to be public, we have safe getters\n    mapping(uint256 => bool) public _pixelOwned;  // No need to be public, we have safe getters\n\n    event PixelMinted (uint date, address to, uint256 pixelId);\n    event PixelColourChanged ( address owner, bytes3 newColour, uint256 pixelId );\n\n    constructor() ERC721(\"Pixels\", \"PIX\") {}\n\n    function mint(uint256 _pixelId) external payable {\n        require(!_pixelOwned[_pixelId], \"Pixel is already owned\");\n        require(_pixelId < _totalPixels, \"Pixel out of range\");\n        require(msg.value >= _pixelPrice, 'No/ Insufficient fees provided');\n        // require that some money be sent\n        uint _id = _pixelId;\n        _pixelOwned[_pixelId] = true;\n        _pixelColours[_pixelId] = 0x777777;\n        _safeMint(msg.sender, _id);\n        emit PixelMinted(block.timestamp, msg.sender, _pixelId);\n    }\n\n    function getBalance() public view returns(uint256){\n        return address(this).balance;\n    }\n\n     function withdrawAmount(uint256 amount) external onlyOwner {\n         require(amount <= getBalance(), \"Insufficient funds\");\n         payable(msg.sender).transfer(amount);\n     }\n\n    //function change pixel colour |||ERC721.ownerOf(tokenId)\n    function changePixelColor(uint256 _pixelId, bytes3 _colorHex) external {\n        require(_pixelId < _totalPixels, \"Pixel id out of range\");\n        require(ownerOf(_pixelId) == msg.sender, \"Sender is not Pixel owner\");\n        _pixelColours[_pixelId] = _colorHex;\n        emit PixelColourChanged(msg.sender, _colorHex, _pixelId);\n        // require(_colorHex.length <= 6, \"Invalid color, needs to be in HEX format (without the #)\");\n        //Optional emit Event here... //NOTE: If we subscribe to the emitter we do not need to constantly query the blockchain datahbase and keep a shadowCache on a centralised database\n    }\n\n    function getPixelColour(uint256 _pixelId) public view returns (bytes3) {\n        require(_pixelId < _totalPixels, \"Pixel id out of range\");\n        if(_pixelOwned[_pixelId]) {\n            return _pixelColours[_pixelId];\n        } else {\n            return 0x000001;\n        }\n    }\n\n    function isPixelOwned(uint256 _pixelId) public view returns (bool) {\n        require(_pixelId < _totalPixels, \"Pixel id out of range\");\n        return _pixelOwned[_pixelId];\n    }\n}\n",
  "sourcePath": "/Users/max/Desktop/POLYPAINT.IO/sol/contracts/Pixels.sol",
  "compiler": {
    "name": "solc",
    "version": "0.8.10+commit.fc410830.Emscripten.clang"
  },
  "schemaVersion": "3.4.4",
  "updatedAt": "2021-12-24T13:57:38.350Z",
  "networkType": "ethereum",
  "devdoc": {
    "kind": "dev",
    "methods": {
      "approve(address,uint256)": {
        "details": "See {IERC721-approve}."
      },
      "balanceOf(address)": {
        "details": "See {IERC721-balanceOf}."
      },
      "getApproved(uint256)": {
        "details": "See {IERC721-getApproved}."
      },
      "isApprovedForAll(address,address)": {
        "details": "See {IERC721-isApprovedForAll}."
      },
      "name()": {
        "details": "See {IERC721Metadata-name}."
      },
      "owner()": {
        "details": "Returns the address of the current owner."
      },
      "ownerOf(uint256)": {
        "details": "See {IERC721-ownerOf}."
      },
      "renounceOwnership()": {
        "details": "Leaves the contract without owner. It will not be possible to call `onlyOwner` functions anymore. Can only be called by the current owner. NOTE: Renouncing ownership will leave the contract without an owner, thereby removing any functionality that is only available to the owner."
      },
      "safeTransferFrom(address,address,uint256)": {
        "details": "See {IERC721-safeTransferFrom}."
      },
      "safeTransferFrom(address,address,uint256,bytes)": {
        "details": "See {IERC721-safeTransferFrom}."
      },
      "setApprovalForAll(address,bool)": {
        "details": "See {IERC721-setApprovalForAll}."
      },
      "supportsInterface(bytes4)": {
        "details": "See {IERC165-supportsInterface}."
      },
      "symbol()": {
        "details": "See {IERC721Metadata-symbol}."
      },
      "tokenURI(uint256)": {
        "details": "See {IERC721Metadata-tokenURI}."
      },
      "transferFrom(address,address,uint256)": {
        "details": "See {IERC721-transferFrom}."
      },
      "transferOwnership(address)": {
        "details": "Transfers ownership of the contract to a new account (`newOwner`). Can only be called by the current owner."
      }
    },
    "version": 1
  },
  "userdoc": {
    "kind": "user",
    "methods": {},
    "version": 1
  }
}