{
  "contractName": "Pixels",
  "abi": [
    {
      "inputs": [],
      "stateMutability": "nonpayable",
      "type": "constructor"
    },
    {
      "anonymous": false,
      "inputs": [
        {
          "indexed": true,
          "internalType": "address",
          "name": "owner",
          "type": "address"
        },
        {
          "indexed": true,
          "internalType": "address",
          "name": "approved",
          "type": "address"
        },
        {
          "indexed": true,
          "internalType": "uint256",
          "name": "tokenId",
          "type": "uint256"
        }
      ],
      "name": "Approval",
      "type": "event"
    },
    {
      "anonymous": false,
      "inputs": [
        {
          "indexed": true,
          "internalType": "address",
          "name": "owner",
          "type": "address"
        },
        {
          "indexed": true,
          "internalType": "address",
          "name": "operator",
          "type": "address"
        },
        {
          "indexed": false,
          "internalType": "bool",
          "name": "approved",
          "type": "bool"
        }
      ],
      "name": "ApprovalForAll",
      "type": "event"
    },
    {
      "anonymous": false,
      "inputs": [
        {
          "indexed": true,
          "internalType": "address",
          "name": "previousOwner",
          "type": "address"
        },
        {
          "indexed": true,
          "internalType": "address",
          "name": "newOwner",
          "type": "address"
        }
      ],
      "name": "OwnershipTransferred",
      "type": "event"
    },
    {
      "anonymous": false,
      "inputs": [
        {
          "indexed": false,
          "internalType": "address",
          "name": "owner",
          "type": "address"
        },
        {
          "indexed": false,
          "internalType": "bytes3",
          "name": "newColour",
          "type": "bytes3"
        },
        {
          "indexed": false,
          "internalType": "uint256",
          "name": "pixelId",
          "type": "uint256"
        }
      ],
      "name": "PixelColourChanged",
      "type": "event"
    },
    {
      "anonymous": false,
      "inputs": [
        {
          "indexed": false,
          "internalType": "uint256",
          "name": "date",
          "type": "uint256"
        },
        {
          "indexed": false,
          "internalType": "address",
          "name": "to",
          "type": "address"
        },
        {
          "indexed": false,
          "internalType": "uint256",
          "name": "pixelId",
          "type": "uint256"
        }
      ],
      "name": "PixelMinted",
      "type": "event"
    },
    {
      "anonymous": false,
      "inputs": [
        {
          "indexed": true,
          "internalType": "address",
          "name": "from",
          "type": "address"
        },
        {
          "indexed": true,
          "internalType": "address",
          "name": "to",
          "type": "address"
        },
        {
          "indexed": true,
          "internalType": "uint256",
          "name": "tokenId",
          "type": "uint256"
        }
      ],
      "name": "Transfer",
      "type": "event"
    },
    {
      "inputs": [],
      "name": "_gridsize",
      "outputs": [
        {
          "internalType": "uint256",
          "name": "",
          "type": "uint256"
        }
      ],
      "stateMutability": "view",
      "type": "function",
      "constant": true
    },
    {
      "inputs": [
        {
          "internalType": "uint256",
          "name": "",
          "type": "uint256"
        }
      ],
      "name": "_pixelColours",
      "outputs": [
        {
          "internalType": "bytes3",
          "name": "",
          "type": "bytes3"
        }
      ],
      "stateMutability": "view",
      "type": "function",
      "constant": true
    },
    {
      "inputs": [
        {
          "internalType": "uint256",
          "name": "",
          "type": "uint256"
        }
      ],
      "name": "_pixelOwned",
      "outputs": [
        {
          "internalType": "bool",
          "name": "",
          "type": "bool"
        }
      ],
      "stateMutability": "view",
      "type": "function",
      "constant": true
    },
    {
      "inputs": [],
      "name": "_pixelPrice",
      "outputs": [
        {
          "internalType": "uint256",
          "name": "",
          "type": "uint256"
        }
      ],
      "stateMutability": "view",
      "type": "function",
      "constant": true
    },
    {
      "inputs": [],
      "name": "_totalPixels",
      "outputs": [
        {
          "internalType": "uint256",
          "name": "",
          "type": "uint256"
        }
      ],
      "stateMutability": "view",
      "type": "function",
      "constant": true
    },
    {
      "inputs": [
        {
          "internalType": "address",
          "name": "to",
          "type": "address"
        },
        {
          "internalType": "uint256",
          "name": "tokenId",
          "type": "uint256"
        }
      ],
      "name": "approve",
      "outputs": [],
      "stateMutability": "nonpayable",
      "type": "function"
    },
    {
      "inputs": [
        {
          "internalType": "address",
          "name": "owner",
          "type": "address"
        }
      ],
      "name": "balanceOf",
      "outputs": [
        {
          "internalType": "uint256",
          "name": "",
          "type": "uint256"
        }
      ],
      "stateMutability": "view",
      "type": "function",
      "constant": true
    },
    {
      "inputs": [
        {
          "internalType": "uint256",
          "name": "tokenId",
          "type": "uint256"
        }
      ],
      "name": "getApproved",
      "outputs": [
        {
          "internalType": "address",
          "name": "",
          "type": "address"
        }
      ],
      "stateMutability": "view",
      "type": "function",
      "constant": true
    },
    {
      "inputs": [
        {
          "internalType": "address",
          "name": "owner",
          "type": "address"
        },
        {
          "internalType": "address",
          "name": "operator",
          "type": "address"
        }
      ],
      "name": "isApprovedForAll",
      "outputs": [
        {
          "internalType": "bool",
          "name": "",
          "type": "bool"
        }
      ],
      "stateMutability": "view",
      "type": "function",
      "constant": true
    },
    {
      "inputs": [],
      "name": "name",
      "outputs": [
        {
          "internalType": "string",
          "name": "",
          "type": "string"
        }
      ],
      "stateMutability": "view",
      "type": "function",
      "constant": true
    },
    {
      "inputs": [],
      "name": "owner",
      "outputs": [
        {
          "internalType": "address",
          "name": "",
          "type": "address"
        }
      ],
      "stateMutability": "view",
      "type": "function",
      "constant": true
    },
    {
      "inputs": [
        {
          "internalType": "uint256",
          "name": "tokenId",
          "type": "uint256"
        }
      ],
      "name": "ownerOf",
      "outputs": [
        {
          "internalType": "address",
          "name": "",
          "type": "address"
        }
      ],
      "stateMutability": "view",
      "type": "function",
      "constant": true
    },
    {
      "inputs": [],
      "name": "renounceOwnership",
      "outputs": [],
      "stateMutability": "nonpayable",
      "type": "function"
    },
    {
      "inputs": [
        {
          "internalType": "address",
          "name": "from",
          "type": "address"
        },
        {
          "internalType": "address",
          "name": "to",
          "type": "address"
        },
        {
          "internalType": "uint256",
          "name": "tokenId",
          "type": "uint256"
        }
      ],
      "name": "safeTransferFrom",
      "outputs": [],
      "stateMutability": "nonpayable",
      "type": "function"
    },
    {
      "inputs": [
        {
          "internalType": "address",
          "name": "from",
          "type": "address"
        },
        {
          "internalType": "address",
          "name": "to",
          "type": "address"
        },
        {
          "internalType": "uint256",
          "name": "tokenId",
          "type": "uint256"
        },
        {
          "internalType": "bytes",
          "name": "_data",
          "type": "bytes"
        }
      ],
      "name": "safeTransferFrom",
      "outputs": [],
      "stateMutability": "nonpayable",
      "type": "function"
    },
    {
      "inputs": [
        {
          "internalType": "address",
          "name": "operator",
          "type": "address"
        },
        {
          "internalType": "bool",
          "name": "approved",
          "type": "bool"
        }
      ],
      "name": "setApprovalForAll",
      "outputs": [],
      "stateMutability": "nonpayable",
      "type": "function"
    },
    {
      "inputs": [
        {
          "internalType": "bytes4",
          "name": "interfaceId",
          "type": "bytes4"
        }
      ],
      "name": "supportsInterface",
      "outputs": [
        {
          "internalType": "bool",
          "name": "",
          "type": "bool"
        }
      ],
      "stateMutability": "view",
      "type": "function",
      "constant": true
    },
    {
      "inputs": [],
      "name": "symbol",
      "outputs": [
        {
          "internalType": "string",
          "name": "",
          "type": "string"
        }
      ],
      "stateMutability": "view",
      "type": "function",
      "constant": true
    },
    {
      "inputs": [
        {
          "internalType": "uint256",
          "name": "tokenId",
          "type": "uint256"
        }
      ],
      "name": "tokenURI",
      "outputs": [
        {
          "internalType": "string",
          "name": "",
          "type": "string"
        }
      ],
      "stateMutability": "view",
      "type": "function",
      "constant": true
    },
    {
      "inputs": [
        {
          "internalType": "address",
          "name": "from",
          "type": "address"
        },
        {
          "internalType": "address",
          "name": "to",
          "type": "address"
        },
        {
          "internalType": "uint256",
          "name": "tokenId",
          "type": "uint256"
        }
      ],
      "name": "transferFrom",
      "outputs": [],
      "stateMutability": "nonpayable",
      "type": "function"
    },
    {
      "inputs": [
        {
          "internalType": "address",
          "name": "newOwner",
          "type": "address"
        }
      ],
      "name": "transferOwnership",
      "outputs": [],
      "stateMutability": "nonpayable",
      "type": "function"
    },
    {
      "inputs": [
        {
          "internalType": "uint256",
          "name": "_pixelId",
          "type": "uint256"
        }
      ],
      "name": "mint",
      "outputs": [],
      "stateMutability": "payable",
      "type": "function",
      "payable": true
    },
    {
      "inputs": [
        {
          "internalType": "uint256",
          "name": "_pixelId",
          "type": "uint256"
        },
        {
          "internalType": "bytes3",
          "name": "_newColour",
          "type": "bytes3"
        }
      ],
      "name": "mint",
      "outputs": [],
      "stateMutability": "payable",
      "type": "function",
      "payable": true
    },
    {
      "inputs": [
        {
          "internalType": "uint256[]",
          "name": "_pixelIds",
          "type": "uint256[]"
        }
      ],
      "name": "mintMultiple",
      "outputs": [],
      "stateMutability": "payable",
      "type": "function",
      "payable": true
    },
    {
      "inputs": [],
      "name": "getBalance",
      "outputs": [
        {
          "internalType": "uint256",
          "name": "",
          "type": "uint256"
        }
      ],
      "stateMutability": "view",
      "type": "function",
      "constant": true
    },
    {
      "inputs": [
        {
          "internalType": "uint256",
          "name": "amount",
          "type": "uint256"
        }
      ],
      "name": "withdrawAmount",
      "outputs": [],
      "stateMutability": "nonpayable",
      "type": "function"
    },
    {
      "inputs": [
        {
          "internalType": "uint256",
          "name": "_pixelId",
          "type": "uint256"
        },
        {
          "internalType": "bytes3",
          "name": "_colorHex",
          "type": "bytes3"
        }
      ],
      "name": "changePixelColor",
      "outputs": [],
      "stateMutability": "nonpayable",
      "type": "function"
    },
    {
      "inputs": [
        {
          "internalType": "uint256[]",
          "name": "_pixelIds",
          "type": "uint256[]"
        },
        {
          "internalType": "bytes3[]",
          "name": "_colorsHex",
          "type": "bytes3[]"
        }
      ],
      "name": "changePixelColorMultiple",
      "outputs": [],
      "stateMutability": "nonpayable",
      "type": "function"
    },
    {
      "inputs": [
        {
          "internalType": "uint256",
          "name": "_pixelId",
          "type": "uint256"
        }
      ],
      "name": "getPixelColour",
      "outputs": [
        {
          "internalType": "bytes3",
          "name": "",
          "type": "bytes3"
        }
      ],
      "stateMutability": "view",
      "type": "function",
      "constant": true
    },
    {
      "inputs": [
        {
          "internalType": "uint256",
          "name": "_pixelId",
          "type": "uint256"
        }
      ],
      "name": "isPixelOwned",
      "outputs": [
        {
          "internalType": "bool",
          "name": "",
          "type": "bool"
        }
      ],
      "stateMutability": "view",
      "type": "function",
      "constant": true
    }
  ],
  "bytecode": "0x60806040526103e86007556007546007546200001c9190620002b4565b60085565e35fa931a0006009553480156200003657600080fd5b506040518060400160405280600681526020017f506978656c7300000000000000000000000000000000000000000000000000008152506040518060400160405280600381526020017f50495800000000000000000000000000000000000000000000000000000000008152508160009080519060200190620000bb929190620001cb565b508060019080519060200190620000d4929190620001cb565b505050620000f7620000eb620000fd60201b60201c565b6200010560201b60201c565b6200037a565b600033905090565b6000600660009054906101000a900473ffffffffffffffffffffffffffffffffffffffff16905081600660006101000a81548173ffffffffffffffffffffffffffffffffffffffff021916908373ffffffffffffffffffffffffffffffffffffffff1602179055508173ffffffffffffffffffffffffffffffffffffffff168173ffffffffffffffffffffffffffffffffffffffff167f8be0079c531659141344cd1fd0a4f28419497f9722a3daafe3b4186f6b6457e060405160405180910390a35050565b828054620001d99062000344565b90600052602060002090601f016020900481019282620001fd576000855562000249565b82601f106200021857805160ff191683800117855562000249565b8280016001018555821562000249579182015b82811115620002485782518255916020019190600101906200022b565b5b5090506200025891906200025c565b5090565b5b80821115620002775760008160009055506001016200025d565b5090565b6000819050919050565b7f4e487b7100000000000000000000000000000000000000000000000000000000600052601160045260246000fd5b6000620002c1826200027b565b9150620002ce836200027b565b9250817fffffffffffffffffffffffffffffffffffffffffffffffffffffffffffffffff04831182151516156200030a576200030962000285565b5b828202905092915050565b7f4e487b7100000000000000000000000000000000000000000000000000000000600052602260045260246000fd5b600060028204905060018216806200035d57607f821691505b6020821081141562000374576200037362000315565b5b50919050565b613c56806200038a6000396000f3fe6080604052600436106101cd5760003560e01c806395d89b41116100f7578063d47f030d11610095578063f0dad05d11610064578063f0dad05d146106a2578063f2fde38b146106be578063f5adb59a146106e7578063fff4ca9c14610712576101cd565b8063d47f030d146105e3578063e1614e15146105ff578063e985e9c51461063c578063efbd975b14610679576101cd565b8063a22cb465116100d1578063a22cb46514610529578063afccaf6514610552578063b88d4fde1461057d578063c87b56dd146105a6576101cd565b806395d89b41146104a55780639631cb34146104d0578063a0712d681461050d576101cd565b80631d886c011161016f578063642fd0f61161013e578063642fd0f6146103e957806370a0823114610426578063715018a6146104635780638da5cb5b1461047a576101cd565b80631d886c011461033157806323b872dd1461035a57806342842e0e146103835780636352211e146103ac576101cd565b8063081812fc116101ab578063081812fc14610263578063095ea7b3146102a057806312065fe0146102c95780631aec1f15146102f4576101cd565b806301ffc9a7146101d25780630562b9f71461020f57806306fdde0314610238575b600080fd5b3480156101de57600080fd5b506101f960048036038101906101f49190612411565b61073d565b6040516102069190612459565b60405180910390f35b34801561021b57600080fd5b50610236600480360381019061023191906124aa565b61081f565b005b34801561024457600080fd5b5061024d61092f565b60405161025a9190612570565b60405180910390f35b34801561026f57600080fd5b5061028a600480360381019061028591906124aa565b6109c1565b60405161029791906125d3565b60405180910390f35b3480156102ac57600080fd5b506102c760048036038101906102c2919061261a565b610a46565b005b3480156102d557600080fd5b506102de610b5e565b6040516102eb9190612669565b60405180910390f35b34801561030057600080fd5b5061031b600480360381019061031691906124aa565b610b66565b60405161032891906126bf565b60405180910390f35b34801561033d57600080fd5b5061035860048036038101906103539190612911565b610b86565b005b34801561036657600080fd5b50610381600480360381019061037c9190612989565b610c2c565b005b34801561038f57600080fd5b506103aa60048036038101906103a59190612989565b610c8c565b005b3480156103b857600080fd5b506103d360048036038101906103ce91906124aa565b610cac565b6040516103e091906125d3565b60405180910390f35b3480156103f557600080fd5b50610410600480360381019061040b91906124aa565b610d5e565b60405161041d91906126bf565b60405180910390f35b34801561043257600080fd5b5061044d600480360381019061044891906129dc565b610dff565b60405161045a9190612669565b60405180910390f35b34801561046f57600080fd5b50610478610eb7565b005b34801561048657600080fd5b5061048f610f3f565b60405161049c91906125d3565b60405180910390f35b3480156104b157600080fd5b506104ba610f69565b6040516104c79190612570565b60405180910390f35b3480156104dc57600080fd5b506104f760048036038101906104f291906124aa565b610ffb565b6040516105049190612459565b60405180910390f35b610527600480360381019061052291906124aa565b611069565b005b34801561053557600080fd5b50610550600480360381019061054b9190612a35565b61107c565b005b34801561055e57600080fd5b50610567611092565b6040516105749190612669565b60405180910390f35b34801561058957600080fd5b506105a4600480360381019061059f9190612b2a565b611098565b005b3480156105b257600080fd5b506105cd60048036038101906105c891906124aa565b6110fa565b6040516105da9190612570565b60405180910390f35b6105fd60048036038101906105f89190612bad565b6111a1565b005b34801561060b57600080fd5b50610626600480360381019061062191906124aa565b61123f565b6040516106339190612459565b60405180910390f35b34801561064857600080fd5b50610663600480360381019061065e9190612bf6565b61125f565b6040516106709190612459565b60405180910390f35b34801561068557600080fd5b506106a0600480360381019061069b9190612c36565b6112f3565b005b6106bc60048036038101906106b79190612c36565b61141a565b005b3480156106ca57600080fd5b506106e560048036038101906106e091906129dc565b6115e2565b005b3480156106f357600080fd5b506106fc6116da565b6040516107099190612669565b60405180910390f35b34801561071e57600080fd5b506107276116e0565b6040516107349190612669565b60405180910390f35b60007f80ac58cd000000000000000000000000000000000000000000000000000000007bffffffffffffffffffffffffffffffffffffffffffffffffffffffff1916827bffffffffffffffffffffffffffffffffffffffffffffffffffffffff1916148061080857507f5b5e139f000000000000000000000000000000000000000000000000000000007bffffffffffffffffffffffffffffffffffffffffffffffffffffffff1916827bffffffffffffffffffffffffffffffffffffffffffffffffffffffff1916145b806108185750610817826116e6565b5b9050919050565b610827611750565b73ffffffffffffffffffffffffffffffffffffffff16610845610f3f565b73ffffffffffffffffffffffffffffffffffffffff161461089b576040517f08c379a000000000000000000000000000000000000000000000000000000000815260040161089290612cc2565b60405180910390fd5b6108a3610b5e565b8111156108e5576040517f08c379a00000000000000000000000000000000000000000000000000000000081526004016108dc90612d2e565b60405180910390fd5b3373ffffffffffffffffffffffffffffffffffffffff166108fc829081150290604051600060405180830381858888f1935050505015801561092b573d6000803e3d6000fd5b5050565b60606000805461093e90612d7d565b80601f016020809104026020016040519081016040528092919081815260200182805461096a90612d7d565b80156109b75780601f1061098c576101008083540402835291602001916109b7565b820191906000526020600020905b81548152906001019060200180831161099a57829003601f168201915b5050505050905090565b60006109cc82611758565b610a0b576040517f08c379a0000000000000000000000000000000000000000000000000000000008152600401610a0290612e21565b60405180910390fd5b6004600083815260200190815260200160002060009054906101000a900473ffffffffffffffffffffffffffffffffffffffff169050919050565b6000610a5182610cac565b90508073ffffffffffffffffffffffffffffffffffffffff168373ffffffffffffffffffffffffffffffffffffffff161415610ac2576040517f08c379a0000000000000000000000000000000000000000000000000000000008152600401610ab990612eb3565b60405180910390fd5b8073ffffffffffffffffffffffffffffffffffffffff16610ae1611750565b73ffffffffffffffffffffffffffffffffffffffff161480610b105750610b0f81610b0a611750565b61125f565b5b610b4f576040517f08c379a0000000000000000000000000000000000000000000000000000000008152600401610b4690612f45565b60405180910390fd5b610b5983836117c4565b505050565b600047905090565b600a6020528060005260406000206000915054906101000a900460e81b81565b8051825114610bca576040517f08c379a0000000000000000000000000000000000000000000000000000000008152600401610bc190612fb1565b60405180910390fd5b60005b8251811015610c2757610c14838281518110610bec57610beb612fd1565b5b6020026020010151838381518110610c0757610c06612fd1565b5b60200260200101516112f3565b8080610c1f9061302f565b915050610bcd565b505050565b610c3d610c37611750565b8261187d565b610c7c576040517f08c379a0000000000000000000000000000000000000000000000000000000008152600401610c73906130ea565b60405180910390fd5b610c8783838361195b565b505050565b610ca783838360405180602001604052806000815250611098565b505050565b6000806002600084815260200190815260200160002060009054906101000a900473ffffffffffffffffffffffffffffffffffffffff169050600073ffffffffffffffffffffffffffffffffffffffff168173ffffffffffffffffffffffffffffffffffffffff161415610d55576040517f08c379a0000000000000000000000000000000000000000000000000000000008152600401610d4c9061317c565b60405180910390fd5b80915050919050565b60006008548210610da4576040517f08c379a0000000000000000000000000000000000000000000000000000000008152600401610d9b906131e8565b60405180910390fd5b600b600083815260200190815260200160002060009054906101000a900460ff1615610df257600a600083815260200190815260200160002060009054906101000a900460e81b9050610dfa565b600160e81b90505b919050565b60008073ffffffffffffffffffffffffffffffffffffffff168273ffffffffffffffffffffffffffffffffffffffff161415610e70576040517f08c379a0000000000000000000000000000000000000000000000000000000008152600401610e679061327a565b60405180910390fd5b600360008373ffffffffffffffffffffffffffffffffffffffff1673ffffffffffffffffffffffffffffffffffffffff168152602001908152602001600020549050919050565b610ebf611750565b73ffffffffffffffffffffffffffffffffffffffff16610edd610f3f565b73ffffffffffffffffffffffffffffffffffffffff1614610f33576040517f08c379a0000000000000000000000000000000000000000000000000000000008152600401610f2a90612cc2565b60405180910390fd5b610f3d6000611bb7565b565b6000600660009054906101000a900473ffffffffffffffffffffffffffffffffffffffff16905090565b606060018054610f7890612d7d565b80601f0160208091040260200160405190810160405280929190818152602001828054610fa490612d7d565b8015610ff15780601f10610fc657610100808354040283529160200191610ff1565b820191906000526020600020905b815481529060010190602001808311610fd457829003601f168201915b5050505050905090565b60006008548210611041576040517f08c379a0000000000000000000000000000000000000000000000000000000008152600401611038906131e8565b60405180910390fd5b600b600083815260200190815260200160002060009054906101000a900460ff169050919050565b611079816211111160e81b61141a565b50565b61108e611087611750565b8383611c7d565b5050565b60095481565b6110a96110a3611750565b8361187d565b6110e8576040517f08c379a00000000000000000000000000000000000000000000000000000000081526004016110df906130ea565b60405180910390fd5b6110f484848484611dea565b50505050565b606061110582611758565b611144576040517f08c379a000000000000000000000000000000000000000000000000000000000815260040161113b9061330c565b60405180910390fd5b600061114e611e46565b9050600081511161116e5760405180602001604052806000815250611199565b8061117884611e5d565b604051602001611189929190613368565b6040516020818303038152906040525b915050919050565b60095481516111b0919061338c565b3410156111f2576040517f08c379a00000000000000000000000000000000000000000000000000000000081526004016111e990613432565b60405180910390fd5b60005b815181101561123b5761122882828151811061121457611213612fd1565b5b60200260200101516211111160e81b61141a565b80806112339061302f565b9150506111f5565b5050565b600b6020528060005260406000206000915054906101000a900460ff1681565b6000600560008473ffffffffffffffffffffffffffffffffffffffff1673ffffffffffffffffffffffffffffffffffffffff16815260200190815260200160002060008373ffffffffffffffffffffffffffffffffffffffff1673ffffffffffffffffffffffffffffffffffffffff16815260200190815260200160002060009054906101000a900460ff16905092915050565b6008548210611337576040517f08c379a000000000000000000000000000000000000000000000000000000000815260040161132e906131e8565b60405180910390fd5b3373ffffffffffffffffffffffffffffffffffffffff1661135783610cac565b73ffffffffffffffffffffffffffffffffffffffff16146113ad576040517f08c379a00000000000000000000000000000000000000000000000000000000081526004016113a49061349e565b60405180910390fd5b80600a600084815260200190815260200160002060006101000a81548162ffffff021916908360e81c02179055507f98a0e7ec1b61c69699ea733cf97ede142a1217dc2a8f2f64849d93689652ce1c33828460405161140e939291906134be565b60405180910390a15050565b600b600083815260200190815260200160002060009054906101000a900460ff161561147b576040517f08c379a000000000000000000000000000000000000000000000000000000000815260040161147290613541565b60405180910390fd5b60085482106114bf576040517f08c379a00000000000000000000000000000000000000000000000000000000081526004016114b6906135ad565b60405180910390fd5b600954341015611504576040517f08c379a00000000000000000000000000000000000000000000000000000000081526004016114fb90613432565b60405180910390fd5b6001600b600084815260200190815260200160002060006101000a81548160ff02191690831515021790555080600a600084815260200190815260200160002060006101000a81548162ffffff021916908360e81c02179055506115683383611fbe565b7fa3c5a07f63c391102daa3f8b260023afa2b5a1976a137e50be84de2c5763ae7242338460405161159b939291906135cd565b60405180910390a17f98a0e7ec1b61c69699ea733cf97ede142a1217dc2a8f2f64849d93689652ce1c3382846040516115d6939291906134be565b60405180910390a15050565b6115ea611750565b73ffffffffffffffffffffffffffffffffffffffff16611608610f3f565b73ffffffffffffffffffffffffffffffffffffffff161461165e576040517f08c379a000000000000000000000000000000000000000000000000000000000815260040161165590612cc2565b60405180910390fd5b600073ffffffffffffffffffffffffffffffffffffffff168173ffffffffffffffffffffffffffffffffffffffff1614156116ce576040517f08c379a00000000000000000000000000000000000000000000000000000000081526004016116c590613676565b60405180910390fd5b6116d781611bb7565b50565b60075481565b60085481565b60007f01ffc9a7000000000000000000000000000000000000000000000000000000007bffffffffffffffffffffffffffffffffffffffffffffffffffffffff1916827bffffffffffffffffffffffffffffffffffffffffffffffffffffffff1916149050919050565b600033905090565b60008073ffffffffffffffffffffffffffffffffffffffff166002600084815260200190815260200160002060009054906101000a900473ffffffffffffffffffffffffffffffffffffffff1673ffffffffffffffffffffffffffffffffffffffff1614159050919050565b816004600083815260200190815260200160002060006101000a81548173ffffffffffffffffffffffffffffffffffffffff021916908373ffffffffffffffffffffffffffffffffffffffff160217905550808273ffffffffffffffffffffffffffffffffffffffff1661183783610cac565b73ffffffffffffffffffffffffffffffffffffffff167f8c5be1e5ebec7d5bd14f71427d1e84f3dd0314c0f7b2291e5b200ac8c7c3b92560405160405180910390a45050565b600061188882611758565b6118c7576040517f08c379a00000000000000000000000000000000000000000000000000000000081526004016118be90613708565b60405180910390fd5b60006118d283610cac565b90508073ffffffffffffffffffffffffffffffffffffffff168473ffffffffffffffffffffffffffffffffffffffff16148061194157508373ffffffffffffffffffffffffffffffffffffffff16611929846109c1565b73ffffffffffffffffffffffffffffffffffffffff16145b806119525750611951818561125f565b5b91505092915050565b8273ffffffffffffffffffffffffffffffffffffffff1661197b82610cac565b73ffffffffffffffffffffffffffffffffffffffff16146119d1576040517f08c379a00000000000000000000000000000000000000000000000000000000081526004016119c89061379a565b60405180910390fd5b600073ffffffffffffffffffffffffffffffffffffffff168273ffffffffffffffffffffffffffffffffffffffff161415611a41576040517f08c379a0000000000000000000000000000000000000000000000000000000008152600401611a389061382c565b60405180910390fd5b611a4c838383611fdc565b611a576000826117c4565b6001600360008573ffffffffffffffffffffffffffffffffffffffff1673ffffffffffffffffffffffffffffffffffffffff1681526020019081526020016000206000828254611aa7919061384c565b925050819055506001600360008473ffffffffffffffffffffffffffffffffffffffff1673ffffffffffffffffffffffffffffffffffffffff1681526020019081526020016000206000828254611afe9190613880565b92505081905550816002600083815260200190815260200160002060006101000a81548173ffffffffffffffffffffffffffffffffffffffff021916908373ffffffffffffffffffffffffffffffffffffffff160217905550808273ffffffffffffffffffffffffffffffffffffffff168473ffffffffffffffffffffffffffffffffffffffff167fddf252ad1be2c89b69c2b068fc378daa952ba7f163c4a11628f55a4df523b3ef60405160405180910390a4505050565b6000600660009054906101000a900473ffffffffffffffffffffffffffffffffffffffff16905081600660006101000a81548173ffffffffffffffffffffffffffffffffffffffff021916908373ffffffffffffffffffffffffffffffffffffffff1602179055508173ffffffffffffffffffffffffffffffffffffffff168173ffffffffffffffffffffffffffffffffffffffff167f8be0079c531659141344cd1fd0a4f28419497f9722a3daafe3b4186f6b6457e060405160405180910390a35050565b8173ffffffffffffffffffffffffffffffffffffffff168373ffffffffffffffffffffffffffffffffffffffff161415611cec576040517f08c379a0000000000000000000000000000000000000000000000000000000008152600401611ce390613922565b60405180910390fd5b80600560008573ffffffffffffffffffffffffffffffffffffffff1673ffffffffffffffffffffffffffffffffffffffff16815260200190815260200160002060008473ffffffffffffffffffffffffffffffffffffffff1673ffffffffffffffffffffffffffffffffffffffff16815260200190815260200160002060006101000a81548160ff0219169083151502179055508173ffffffffffffffffffffffffffffffffffffffff168373ffffffffffffffffffffffffffffffffffffffff167f17307eab39ab6107e8899845ad3d59bd9653f200f220920489ca2b5937696c3183604051611ddd9190612459565b60405180910390a3505050565b611df584848461195b565b611e0184848484611fe1565b611e40576040517f08c379a0000000000000000000000000000000000000000000000000000000008152600401611e37906139b4565b60405180910390fd5b50505050565b606060405180602001604052806000815250905090565b60606000821415611ea5576040518060400160405280600181526020017f30000000000000000000000000000000000000000000000000000000000000008152509050611fb9565b600082905060005b60008214611ed7578080611ec09061302f565b915050600a82611ed09190613a03565b9150611ead565b60008167ffffffffffffffff811115611ef357611ef26126df565b5b6040519080825280601f01601f191660200182016040528015611f255781602001600182028036833780820191505090505b5090505b60008514611fb257600182611f3e919061384c565b9150600a85611f4d9190613a34565b6030611f599190613880565b60f81b818381518110611f6f57611f6e612fd1565b5b60200101907effffffffffffffffffffffffffffffffffffffffffffffffffffffffffffff1916908160001a905350600a85611fab9190613a03565b9450611f29565b8093505050505b919050565b611fd8828260405180602001604052806000815250612169565b5050565b505050565b60006120028473ffffffffffffffffffffffffffffffffffffffff166121c4565b1561215c578373ffffffffffffffffffffffffffffffffffffffff1663150b7a0261202b611750565b8786866040518563ffffffff1660e01b815260040161204d9493929190613aba565b6020604051808303816000875af192505050801561208957506040513d601f19601f820116820180604052508101906120869190613b1b565b60015b61210c573d80600081146120b9576040519150601f19603f3d011682016040523d82523d6000602084013e6120be565b606091505b50600081511415612104576040517f08c379a00000000000000000000000000000000000000000000000000000000081526004016120fb906139b4565b60405180910390fd5b805181602001fd5b63150b7a0260e01b7bffffffffffffffffffffffffffffffffffffffffffffffffffffffff1916817bffffffffffffffffffffffffffffffffffffffffffffffffffffffff191614915050612161565b600190505b949350505050565b61217383836121d7565b6121806000848484611fe1565b6121bf576040517f08c379a00000000000000000000000000000000000000000000000000000000081526004016121b6906139b4565b60405180910390fd5b505050565b600080823b905060008111915050919050565b600073ffffffffffffffffffffffffffffffffffffffff168273ffffffffffffffffffffffffffffffffffffffff161415612247576040517f08c379a000000000000000000000000000000000000000000000000000000000815260040161223e90613b94565b60405180910390fd5b61225081611758565b15612290576040517f08c379a000000000000000000000000000000000000000000000000000000000815260040161228790613c00565b60405180910390fd5b61229c60008383611fdc565b6001600360008473ffffffffffffffffffffffffffffffffffffffff1673ffffffffffffffffffffffffffffffffffffffff16815260200190815260200160002060008282546122ec9190613880565b92505081905550816002600083815260200190815260200160002060006101000a81548173ffffffffffffffffffffffffffffffffffffffff021916908373ffffffffffffffffffffffffffffffffffffffff160217905550808273ffffffffffffffffffffffffffffffffffffffff16600073ffffffffffffffffffffffffffffffffffffffff167fddf252ad1be2c89b69c2b068fc378daa952ba7f163c4a11628f55a4df523b3ef60405160405180910390a45050565b6000604051905090565b600080fd5b600080fd5b60007fffffffff0000000000000000000000000000000000000000000000000000000082169050919050565b6123ee816123b9565b81146123f957600080fd5b50565b60008135905061240b816123e5565b92915050565b600060208284031215612427576124266123af565b5b6000612435848285016123fc565b91505092915050565b60008115159050919050565b6124538161243e565b82525050565b600060208201905061246e600083018461244a565b92915050565b6000819050919050565b61248781612474565b811461249257600080fd5b50565b6000813590506124a48161247e565b92915050565b6000602082840312156124c0576124bf6123af565b5b60006124ce84828501612495565b91505092915050565b600081519050919050565b600082825260208201905092915050565b60005b838110156125115780820151818401526020810190506124f6565b83811115612520576000848401525b50505050565b6000601f19601f8301169050919050565b6000612542826124d7565b61254c81856124e2565b935061255c8185602086016124f3565b61256581612526565b840191505092915050565b6000602082019050818103600083015261258a8184612537565b905092915050565b600073ffffffffffffffffffffffffffffffffffffffff82169050919050565b60006125bd82612592565b9050919050565b6125cd816125b2565b82525050565b60006020820190506125e860008301846125c4565b92915050565b6125f7816125b2565b811461260257600080fd5b50565b600081359050612614816125ee565b92915050565b60008060408385031215612631576126306123af565b5b600061263f85828601612605565b925050602061265085828601612495565b9150509250929050565b61266381612474565b82525050565b600060208201905061267e600083018461265a565b92915050565b60007fffffff000000000000000000000000000000000000000000000000000000000082169050919050565b6126b981612684565b82525050565b60006020820190506126d460008301846126b0565b92915050565b600080fd5b7f4e487b7100000000000000000000000000000000000000000000000000000000600052604160045260246000fd5b61271782612526565b810181811067ffffffffffffffff82111715612736576127356126df565b5b80604052505050565b60006127496123a5565b9050612755828261270e565b919050565b600067ffffffffffffffff821115612775576127746126df565b5b602082029050602081019050919050565b600080fd5b600061279e6127998461275a565b61273f565b905080838252602082019050602084028301858111156127c1576127c0612786565b5b835b818110156127ea57806127d68882612495565b8452602084019350506020810190506127c3565b5050509392505050565b600082601f830112612809576128086126da565b5b813561281984826020860161278b565b91505092915050565b600067ffffffffffffffff82111561283d5761283c6126df565b5b602082029050602081019050919050565b61285781612684565b811461286257600080fd5b50565b6000813590506128748161284e565b92915050565b600061288d61288884612822565b61273f565b905080838252602082019050602084028301858111156128b0576128af612786565b5b835b818110156128d957806128c58882612865565b8452602084019350506020810190506128b2565b5050509392505050565b600082601f8301126128f8576128f76126da565b5b813561290884826020860161287a565b91505092915050565b60008060408385031215612928576129276123af565b5b600083013567ffffffffffffffff811115612946576129456123b4565b5b612952858286016127f4565b925050602083013567ffffffffffffffff811115612973576129726123b4565b5b61297f858286016128e3565b9150509250929050565b6000806000606084860312156129a2576129a16123af565b5b60006129b086828701612605565b93505060206129c186828701612605565b92505060406129d286828701612495565b9150509250925092565b6000602082840312156129f2576129f16123af565b5b6000612a0084828501612605565b91505092915050565b612a128161243e565b8114612a1d57600080fd5b50565b600081359050612a2f81612a09565b92915050565b60008060408385031215612a4c57612a4b6123af565b5b6000612a5a85828601612605565b9250506020612a6b85828601612a20565b9150509250929050565b600080fd5b600067ffffffffffffffff821115612a9557612a946126df565b5b612a9e82612526565b9050602081019050919050565b82818337600083830152505050565b6000612acd612ac884612a7a565b61273f565b905082815260208101848484011115612ae957612ae8612a75565b5b612af4848285612aab565b509392505050565b600082601f830112612b1157612b106126da565b5b8135612b21848260208601612aba565b91505092915050565b60008060008060808587031215612b4457612b436123af565b5b6000612b5287828801612605565b9450506020612b6387828801612605565b9350506040612b7487828801612495565b925050606085013567ffffffffffffffff811115612b9557612b946123b4565b5b612ba187828801612afc565b91505092959194509250565b600060208284031215612bc357612bc26123af565b5b600082013567ffffffffffffffff811115612be157612be06123b4565b5b612bed848285016127f4565b91505092915050565b60008060408385031215612c0d57612c0c6123af565b5b6000612c1b85828601612605565b9250506020612c2c85828601612605565b9150509250929050565b60008060408385031215612c4d57612c4c6123af565b5b6000612c5b85828601612495565b9250506020612c6c85828601612865565b9150509250929050565b7f4f776e61626c653a2063616c6c6572206973206e6f7420746865206f776e6572600082015250565b6000612cac6020836124e2565b9150612cb782612c76565b602082019050919050565b60006020820190508181036000830152612cdb81612c9f565b9050919050565b7f496e73756666696369656e742066756e64730000000000000000000000000000600082015250565b6000612d186012836124e2565b9150612d2382612ce2565b602082019050919050565b60006020820190508181036000830152612d4781612d0b565b9050919050565b7f4e487b7100000000000000000000000000000000000000000000000000000000600052602260045260246000fd5b60006002820490506001821680612d9557607f821691505b60208210811415612da957612da8612d4e565b5b50919050565b7f4552433732313a20617070726f76656420717565727920666f72206e6f6e657860008201527f697374656e7420746f6b656e0000000000000000000000000000000000000000602082015250565b6000612e0b602c836124e2565b9150612e1682612daf565b604082019050919050565b60006020820190508181036000830152612e3a81612dfe565b9050919050565b7f4552433732313a20617070726f76616c20746f2063757272656e74206f776e6560008201527f7200000000000000000000000000000000000000000000000000000000000000602082015250565b6000612e9d6021836124e2565b9150612ea882612e41565b604082019050919050565b60006020820190508181036000830152612ecc81612e90565b9050919050565b7f4552433732313a20617070726f76652063616c6c6572206973206e6f74206f7760008201527f6e6572206e6f7220617070726f76656420666f7220616c6c0000000000000000602082015250565b6000612f2f6038836124e2565b9150612f3a82612ed3565b604082019050919050565b60006020820190508181036000830152612f5e81612f22565b9050919050565b7f417272617973206f6620696e636f6e73697374656e74206c656e677468000000600082015250565b6000612f9b601d836124e2565b9150612fa682612f65565b602082019050919050565b60006020820190508181036000830152612fca81612f8e565b9050919050565b7f4e487b7100000000000000000000000000000000000000000000000000000000600052603260045260246000fd5b7f4e487b7100000000000000000000000000000000000000000000000000000000600052601160045260246000fd5b600061303a82612474565b91507fffffffffffffffffffffffffffffffffffffffffffffffffffffffffffffffff82141561306d5761306c613000565b5b600182019050919050565b7f4552433732313a207472616e736665722063616c6c6572206973206e6f74206f60008201527f776e6572206e6f7220617070726f766564000000000000000000000000000000602082015250565b60006130d46031836124e2565b91506130df82613078565b604082019050919050565b60006020820190508181036000830152613103816130c7565b9050919050565b7f4552433732313a206f776e657220717565727920666f72206e6f6e657869737460008201527f656e7420746f6b656e0000000000000000000000000000000000000000000000602082015250565b60006131666029836124e2565b91506131718261310a565b604082019050919050565b6000602082019050818103600083015261319581613159565b9050919050565b7f506978656c206964206f7574206f662072616e67650000000000000000000000600082015250565b60006131d26015836124e2565b91506131dd8261319c565b602082019050919050565b60006020820190508181036000830152613201816131c5565b9050919050565b7f4552433732313a2062616c616e636520717565727920666f7220746865207a6560008201527f726f206164647265737300000000000000000000000000000000000000000000602082015250565b6000613264602a836124e2565b915061326f82613208565b604082019050919050565b6000602082019050818103600083015261329381613257565b9050919050565b7f4552433732314d657461646174613a2055524920717565727920666f72206e6f60008201527f6e6578697374656e7420746f6b656e0000000000000000000000000000000000602082015250565b60006132f6602f836124e2565b91506133018261329a565b604082019050919050565b60006020820190508181036000830152613325816132e9565b9050919050565b600081905092915050565b6000613342826124d7565b61334c818561332c565b935061335c8185602086016124f3565b80840191505092915050565b60006133748285613337565b91506133808284613337565b91508190509392505050565b600061339782612474565b91506133a283612474565b9250817fffffffffffffffffffffffffffffffffffffffffffffffffffffffffffffffff04831182151516156133db576133da613000565b5b828202905092915050565b7f4e6f2f20496e73756666696369656e7420666565732070726f76696465640000600082015250565b600061341c601e836124e2565b9150613427826133e6565b602082019050919050565b6000602082019050818103600083015261344b8161340f565b9050919050565b7f53656e646572206973206e6f7420506978656c206f776e657200000000000000600082015250565b60006134886019836124e2565b915061349382613452565b602082019050919050565b600060208201905081810360008301526134b78161347b565b9050919050565b60006060820190506134d360008301866125c4565b6134e060208301856126b0565b6134ed604083018461265a565b949350505050565b7f506978656c20697320616c7265616479206f776e656400000000000000000000600082015250565b600061352b6016836124e2565b9150613536826134f5565b602082019050919050565b6000602082019050818103600083015261355a8161351e565b9050919050565b7f506978656c206f7574206f662072616e67650000000000000000000000000000600082015250565b60006135976012836124e2565b91506135a282613561565b602082019050919050565b600060208201905081810360008301526135c68161358a565b9050919050565b60006060820190506135e2600083018661265a565b6135ef60208301856125c4565b6135fc604083018461265a565b949350505050565b7f4f776e61626c653a206e6577206f776e657220697320746865207a65726f206160008201527f6464726573730000000000000000000000000000000000000000000000000000602082015250565b60006136606026836124e2565b915061366b82613604565b604082019050919050565b6000602082019050818103600083015261368f81613653565b9050919050565b7f4552433732313a206f70657261746f7220717565727920666f72206e6f6e657860008201527f697374656e7420746f6b656e0000000000000000000000000000000000000000602082015250565b60006136f2602c836124e2565b91506136fd82613696565b604082019050919050565b60006020820190508181036000830152613721816136e5565b9050919050565b7f4552433732313a207472616e73666572206f6620746f6b656e2074686174206960008201527f73206e6f74206f776e0000000000000000000000000000000000000000000000602082015250565b60006137846029836124e2565b915061378f82613728565b604082019050919050565b600060208201905081810360008301526137b381613777565b9050919050565b7f4552433732313a207472616e7366657220746f20746865207a65726f2061646460008201527f7265737300000000000000000000000000000000000000000000000000000000602082015250565b60006138166024836124e2565b9150613821826137ba565b604082019050919050565b6000602082019050818103600083015261384581613809565b9050919050565b600061385782612474565b915061386283612474565b92508282101561387557613874613000565b5b828203905092915050565b600061388b82612474565b915061389683612474565b9250827fffffffffffffffffffffffffffffffffffffffffffffffffffffffffffffffff038211156138cb576138ca613000565b5b828201905092915050565b7f4552433732313a20617070726f766520746f2063616c6c657200000000000000600082015250565b600061390c6019836124e2565b9150613917826138d6565b602082019050919050565b6000602082019050818103600083015261393b816138ff565b9050919050565b7f4552433732313a207472616e7366657220746f206e6f6e20455243373231526560008201527f63656976657220696d706c656d656e7465720000000000000000000000000000602082015250565b600061399e6032836124e2565b91506139a982613942565b604082019050919050565b600060208201905081810360008301526139cd81613991565b9050919050565b7f4e487b7100000000000000000000000000000000000000000000000000000000600052601260045260246000fd5b6000613a0e82612474565b9150613a1983612474565b925082613a2957613a286139d4565b5b828204905092915050565b6000613a3f82612474565b9150613a4a83612474565b925082613a5a57613a596139d4565b5b828206905092915050565b600081519050919050565b600082825260208201905092915050565b6000613a8c82613a65565b613a968185613a70565b9350613aa68185602086016124f3565b613aaf81612526565b840191505092915050565b6000608082019050613acf60008301876125c4565b613adc60208301866125c4565b613ae9604083018561265a565b8181036060830152613afb8184613a81565b905095945050505050565b600081519050613b15816123e5565b92915050565b600060208284031215613b3157613b306123af565b5b6000613b3f84828501613b06565b91505092915050565b7f4552433732313a206d696e7420746f20746865207a65726f2061646472657373600082015250565b6000613b7e6020836124e2565b9150613b8982613b48565b602082019050919050565b60006020820190508181036000830152613bad81613b71565b9050919050565b7f4552433732313a20746f6b656e20616c7265616479206d696e74656400000000600082015250565b6000613bea601c836124e2565b9150613bf582613bb4565b602082019050919050565b60006020820190508181036000830152613c1981613bdd565b905091905056fea2646970667358221220984ef5f392b0e1ee95395bdd85c56a310303c068c217da2b8d8e982ded02be4064736f6c634300080a0033",
  "immutableReferences": {},
  "source": "// SPDX-License-Identifier: MIT\npragma solidity ^0.8.0;\n\nimport \"@openzeppelin/contracts/token/ERC721/ERC721.sol\";\nimport \"@openzeppelin/contracts/access/Ownable.sol\";\n\ncontract Pixels is ERC721, Ownable {\n\n    uint256 public _gridsize = 1000; //will change to 1000 eventually.....l\n    uint256 public _totalPixels = _gridsize * _gridsize;\n    uint256 public _pixelPrice = 250000000000000; // approx 1usd\n\n    // bytes3[] public _pixelColours = new bytes3[](_gridsize);\n    mapping(uint256 => bytes3) public _pixelColours;\n    mapping(uint256 => bool) public _pixelOwned;\n\n    event PixelMinted (uint date, address to, uint256 pixelId);\n    event PixelColourChanged ( address owner, bytes3 newColour, uint256 pixelId );\n\n    constructor() ERC721(\"Pixels\", \"PIX\") {}\n\n    function mint(uint256 _pixelId, bytes3 _newColour) public payable {\n        require(!_pixelOwned[_pixelId], \"Pixel is already owned\");\n        require(_pixelId < _totalPixels, \"Pixel out of range\");\n        require(msg.value >= _pixelPrice, \"No/ Insufficient fees provided\");\n        _pixelOwned[_pixelId] = true;\n        _pixelColours[_pixelId] = _newColour;\n        _safeMint(msg.sender, _pixelId);\n        emit PixelMinted(block.timestamp, msg.sender, _pixelId);\n        emit PixelColourChanged(msg.sender, _newColour, _pixelId);\n    }\n\n    function mint(uint256 _pixelId) external payable {\n        mint(_pixelId, 0x111111);\n    }\n\n    function mintMultiple(uint256[] memory _pixelIds) external payable {\n        require(msg.value >= _pixelIds.length * _pixelPrice, \"No/ Insufficient fees provided\");\n        for (uint256 i = 0; i < _pixelIds.length; i++) {\n            mint(_pixelIds[i], 0x111111);\n        }\n    }\n\n    function getBalance() public view returns(uint256){\n        return address(this).balance;\n    }\n\n     function withdrawAmount(uint256 amount) external onlyOwner {\n         require(amount <= getBalance(), \"Insufficient funds\");\n         payable(msg.sender).transfer(amount);\n     }\n\n    //function change pixel colour |||ERC721.ownerOf(tokenId)\n    function changePixelColor(uint256 _pixelId, bytes3 _colorHex) public {\n        require(_pixelId < _totalPixels, \"Pixel id out of range\");\n        require(ownerOf(_pixelId) == msg.sender, \"Sender is not Pixel owner\");\n        _pixelColours[_pixelId] = _colorHex;\n        emit PixelColourChanged(msg.sender, _colorHex, _pixelId);\n    }\n\n    function changePixelColorMultiple(uint256[] memory _pixelIds, bytes3[] memory _colorsHex) external {\n        require(_pixelIds.length == _colorsHex.length, \"Arrays of inconsistent length\");\n        for (uint256 i = 0; i < _pixelIds.length; i++) {\n            changePixelColor(_pixelIds[i], _colorsHex[i]);\n        }\n    }\n\n    function getPixelColour(uint256 _pixelId) public view returns (bytes3) {\n        require(_pixelId < _totalPixels, \"Pixel id out of range\");\n        if(_pixelOwned[_pixelId]) {\n            return _pixelColours[_pixelId];\n        } else {\n            return 0x000001;\n        }\n    }\n\n    function isPixelOwned(uint256 _pixelId) public view returns (bool) {\n        require(_pixelId < _totalPixels, \"Pixel id out of range\");\n        return _pixelOwned[_pixelId];\n    }\n}\n",
  "sourcePath": "/Users/max/Desktop/POLYPAINT.IO/sol/contracts/Pixels.sol",
  "compiler": {
    "name": "solc",
    "version": "0.8.10+commit.fc410830.Emscripten.clang"
  },
  "schemaVersion": "3.4.4",
  "updatedAt": "2021-12-24T23:45:23.638Z",
  "networkType": "ethereum",
  "devdoc": {
    "kind": "dev",
    "methods": {
      "approve(address,uint256)": {
        "details": "See {IERC721-approve}."
      },
      "balanceOf(address)": {
        "details": "See {IERC721-balanceOf}."
      },
      "getApproved(uint256)": {
        "details": "See {IERC721-getApproved}."
      },
      "isApprovedForAll(address,address)": {
        "details": "See {IERC721-isApprovedForAll}."
      },
      "name()": {
        "details": "See {IERC721Metadata-name}."
      },
      "owner()": {
        "details": "Returns the address of the current owner."
      },
      "ownerOf(uint256)": {
        "details": "See {IERC721-ownerOf}."
      },
      "renounceOwnership()": {
        "details": "Leaves the contract without owner. It will not be possible to call `onlyOwner` functions anymore. Can only be called by the current owner. NOTE: Renouncing ownership will leave the contract without an owner, thereby removing any functionality that is only available to the owner."
      },
      "safeTransferFrom(address,address,uint256)": {
        "details": "See {IERC721-safeTransferFrom}."
      },
      "safeTransferFrom(address,address,uint256,bytes)": {
        "details": "See {IERC721-safeTransferFrom}."
      },
      "setApprovalForAll(address,bool)": {
        "details": "See {IERC721-setApprovalForAll}."
      },
      "supportsInterface(bytes4)": {
        "details": "See {IERC165-supportsInterface}."
      },
      "symbol()": {
        "details": "See {IERC721Metadata-symbol}."
      },
      "tokenURI(uint256)": {
        "details": "See {IERC721Metadata-tokenURI}."
      },
      "transferFrom(address,address,uint256)": {
        "details": "See {IERC721-transferFrom}."
      },
      "transferOwnership(address)": {
        "details": "Transfers ownership of the contract to a new account (`newOwner`). Can only be called by the current owner."
      }
    },
    "version": 1
  },
  "userdoc": {
    "kind": "user",
    "methods": {},
    "version": 1
  }
}