{
  "contractName": "Pixels",
  "abi": [
    {
      "inputs": [
        {
          "internalType": "string",
          "name": "baseURI_",
          "type": "string"
        }
      ],
      "stateMutability": "nonpayable",
      "type": "constructor"
    },
    {
      "anonymous": false,
      "inputs": [
        {
          "indexed": true,
          "internalType": "address",
          "name": "owner",
          "type": "address"
        },
        {
          "indexed": true,
          "internalType": "address",
          "name": "approved",
          "type": "address"
        },
        {
          "indexed": true,
          "internalType": "uint256",
          "name": "tokenId",
          "type": "uint256"
        }
      ],
      "name": "Approval",
      "type": "event"
    },
    {
      "anonymous": false,
      "inputs": [
        {
          "indexed": true,
          "internalType": "address",
          "name": "owner",
          "type": "address"
        },
        {
          "indexed": true,
          "internalType": "address",
          "name": "operator",
          "type": "address"
        },
        {
          "indexed": false,
          "internalType": "bool",
          "name": "approved",
          "type": "bool"
        }
      ],
      "name": "ApprovalForAll",
      "type": "event"
    },
    {
      "anonymous": false,
      "inputs": [
        {
          "indexed": true,
          "internalType": "address",
          "name": "previousOwner",
          "type": "address"
        },
        {
          "indexed": true,
          "internalType": "address",
          "name": "newOwner",
          "type": "address"
        }
      ],
      "name": "OwnershipTransferred",
      "type": "event"
    },
    {
      "anonymous": false,
      "inputs": [
        {
          "indexed": false,
          "internalType": "address",
          "name": "owner",
          "type": "address"
        },
        {
          "indexed": false,
          "internalType": "bytes3",
          "name": "newColour",
          "type": "bytes3"
        },
        {
          "indexed": false,
          "internalType": "uint256",
          "name": "pixelId",
          "type": "uint256"
        }
      ],
      "name": "PixelColourChanged",
      "type": "event"
    },
    {
      "anonymous": false,
      "inputs": [
        {
          "indexed": false,
          "internalType": "uint256",
          "name": "date",
          "type": "uint256"
        },
        {
          "indexed": true,
          "internalType": "address",
          "name": "to",
          "type": "address"
        },
        {
          "indexed": false,
          "internalType": "uint256",
          "name": "pixelId",
          "type": "uint256"
        }
      ],
      "name": "PixelMinted",
      "type": "event"
    },
    {
      "anonymous": false,
      "inputs": [
        {
          "indexed": true,
          "internalType": "address",
          "name": "from",
          "type": "address"
        },
        {
          "indexed": true,
          "internalType": "address",
          "name": "to",
          "type": "address"
        },
        {
          "indexed": true,
          "internalType": "uint256",
          "name": "tokenId",
          "type": "uint256"
        }
      ],
      "name": "Transfer",
      "type": "event"
    },
    {
      "inputs": [],
      "name": "_gridsize",
      "outputs": [
        {
          "internalType": "uint256",
          "name": "",
          "type": "uint256"
        }
      ],
      "stateMutability": "view",
      "type": "function",
      "constant": true
    },
    {
      "inputs": [
        {
          "internalType": "uint256",
          "name": "",
          "type": "uint256"
        }
      ],
      "name": "_pixelColours",
      "outputs": [
        {
          "internalType": "bytes3",
          "name": "",
          "type": "bytes3"
        }
      ],
      "stateMutability": "view",
      "type": "function",
      "constant": true
    },
    {
      "inputs": [
        {
          "internalType": "uint256",
          "name": "",
          "type": "uint256"
        }
      ],
      "name": "_pixelOwned",
      "outputs": [
        {
          "internalType": "bool",
          "name": "",
          "type": "bool"
        }
      ],
      "stateMutability": "view",
      "type": "function",
      "constant": true
    },
    {
      "inputs": [],
      "name": "_pixelPrice",
      "outputs": [
        {
          "internalType": "uint256",
          "name": "",
          "type": "uint256"
        }
      ],
      "stateMutability": "view",
      "type": "function",
      "constant": true
    },
    {
      "inputs": [],
      "name": "_totalPixels",
      "outputs": [
        {
          "internalType": "uint256",
          "name": "",
          "type": "uint256"
        }
      ],
      "stateMutability": "view",
      "type": "function",
      "constant": true
    },
    {
      "inputs": [
        {
          "internalType": "address",
          "name": "to",
          "type": "address"
        },
        {
          "internalType": "uint256",
          "name": "tokenId",
          "type": "uint256"
        }
      ],
      "name": "approve",
      "outputs": [],
      "stateMutability": "nonpayable",
      "type": "function"
    },
    {
      "inputs": [
        {
          "internalType": "address",
          "name": "owner",
          "type": "address"
        }
      ],
      "name": "balanceOf",
      "outputs": [
        {
          "internalType": "uint256",
          "name": "",
          "type": "uint256"
        }
      ],
      "stateMutability": "view",
      "type": "function",
      "constant": true
    },
    {
      "inputs": [
        {
          "internalType": "uint256",
          "name": "tokenId",
          "type": "uint256"
        }
      ],
      "name": "getApproved",
      "outputs": [
        {
          "internalType": "address",
          "name": "",
          "type": "address"
        }
      ],
      "stateMutability": "view",
      "type": "function",
      "constant": true
    },
    {
      "inputs": [
        {
          "internalType": "address",
          "name": "owner",
          "type": "address"
        },
        {
          "internalType": "address",
          "name": "operator",
          "type": "address"
        }
      ],
      "name": "isApprovedForAll",
      "outputs": [
        {
          "internalType": "bool",
          "name": "",
          "type": "bool"
        }
      ],
      "stateMutability": "view",
      "type": "function",
      "constant": true
    },
    {
      "inputs": [],
      "name": "name",
      "outputs": [
        {
          "internalType": "string",
          "name": "",
          "type": "string"
        }
      ],
      "stateMutability": "view",
      "type": "function",
      "constant": true
    },
    {
      "inputs": [],
      "name": "owner",
      "outputs": [
        {
          "internalType": "address",
          "name": "",
          "type": "address"
        }
      ],
      "stateMutability": "view",
      "type": "function",
      "constant": true
    },
    {
      "inputs": [
        {
          "internalType": "uint256",
          "name": "tokenId",
          "type": "uint256"
        }
      ],
      "name": "ownerOf",
      "outputs": [
        {
          "internalType": "address",
          "name": "",
          "type": "address"
        }
      ],
      "stateMutability": "view",
      "type": "function",
      "constant": true
    },
    {
      "inputs": [],
      "name": "renounceOwnership",
      "outputs": [],
      "stateMutability": "nonpayable",
      "type": "function"
    },
    {
      "inputs": [
        {
          "internalType": "address",
          "name": "from",
          "type": "address"
        },
        {
          "internalType": "address",
          "name": "to",
          "type": "address"
        },
        {
          "internalType": "uint256",
          "name": "tokenId",
          "type": "uint256"
        }
      ],
      "name": "safeTransferFrom",
      "outputs": [],
      "stateMutability": "nonpayable",
      "type": "function"
    },
    {
      "inputs": [
        {
          "internalType": "address",
          "name": "from",
          "type": "address"
        },
        {
          "internalType": "address",
          "name": "to",
          "type": "address"
        },
        {
          "internalType": "uint256",
          "name": "tokenId",
          "type": "uint256"
        },
        {
          "internalType": "bytes",
          "name": "_data",
          "type": "bytes"
        }
      ],
      "name": "safeTransferFrom",
      "outputs": [],
      "stateMutability": "nonpayable",
      "type": "function"
    },
    {
      "inputs": [
        {
          "internalType": "address",
          "name": "operator",
          "type": "address"
        },
        {
          "internalType": "bool",
          "name": "approved",
          "type": "bool"
        }
      ],
      "name": "setApprovalForAll",
      "outputs": [],
      "stateMutability": "nonpayable",
      "type": "function"
    },
    {
      "inputs": [
        {
          "internalType": "bytes4",
          "name": "interfaceId",
          "type": "bytes4"
        }
      ],
      "name": "supportsInterface",
      "outputs": [
        {
          "internalType": "bool",
          "name": "",
          "type": "bool"
        }
      ],
      "stateMutability": "view",
      "type": "function",
      "constant": true
    },
    {
      "inputs": [],
      "name": "symbol",
      "outputs": [
        {
          "internalType": "string",
          "name": "",
          "type": "string"
        }
      ],
      "stateMutability": "view",
      "type": "function",
      "constant": true
    },
    {
      "inputs": [
        {
          "internalType": "uint256",
          "name": "tokenId",
          "type": "uint256"
        }
      ],
      "name": "tokenURI",
      "outputs": [
        {
          "internalType": "string",
          "name": "",
          "type": "string"
        }
      ],
      "stateMutability": "view",
      "type": "function",
      "constant": true
    },
    {
      "inputs": [
        {
          "internalType": "address",
          "name": "from",
          "type": "address"
        },
        {
          "internalType": "address",
          "name": "to",
          "type": "address"
        },
        {
          "internalType": "uint256",
          "name": "tokenId",
          "type": "uint256"
        }
      ],
      "name": "transferFrom",
      "outputs": [],
      "stateMutability": "nonpayable",
      "type": "function"
    },
    {
      "inputs": [
        {
          "internalType": "address",
          "name": "newOwner",
          "type": "address"
        }
      ],
      "name": "transferOwnership",
      "outputs": [],
      "stateMutability": "nonpayable",
      "type": "function"
    },
    {
      "inputs": [
        {
          "internalType": "uint256",
          "name": "_newPrice",
          "type": "uint256"
        }
      ],
      "name": "setTokenPrice",
      "outputs": [],
      "stateMutability": "nonpayable",
      "type": "function"
    },
    {
      "inputs": [
        {
          "internalType": "uint256",
          "name": "_pixelId",
          "type": "uint256"
        }
      ],
      "name": "mint",
      "outputs": [],
      "stateMutability": "payable",
      "type": "function",
      "payable": true
    },
    {
      "inputs": [
        {
          "internalType": "uint256",
          "name": "_pixelId",
          "type": "uint256"
        },
        {
          "internalType": "bytes3",
          "name": "_newColour",
          "type": "bytes3"
        }
      ],
      "name": "mint",
      "outputs": [],
      "stateMutability": "payable",
      "type": "function",
      "payable": true
    },
    {
      "inputs": [
        {
          "internalType": "uint256[]",
          "name": "_pixelIds",
          "type": "uint256[]"
        },
        {
          "internalType": "bytes3[]",
          "name": "_newColours",
          "type": "bytes3[]"
        }
      ],
      "name": "mintMultiple",
      "outputs": [],
      "stateMutability": "payable",
      "type": "function",
      "payable": true
    },
    {
      "inputs": [],
      "name": "getBalance",
      "outputs": [
        {
          "internalType": "uint256",
          "name": "",
          "type": "uint256"
        }
      ],
      "stateMutability": "view",
      "type": "function",
      "constant": true
    },
    {
      "inputs": [
        {
          "internalType": "uint256",
          "name": "amount",
          "type": "uint256"
        }
      ],
      "name": "withdrawAmount",
      "outputs": [],
      "stateMutability": "nonpayable",
      "type": "function"
    },
    {
      "inputs": [
        {
          "internalType": "uint256",
          "name": "_pixelId",
          "type": "uint256"
        },
        {
          "internalType": "bytes3",
          "name": "_newColour",
          "type": "bytes3"
        }
      ],
      "name": "changePixelColour",
      "outputs": [],
      "stateMutability": "nonpayable",
      "type": "function"
    },
    {
      "inputs": [
        {
          "internalType": "uint256[]",
          "name": "_pixelIds",
          "type": "uint256[]"
        },
        {
          "internalType": "bytes3[]",
          "name": "_newColours",
          "type": "bytes3[]"
        }
      ],
      "name": "changePixelColourMultiple",
      "outputs": [],
      "stateMutability": "nonpayable",
      "type": "function"
    },
    {
      "inputs": [
        {
          "internalType": "uint256",
          "name": "_pixelId",
          "type": "uint256"
        }
      ],
      "name": "getPixelColour",
      "outputs": [
        {
          "internalType": "bytes3",
          "name": "",
          "type": "bytes3"
        }
      ],
      "stateMutability": "view",
      "type": "function",
      "constant": true
    },
    {
      "inputs": [
        {
          "internalType": "uint256",
          "name": "_pixelId",
          "type": "uint256"
        }
      ],
      "name": "isPixelOwned",
      "outputs": [
        {
          "internalType": "bool",
          "name": "",
          "type": "bool"
        }
      ],
      "stateMutability": "view",
      "type": "function",
      "constant": true
    },
    {
      "inputs": [
        {
          "internalType": "string",
          "name": "baseURI_",
          "type": "string"
        }
      ],
      "name": "setBaseURI",
      "outputs": [],
      "stateMutability": "nonpayable",
      "type": "function"
    }
  ],
  "bytecode": "0x60806040526103e86007556007546007546200001c9190620002f5565b60085567058d15e1762800006009553480156200003857600080fd5b50604051620045b2380380620045b283398181016040528101906200005e9190620004f3565b6040518060400160405280600681526020017f506978656c7300000000000000000000000000000000000000000000000000008152506040518060400160405280600381526020017f50495800000000000000000000000000000000000000000000000000000000008152508160009080519060200190620000e29291906200020c565b508060019080519060200190620000fb9291906200020c565b5050506200011e620001126200013e60201b60201c565b6200014660201b60201c565b80600a9080519060200190620001369291906200020c565b5050620005a9565b600033905090565b6000600660009054906101000a900473ffffffffffffffffffffffffffffffffffffffff16905081600660006101000a81548173ffffffffffffffffffffffffffffffffffffffff021916908373ffffffffffffffffffffffffffffffffffffffff1602179055508173ffffffffffffffffffffffffffffffffffffffff168173ffffffffffffffffffffffffffffffffffffffff167f8be0079c531659141344cd1fd0a4f28419497f9722a3daafe3b4186f6b6457e060405160405180910390a35050565b8280546200021a9062000573565b90600052602060002090601f0160209004810192826200023e57600085556200028a565b82601f106200025957805160ff19168380011785556200028a565b828001600101855582156200028a579182015b82811115620002895782518255916020019190600101906200026c565b5b5090506200029991906200029d565b5090565b5b80821115620002b85760008160009055506001016200029e565b5090565b6000819050919050565b7f4e487b7100000000000000000000000000000000000000000000000000000000600052601160045260246000fd5b60006200030282620002bc565b91506200030f83620002bc565b9250817fffffffffffffffffffffffffffffffffffffffffffffffffffffffffffffffff04831182151516156200034b576200034a620002c6565b5b828202905092915050565b6000604051905090565b600080fd5b600080fd5b600080fd5b600080fd5b6000601f19601f8301169050919050565b7f4e487b7100000000000000000000000000000000000000000000000000000000600052604160045260246000fd5b620003bf8262000374565b810181811067ffffffffffffffff82111715620003e157620003e062000385565b5b80604052505050565b6000620003f662000356565b9050620004048282620003b4565b919050565b600067ffffffffffffffff82111562000427576200042662000385565b5b620004328262000374565b9050602081019050919050565b60005b838110156200045f57808201518184015260208101905062000442565b838111156200046f576000848401525b50505050565b60006200048c620004868462000409565b620003ea565b905082815260208101848484011115620004ab57620004aa6200036f565b5b620004b88482856200043f565b509392505050565b600082601f830112620004d857620004d76200036a565b5b8151620004ea84826020860162000475565b91505092915050565b6000602082840312156200050c576200050b62000360565b5b600082015167ffffffffffffffff8111156200052d576200052c62000365565b5b6200053b84828501620004c0565b91505092915050565b7f4e487b7100000000000000000000000000000000000000000000000000000000600052602260045260246000fd5b600060028204905060018216806200058c57607f821691505b60208210811415620005a357620005a262000544565b5b50919050565b613ff980620005b96000396000f3fe6080604052600436106101e35760003560e01c80638da5cb5b11610102578063c87b56dd11610095578063f0dad05d11610064578063f0dad05d1461070a578063f2fde38b14610726578063f5adb59a1461074f578063fff4ca9c1461077a576101e3565b8063c87b56dd14610637578063d280160014610674578063e1614e1514610690578063e985e9c5146106cd576101e3565b8063a22cb465116100d1578063a22cb46514610591578063a7a08f89146105ba578063afccaf65146105e3578063b88d4fde1461060e576101e3565b80638da5cb5b146104e257806395d89b411461050d5780639631cb3414610538578063a0712d6814610575576101e3565b80632925f0291161017a578063642fd0f611610149578063642fd0f6146104285780636a61e5fc1461046557806370a082311461048e578063715018a6146104cb576101e3565b80632925f0291461037057806342842e0e1461039957806355f804b3146103c25780636352211e146103eb576101e3565b8063095ea7b3116101b6578063095ea7b3146102b657806312065fe0146102df5780631aec1f151461030a57806323b872dd14610347576101e3565b806301ffc9a7146101e85780630562b9f71461022557806306fdde031461024e578063081812fc14610279575b600080fd5b3480156101f457600080fd5b5061020f600480360381019061020a9190612721565b6107a5565b60405161021c9190612769565b60405180910390f35b34801561023157600080fd5b5061024c600480360381019061024791906127ba565b610887565b005b34801561025a57600080fd5b50610263610997565b6040516102709190612880565b60405180910390f35b34801561028557600080fd5b506102a0600480360381019061029b91906127ba565b610a29565b6040516102ad91906128e3565b60405180910390f35b3480156102c257600080fd5b506102dd60048036038101906102d8919061292a565b610aae565b005b3480156102eb57600080fd5b506102f4610bc6565b6040516103019190612979565b60405180910390f35b34801561031657600080fd5b50610331600480360381019061032c91906127ba565b610bce565b60405161033e91906129cf565b60405180910390f35b34801561035357600080fd5b5061036e600480360381019061036991906129ea565b610bee565b005b34801561037c57600080fd5b5061039760048036038101906103929190612c74565b610c4e565b005b3480156103a557600080fd5b506103c060048036038101906103bb91906129ea565b610cf4565b005b3480156103ce57600080fd5b506103e960048036038101906103e49190612da1565b610d14565b005b3480156103f757600080fd5b50610412600480360381019061040d91906127ba565b610daa565b60405161041f91906128e3565b60405180910390f35b34801561043457600080fd5b5061044f600480360381019061044a91906127ba565b610e5c565b60405161045c91906129cf565b60405180910390f35b34801561047157600080fd5b5061048c600480360381019061048791906127ba565b610efd565b005b34801561049a57600080fd5b506104b560048036038101906104b09190612dea565b610f83565b6040516104c29190612979565b60405180910390f35b3480156104d757600080fd5b506104e061103b565b005b3480156104ee57600080fd5b506104f76110c3565b60405161050491906128e3565b60405180910390f35b34801561051957600080fd5b506105226110ed565b60405161052f9190612880565b60405180910390f35b34801561054457600080fd5b5061055f600480360381019061055a91906127ba565b61117f565b60405161056c9190612769565b60405180910390f35b61058f600480360381019061058a91906127ba565b6111ed565b005b34801561059d57600080fd5b506105b860048036038101906105b39190612e43565b611200565b005b3480156105c657600080fd5b506105e160048036038101906105dc9190612e83565b611216565b005b3480156105ef57600080fd5b506105f861133d565b6040516106059190612979565b60405180910390f35b34801561061a57600080fd5b5061063560048036038101906106309190612f64565b611343565b005b34801561064357600080fd5b5061065e600480360381019061065991906127ba565b6113a5565b60405161066b9190612880565b60405180910390f35b61068e60048036038101906106899190612c74565b61144c565b005b34801561069c57600080fd5b506106b760048036038101906106b291906127ba565b611543565b6040516106c49190612769565b60405180910390f35b3480156106d957600080fd5b506106f460048036038101906106ef9190612fe7565b611563565b6040516107019190612769565b60405180910390f35b610724600480360381019061071f9190612e83565b6115f7565b005b34801561073257600080fd5b5061074d60048036038101906107489190612dea565b6117d4565b005b34801561075b57600080fd5b506107646118cc565b6040516107719190612979565b60405180910390f35b34801561078657600080fd5b5061078f6118d2565b60405161079c9190612979565b60405180910390f35b60007f80ac58cd000000000000000000000000000000000000000000000000000000007bffffffffffffffffffffffffffffffffffffffffffffffffffffffff1916827bffffffffffffffffffffffffffffffffffffffffffffffffffffffff1916148061087057507f5b5e139f000000000000000000000000000000000000000000000000000000007bffffffffffffffffffffffffffffffffffffffffffffffffffffffff1916827bffffffffffffffffffffffffffffffffffffffffffffffffffffffff1916145b80610880575061087f826118d8565b5b9050919050565b61088f611942565b73ffffffffffffffffffffffffffffffffffffffff166108ad6110c3565b73ffffffffffffffffffffffffffffffffffffffff1614610903576040517f08c379a00000000000000000000000000000000000000000000000000000000081526004016108fa90613073565b60405180910390fd5b61090b610bc6565b81111561094d576040517f08c379a0000000000000000000000000000000000000000000000000000000008152600401610944906130df565b60405180910390fd5b3373ffffffffffffffffffffffffffffffffffffffff166108fc829081150290604051600060405180830381858888f19350505050158015610993573d6000803e3d6000fd5b5050565b6060600080546109a69061312e565b80601f01602080910402602001604051908101604052809291908181526020018280546109d29061312e565b8015610a1f5780601f106109f457610100808354040283529160200191610a1f565b820191906000526020600020905b815481529060010190602001808311610a0257829003601f168201915b5050505050905090565b6000610a348261194a565b610a73576040517f08c379a0000000000000000000000000000000000000000000000000000000008152600401610a6a906131d2565b60405180910390fd5b6004600083815260200190815260200160002060009054906101000a900473ffffffffffffffffffffffffffffffffffffffff169050919050565b6000610ab982610daa565b90508073ffffffffffffffffffffffffffffffffffffffff168373ffffffffffffffffffffffffffffffffffffffff161415610b2a576040517f08c379a0000000000000000000000000000000000000000000000000000000008152600401610b2190613264565b60405180910390fd5b8073ffffffffffffffffffffffffffffffffffffffff16610b49611942565b73ffffffffffffffffffffffffffffffffffffffff161480610b785750610b7781610b72611942565b611563565b5b610bb7576040517f08c379a0000000000000000000000000000000000000000000000000000000008152600401610bae906132f6565b60405180910390fd5b610bc183836119b6565b505050565b600047905090565b600b6020528060005260406000206000915054906101000a900460e81b81565b610bff610bf9611942565b82611a6f565b610c3e576040517f08c379a0000000000000000000000000000000000000000000000000000000008152600401610c3590613388565b60405180910390fd5b610c49838383611b4d565b505050565b8051825114610c92576040517f08c379a0000000000000000000000000000000000000000000000000000000008152600401610c89906133f4565b60405180910390fd5b60005b8251811015610cef57610cdc838281518110610cb457610cb3613414565b5b6020026020010151838381518110610ccf57610cce613414565b5b6020026020010151611216565b8080610ce790613472565b915050610c95565b505050565b610d0f83838360405180602001604052806000815250611343565b505050565b610d1c611942565b73ffffffffffffffffffffffffffffffffffffffff16610d3a6110c3565b73ffffffffffffffffffffffffffffffffffffffff1614610d90576040517f08c379a0000000000000000000000000000000000000000000000000000000008152600401610d8790613073565b60405180910390fd5b80600a9080519060200190610da6929190612612565b5050565b6000806002600084815260200190815260200160002060009054906101000a900473ffffffffffffffffffffffffffffffffffffffff169050600073ffffffffffffffffffffffffffffffffffffffff168173ffffffffffffffffffffffffffffffffffffffff161415610e53576040517f08c379a0000000000000000000000000000000000000000000000000000000008152600401610e4a9061352d565b60405180910390fd5b80915050919050565b60006008548210610ea2576040517f08c379a0000000000000000000000000000000000000000000000000000000008152600401610e9990613599565b60405180910390fd5b600c600083815260200190815260200160002060009054906101000a900460ff1615610ef057600b600083815260200190815260200160002060009054906101000a900460e81b9050610ef8565b600160e81b90505b919050565b610f05611942565b73ffffffffffffffffffffffffffffffffffffffff16610f236110c3565b73ffffffffffffffffffffffffffffffffffffffff1614610f79576040517f08c379a0000000000000000000000000000000000000000000000000000000008152600401610f7090613073565b60405180910390fd5b8060098190555050565b60008073ffffffffffffffffffffffffffffffffffffffff168273ffffffffffffffffffffffffffffffffffffffff161415610ff4576040517f08c379a0000000000000000000000000000000000000000000000000000000008152600401610feb9061362b565b60405180910390fd5b600360008373ffffffffffffffffffffffffffffffffffffffff1673ffffffffffffffffffffffffffffffffffffffff168152602001908152602001600020549050919050565b611043611942565b73ffffffffffffffffffffffffffffffffffffffff166110616110c3565b73ffffffffffffffffffffffffffffffffffffffff16146110b7576040517f08c379a00000000000000000000000000000000000000000000000000000000081526004016110ae90613073565b60405180910390fd5b6110c16000611da9565b565b6000600660009054906101000a900473ffffffffffffffffffffffffffffffffffffffff16905090565b6060600180546110fc9061312e565b80601f01602080910402602001604051908101604052809291908181526020018280546111289061312e565b80156111755780601f1061114a57610100808354040283529160200191611175565b820191906000526020600020905b81548152906001019060200180831161115857829003601f168201915b5050505050905090565b600060085482106111c5576040517f08c379a00000000000000000000000000000000000000000000000000000000081526004016111bc90613599565b60405180910390fd5b600c600083815260200190815260200160002060009054906101000a900460ff169050919050565b6111fd816211111160e81b6115f7565b50565b61121261120b611942565b8383611e6f565b5050565b600854821061125a576040517f08c379a000000000000000000000000000000000000000000000000000000000815260040161125190613599565b60405180910390fd5b3373ffffffffffffffffffffffffffffffffffffffff1661127a83610daa565b73ffffffffffffffffffffffffffffffffffffffff16146112d0576040517f08c379a00000000000000000000000000000000000000000000000000000000081526004016112c790613697565b60405180910390fd5b80600b600084815260200190815260200160002060006101000a81548162ffffff021916908360e81c02179055507f98a0e7ec1b61c69699ea733cf97ede142a1217dc2a8f2f64849d93689652ce1c338284604051611331939291906136b7565b60405180910390a15050565b60095481565b61135461134e611942565b83611a6f565b611393576040517f08c379a000000000000000000000000000000000000000000000000000000000815260040161138a90613388565b60405180910390fd5b61139f84848484611fdc565b50505050565b60606113b08261194a565b6113ef576040517f08c379a00000000000000000000000000000000000000000000000000000000081526004016113e690613760565b60405180910390fd5b60006113f9612038565b905060008151116114195760405180602001604052806000815250611444565b80611423846120ca565b6040516020016114349291906137bc565b6040516020818303038152906040525b915050919050565b600954825161145b91906137e0565b34101561149d576040517f08c379a000000000000000000000000000000000000000000000000000000000815260040161149490613886565b60405180910390fd5b80518251146114e1576040517f08c379a00000000000000000000000000000000000000000000000000000000081526004016114d8906133f4565b60405180910390fd5b60005b825181101561153e5761152b83828151811061150357611502613414565b5b602002602001015183838151811061151e5761151d613414565b5b60200260200101516115f7565b808061153690613472565b9150506114e4565b505050565b600c6020528060005260406000206000915054906101000a900460ff1681565b6000600560008473ffffffffffffffffffffffffffffffffffffffff1673ffffffffffffffffffffffffffffffffffffffff16815260200190815260200160002060008373ffffffffffffffffffffffffffffffffffffffff1673ffffffffffffffffffffffffffffffffffffffff16815260200190815260200160002060009054906101000a900460ff16905092915050565b600c600083815260200190815260200160002060009054906101000a900460ff1615611658576040517f08c379a000000000000000000000000000000000000000000000000000000000815260040161164f906138f2565b60405180910390fd5b600854821061169c576040517f08c379a00000000000000000000000000000000000000000000000000000000081526004016116939061395e565b60405180910390fd5b6009543410156116e1576040517f08c379a00000000000000000000000000000000000000000000000000000000081526004016116d890613886565b60405180910390fd5b6001600c600084815260200190815260200160002060006101000a81548160ff02191690831515021790555080600b600084815260200190815260200160002060006101000a81548162ffffff021916908360e81c0217905550611745338361222b565b3373ffffffffffffffffffffffffffffffffffffffff167fa3c5a07f63c391102daa3f8b260023afa2b5a1976a137e50be84de2c5763ae72428460405161178d92919061397e565b60405180910390a27f98a0e7ec1b61c69699ea733cf97ede142a1217dc2a8f2f64849d93689652ce1c3382846040516117c8939291906136b7565b60405180910390a15050565b6117dc611942565b73ffffffffffffffffffffffffffffffffffffffff166117fa6110c3565b73ffffffffffffffffffffffffffffffffffffffff1614611850576040517f08c379a000000000000000000000000000000000000000000000000000000000815260040161184790613073565b60405180910390fd5b600073ffffffffffffffffffffffffffffffffffffffff168173ffffffffffffffffffffffffffffffffffffffff1614156118c0576040517f08c379a00000000000000000000000000000000000000000000000000000000081526004016118b790613a19565b60405180910390fd5b6118c981611da9565b50565b60075481565b60085481565b60007f01ffc9a7000000000000000000000000000000000000000000000000000000007bffffffffffffffffffffffffffffffffffffffffffffffffffffffff1916827bffffffffffffffffffffffffffffffffffffffffffffffffffffffff1916149050919050565b600033905090565b60008073ffffffffffffffffffffffffffffffffffffffff166002600084815260200190815260200160002060009054906101000a900473ffffffffffffffffffffffffffffffffffffffff1673ffffffffffffffffffffffffffffffffffffffff1614159050919050565b816004600083815260200190815260200160002060006101000a81548173ffffffffffffffffffffffffffffffffffffffff021916908373ffffffffffffffffffffffffffffffffffffffff160217905550808273ffffffffffffffffffffffffffffffffffffffff16611a2983610daa565b73ffffffffffffffffffffffffffffffffffffffff167f8c5be1e5ebec7d5bd14f71427d1e84f3dd0314c0f7b2291e5b200ac8c7c3b92560405160405180910390a45050565b6000611a7a8261194a565b611ab9576040517f08c379a0000000000000000000000000000000000000000000000000000000008152600401611ab090613aab565b60405180910390fd5b6000611ac483610daa565b90508073ffffffffffffffffffffffffffffffffffffffff168473ffffffffffffffffffffffffffffffffffffffff161480611b3357508373ffffffffffffffffffffffffffffffffffffffff16611b1b84610a29565b73ffffffffffffffffffffffffffffffffffffffff16145b80611b445750611b438185611563565b5b91505092915050565b8273ffffffffffffffffffffffffffffffffffffffff16611b6d82610daa565b73ffffffffffffffffffffffffffffffffffffffff1614611bc3576040517f08c379a0000000000000000000000000000000000000000000000000000000008152600401611bba90613b3d565b60405180910390fd5b600073ffffffffffffffffffffffffffffffffffffffff168273ffffffffffffffffffffffffffffffffffffffff161415611c33576040517f08c379a0000000000000000000000000000000000000000000000000000000008152600401611c2a90613bcf565b60405180910390fd5b611c3e838383612249565b611c496000826119b6565b6001600360008573ffffffffffffffffffffffffffffffffffffffff1673ffffffffffffffffffffffffffffffffffffffff1681526020019081526020016000206000828254611c999190613bef565b925050819055506001600360008473ffffffffffffffffffffffffffffffffffffffff1673ffffffffffffffffffffffffffffffffffffffff1681526020019081526020016000206000828254611cf09190613c23565b92505081905550816002600083815260200190815260200160002060006101000a81548173ffffffffffffffffffffffffffffffffffffffff021916908373ffffffffffffffffffffffffffffffffffffffff160217905550808273ffffffffffffffffffffffffffffffffffffffff168473ffffffffffffffffffffffffffffffffffffffff167fddf252ad1be2c89b69c2b068fc378daa952ba7f163c4a11628f55a4df523b3ef60405160405180910390a4505050565b6000600660009054906101000a900473ffffffffffffffffffffffffffffffffffffffff16905081600660006101000a81548173ffffffffffffffffffffffffffffffffffffffff021916908373ffffffffffffffffffffffffffffffffffffffff1602179055508173ffffffffffffffffffffffffffffffffffffffff168173ffffffffffffffffffffffffffffffffffffffff167f8be0079c531659141344cd1fd0a4f28419497f9722a3daafe3b4186f6b6457e060405160405180910390a35050565b8173ffffffffffffffffffffffffffffffffffffffff168373ffffffffffffffffffffffffffffffffffffffff161415611ede576040517f08c379a0000000000000000000000000000000000000000000000000000000008152600401611ed590613cc5565b60405180910390fd5b80600560008573ffffffffffffffffffffffffffffffffffffffff1673ffffffffffffffffffffffffffffffffffffffff16815260200190815260200160002060008473ffffffffffffffffffffffffffffffffffffffff1673ffffffffffffffffffffffffffffffffffffffff16815260200190815260200160002060006101000a81548160ff0219169083151502179055508173ffffffffffffffffffffffffffffffffffffffff168373ffffffffffffffffffffffffffffffffffffffff167f17307eab39ab6107e8899845ad3d59bd9653f200f220920489ca2b5937696c3183604051611fcf9190612769565b60405180910390a3505050565b611fe7848484611b4d565b611ff38484848461224e565b612032576040517f08c379a000000000000000000000000000000000000000000000000000000000815260040161202990613d57565b60405180910390fd5b50505050565b6060600a80546120479061312e565b80601f01602080910402602001604051908101604052809291908181526020018280546120739061312e565b80156120c05780601f10612095576101008083540402835291602001916120c0565b820191906000526020600020905b8154815290600101906020018083116120a357829003601f168201915b5050505050905090565b60606000821415612112576040518060400160405280600181526020017f30000000000000000000000000000000000000000000000000000000000000008152509050612226565b600082905060005b6000821461214457808061212d90613472565b915050600a8261213d9190613da6565b915061211a565b60008167ffffffffffffffff8111156121605761215f612a42565b5b6040519080825280601f01601f1916602001820160405280156121925781602001600182028036833780820191505090505b5090505b6000851461221f576001826121ab9190613bef565b9150600a856121ba9190613dd7565b60306121c69190613c23565b60f81b8183815181106121dc576121db613414565b5b60200101907effffffffffffffffffffffffffffffffffffffffffffffffffffffffffffff1916908160001a905350600a856122189190613da6565b9450612196565b8093505050505b919050565b6122458282604051806020016040528060008152506123d6565b5050565b505050565b600061226f8473ffffffffffffffffffffffffffffffffffffffff16612431565b156123c9578373ffffffffffffffffffffffffffffffffffffffff1663150b7a02612298611942565b8786866040518563ffffffff1660e01b81526004016122ba9493929190613e5d565b6020604051808303816000875af19250505080156122f657506040513d601f19601f820116820180604052508101906122f39190613ebe565b60015b612379573d8060008114612326576040519150601f19603f3d011682016040523d82523d6000602084013e61232b565b606091505b50600081511415612371576040517f08c379a000000000000000000000000000000000000000000000000000000000815260040161236890613d57565b60405180910390fd5b805181602001fd5b63150b7a0260e01b7bffffffffffffffffffffffffffffffffffffffffffffffffffffffff1916817bffffffffffffffffffffffffffffffffffffffffffffffffffffffff1916149150506123ce565b600190505b949350505050565b6123e08383612444565b6123ed600084848461224e565b61242c576040517f08c379a000000000000000000000000000000000000000000000000000000000815260040161242390613d57565b60405180910390fd5b505050565b600080823b905060008111915050919050565b600073ffffffffffffffffffffffffffffffffffffffff168273ffffffffffffffffffffffffffffffffffffffff1614156124b4576040517f08c379a00000000000000000000000000000000000000000000000000000000081526004016124ab90613f37565b60405180910390fd5b6124bd8161194a565b156124fd576040517f08c379a00000000000000000000000000000000000000000000000000000000081526004016124f490613fa3565b60405180910390fd5b61250960008383612249565b6001600360008473ffffffffffffffffffffffffffffffffffffffff1673ffffffffffffffffffffffffffffffffffffffff16815260200190815260200160002060008282546125599190613c23565b92505081905550816002600083815260200190815260200160002060006101000a81548173ffffffffffffffffffffffffffffffffffffffff021916908373ffffffffffffffffffffffffffffffffffffffff160217905550808273ffffffffffffffffffffffffffffffffffffffff16600073ffffffffffffffffffffffffffffffffffffffff167fddf252ad1be2c89b69c2b068fc378daa952ba7f163c4a11628f55a4df523b3ef60405160405180910390a45050565b82805461261e9061312e565b90600052602060002090601f0160209004810192826126405760008555612687565b82601f1061265957805160ff1916838001178555612687565b82800160010185558215612687579182015b8281111561268657825182559160200191906001019061266b565b5b5090506126949190612698565b5090565b5b808211156126b1576000816000905550600101612699565b5090565b6000604051905090565b600080fd5b600080fd5b60007fffffffff0000000000000000000000000000000000000000000000000000000082169050919050565b6126fe816126c9565b811461270957600080fd5b50565b60008135905061271b816126f5565b92915050565b600060208284031215612737576127366126bf565b5b60006127458482850161270c565b91505092915050565b60008115159050919050565b6127638161274e565b82525050565b600060208201905061277e600083018461275a565b92915050565b6000819050919050565b61279781612784565b81146127a257600080fd5b50565b6000813590506127b48161278e565b92915050565b6000602082840312156127d0576127cf6126bf565b5b60006127de848285016127a5565b91505092915050565b600081519050919050565b600082825260208201905092915050565b60005b83811015612821578082015181840152602081019050612806565b83811115612830576000848401525b50505050565b6000601f19601f8301169050919050565b6000612852826127e7565b61285c81856127f2565b935061286c818560208601612803565b61287581612836565b840191505092915050565b6000602082019050818103600083015261289a8184612847565b905092915050565b600073ffffffffffffffffffffffffffffffffffffffff82169050919050565b60006128cd826128a2565b9050919050565b6128dd816128c2565b82525050565b60006020820190506128f860008301846128d4565b92915050565b612907816128c2565b811461291257600080fd5b50565b600081359050612924816128fe565b92915050565b60008060408385031215612941576129406126bf565b5b600061294f85828601612915565b9250506020612960858286016127a5565b9150509250929050565b61297381612784565b82525050565b600060208201905061298e600083018461296a565b92915050565b60007fffffff000000000000000000000000000000000000000000000000000000000082169050919050565b6129c981612994565b82525050565b60006020820190506129e460008301846129c0565b92915050565b600080600060608486031215612a0357612a026126bf565b5b6000612a1186828701612915565b9350506020612a2286828701612915565b9250506040612a33868287016127a5565b9150509250925092565b600080fd5b7f4e487b7100000000000000000000000000000000000000000000000000000000600052604160045260246000fd5b612a7a82612836565b810181811067ffffffffffffffff82111715612a9957612a98612a42565b5b80604052505050565b6000612aac6126b5565b9050612ab88282612a71565b919050565b600067ffffffffffffffff821115612ad857612ad7612a42565b5b602082029050602081019050919050565b600080fd5b6000612b01612afc84612abd565b612aa2565b90508083825260208201905060208402830185811115612b2457612b23612ae9565b5b835b81811015612b4d5780612b3988826127a5565b845260208401935050602081019050612b26565b5050509392505050565b600082601f830112612b6c57612b6b612a3d565b5b8135612b7c848260208601612aee565b91505092915050565b600067ffffffffffffffff821115612ba057612b9f612a42565b5b602082029050602081019050919050565b612bba81612994565b8114612bc557600080fd5b50565b600081359050612bd781612bb1565b92915050565b6000612bf0612beb84612b85565b612aa2565b90508083825260208201905060208402830185811115612c1357612c12612ae9565b5b835b81811015612c3c5780612c288882612bc8565b845260208401935050602081019050612c15565b5050509392505050565b600082601f830112612c5b57612c5a612a3d565b5b8135612c6b848260208601612bdd565b91505092915050565b60008060408385031215612c8b57612c8a6126bf565b5b600083013567ffffffffffffffff811115612ca957612ca86126c4565b5b612cb585828601612b57565b925050602083013567ffffffffffffffff811115612cd657612cd56126c4565b5b612ce285828601612c46565b9150509250929050565b600080fd5b600067ffffffffffffffff821115612d0c57612d0b612a42565b5b612d1582612836565b9050602081019050919050565b82818337600083830152505050565b6000612d44612d3f84612cf1565b612aa2565b905082815260208101848484011115612d6057612d5f612cec565b5b612d6b848285612d22565b509392505050565b600082601f830112612d8857612d87612a3d565b5b8135612d98848260208601612d31565b91505092915050565b600060208284031215612db757612db66126bf565b5b600082013567ffffffffffffffff811115612dd557612dd46126c4565b5b612de184828501612d73565b91505092915050565b600060208284031215612e0057612dff6126bf565b5b6000612e0e84828501612915565b91505092915050565b612e208161274e565b8114612e2b57600080fd5b50565b600081359050612e3d81612e17565b92915050565b60008060408385031215612e5a57612e596126bf565b5b6000612e6885828601612915565b9250506020612e7985828601612e2e565b9150509250929050565b60008060408385031215612e9a57612e996126bf565b5b6000612ea8858286016127a5565b9250506020612eb985828601612bc8565b9150509250929050565b600067ffffffffffffffff821115612ede57612edd612a42565b5b612ee782612836565b9050602081019050919050565b6000612f07612f0284612ec3565b612aa2565b905082815260208101848484011115612f2357612f22612cec565b5b612f2e848285612d22565b509392505050565b600082601f830112612f4b57612f4a612a3d565b5b8135612f5b848260208601612ef4565b91505092915050565b60008060008060808587031215612f7e57612f7d6126bf565b5b6000612f8c87828801612915565b9450506020612f9d87828801612915565b9350506040612fae878288016127a5565b925050606085013567ffffffffffffffff811115612fcf57612fce6126c4565b5b612fdb87828801612f36565b91505092959194509250565b60008060408385031215612ffe57612ffd6126bf565b5b600061300c85828601612915565b925050602061301d85828601612915565b9150509250929050565b7f4f776e61626c653a2063616c6c6572206973206e6f7420746865206f776e6572600082015250565b600061305d6020836127f2565b915061306882613027565b602082019050919050565b6000602082019050818103600083015261308c81613050565b9050919050565b7f496e73756666696369656e742066756e64730000000000000000000000000000600082015250565b60006130c96012836127f2565b91506130d482613093565b602082019050919050565b600060208201905081810360008301526130f8816130bc565b9050919050565b7f4e487b7100000000000000000000000000000000000000000000000000000000600052602260045260246000fd5b6000600282049050600182168061314657607f821691505b6020821081141561315a576131596130ff565b5b50919050565b7f4552433732313a20617070726f76656420717565727920666f72206e6f6e657860008201527f697374656e7420746f6b656e0000000000000000000000000000000000000000602082015250565b60006131bc602c836127f2565b91506131c782613160565b604082019050919050565b600060208201905081810360008301526131eb816131af565b9050919050565b7f4552433732313a20617070726f76616c20746f2063757272656e74206f776e6560008201527f7200000000000000000000000000000000000000000000000000000000000000602082015250565b600061324e6021836127f2565b9150613259826131f2565b604082019050919050565b6000602082019050818103600083015261327d81613241565b9050919050565b7f4552433732313a20617070726f76652063616c6c6572206973206e6f74206f7760008201527f6e6572206e6f7220617070726f76656420666f7220616c6c0000000000000000602082015250565b60006132e06038836127f2565b91506132eb82613284565b604082019050919050565b6000602082019050818103600083015261330f816132d3565b9050919050565b7f4552433732313a207472616e736665722063616c6c6572206973206e6f74206f60008201527f776e6572206e6f7220617070726f766564000000000000000000000000000000602082015250565b60006133726031836127f2565b915061337d82613316565b604082019050919050565b600060208201905081810360008301526133a181613365565b9050919050565b7f417272617973206f6620696e636f6e73697374656e74206c656e677468000000600082015250565b60006133de601d836127f2565b91506133e9826133a8565b602082019050919050565b6000602082019050818103600083015261340d816133d1565b9050919050565b7f4e487b7100000000000000000000000000000000000000000000000000000000600052603260045260246000fd5b7f4e487b7100000000000000000000000000000000000000000000000000000000600052601160045260246000fd5b600061347d82612784565b91507fffffffffffffffffffffffffffffffffffffffffffffffffffffffffffffffff8214156134b0576134af613443565b5b600182019050919050565b7f4552433732313a206f776e657220717565727920666f72206e6f6e657869737460008201527f656e7420746f6b656e0000000000000000000000000000000000000000000000602082015250565b60006135176029836127f2565b9150613522826134bb565b604082019050919050565b600060208201905081810360008301526135468161350a565b9050919050565b7f506978656c206964206f7574206f662072616e67650000000000000000000000600082015250565b60006135836015836127f2565b915061358e8261354d565b602082019050919050565b600060208201905081810360008301526135b281613576565b9050919050565b7f4552433732313a2062616c616e636520717565727920666f7220746865207a6560008201527f726f206164647265737300000000000000000000000000000000000000000000602082015250565b6000613615602a836127f2565b9150613620826135b9565b604082019050919050565b6000602082019050818103600083015261364481613608565b9050919050565b7f53656e646572206973206e6f7420506978656c206f776e657200000000000000600082015250565b60006136816019836127f2565b915061368c8261364b565b602082019050919050565b600060208201905081810360008301526136b081613674565b9050919050565b60006060820190506136cc60008301866128d4565b6136d960208301856129c0565b6136e6604083018461296a565b949350505050565b7f4552433732314d657461646174613a2055524920717565727920666f72206e6f60008201527f6e6578697374656e7420746f6b656e0000000000000000000000000000000000602082015250565b600061374a602f836127f2565b9150613755826136ee565b604082019050919050565b600060208201905081810360008301526137798161373d565b9050919050565b600081905092915050565b6000613796826127e7565b6137a08185613780565b93506137b0818560208601612803565b80840191505092915050565b60006137c8828561378b565b91506137d4828461378b565b91508190509392505050565b60006137eb82612784565b91506137f683612784565b9250817fffffffffffffffffffffffffffffffffffffffffffffffffffffffffffffffff048311821515161561382f5761382e613443565b5b828202905092915050565b7f4e6f2f20496e73756666696369656e7420666565732070726f76696465640000600082015250565b6000613870601e836127f2565b915061387b8261383a565b602082019050919050565b6000602082019050818103600083015261389f81613863565b9050919050565b7f506978656c20697320616c7265616479206f776e656400000000000000000000600082015250565b60006138dc6016836127f2565b91506138e7826138a6565b602082019050919050565b6000602082019050818103600083015261390b816138cf565b9050919050565b7f506978656c206f7574206f662072616e67650000000000000000000000000000600082015250565b60006139486012836127f2565b915061395382613912565b602082019050919050565b600060208201905081810360008301526139778161393b565b9050919050565b6000604082019050613993600083018561296a565b6139a0602083018461296a565b9392505050565b7f4f776e61626c653a206e6577206f776e657220697320746865207a65726f206160008201527f6464726573730000000000000000000000000000000000000000000000000000602082015250565b6000613a036026836127f2565b9150613a0e826139a7565b604082019050919050565b60006020820190508181036000830152613a32816139f6565b9050919050565b7f4552433732313a206f70657261746f7220717565727920666f72206e6f6e657860008201527f697374656e7420746f6b656e0000000000000000000000000000000000000000602082015250565b6000613a95602c836127f2565b9150613aa082613a39565b604082019050919050565b60006020820190508181036000830152613ac481613a88565b9050919050565b7f4552433732313a207472616e73666572206f6620746f6b656e2074686174206960008201527f73206e6f74206f776e0000000000000000000000000000000000000000000000602082015250565b6000613b276029836127f2565b9150613b3282613acb565b604082019050919050565b60006020820190508181036000830152613b5681613b1a565b9050919050565b7f4552433732313a207472616e7366657220746f20746865207a65726f2061646460008201527f7265737300000000000000000000000000000000000000000000000000000000602082015250565b6000613bb96024836127f2565b9150613bc482613b5d565b604082019050919050565b60006020820190508181036000830152613be881613bac565b9050919050565b6000613bfa82612784565b9150613c0583612784565b925082821015613c1857613c17613443565b5b828203905092915050565b6000613c2e82612784565b9150613c3983612784565b9250827fffffffffffffffffffffffffffffffffffffffffffffffffffffffffffffffff03821115613c6e57613c6d613443565b5b828201905092915050565b7f4552433732313a20617070726f766520746f2063616c6c657200000000000000600082015250565b6000613caf6019836127f2565b9150613cba82613c79565b602082019050919050565b60006020820190508181036000830152613cde81613ca2565b9050919050565b7f4552433732313a207472616e7366657220746f206e6f6e20455243373231526560008201527f63656976657220696d706c656d656e7465720000000000000000000000000000602082015250565b6000613d416032836127f2565b9150613d4c82613ce5565b604082019050919050565b60006020820190508181036000830152613d7081613d34565b9050919050565b7f4e487b7100000000000000000000000000000000000000000000000000000000600052601260045260246000fd5b6000613db182612784565b9150613dbc83612784565b925082613dcc57613dcb613d77565b5b828204905092915050565b6000613de282612784565b9150613ded83612784565b925082613dfd57613dfc613d77565b5b828206905092915050565b600081519050919050565b600082825260208201905092915050565b6000613e2f82613e08565b613e398185613e13565b9350613e49818560208601612803565b613e5281612836565b840191505092915050565b6000608082019050613e7260008301876128d4565b613e7f60208301866128d4565b613e8c604083018561296a565b8181036060830152613e9e8184613e24565b905095945050505050565b600081519050613eb8816126f5565b92915050565b600060208284031215613ed457613ed36126bf565b5b6000613ee284828501613ea9565b91505092915050565b7f4552433732313a206d696e7420746f20746865207a65726f2061646472657373600082015250565b6000613f216020836127f2565b9150613f2c82613eeb565b602082019050919050565b60006020820190508181036000830152613f5081613f14565b9050919050565b7f4552433732313a20746f6b656e20616c7265616479206d696e74656400000000600082015250565b6000613f8d601c836127f2565b9150613f9882613f57565b602082019050919050565b60006020820190508181036000830152613fbc81613f80565b905091905056fea2646970667358221220eb53aebba2a0e27586279e8cad8b9dbe985bbca6e1d59d3e4d9a99c8f0a02a8164736f6c634300080a0033",
  "immutableReferences": {},
  "source": "// SPDX-License-Identifier: MIT\npragma solidity ^0.8.0;\n\nimport \"@openzeppelin/contracts/token/ERC721/ERC721.sol\";\nimport \"@openzeppelin/contracts/access/Ownable.sol\";\n\ncontract Pixels is ERC721, Ownable {\n\n    uint256 public _gridsize = 1000; //will change to 1000 eventually.....l\n    uint256 public _totalPixels = _gridsize * _gridsize;\n    uint256 public _pixelPrice = 400000000000000000; // approx 1usd\n    string private _baseURIextended;\n\n    // bytes3[] public _pixelColours = new bytes3[](_gridsize);\n    mapping(uint256 => bytes3) public _pixelColours;\n    mapping(uint256 => bool) public _pixelOwned;\n\n    event PixelMinted (uint date, address indexed to, uint256 pixelId);\n    event PixelColourChanged ( address owner, bytes3 newColour, uint256 pixelId );\n\n    constructor(string memory baseURI_) ERC721(\"Pixels\", \"PIX\") {\n        _baseURIextended = baseURI_;\n    }\n\n    function setTokenPrice(uint256 _newPrice) external onlyOwner {\n        _pixelPrice = _newPrice;\n    }\n\n    function mint(uint256 _pixelId, bytes3 _newColour) public payable {\n        require(!_pixelOwned[_pixelId], \"Pixel is already owned\");\n        require(_pixelId < _totalPixels, \"Pixel out of range\");\n        require(msg.value >= _pixelPrice, \"No/ Insufficient fees provided\");\n        _pixelOwned[_pixelId] = true;\n        _pixelColours[_pixelId] = _newColour;\n        _safeMint(msg.sender, _pixelId);\n        emit PixelMinted(block.timestamp, msg.sender, _pixelId);\n        emit PixelColourChanged(msg.sender, _newColour, _pixelId);\n    }\n\n    function mint(uint256 _pixelId) external payable {\n        mint(_pixelId, 0x111111);\n    }\n\n    function mintMultiple(uint256[] memory _pixelIds, bytes3[] memory _newColours) public payable {\n        require(msg.value >= _pixelIds.length * _pixelPrice, \"No/ Insufficient fees provided\");\n        require(_pixelIds.length == _newColours.length, \"Arrays of inconsistent length\");\n        for (uint256 i = 0; i < _pixelIds.length; i++) {\n            mint(_pixelIds[i], _newColours[i]);\n        }\n    }\n\n\n    function getBalance() public view returns(uint256){\n        return address(this).balance;\n    }\n\n     function withdrawAmount(uint256 amount) external onlyOwner {\n         require(amount <= getBalance(), \"Insufficient funds\");\n         payable(msg.sender).transfer(amount);\n     }\n\n    //function change pixel colour |||ERC721.ownerOf(tokenId)\n    function changePixelColour(uint256 _pixelId, bytes3 _newColour) public {\n        require(_pixelId < _totalPixels, \"Pixel id out of range\");\n        require(ownerOf(_pixelId) == msg.sender, \"Sender is not Pixel owner\");\n        _pixelColours[_pixelId] = _newColour;\n        emit PixelColourChanged(msg.sender, _newColour, _pixelId);\n    }\n\n    function changePixelColourMultiple(uint256[] memory _pixelIds, bytes3[] memory _newColours) external {\n        require(_pixelIds.length == _newColours.length, \"Arrays of inconsistent length\");\n        for (uint256 i = 0; i < _pixelIds.length; i++) {\n            changePixelColour(_pixelIds[i], _newColours[i]);\n        }\n    }\n\n    function getPixelColour(uint256 _pixelId) public view returns (bytes3) {\n        require(_pixelId < _totalPixels, \"Pixel id out of range\");\n        if(_pixelOwned[_pixelId]) {\n            return _pixelColours[_pixelId];\n        } else {\n            return 0x000001;\n        }\n    }\n\n    function isPixelOwned(uint256 _pixelId) public view returns (bool) {\n        require(_pixelId < _totalPixels, \"Pixel id out of range\");\n        return _pixelOwned[_pixelId];\n    }\n\n    function setBaseURI(string memory baseURI_) external onlyOwner() {\n        _baseURIextended = baseURI_;\n    }\n\n    function _baseURI() internal view virtual override returns (string memory) {\n        return _baseURIextended;\n    }\n}\n",
  "sourcePath": "/Users/max/Desktop/POLYPAINT.IO/sol/contracts/Pixels.sol",
  "compiler": {
    "name": "solc",
    "version": "0.8.10+commit.fc410830.Emscripten.clang"
  },
  "schemaVersion": "3.4.4",
  "updatedAt": "2021-12-29T02:16:55.557Z",
  "networkType": "ethereum",
  "devdoc": {
    "kind": "dev",
    "methods": {
      "approve(address,uint256)": {
        "details": "See {IERC721-approve}."
      },
      "balanceOf(address)": {
        "details": "See {IERC721-balanceOf}."
      },
      "getApproved(uint256)": {
        "details": "See {IERC721-getApproved}."
      },
      "isApprovedForAll(address,address)": {
        "details": "See {IERC721-isApprovedForAll}."
      },
      "name()": {
        "details": "See {IERC721Metadata-name}."
      },
      "owner()": {
        "details": "Returns the address of the current owner."
      },
      "ownerOf(uint256)": {
        "details": "See {IERC721-ownerOf}."
      },
      "renounceOwnership()": {
        "details": "Leaves the contract without owner. It will not be possible to call `onlyOwner` functions anymore. Can only be called by the current owner. NOTE: Renouncing ownership will leave the contract without an owner, thereby removing any functionality that is only available to the owner."
      },
      "safeTransferFrom(address,address,uint256)": {
        "details": "See {IERC721-safeTransferFrom}."
      },
      "safeTransferFrom(address,address,uint256,bytes)": {
        "details": "See {IERC721-safeTransferFrom}."
      },
      "setApprovalForAll(address,bool)": {
        "details": "See {IERC721-setApprovalForAll}."
      },
      "supportsInterface(bytes4)": {
        "details": "See {IERC165-supportsInterface}."
      },
      "symbol()": {
        "details": "See {IERC721Metadata-symbol}."
      },
      "tokenURI(uint256)": {
        "details": "See {IERC721Metadata-tokenURI}."
      },
      "transferFrom(address,address,uint256)": {
        "details": "See {IERC721-transferFrom}."
      },
      "transferOwnership(address)": {
        "details": "Transfers ownership of the contract to a new account (`newOwner`). Can only be called by the current owner."
      }
    },
    "version": 1
  },
  "userdoc": {
    "kind": "user",
    "methods": {},
    "version": 1
  }
}